{
  "contractName": "AbsoluteVote",
  "abi": [
    {
      "constant": true,
      "inputs": [
        {
          "name": "",
          "type": "bytes32"
        }
      ],
      "name": "parameters",
      "outputs": [
        {
          "name": "reputationSystem",
          "type": "address"
        },
        {
          "name": "precReq",
          "type": "uint256"
        },
        {
          "name": "allowOwner",
          "type": "bool"
        }
      ],
      "payable": false,
      "stateMutability": "view",
      "type": "function"
    },
    {
      "constant": true,
      "inputs": [],
      "name": "proposalsCnt",
      "outputs": [
        {
          "name": "",
          "type": "uint256"
        }
      ],
      "payable": false,
      "stateMutability": "view",
      "type": "function"
    },
    {
      "constant": true,
      "inputs": [
        {
          "name": "",
          "type": "bytes32"
        }
      ],
      "name": "proposals",
      "outputs": [
        {
          "name": "owner",
          "type": "address"
        },
        {
          "name": "avatar",
          "type": "address"
        },
        {
          "name": "numOfChoices",
          "type": "uint256"
        },
        {
          "name": "executable",
          "type": "address"
        },
        {
          "name": "paramsHash",
          "type": "bytes32"
        },
        {
          "name": "totalVotes",
          "type": "uint256"
        },
        {
          "name": "open",
          "type": "bool"
        }
      ],
      "payable": false,
      "stateMutability": "view",
      "type": "function"
    },
    {
      "constant": true,
      "inputs": [],
      "name": "MAX_NUM_OF_CHOICES",
      "outputs": [
        {
          "name": "",
          "type": "uint256"
        }
      ],
      "payable": false,
      "stateMutability": "view",
      "type": "function"
    },
    {
      "anonymous": false,
      "inputs": [
        {
          "indexed": true,
          "name": "_proposalId",
          "type": "bytes32"
        },
        {
          "indexed": false,
          "name": "_isOwnerVote",
          "type": "bool"
        }
      ],
      "name": "AVVoteProposal",
      "type": "event"
    },
    {
      "anonymous": false,
      "inputs": [
        {
          "indexed": true,
          "name": "_proposalId",
          "type": "bytes32"
        },
        {
          "indexed": true,
          "name": "_avatar",
          "type": "address"
        },
        {
          "indexed": true,
          "name": "_voter",
          "type": "address"
        },
        {
          "indexed": false,
          "name": "_reputation",
          "type": "uint256"
        }
      ],
      "name": "RefreshReputation",
      "type": "event"
    },
    {
      "anonymous": false,
      "inputs": [
        {
          "indexed": true,
          "name": "_proposalId",
          "type": "bytes32"
        },
        {
          "indexed": true,
          "name": "_avatar",
          "type": "address"
        },
        {
          "indexed": false,
          "name": "_numOfChoices",
          "type": "uint256"
        },
        {
          "indexed": false,
          "name": "_proposer",
          "type": "address"
        },
        {
          "indexed": false,
          "name": "_paramsHash",
          "type": "bytes32"
        }
      ],
      "name": "NewProposal",
      "type": "event"
    },
    {
      "anonymous": false,
      "inputs": [
        {
          "indexed": true,
          "name": "_proposalId",
          "type": "bytes32"
        },
        {
          "indexed": true,
          "name": "_avatar",
          "type": "address"
        },
        {
          "indexed": false,
          "name": "_decision",
          "type": "uint256"
        },
        {
          "indexed": false,
          "name": "_totalReputation",
          "type": "uint256"
        }
      ],
      "name": "ExecuteProposal",
      "type": "event"
    },
    {
      "anonymous": false,
      "inputs": [
        {
          "indexed": true,
          "name": "_proposalId",
          "type": "bytes32"
        },
        {
          "indexed": true,
          "name": "_avatar",
          "type": "address"
        },
        {
          "indexed": true,
          "name": "_voter",
          "type": "address"
        },
        {
          "indexed": false,
          "name": "_vote",
          "type": "uint256"
        },
        {
          "indexed": false,
          "name": "_reputation",
          "type": "uint256"
        }
      ],
      "name": "VoteProposal",
      "type": "event"
    },
    {
      "anonymous": false,
      "inputs": [
        {
          "indexed": true,
          "name": "_proposalId",
          "type": "bytes32"
        },
        {
          "indexed": true,
          "name": "_avatar",
          "type": "address"
        }
      ],
      "name": "CancelProposal",
      "type": "event"
    },
    {
      "anonymous": false,
      "inputs": [
        {
          "indexed": true,
          "name": "_proposalId",
          "type": "bytes32"
        },
        {
          "indexed": true,
          "name": "_avatar",
          "type": "address"
        },
        {
          "indexed": true,
          "name": "_voter",
          "type": "address"
        }
      ],
      "name": "CancelVoting",
      "type": "event"
    },
    {
      "constant": false,
      "inputs": [
        {
          "name": "_numOfChoices",
          "type": "uint256"
        },
        {
          "name": "_paramsHash",
          "type": "bytes32"
        },
        {
          "name": "_avatar",
          "type": "address"
        },
        {
          "name": "_executable",
          "type": "address"
        },
        {
          "name": "",
          "type": "address"
        }
      ],
      "name": "propose",
      "outputs": [
        {
          "name": "",
          "type": "bytes32"
        }
      ],
      "payable": false,
      "stateMutability": "nonpayable",
      "type": "function"
    },
    {
      "constant": false,
      "inputs": [
        {
          "name": "_proposalId",
          "type": "bytes32"
        }
      ],
      "name": "cancelProposal",
      "outputs": [
        {
          "name": "",
          "type": "bool"
        }
      ],
      "payable": false,
      "stateMutability": "nonpayable",
      "type": "function"
    },
    {
      "constant": false,
      "inputs": [
        {
          "name": "_proposalId",
          "type": "bytes32"
        },
        {
          "name": "_vote",
          "type": "uint256"
        }
      ],
      "name": "vote",
      "outputs": [
        {
          "name": "",
          "type": "bool"
        }
      ],
      "payable": false,
      "stateMutability": "nonpayable",
      "type": "function"
    },
    {
      "constant": false,
      "inputs": [
        {
          "name": "_proposalId",
          "type": "bytes32"
        },
        {
          "name": "_vote",
          "type": "uint256"
        },
        {
          "name": "_voter",
          "type": "address"
        }
      ],
      "name": "ownerVote",
      "outputs": [
        {
          "name": "",
          "type": "bool"
        }
      ],
      "payable": false,
      "stateMutability": "nonpayable",
      "type": "function"
    },
    {
      "constant": false,
      "inputs": [
        {
          "name": "_proposalId",
          "type": "bytes32"
        },
        {
          "name": "_vote",
          "type": "uint256"
        },
        {
          "name": "_rep",
          "type": "uint256"
        },
        {
          "name": "",
          "type": "uint256"
        }
      ],
      "name": "voteWithSpecifiedAmounts",
      "outputs": [
        {
          "name": "",
          "type": "bool"
        }
      ],
      "payable": false,
      "stateMutability": "nonpayable",
      "type": "function"
    },
    {
      "constant": false,
      "inputs": [
        {
          "name": "_proposalId",
          "type": "bytes32"
        }
      ],
      "name": "cancelVote",
      "outputs": [],
      "payable": false,
      "stateMutability": "nonpayable",
      "type": "function"
    },
    {
      "constant": true,
      "inputs": [
        {
          "name": "_proposalId",
          "type": "bytes32"
        }
      ],
      "name": "getNumberOfChoices",
      "outputs": [
        {
          "name": "",
          "type": "uint256"
        }
      ],
      "payable": false,
      "stateMutability": "view",
      "type": "function"
    },
    {
      "constant": true,
      "inputs": [
        {
          "name": "_proposalId",
          "type": "bytes32"
        },
        {
          "name": "_voter",
          "type": "address"
        }
      ],
      "name": "voteInfo",
      "outputs": [
        {
          "name": "",
          "type": "uint256"
        },
        {
          "name": "",
          "type": "uint256"
        }
      ],
      "payable": false,
      "stateMutability": "view",
      "type": "function"
    },
    {
      "constant": true,
      "inputs": [
        {
          "name": "_proposalId",
          "type": "bytes32"
        },
        {
          "name": "_choice",
          "type": "uint256"
        }
      ],
      "name": "voteStatus",
      "outputs": [
        {
          "name": "",
          "type": "uint256"
        }
      ],
      "payable": false,
      "stateMutability": "view",
      "type": "function"
    },
    {
      "constant": true,
      "inputs": [
        {
          "name": "_proposalId",
          "type": "bytes32"
        }
      ],
      "name": "isVotable",
      "outputs": [
        {
          "name": "",
          "type": "bool"
        }
      ],
      "payable": false,
      "stateMutability": "view",
      "type": "function"
    },
    {
      "constant": true,
      "inputs": [],
      "name": "isAbstainAllow",
      "outputs": [
        {
          "name": "",
          "type": "bool"
        }
      ],
      "payable": false,
      "stateMutability": "pure",
      "type": "function"
    },
    {
      "constant": false,
      "inputs": [
        {
          "name": "_proposalId",
          "type": "bytes32"
        },
        {
          "name": "_voters",
          "type": "address[]"
        }
      ],
      "name": "refreshReputation",
      "outputs": [
        {
          "name": "",
          "type": "bool"
        }
      ],
      "payable": false,
      "stateMutability": "nonpayable",
      "type": "function"
    },
    {
      "constant": true,
      "inputs": [],
      "name": "getAllowedRangeOfChoices",
      "outputs": [
        {
          "name": "min",
          "type": "uint256"
        },
        {
          "name": "max",
          "type": "uint256"
        }
      ],
      "payable": false,
      "stateMutability": "pure",
      "type": "function"
    },
    {
      "constant": false,
      "inputs": [
        {
          "name": "_proposalId",
          "type": "bytes32"
        }
      ],
      "name": "execute",
      "outputs": [
        {
          "name": "",
          "type": "bool"
        }
      ],
      "payable": false,
      "stateMutability": "nonpayable",
      "type": "function"
    },
    {
      "constant": false,
      "inputs": [
        {
          "name": "_reputationSystem",
          "type": "address"
        },
        {
          "name": "_precReq",
          "type": "uint256"
        },
        {
          "name": "_allowOwner",
          "type": "bool"
        }
      ],
      "name": "setParameters",
      "outputs": [
        {
          "name": "",
          "type": "bytes32"
        }
      ],
      "payable": false,
      "stateMutability": "nonpayable",
      "type": "function"
    },
    {
      "constant": true,
      "inputs": [
        {
          "name": "_reputationSystem",
          "type": "address"
        },
        {
          "name": "_precReq",
          "type": "uint256"
        },
        {
          "name": "_allowOwner",
          "type": "bool"
        }
      ],
      "name": "getParametersHash",
      "outputs": [
        {
          "name": "",
          "type": "bytes32"
        }
      ],
      "payable": false,
      "stateMutability": "pure",
      "type": "function"
    }
  ],
  "bytecode": "0x608060405234801561001057600080fd5b506115be806100206000396000f3006080604052600436106100f85763ffffffff60e060020a6000350416630250680481146100fd57806302a1cdaf1461013f5780630905c9f91461017a578063119ce91b146101ad57806321b4b3dc146101ea57806332ed5b12146101ff578063339e23d11461026157806337376ca81461029c5780635142bc1e146102b457806351d997b2146102c95780636320212b146102de5780638d22651e146103025780639525c0cc146103175780639ef1204c14610331578063a003651d1461034c578063ac5d874514610364578063b451291314610385578063c0835106146103a0578063e751f271146103b8578063fed0d7df146103d0575b600080fd5b34801561010957600080fd5b506101156004356103f9565b60408051600160a060020a0390941684526020840192909252151582820152519081900360600190f35b34801561014b57600080fd5b50610168600160a060020a03600435166024356044351515610427565b60408051918252519081900360200190f35b34801561018657600080fd5b50610168600435602435600160a060020a03604435811690606435811690608435166104f4565b3480156101b957600080fd5b506101d1600435600160a060020a03602435166107d3565b6040805192835260208301919091528051918290030190f35b3480156101f657600080fd5b50610168610826565b34801561020b57600080fd5b5061021760043561082c565b60408051600160a060020a039889168152968816602088015286810195909552929095166060850152608084015260a083019390935291151560c082015290519081900360e00190f35b34801561026d57600080fd5b50610288600435602435600160a060020a036044351661087b565b604080519115158252519081900360200190f35b3480156102a857600080fd5b5061028860043561090e565b3480156102c057600080fd5b506101d16109f4565b3480156102d557600080fd5b506102886109fc565b3480156102ea57600080fd5b50610288600480359060248035908101910135610a01565b34801561030e57600080fd5b50610168610cc2565b34801561032357600080fd5b5061032f600435610cc7565b005b34801561033d57600080fd5b50610288600435602435610cf7565b34801561035857600080fd5b50610168600435610d2e565b34801561037057600080fd5b50610288600435602435604435606435610d43565b34801561039157600080fd5b50610168600435602435610d7b565b3480156103ac57600080fd5b50610288600435610d9c565b3480156103c457600080fd5b50610288600435610db4565b3480156103dc57600080fd5b50610168600160a060020a0360043516602435604435151561105e565b600060208190529081526040902080546001820154600290920154600160a060020a03909116919060ff1683565b604080516c01000000000000000000000000600160a060020a03861602602080830191909152603482018590527f0100000000000000000000000000000000000000000000000000000000000000841515026054830152825160358184030181526055909201928390528151600093918291908401908083835b602083106104c05780518252601f1990920191602091820191016104a1565b5181516020939093036101000a60001901801990911692169190911790526040519201829003909120979650505050505050565b6000806104ff61151f565b600087815260208190526040902054600160a060020a0316151561052257600080fd5b6000881180156105335750600a8811155b151561053e57600080fd5b600254604080516c01000000000000000000000000300260208083019190915260348083019490945282518083039094018452605490910191829052825182918401908083835b602083106105a45780518252601f199092019160209182019101610585565b6001836020036101000a03801982511681845116808217855250505050505090500191505060405180910390209150600260008154809291906001019190505550878160400181815250508681608001906000191690816000191681525050858160200190600160a060020a03169081600160a060020a031681525050848160600190600160a060020a03169081600160a060020a031681525050338160000190600160a060020a03169081600160a060020a03168152505060018160c00190151590811515815250508060016000846000191660001916815260200190815260200160002060008201518160000160006101000a815481600160a060020a030219169083600160a060020a0316021790555060208201518160010160006101000a815481600160a060020a030219169083600160a060020a031602179055506040820151816002015560608201518160030160006101000a815481600160a060020a030219169083600160a060020a031602179055506080820151816004019060001916905560a0820151816005015560c08201518160080160006101000a81548160ff02191690831515021790555090505085600160a060020a031682600019167f75b4ff136cc5de5957574c797de3334eb1c141271922b825eb071e0487ba2c5c8a338b6040518084815260200183600160a060020a0316600160a060020a031681526020018260001916600019168152602001935050505060405180910390a3509695505050505050565b6000806107de61155b565b5050506000918252600160208181526040808520600160a060020a03949094168552600790930181529282902082518084019093528054808452910154919092018190529091565b60025481565b60016020819052600091825260409091208054918101546002820154600383015460048401546005850154600890950154600160a060020a039687169694851695939490921692909160ff1687565b6000838152600160205260408120548490600160a060020a031633146108a057600080fd5b600085815260016020526040902060080154859060ff1615156108c257600080fd5b60008681526001602090815260408083206004015483529082905290206002015460ff1615156108f55760009250610905565b6109028685876000611103565b92505b50509392505050565b60008181526001602052604081205481908390600160a060020a0316331461093557600080fd5b600084815260016020526040902060080154849060ff16151561095757600080fd5b60008581526001602090815260408083206004015483529082905290206002015460ff16151561098a57600093506109ec565b60008581526001602081905260409091200154600160a060020a031692506109b18561136a565b604051600160a060020a0384169086907f2eb3e89618ae3f1716cf6615be7ce4bbafed3578d8bc1de99897063e9db6a9f690600090a3600193505b505050919050565b6001600a9091565b600190565b600080610a0c611572565b505060008481526001602081815260408084206004810154855284835281852082516060810184528154600160a060020a03168152948101549385019390935260029092015460ff161515908301529180805b86831015610cb357600785016000898986818110610a7957fe5b90506020020135600160a060020a0316600160a060020a0316600160a060020a031681526020019081526020016000209150600082600101541115610ca8578351600160a060020a031663db89c044898986818110610ad457fe5b90506020020135600160a060020a03166040518263ffffffff1660e060020a0281526004018082600160a060020a0316600160a060020a03168152602001915050602060405180830381600087803b158015610b2f57600080fd5b505af1158015610b43573d6000803e3d6000fd5b505050506040513d6020811015610b5957600080fd5b50516001830154909150811115610bcb57600182015482546000908152600687016020526040902054610b9391830363ffffffff61140516565b8254600090815260068701602052604090205560018201546005860154610bc191830363ffffffff61140516565b6005860155610c36565b8160010154811015610c3657600182015482546000908152600687016020526040902054610c019183900363ffffffff61141816565b8254600090815260068701602052604090205560018201546005860154610c309183900363ffffffff61141816565b60058601555b60018201548114610ca85760018201819055878784818110610c5457fe5b600188015460408051868152905160209384029590950135600160a060020a0390811695921693508d927f10fd03c28ebd3a225145ef0c415b229b2bb2bf694934d4cca6346ea057e4b9d992918290030190a45b600190920191610a5f565b50600198975050505050505050565b600a81565b600081815260016020526040902060080154819060ff161515610ce957600080fd5b610cf3823361142a565b5050565b600082815260016020526040812060080154839060ff161515610d1957600080fd5b610d268433856000611103565b949350505050565b60009081526001602052604090206002015490565b600084815260016020526040812060080154859060ff161515610d6557600080fd5b610d7186338787611103565b9695505050505050565b60009182526001602090815260408084209284526006909201905290205490565b60009081526001602052604090206008015460ff1690565b600080600080600080610dc561151f565b600088815260016020526040902060080154889060ff161515610de757600080fd5b6000898152600160209081526040808320600481015484529183905290912054909750600160a060020a03169550851515610e2157600080fd5b85600160a060020a03166318160ddd6040518163ffffffff1660e060020a028152600401602060405180830381600087803b158015610e5f57600080fd5b505af1158015610e73573d6000803e3d6000fd5b505050506040513d6020811015610e8957600080fd5b5051600488015460009081526020819052604081206001015491965090945092505b6002870154831161104d5760008381526006880160205260409020546064858702041015611042576040805160e0810182528854600160a060020a03908116825260018a01548116602083015260028a0154928201929092526003890154909116606082015260048801546080820152600588015460a0820152600888015460ff16151560c08201529150610f3f8961136a565b8160200151600160a060020a031689600019167f37471b9c9d295ffb1309ad070b8964700bfb7b555e8e8292d0b6cbc7dba35d108588604051808381526020018281526020019250505060405180910390a36060820151602080840151604080517f310ce4e2000000000000000000000000000000000000000000000000000000008152600481018e9052600160a060020a039283166024820152604481018890529051919093169263310ce4e29260648083019391928290030181600087803b15801561100c57600080fd5b505af1158015611020573d6000803e3d6000fd5b505050506040513d602081101561103657600080fd5b50600198506110529050565b600190920191610eab565b600097505b50505050505050919050565b600080606484111580156110725750600084115b151561107d57600080fd5b611088858585610427565b60408051606081018252600160a060020a0397881681526020808201978852951515818301908152600084815296879052919095209451855473ffffffffffffffffffffffffffffffffffffffff1916971696909617845593516001840155505091516002909201805460ff19169215159290921790915590565b60008061110e611572565b505060008581526001602081815260408084206004810154855284835281852082516060810184528154600160a060020a03168152948101549385019390935260029283015460ff1615159184019190915290810154909290819087111561117557600080fd5b8260000151600160a060020a031663db89c044896040518263ffffffff1660e060020a0281526004018082600160a060020a0316600160a060020a03168152602001915050602060405180830381600087803b1580156111d457600080fd5b505af11580156111e8573d6000803e3d6000fd5b505050506040513d60208110156111fe57600080fd5b505191508582101561120f57600080fd5b508480151561121b5750805b600160a060020a03881660009081526007850160205260409020600101541561124857611248898961142a565b600087815260068501602052604090205461126a90829063ffffffff61140516565b6000888152600686016020526040902055600584015461129190829063ffffffff61140516565b60058501556040805180820182528881526020808201848152600160a060020a03808d16600081815260078b0185528690209451855591516001948501559288015484518c8152928301879052845191949316928d927f066c061a3792cb3eb64a441a928655fcbafb4a54b49725fe9cd2951df5e7189e929081900390910190a460408051600160a060020a038a16331415815290518a917fe715e19c865cb724f3c292cc2fffc24d9cdd398e179fb366f008cc73028e1c52919081900360200190a261135d89610db4565b9998505050505050505050565b6000818152600160205260408120905b6002820154811161139e57600081815260068301602052604081205560010161137a565b505060009081526001602081905260408220805473ffffffffffffffffffffffffffffffffffffffff19908116825591810180548316905560028101839055600381018054909216909155600481018290556005810191909155600801805460ff19169055565b8181018281101561141257fe5b92915050565b60008282111561142457fe5b50900390565b600061143461155b565b50506000828152600160208181526040808420600160a060020a038616855260078101835281852082518084018452815480825291909501548585018190529086526006820190935293205461148f9163ffffffff61141816565b8151600090815260068401602090815260409091209190915581015160058301546114bf9163ffffffff61141816565b6005830155600160a060020a038084166000818152600785016020526040808220828155600190810183905586015490519293169187917f0ecab23267930de581498fac1af19a95c888ec6583921ee9c47473e16245d3c891a450505050565b6040805160e081018252600080825260208201819052918101829052606081018290526080810182905260a0810182905260c081019190915290565b604080518082019091526000808252602082015290565b6040805160608101825260008082526020820181905291810191909152905600a165627a7a72305820fe43efaa2156cfb059f52fb75c4994c4cbf8b7a97a7386dca914819c6b1bd9e20029",
  "source": "pragma solidity ^0.4.24;\r\n\r\nimport \"../controller/Reputation.sol\";\r\nimport \"./IntVoteInterface.sol\";\r\n\r\n\r\ncontract AbsoluteVote is IntVoteInterface {\r\n    using SafeMath for uint;\r\n\r\n\r\n    struct Parameters {\r\n        Reputation reputationSystem; // the reputation system that is being used\r\n        uint precReq; // how many percentages required for the proposal to be passed\r\n        bool allowOwner; // does this proposal has an owner who has owner rights?\r\n    }\r\n\r\n    struct Voter {\r\n        uint vote; // 0 - 'abstain'\r\n        uint reputation; // amount of voter's reputation\r\n    }\r\n\r\n    struct Proposal {\r\n        address owner; // the proposal's owner\r\n        address avatar; // the avatar of the organization that owns the proposal\r\n        uint numOfChoices;\r\n        ExecutableInterface executable; // will be executed if the proposal will pass\r\n        bytes32 paramsHash; // the hash of the parameters of the proposal\r\n        uint totalVotes;\r\n        mapping(uint=>uint) votes;\r\n        mapping(address=>Voter) voters;\r\n        bool open; // voting open flag\r\n    }\r\n\r\n    event AVVoteProposal(bytes32 indexed _proposalId, bool _isOwnerVote);\r\n    event RefreshReputation(bytes32 indexed _proposalId, address indexed _avatar, address indexed _voter,uint _reputation);\r\n\r\n\r\n    mapping(bytes32=>Parameters) public parameters;  // A mapping from hashes to parameters\r\n    mapping(bytes32=>Proposal) public proposals; // Mapping from the ID of the proposal to the proposal itself.\r\n\r\n    uint public constant MAX_NUM_OF_CHOICES = 10;\r\n    uint public proposalsCnt; // Total amount of proposals\r\n\r\n  /**\r\n   * @dev Check that there is owner for the proposal and he sent the transaction\r\n   */\r\n    modifier onlyProposalOwner(bytes32 _proposalId) {\r\n        require(msg.sender == proposals[_proposalId].owner);\r\n        _;\r\n    }\r\n\r\n  /**\r\n   * @dev Check that the proposal is votable (open and not executed yet)\r\n   */\r\n    modifier votable(bytes32 _proposalId) {\r\n        require(proposals[_proposalId].open);\r\n        _;\r\n    }\r\n\r\n    /**\r\n     * @dev register a new proposal with the given parameters. Every proposal has a unique ID which is being\r\n     * generated by calculating keccak256 of a incremented counter.\r\n     * @param _numOfChoices number of voting choices\r\n     * @param _paramsHash defined the parameters of the voting machine used for this proposal\r\n     * @param _avatar an address to be sent as the payload to the _executable contract.\r\n     * @param _executable This contract will be executed when vote is over.\r\n     * @return proposal's id.\r\n     */\r\n    function propose(uint _numOfChoices, bytes32 _paramsHash, address _avatar, ExecutableInterface _executable,address)\r\n        external\r\n        returns(bytes32)\r\n    {\r\n        // Check valid params and number of choices:\r\n        require(parameters[_paramsHash].reputationSystem != address(0));\r\n        require(_numOfChoices > 0 && _numOfChoices <= MAX_NUM_OF_CHOICES);\r\n        // Generate a unique ID:\r\n        bytes32 proposalId = keccak256(abi.encodePacked(this, proposalsCnt));\r\n        proposalsCnt++;\r\n        // Open proposal:\r\n        Proposal memory proposal;\r\n        proposal.numOfChoices = _numOfChoices;\r\n        proposal.paramsHash = _paramsHash;\r\n        proposal.avatar = _avatar;\r\n        proposal.executable = _executable;\r\n        proposal.owner = msg.sender;\r\n        proposal.open = true;\r\n        proposals[proposalId] = proposal;\r\n        emit NewProposal(proposalId, _avatar, _numOfChoices, msg.sender, _paramsHash);\r\n        return proposalId;\r\n    }\r\n\r\n  /**\r\n   * @dev Cancel a proposal, only the owner can call this function and only if allowOwner flag is true.\r\n   * @param _proposalId the proposal ID\r\n   */\r\n    function cancelProposal(bytes32 _proposalId) external onlyProposalOwner(_proposalId) votable(_proposalId) returns(bool) {\r\n        if (! parameters[proposals[_proposalId].paramsHash].allowOwner) {\r\n            return false;\r\n        }\r\n        address avatar = proposals[_proposalId].avatar;\r\n        deleteProposal(_proposalId);\r\n        emit CancelProposal(_proposalId, avatar);\r\n        return true;\r\n    }\r\n\r\n  /**\r\n   * @dev voting function\r\n   * @param _proposalId id of the proposal\r\n   * @param _vote a value between 0 to and the proposal number of choices.\r\n   * @return bool true - the proposal has been executed\r\n   *              false - otherwise.\r\n   */\r\n    function vote(bytes32 _proposalId, uint _vote) external votable(_proposalId) returns(bool) {\r\n        return internalVote(_proposalId, msg.sender, _vote, 0);\r\n    }\r\n\r\n  /**\r\n   * @dev voting function with owner functionality (can vote on behalf of someone else)\r\n   * @param _proposalId id of the proposal\r\n   * @param _vote a value between 0 to and the proposal number of choices.\r\n   * @param _voter will be voted with that voter's address\r\n   * @return bool true - the proposal has been executed\r\n   *              false - otherwise.\r\n   */\r\n    function ownerVote(bytes32 _proposalId, uint _vote, address _voter)\r\n        external\r\n        onlyProposalOwner(_proposalId)\r\n        votable(_proposalId)\r\n        returns(bool)\r\n    {\r\n        if (! parameters[proposals[_proposalId].paramsHash].allowOwner) {\r\n            return false;\r\n        }\r\n        return  internalVote(_proposalId, _voter, _vote, 0);\r\n    }\r\n\r\n    function voteWithSpecifiedAmounts(bytes32 _proposalId,uint _vote,uint _rep,uint) external votable(_proposalId) returns(bool) {\r\n        return internalVote(_proposalId,msg.sender,_vote,_rep);\r\n    }\r\n\r\n  /**\r\n   * @dev Cancel the vote of the msg.sender: subtract the reputation amount from the votes\r\n   * and delete the voter from the proposal struct\r\n   * @param _proposalId id of the proposal\r\n   */\r\n    function cancelVote(bytes32 _proposalId) external votable(_proposalId) {\r\n        cancelVoteInternal(_proposalId, msg.sender);\r\n    }\r\n\r\n  /**\r\n   * @dev getNumberOfChoices returns the number of choices possible in this proposal\r\n   * @param _proposalId the ID of the proposal\r\n   * @return uint that contains number of choices\r\n   */\r\n    function getNumberOfChoices(bytes32 _proposalId) external view returns(uint) {\r\n        return proposals[_proposalId].numOfChoices;\r\n    }\r\n\r\n  /**\r\n   * @dev voteInfo returns the vote and the amount of reputation of the user committed to this proposal\r\n   * @param _proposalId the ID of the proposal\r\n   * @param _voter the address of the voter\r\n   * @return uint vote - the voters vote\r\n   *        uint reputation - amount of reputation committed by _voter to _proposalId\r\n   */\r\n    function voteInfo(bytes32 _proposalId, address _voter) external view returns(uint, uint) {\r\n        Voter memory voter = proposals[_proposalId].voters[_voter];\r\n        return (voter.vote, voter.reputation);\r\n    }\r\n\r\n    /**\r\n     * @dev voteStatus returns the reputation voted for a proposal for a specific voting choice.\r\n     * @param _proposalId the ID of the proposal\r\n     * @param _choice the index in the\r\n     * @return voted reputation for the given choice\r\n     */\r\n    function voteStatus(bytes32 _proposalId,uint _choice) external view returns(uint) {\r\n        return proposals[_proposalId].votes[_choice];\r\n    }\r\n\r\n    /**\r\n      * @dev isVotable check if the proposal is votable\r\n      * @param _proposalId the ID of the proposal\r\n      * @return bool true or false\r\n    */\r\n    function isVotable(bytes32 _proposalId) external view returns(bool) {\r\n        return  proposals[_proposalId].open;\r\n    }\r\n\r\n    /**\r\n     * @dev isAbstainAllow returns if the voting machine allow abstain (0)\r\n     * @return bool true or false\r\n     */\r\n    function isAbstainAllow() external pure returns(bool) {\r\n        return true;\r\n    }\r\n\r\n    /**\r\n     * @dev refreshReputation refresh the reputation for a given voters list\r\n     * @param _proposalId the ID of the proposal\r\n     * @param _voters list to be refreshed\r\n     * @return bool true or false\r\n     */\r\n    function refreshReputation(bytes32 _proposalId, address[] _voters) external returns(bool) {\r\n        Proposal storage proposal = proposals[_proposalId];\r\n        Parameters memory params = parameters[proposal.paramsHash];\r\n\r\n        for (uint i = 0; i < _voters.length; i++) {\r\n            Voter storage voter = proposal.voters[_voters[i]];\r\n             //check that the voters already votes.\r\n            if (voter.reputation > 0) {\r\n                //update only if there is a mismatch between the voter's system reputation\r\n                //and the reputation stored in the voting machine for the voter.\r\n                uint rep = params.reputationSystem.reputationOf(_voters[i]);\r\n                if (rep > voter.reputation) {\r\n                    proposal.votes[voter.vote] = proposal.votes[voter.vote].add(rep - voter.reputation);\r\n                    proposal.totalVotes = (proposal.totalVotes).add(rep - voter.reputation);\r\n                  } else if (rep < voter.reputation) {\r\n                    proposal.votes[voter.vote] = proposal.votes[voter.vote].sub(voter.reputation - rep);\r\n                    proposal.totalVotes = (proposal.totalVotes).sub(voter.reputation - rep);\r\n                  }\r\n                if (rep != voter.reputation) {\r\n                    voter.reputation = rep;\r\n                    emit RefreshReputation(_proposalId, proposal.avatar, _voters[i],rep);\r\n                }\r\n             }\r\n        }\r\n        return true;\r\n    }\r\n\r\n    /**\r\n     * @dev getAllowedRangeOfChoices returns the allowed range of choices for a voting machine.\r\n     * @return min - minimum number of choices\r\n               max - maximum number of choices\r\n     */\r\n    function getAllowedRangeOfChoices() external pure returns(uint min,uint max) {\r\n        return (1,MAX_NUM_OF_CHOICES);\r\n    }\r\n\r\n    /**\r\n      * @dev execute check if the proposal has been decided, and if so, execute the proposal\r\n      * @param _proposalId the id of the proposal\r\n      * @return bool true - the proposal has been executed\r\n      *              false - otherwise.\r\n     */\r\n    function execute(bytes32 _proposalId) public votable(_proposalId) returns(bool) {\r\n        Proposal storage proposal = proposals[_proposalId];\r\n        Reputation reputation = parameters[proposal.paramsHash].reputationSystem;\r\n        require(reputation != address(0));\r\n        uint totalReputation = reputation.totalSupply();\r\n        uint precReq = parameters[proposal.paramsHash].precReq;\r\n        // Check if someone crossed the bar:\r\n        for (uint cnt = 0; cnt <= proposal.numOfChoices; cnt++) {\r\n            if (proposal.votes[cnt] > totalReputation*precReq/100) {\r\n                Proposal memory tmpProposal = proposal;\r\n                deleteProposal(_proposalId);\r\n                emit ExecuteProposal(_proposalId, tmpProposal.avatar, cnt, totalReputation);\r\n                (tmpProposal.executable).execute(_proposalId, tmpProposal.avatar, int(cnt));\r\n                return true;\r\n            }\r\n        }\r\n        return false;\r\n    }\r\n\r\n    /**\r\n     * @dev hash the parameters, save them if necessary, and return the hash value\r\n    */\r\n    function setParameters(Reputation _reputationSystem, uint _precReq, bool _allowOwner) public returns(bytes32) {\r\n        require(_precReq <= 100 && _precReq > 0);\r\n        bytes32 hashedParameters = getParametersHash(_reputationSystem, _precReq, _allowOwner);\r\n        parameters[hashedParameters] = Parameters({\r\n            reputationSystem: _reputationSystem,\r\n            precReq: _precReq,\r\n            allowOwner: _allowOwner\r\n        });\r\n        return hashedParameters;\r\n    }\r\n\r\n    /**\r\n     * @dev hashParameters returns a hash of the given parameters\r\n     */\r\n    function getParametersHash(Reputation _reputationSystem, uint _precReq, bool _allowOwner) public pure returns(bytes32) {\r\n        return keccak256(abi.encodePacked(_reputationSystem, _precReq, _allowOwner));\r\n    }\r\n\r\n    function cancelVoteInternal(bytes32 _proposalId, address _voter) internal {\r\n        Proposal storage proposal = proposals[_proposalId];\r\n        Voter memory voter = proposal.voters[_voter];\r\n        proposal.votes[voter.vote] = (proposal.votes[voter.vote]).sub(voter.reputation);\r\n        proposal.totalVotes = (proposal.totalVotes).sub(voter.reputation);\r\n        delete proposal.voters[_voter];\r\n        emit CancelVoting(_proposalId, proposal.avatar, _voter);\r\n    }\r\n\r\n    function deleteProposal(bytes32 _proposalId) internal {\r\n        Proposal storage proposal = proposals[_proposalId];\r\n        for (uint cnt = 0; cnt <= proposal.numOfChoices; cnt++) {\r\n            delete proposal.votes[cnt];\r\n        }\r\n        delete proposals[_proposalId];\r\n    }\r\n\r\n    /**\r\n     * @dev Vote for a proposal, if the voter already voted, cancel the last vote and set a new one instead\r\n     * @param _proposalId id of the proposal\r\n     * @param _voter used in case the vote is cast for someone else\r\n     * @param _vote a value between 0 to and the proposal's number of choices.\r\n     * @return true in case of proposal execution otherwise false\r\n     * throws if proposal is not open or if it has been executed\r\n     * NB: executes the proposal if a decision has been reached\r\n     */\r\n    function internalVote(bytes32 _proposalId, address _voter, uint _vote, uint _rep) private returns(bool) {\r\n        Proposal storage proposal = proposals[_proposalId];\r\n        Parameters memory params = parameters[proposal.paramsHash];\r\n        // Check valid vote:\r\n        require(_vote <= proposal.numOfChoices);\r\n        // Check voter has enough reputation:\r\n        uint reputation = params.reputationSystem.reputationOf(_voter);\r\n        require(reputation >= _rep);\r\n        uint rep = _rep;\r\n        if (rep == 0) {\r\n            rep = reputation;\r\n        }\r\n        // If this voter has already voted, first cancel the vote:\r\n        if (proposal.voters[_voter].reputation != 0) {\r\n            cancelVoteInternal(_proposalId, _voter);\r\n        }\r\n        // The voting itself:\r\n        proposal.votes[_vote] = rep.add(proposal.votes[_vote]);\r\n        proposal.totalVotes = rep.add(proposal.totalVotes);\r\n        proposal.voters[_voter] = Voter({\r\n            reputation: rep,\r\n            vote: _vote\r\n        });\r\n        // Event:\r\n        emit VoteProposal(_proposalId, proposal.avatar, _voter, _vote, reputation);\r\n        emit AVVoteProposal(_proposalId, (_voter != msg.sender));\r\n        // execute the proposal if this vote was decisive:\r\n        return execute(_proposalId);\r\n    }\r\n}\r\n",
  "sourcePath": "C:\\users\\dkent\\documents\\projects\\github\\daostack\\arc\\contracts\\VotingMachines\\AbsoluteVote.sol",
  "compiler": {
    "name": "solc",
    "version": "0.4.24+commit.e67f0147.Emscripten.clang"
  },
  "schemaVersion": "2.0.0",
  "updatedAt": "2018-07-21T19:59:28.202Z"
}