{
  "contractName": "ActionMock",
  "abi": [
    {
      "constant": true,
      "inputs": [
        {
          "name": "_a",
          "type": "uint256"
        },
        {
          "name": "_b",
          "type": "address"
        },
        {
          "name": "_c",
          "type": "bytes32"
        }
      ],
      "name": "test",
      "outputs": [
        {
          "name": "",
          "type": "uint256"
        }
      ],
      "payable": false,
      "stateMutability": "view",
      "type": "function"
    },
    {
      "constant": true,
      "inputs": [
        {
          "name": "_addr",
          "type": "address"
        }
      ],
      "name": "test2",
      "outputs": [
        {
          "name": "",
          "type": "bool"
        }
      ],
      "payable": false,
      "stateMutability": "view",
      "type": "function"
    }
  ],
  "bytecode": "0x608060405234801561001057600080fd5b5061021e806100206000396000f30060806040526004361061004b5763ffffffff7c0100000000000000000000000000000000000000000000000000000000600035041663b11bead48114610050578063f3e8dcd014610092575b600080fd5b34801561005c57600080fd5b5061007e73ffffffffffffffffffffffffffffffffffffffff600435166100d8565b604080519115158252519081900360200190f35b34801561009e57600080fd5b506100c660043573ffffffffffffffffffffffffffffffffffffffff6024351660443561018c565b60408051918252519081900360200190f35b60003373ffffffffffffffffffffffffffffffffffffffff83161461018457604080517f08c379a000000000000000000000000000000000000000000000000000000000815260206004820152602160248201527f7468652063616c6c6572206d75737420626520657175616c20746f205f61646460448201527f7200000000000000000000000000000000000000000000000000000000000000606482015290519081900360840190fd5b506001919050565b60006007841461019b57600080fd5b73ffffffffffffffffffffffffffffffffffffffff831630146101bd57600080fd5b7f123400000000000000000000000000000000000000000000000000000000000082146101e957600080fd5b505050600202905600a165627a7a72305820cb72c5288c624935e2c6f15686c2ac0185d682c8c3537683721449e73eb631f10029",
  "source": "pragma solidity ^0.4.24;\r\n\r\nimport \"../controller/Avatar.sol\";\r\n\r\n\r\ncontract ActionMock {\r\n\r\n    function test(uint _a,address _b,bytes32 _c) public view returns(uint) {\r\n        require(_a == 7);\r\n        require(_b == address(this));\r\n        require(_c == 0x1234000000000000000000000000000000000000000000000000000000000000);\r\n        return _a*2;\r\n    }\r\n\r\n    function test2(address _addr) public view returns(bool) {\r\n        require(msg.sender == _addr,\"the caller must be equal to _addr\");\r\n        return true;\r\n    }\r\n\r\n}\r\n",
  "sourcePath": "C:\\users\\dkent\\documents\\projects\\github\\daostack\\arc\\contracts\\test\\ActionMock.sol",
  "compiler": {
    "name": "solc",
    "version": "0.4.24+commit.e67f0147.Emscripten.clang"
  },
  "schemaVersion": "2.0.0",
  "updatedAt": "2018-07-21T19:08:34.368Z"
}