{
  "contractName": "Auction4Reputation",
  "abi": [
    {
      "constant": true,
      "inputs": [],
      "name": "auctionPeriod",
      "outputs": [
        {
          "name": "",
          "type": "uint256"
        }
      ],
      "payable": false,
      "stateMutability": "view",
      "type": "function"
    },
    {
      "constant": true,
      "inputs": [],
      "name": "auctionReputationReward",
      "outputs": [
        {
          "name": "",
          "type": "uint256"
        }
      ],
      "payable": false,
      "stateMutability": "view",
      "type": "function"
    },
    {
      "constant": true,
      "inputs": [],
      "name": "numberOfAuctions",
      "outputs": [
        {
          "name": "",
          "type": "uint256"
        }
      ],
      "payable": false,
      "stateMutability": "view",
      "type": "function"
    },
    {
      "constant": true,
      "inputs": [],
      "name": "wallet",
      "outputs": [
        {
          "name": "",
          "type": "address"
        }
      ],
      "payable": false,
      "stateMutability": "view",
      "type": "function"
    },
    {
      "constant": true,
      "inputs": [],
      "name": "auctionsEndTime",
      "outputs": [
        {
          "name": "",
          "type": "uint256"
        }
      ],
      "payable": false,
      "stateMutability": "view",
      "type": "function"
    },
    {
      "constant": true,
      "inputs": [
        {
          "name": "",
          "type": "uint256"
        }
      ],
      "name": "auctions",
      "outputs": [
        {
          "name": "totalBid",
          "type": "uint256"
        }
      ],
      "payable": false,
      "stateMutability": "view",
      "type": "function"
    },
    {
      "constant": true,
      "inputs": [],
      "name": "avatar",
      "outputs": [
        {
          "name": "",
          "type": "address"
        }
      ],
      "payable": false,
      "stateMutability": "view",
      "type": "function"
    },
    {
      "constant": true,
      "inputs": [],
      "name": "auctionsStartTime",
      "outputs": [
        {
          "name": "",
          "type": "uint256"
        }
      ],
      "payable": false,
      "stateMutability": "view",
      "type": "function"
    },
    {
      "constant": true,
      "inputs": [],
      "name": "reputationRewardLeft",
      "outputs": [
        {
          "name": "",
          "type": "uint256"
        }
      ],
      "payable": false,
      "stateMutability": "view",
      "type": "function"
    },
    {
      "constant": true,
      "inputs": [],
      "name": "reputationReward",
      "outputs": [
        {
          "name": "",
          "type": "uint256"
        }
      ],
      "payable": false,
      "stateMutability": "view",
      "type": "function"
    },
    {
      "constant": true,
      "inputs": [],
      "name": "token",
      "outputs": [
        {
          "name": "",
          "type": "address"
        }
      ],
      "payable": false,
      "stateMutability": "view",
      "type": "function"
    },
    {
      "inputs": [
        {
          "name": "_avatar",
          "type": "address"
        },
        {
          "name": "_reputationReward",
          "type": "uint256"
        },
        {
          "name": "_auctionsStartTime",
          "type": "uint256"
        },
        {
          "name": "_auctionsEndTime",
          "type": "uint256"
        },
        {
          "name": "_numberOfAuctions",
          "type": "uint256"
        },
        {
          "name": "_token",
          "type": "address"
        },
        {
          "name": "_wallet",
          "type": "address"
        }
      ],
      "payable": false,
      "stateMutability": "nonpayable",
      "type": "constructor"
    },
    {
      "anonymous": false,
      "inputs": [
        {
          "indexed": true,
          "name": "_auctionId",
          "type": "uint256"
        },
        {
          "indexed": false,
          "name": "_amount",
          "type": "uint256"
        },
        {
          "indexed": false,
          "name": "_bidder",
          "type": "address"
        }
      ],
      "name": "Bid",
      "type": "event"
    },
    {
      "anonymous": false,
      "inputs": [
        {
          "indexed": true,
          "name": "_auctionId",
          "type": "uint256"
        },
        {
          "indexed": true,
          "name": "_beneficiary",
          "type": "address"
        },
        {
          "indexed": false,
          "name": "_amount",
          "type": "uint256"
        }
      ],
      "name": "Redeem",
      "type": "event"
    },
    {
      "constant": false,
      "inputs": [
        {
          "name": "_beneficiary",
          "type": "address"
        },
        {
          "name": "_auctionId",
          "type": "uint256"
        }
      ],
      "name": "redeem",
      "outputs": [
        {
          "name": "",
          "type": "bool"
        }
      ],
      "payable": false,
      "stateMutability": "nonpayable",
      "type": "function"
    },
    {
      "constant": false,
      "inputs": [
        {
          "name": "_amount",
          "type": "uint256"
        }
      ],
      "name": "bid",
      "outputs": [
        {
          "name": "auctionId",
          "type": "uint256"
        }
      ],
      "payable": false,
      "stateMutability": "nonpayable",
      "type": "function"
    },
    {
      "constant": true,
      "inputs": [
        {
          "name": "_bidder",
          "type": "address"
        },
        {
          "name": "_auctionId",
          "type": "uint256"
        }
      ],
      "name": "getBid",
      "outputs": [
        {
          "name": "",
          "type": "uint256"
        }
      ],
      "payable": false,
      "stateMutability": "view",
      "type": "function"
    }
  ],
  "bytecode": "0x608060405234801561001057600080fd5b5060405160e080610b7b83398101604090815281516020830151918301516060840151608085015160a086015160c090960151939592939192909161007983610066868864010000000061098061015f82021704565b906401000000006109a561017182021704565b60088190556000106100ec57604080517f08c379a000000000000000000000000000000000000000000000000000000000815260206004820152601b60248201527f61756374696f6e506572696f642073686f756c64206265203e20300000000000604482015290519081900360640190fd5b60098054600160a060020a03808516600160a060020a031992831617909255600180548a84169083161790556002889055600587905560048690556006859055600a805492841692909116919091179055828681151561014857fe5b046007555050600254600355506101869350505050565b60008282111561016b57fe5b50900390565b6000818381151561017e57fe5b049392505050565b6109e6806101956000396000f3006080604052600436106100cf5763ffffffff7c01000000000000000000000000000000000000000000000000000000006000350416630cccfc5881146100d457806311c4dbf4146100fb57806316ab2b03146101105780631e9a695014610134578063454a2ab31461016c57806350d9d47214610184578063521eb2731461019957806356e49287146101ca578063571a26a0146101df5780635aef7de6146101f75780639abc03d21461020c578063afe0e33c14610221578063ed1ff6d814610236578063fc0c546a1461024b575b600080fd5b3480156100e057600080fd5b506100e9610260565b60408051918252519081900360200190f35b34801561010757600080fd5b506100e9610266565b34801561011c57600080fd5b506100e9600160a060020a036004351660243561026c565b34801561014057600080fd5b50610158600160a060020a0360043516602435610295565b604080519115158252519081900360200190f35b34801561017857600080fd5b506100e96004356105d8565b34801561019057600080fd5b506100e96108df565b3480156101a557600080fd5b506101ae6108e5565b60408051600160a060020a039092168252519081900360200190f35b3480156101d657600080fd5b506100e96108f4565b3480156101eb57600080fd5b506100e96004356108fa565b34801561020357600080fd5b506101ae61090c565b34801561021857600080fd5b506100e961091b565b34801561022d57600080fd5b506100e9610921565b34801561024257600080fd5b506100e9610927565b34801561025757600080fd5b506101ae61092d565b60085481565b60075481565b600090815260208181526040808320600160a060020a0394909416835260019093019052205490565b600080600080600060045442101515156102f9576040805160e560020a62461bcd02815260206004820152601e60248201527f636865636b207468652061756374696f6e7320706572696f6420706173730000604482015290519081900360640190fd5b600086815260208181526040808320600160a060020a038b1684526001810190925282205490955093508311610379576040805160e560020a62461bcd02815260206004820152601c60248201527f62696464696e6720616d6f756e742073686f756c64206265203e203000000000604482015290519081900360640190fd5b600160a060020a03871660009081526001850160205260408120556007546103bf906103a790601a0b61093c565b6103b385601a0b61093c565b9063ffffffff61094a16565b91506103e96103e46103d78660000154601a0b61093c565b849063ffffffff61095716565b610974565b601a0b90506104038160035461098090919063ffffffff16565b600355600154604080517f8da5cb5b0000000000000000000000000000000000000000000000000000000081529051600160a060020a0390921691638da5cb5b916004808201926020929091908290030181600087803b15801561046657600080fd5b505af115801561047a573d6000803e3d6000fd5b505050506040513d602081101561049057600080fd5b5051600154604080517feaf994b200000000000000000000000000000000000000000000000000000000815260048101859052600160a060020a038b8116602483015292831660448201529051919092169163eaf994b29160648083019260209291908290030181600087803b15801561050957600080fd5b505af115801561051d573d6000803e3d6000fd5b505050506040513d602081101561053357600080fd5b5051151561058b576040805160e560020a62461bcd02815260206004820152601e60248201527f6d696e742072657075746174696f6e2073686f756c6420737563636573730000604482015290519081900360640190fd5b604080518281529051600160a060020a0389169188917f1069ba7d3dd3d969eada9a014b1e1a8e2ab1ef7f38989db8ce98e698ac844f659181900360200190a35060019695505050505050565b600080808311610632576040805160e560020a62461bcd02815260206004820152601c60248201527f62696464696e6720616d6f756e742073686f756c64206265203e203000000000604482015290519081900360640190fd5b6004544211156106b2576040805160e560020a62461bcd02815260206004820152603360248201527f62696464696e672073686f756c642062652077697468696e2074686520616c6c60448201527f6f7765642062696464696e6720706572696f6400000000000000000000000000606482015290519081900360840190fd5b600554421015610732576040805160e560020a62461bcd02815260206004820152603660248201527f62696464696e6720697320656e61626c65206f6e6c792061667465722062696460448201527f64696e672061756374696f6e73537461727454696d6500000000000000000000606482015290519081900360840190fd5b600954600a54604080517f23b872dd000000000000000000000000000000000000000000000000000000008152336004820152600160a060020a03928316602482015260448101879052905191909216916323b872dd9160648083019260209291908290030181600087803b1580156107aa57600080fd5b505af11580156107be573d6000803e3d6000fd5b505050506040513d60208110156107d457600080fd5b5051151561082c576040805160e560020a62461bcd02815260206004820152601b60248201527f7472616e7366657246726f6d2073686f756c6420737563636573730000000000604482015290519081900360640190fd5b600854600554420381151561083d57fe5b04600081815260208190526040902080549193509150610863908463ffffffff61099216565b8155336000908152600182016020526040902054610887908463ffffffff61099216565b33600081815260018401602090815260409182902093909355805186815292830191909152805184927ffd7cfbd219ff1e7365436fb2930a026fa6704a1e0bb39ad104f0485c8c01124d92908290030190a250919050565b60065481565b600a54600160a060020a031681565b60045481565b60006020819052908152604090205481565b600154600160a060020a031681565b60055481565b60035481565b60025481565b600954600160a060020a031681565b601a0b650100000000000290565b6501000000000091020590565b60008165010000000000840281151561096c57fe5b059392505050565b65010000000000900590565b60008282111561098c57fe5b50900390565b8181018281101561099f57fe5b92915050565b600081838115156109b257fe5b0493925050505600a165627a7a72305820c98437b6c6660516f6af288b467a15efade8396bdd2aa02521cb968f8508146f0029",
  "source": "pragma solidity ^0.4.24;\r\n\r\nimport \"openzeppelin-solidity/contracts/math/SafeMath.sol\";\r\nimport { RealMath } from \"../libs/RealMath.sol\";\r\nimport \"../controller/ControllerInterface.sol\";\r\n\r\n/**\r\n * @title A scheme for conduct ERC20 Tokens auction for reputation\r\n */\r\n\r\n\r\ncontract Auction4Reputation {\r\n    using SafeMath for uint;\r\n    using RealMath for int216;\r\n    using RealMath for int256;\r\n\r\n    event Bid(uint indexed _auctionId, uint _amount, address _bidder);\r\n    event Redeem(uint indexed _auctionId, address indexed _beneficiary, uint _amount);\r\n\r\n    struct Auction {\r\n        uint totalBid;\r\n        // A mapping from bidder addresses to their bids.\r\n        mapping(address=>uint) bids;\r\n    }\r\n\r\n    // A mapping from auction index to auction.\r\n    mapping(uint=>Auction) public auctions;\r\n\r\n    Avatar public avatar;\r\n    uint public reputationReward;\r\n    uint public reputationRewardLeft;\r\n    uint public auctionsEndTime;\r\n    uint public auctionsStartTime;\r\n    uint public numberOfAuctions;\r\n    uint public auctionReputationReward;\r\n    uint public auctionPeriod;\r\n    StandardToken public token;\r\n    address public wallet;\r\n\r\n    /**\r\n     * @dev constructor\r\n     * @param _avatar the avatar to mint reputation from\r\n     * @param _reputationReward the total reputation this contract will reward\r\n     *        for the token locking\r\n     * @param _auctionsStartTime auctions period start time\r\n     * @param _auctionsEndTime auctions period end time.\r\n     *        redeem reputation can be done after this period.\r\n     *        bidding is disable after this time.\r\n     * @param _numberOfAuctions number of auctions.\r\n     * @param _token the bidding token\r\n     */\r\n    constructor(Avatar _avatar,\r\n                 uint _reputationReward,\r\n                 uint _auctionsStartTime,\r\n                 uint _auctionsEndTime,\r\n                 uint _numberOfAuctions,\r\n                 StandardToken _token,\r\n                 address _wallet)\r\n    public\r\n    {\r\n        //number of auctions cannot be zero\r\n        //auctionsEndTime should be greater than auctionsStartTime\r\n        auctionPeriod = (_auctionsEndTime.sub(_auctionsStartTime)).div(_numberOfAuctions);\r\n        require(auctionPeriod > 0,\"auctionPeriod should be > 0\");\r\n        token = _token;\r\n        avatar = _avatar;\r\n        reputationReward = _reputationReward;\r\n        auctionsStartTime = _auctionsStartTime;\r\n        auctionsEndTime = _auctionsEndTime;\r\n        numberOfAuctions = _numberOfAuctions;\r\n        wallet = _wallet;\r\n        auctionReputationReward = reputationReward/numberOfAuctions;\r\n        reputationRewardLeft = reputationReward;\r\n    }\r\n\r\n    /**\r\n     * @dev redeem reputation function\r\n     * @param _beneficiary the beneficiary to redeem.\r\n     * @param _auctionId the auction id to redeem from.\r\n     * @return bool\r\n     */\r\n    function redeem(address _beneficiary,uint _auctionId) public returns(bool) {\r\n        // solium-disable-next-line security/no-block-members\r\n        require(now >= auctionsEndTime,\"check the auctions period pass\");\r\n        Auction storage auction = auctions[_auctionId];\r\n        uint bid = auction.bids[_beneficiary];\r\n        require(bid > 0,\"bidding amount should be > 0\");\r\n        auction.bids[_beneficiary] = 0;\r\n        int256 repRelation = int216(bid).toReal().mul(int216(auctionReputationReward).toReal());\r\n        uint reputation = uint256(repRelation.div(int216(auction.totalBid).toReal()).fromReal());\r\n        //check that the reputation is sum zero\r\n        reputationRewardLeft = reputationRewardLeft.sub(reputation);\r\n        require(ControllerInterface(avatar.owner()).mintReputation(reputation, _beneficiary, avatar),\"mint reputation should success\");\r\n        emit Redeem(_auctionId, _beneficiary, reputation);\r\n        return true;\r\n    }\r\n\r\n    /**\r\n     * @dev bid function\r\n     * @param _amount the amount to bid with\r\n     * @return auctionId\r\n     */\r\n    function bid(uint _amount) public returns(uint auctionId) {\r\n        require(_amount > 0,\"bidding amount should be > 0\");\r\n        // solium-disable-next-line security/no-block-members\r\n        require(now <= auctionsEndTime,\"bidding should be within the allowed bidding period\");\r\n        // solium-disable-next-line security/no-block-members\r\n        require(now >= auctionsStartTime,\"bidding is enable only after bidding auctionsStartTime\");\r\n        require(token.transferFrom(msg.sender, wallet, _amount),\"transferFrom should success\");\r\n        // solium-disable-next-line security/no-block-members\r\n        auctionId = (now - auctionsStartTime)/auctionPeriod;\r\n        Auction storage auction = auctions[auctionId];\r\n        auction.totalBid = auction.totalBid.add(_amount);\r\n        auction.bids[msg.sender] = auction.bids[msg.sender].add(_amount);\r\n        emit Bid(auctionId, _amount, msg.sender);\r\n    }\r\n\r\n    /**\r\n     * @dev getBid get bid for specific bidder and _auctionId\r\n     * @param _bidder the bidder\r\n     * @param _auctionId auction id\r\n     * @return uint\r\n     */\r\n    function getBid(address _bidder,uint _auctionId) public view returns(uint) {\r\n        return auctions[_auctionId].bids[_bidder];\r\n    }\r\n\r\n}\r\n",
  "sourcePath": "C:\\users\\dkent\\documents\\projects\\github\\daostack\\arc\\contracts\\schemes\\Auction4Reputation.sol",
  "compiler": {
    "name": "solc",
    "version": "0.4.24+commit.e67f0147.Emscripten.clang"
  },
  "schemaVersion": "2.0.0",
  "updatedAt": "2018-07-21T19:08:34.362Z"
}