{
  "contractName": "Avatar",
  "abi": [
    {
      "constant": true,
      "inputs": [],
      "name": "orgName",
      "outputs": [
        {
          "name": "",
          "type": "bytes32"
        }
      ],
      "payable": false,
      "stateMutability": "view",
      "type": "function"
    },
    {
      "constant": false,
      "inputs": [],
      "name": "renounceOwnership",
      "outputs": [],
      "payable": false,
      "stateMutability": "nonpayable",
      "type": "function"
    },
    {
      "constant": true,
      "inputs": [],
      "name": "nativeReputation",
      "outputs": [
        {
          "name": "",
          "type": "address"
        }
      ],
      "payable": false,
      "stateMutability": "view",
      "type": "function"
    },
    {
      "constant": true,
      "inputs": [],
      "name": "owner",
      "outputs": [
        {
          "name": "",
          "type": "address"
        }
      ],
      "payable": false,
      "stateMutability": "view",
      "type": "function"
    },
    {
      "constant": true,
      "inputs": [],
      "name": "nativeToken",
      "outputs": [
        {
          "name": "",
          "type": "address"
        }
      ],
      "payable": false,
      "stateMutability": "view",
      "type": "function"
    },
    {
      "constant": false,
      "inputs": [
        {
          "name": "_newOwner",
          "type": "address"
        }
      ],
      "name": "transferOwnership",
      "outputs": [],
      "payable": false,
      "stateMutability": "nonpayable",
      "type": "function"
    },
    {
      "inputs": [
        {
          "name": "_orgName",
          "type": "bytes32"
        },
        {
          "name": "_nativeToken",
          "type": "address"
        },
        {
          "name": "_nativeReputation",
          "type": "address"
        }
      ],
      "payable": false,
      "stateMutability": "nonpayable",
      "type": "constructor"
    },
    {
      "payable": true,
      "stateMutability": "payable",
      "type": "fallback"
    },
    {
      "anonymous": false,
      "inputs": [
        {
          "indexed": true,
          "name": "_action",
          "type": "address"
        },
        {
          "indexed": false,
          "name": "_params",
          "type": "bytes32[]"
        }
      ],
      "name": "GenericAction",
      "type": "event"
    },
    {
      "anonymous": false,
      "inputs": [
        {
          "indexed": false,
          "name": "_amountInWei",
          "type": "uint256"
        },
        {
          "indexed": true,
          "name": "_to",
          "type": "address"
        }
      ],
      "name": "SendEther",
      "type": "event"
    },
    {
      "anonymous": false,
      "inputs": [
        {
          "indexed": true,
          "name": "_externalToken",
          "type": "address"
        },
        {
          "indexed": true,
          "name": "_to",
          "type": "address"
        },
        {
          "indexed": false,
          "name": "_value",
          "type": "uint256"
        }
      ],
      "name": "ExternalTokenTransfer",
      "type": "event"
    },
    {
      "anonymous": false,
      "inputs": [
        {
          "indexed": true,
          "name": "_externalToken",
          "type": "address"
        },
        {
          "indexed": false,
          "name": "_from",
          "type": "address"
        },
        {
          "indexed": false,
          "name": "_to",
          "type": "address"
        },
        {
          "indexed": false,
          "name": "_value",
          "type": "uint256"
        }
      ],
      "name": "ExternalTokenTransferFrom",
      "type": "event"
    },
    {
      "anonymous": false,
      "inputs": [
        {
          "indexed": true,
          "name": "_externalToken",
          "type": "address"
        },
        {
          "indexed": false,
          "name": "_spender",
          "type": "address"
        },
        {
          "indexed": false,
          "name": "_addedValue",
          "type": "uint256"
        }
      ],
      "name": "ExternalTokenIncreaseApproval",
      "type": "event"
    },
    {
      "anonymous": false,
      "inputs": [
        {
          "indexed": true,
          "name": "_externalToken",
          "type": "address"
        },
        {
          "indexed": false,
          "name": "_spender",
          "type": "address"
        },
        {
          "indexed": false,
          "name": "_subtractedValue",
          "type": "uint256"
        }
      ],
      "name": "ExternalTokenDecreaseApproval",
      "type": "event"
    },
    {
      "anonymous": false,
      "inputs": [
        {
          "indexed": true,
          "name": "_sender",
          "type": "address"
        },
        {
          "indexed": false,
          "name": "_value",
          "type": "uint256"
        }
      ],
      "name": "ReceiveEther",
      "type": "event"
    },
    {
      "anonymous": false,
      "inputs": [
        {
          "indexed": true,
          "name": "previousOwner",
          "type": "address"
        }
      ],
      "name": "OwnershipRenounced",
      "type": "event"
    },
    {
      "anonymous": false,
      "inputs": [
        {
          "indexed": true,
          "name": "previousOwner",
          "type": "address"
        },
        {
          "indexed": true,
          "name": "newOwner",
          "type": "address"
        }
      ],
      "name": "OwnershipTransferred",
      "type": "event"
    },
    {
      "constant": false,
      "inputs": [
        {
          "name": "_contract",
          "type": "address"
        },
        {
          "name": "_data",
          "type": "bytes"
        }
      ],
      "name": "genericCall",
      "outputs": [],
      "payable": false,
      "stateMutability": "nonpayable",
      "type": "function"
    },
    {
      "constant": false,
      "inputs": [
        {
          "name": "_amountInWei",
          "type": "uint256"
        },
        {
          "name": "_to",
          "type": "address"
        }
      ],
      "name": "sendEther",
      "outputs": [
        {
          "name": "",
          "type": "bool"
        }
      ],
      "payable": false,
      "stateMutability": "nonpayable",
      "type": "function"
    },
    {
      "constant": false,
      "inputs": [
        {
          "name": "_externalToken",
          "type": "address"
        },
        {
          "name": "_to",
          "type": "address"
        },
        {
          "name": "_value",
          "type": "uint256"
        }
      ],
      "name": "externalTokenTransfer",
      "outputs": [
        {
          "name": "",
          "type": "bool"
        }
      ],
      "payable": false,
      "stateMutability": "nonpayable",
      "type": "function"
    },
    {
      "constant": false,
      "inputs": [
        {
          "name": "_externalToken",
          "type": "address"
        },
        {
          "name": "_from",
          "type": "address"
        },
        {
          "name": "_to",
          "type": "address"
        },
        {
          "name": "_value",
          "type": "uint256"
        }
      ],
      "name": "externalTokenTransferFrom",
      "outputs": [
        {
          "name": "",
          "type": "bool"
        }
      ],
      "payable": false,
      "stateMutability": "nonpayable",
      "type": "function"
    },
    {
      "constant": false,
      "inputs": [
        {
          "name": "_externalToken",
          "type": "address"
        },
        {
          "name": "_spender",
          "type": "address"
        },
        {
          "name": "_addedValue",
          "type": "uint256"
        }
      ],
      "name": "externalTokenIncreaseApproval",
      "outputs": [
        {
          "name": "",
          "type": "bool"
        }
      ],
      "payable": false,
      "stateMutability": "nonpayable",
      "type": "function"
    },
    {
      "constant": false,
      "inputs": [
        {
          "name": "_externalToken",
          "type": "address"
        },
        {
          "name": "_spender",
          "type": "address"
        },
        {
          "name": "_subtractedValue",
          "type": "uint256"
        }
      ],
      "name": "externalTokenDecreaseApproval",
      "outputs": [
        {
          "name": "",
          "type": "bool"
        }
      ],
      "payable": false,
      "stateMutability": "nonpayable",
      "type": "function"
    }
  ],
  "bytecode": "0x608060405234801561001057600080fd5b506040516060806109f983398101604090815281516020830151919092015160008054600160a060020a0319908116331790915560019390935560028054600160a060020a0393841690851617905560038054929091169190921617905561097c8061007d6000396000f3006080604052600436106100a05763ffffffff60e060020a6000350416631386dc2d81146100d85780634650c308146100ff578063715018a61461016857806389ae1c901461017d5780638cf1355c146101ae5780638da5cb5b146101ec578063b756d5a214610201578063cb16d4a214610231578063d29ab9c414610255578063dab0efff1461027f578063e1758bd8146102a9578063f2fde38b146102be575b60408051348152905133917ff32a9f77675fd5917534c7746608fd3e309eac68fbdcbf5925e24ca97a704396919081900360200190a2005b3480156100e457600080fd5b506100ed6102df565b60408051918252519081900360200190f35b34801561010b57600080fd5b5060408051602060046024803582810135601f8101859004850286018501909652858552610166958335600160a060020a03169536956044949193909101919081908401838280828437509497506102e59650505050505050565b005b34801561017457600080fd5b5061016661038c565b34801561018957600080fd5b506101926103f8565b60408051600160a060020a039092168252519081900360200190f35b3480156101ba57600080fd5b506101d8600160a060020a0360043581169060243516604435610407565b604080519115158252519081900360200190f35b3480156101f857600080fd5b506101926104fe565b34801561020d57600080fd5b506101d8600160a060020a036004358116906024358116906044351660643561050d565b34801561023d57600080fd5b506101d8600435600160a060020a036024351661061f565b34801561026157600080fd5b506101d8600160a060020a03600435811690602435166044356106b6565b34801561028b57600080fd5b506101d8600160a060020a03600435811690602435166044356107ad565b3480156102b557600080fd5b506101926108a1565b3480156102ca57600080fd5b50610166600160a060020a03600435166108b0565b60015481565b60008054600160a060020a031633146102fd57600080fd5b82600160a060020a03168260405180828051906020019080838360005b8381101561033257818101518382015260200161031a565b50505050905090810190601f16801561035f5780820380516001836020036101000a031916815260200191505b509150506000604051808303816000865af191505090503d6000803e808015610387573d6000f35b3d6000fd5b600054600160a060020a031633146103a357600080fd5b60008054604051600160a060020a03909116917ff8df31144d9c2f0f6b59d69b8b98abd5459d07f2742c4df920b25aae33c6482091a26000805473ffffffffffffffffffffffffffffffffffffffff19169055565b600354600160a060020a031681565b60008054600160a060020a0316331461041f57600080fd5b83600160a060020a031663d73dd62384846040518363ffffffff1660e060020a0281526004018083600160a060020a0316600160a060020a0316815260200182815260200192505050602060405180830381600087803b15801561048257600080fd5b505af1158015610496573d6000803e3d6000fd5b505050506040513d60208110156104ac57600080fd5b505060408051600160a060020a038581168252602082018590528251908716927fbe7df27d98bd0614ae920a695c2c2be09c164d8456083da020a98538692c465f928290030190a25060019392505050565b600054600160a060020a031681565b60008054600160a060020a0316331461052557600080fd5b604080517f23b872dd000000000000000000000000000000000000000000000000000000008152600160a060020a0386811660048301528581166024830152604482018590529151918716916323b872dd916064808201926020929091908290030181600087803b15801561059957600080fd5b505af11580156105ad573d6000803e3d6000fd5b505050506040513d60208110156105c357600080fd5b505060408051600160a060020a03868116825285811660208301528183018590529151918716917f179c15de44aa7ab84896301974328eb40b5b40fe01cfe0fee2924ea712c3e8439181900360600190a2506001949350505050565b60008054600160a060020a0316331461063757600080fd5b604051600160a060020a0383169084156108fc029085906000818181858888f1935050505015801561066d573d6000803e3d6000fd5b50604080518481529051600160a060020a038416917f22fca66666089f39bc900dd6605b489df4aae6260cc8ea8257594cfb8c84926c919081900360200190a250600192915050565b60008054600160a060020a031633146106ce57600080fd5b83600160a060020a0316636618846384846040518363ffffffff1660e060020a0281526004018083600160a060020a0316600160a060020a0316815260200182815260200192505050602060405180830381600087803b15801561073157600080fd5b505af1158015610745573d6000803e3d6000fd5b505050506040513d602081101561075b57600080fd5b505060408051600160a060020a038581168252602082018590528251908716927f495e426dd61227fe840d969dfba17620c573364af8c37748ea71f96f744ae334928290030190a25060019392505050565b60008054600160a060020a031633146107c557600080fd5b83600160a060020a031663a9059cbb84846040518363ffffffff1660e060020a0281526004018083600160a060020a0316600160a060020a0316815260200182815260200192505050602060405180830381600087803b15801561082857600080fd5b505af115801561083c573d6000803e3d6000fd5b505050506040513d602081101561085257600080fd5b5050604080518381529051600160a060020a0380861692908716917f49dc2a60d2599a7b6932d78fb694c30dfc596fe4e0282b5d0fd184b52472c04d9181900360200190a35060019392505050565b600254600160a060020a031681565b600054600160a060020a031633146108c757600080fd5b6108d0816108d3565b50565b600160a060020a03811615156108e857600080fd5b60008054604051600160a060020a03808516939216917f8be0079c531659141344cd1fd0a4f28419497f9722a3daafe3b4186f6b6457e091a36000805473ffffffffffffffffffffffffffffffffffffffff1916600160a060020a03929092169190911790555600a165627a7a723058203120a5aac0416002567fd5c2da5c55552d574844f05661b22651f93388b0c47f0029",
  "source": "pragma solidity ^0.4.24;\r\n\r\nimport \"./Reputation.sol\";\r\nimport \"./DAOToken.sol\";\r\nimport \"openzeppelin-solidity/contracts/ownership/Ownable.sol\";\r\nimport \"openzeppelin-solidity/contracts/token/ERC20/StandardToken.sol\";\r\n\r\n\r\n/**\r\n * @title An Avatar holds tokens, reputation and ether for a controller\r\n */\r\ncontract Avatar is Ownable {\r\n    bytes32 public orgName;\r\n    DAOToken public nativeToken;\r\n    Reputation public nativeReputation;\r\n\r\n    event GenericAction(address indexed _action, bytes32[] _params);\r\n    event SendEther(uint _amountInWei, address indexed _to);\r\n    event ExternalTokenTransfer(address indexed _externalToken, address indexed _to, uint _value);\r\n    event ExternalTokenTransferFrom(address indexed _externalToken, address _from, address _to, uint _value);\r\n    event ExternalTokenIncreaseApproval(StandardToken indexed _externalToken, address _spender, uint _addedValue);\r\n    event ExternalTokenDecreaseApproval(StandardToken indexed _externalToken, address _spender, uint _subtractedValue);\r\n    event ReceiveEther(address indexed _sender, uint _value);\r\n\r\n    /**\r\n    * @dev the constructor takes organization name, native token and reputation system\r\n    and creates an avatar for a controller\r\n    */\r\n    constructor(bytes32 _orgName, DAOToken _nativeToken, Reputation _nativeReputation) public {\r\n        orgName = _orgName;\r\n        nativeToken = _nativeToken;\r\n        nativeReputation = _nativeReputation;\r\n    }\r\n\r\n    /**\r\n    * @dev enables an avatar to receive ethers\r\n    */\r\n    function() public payable {\r\n        emit ReceiveEther(msg.sender, msg.value);\r\n    }\r\n\r\n    /**\r\n    * @dev perform a generic call to an arbitrary contract\r\n    * @param _contract  the contract's address to call\r\n    * @param _data ABI-encoded contract call to call `_contract` address.\r\n    * @return the return bytes of the called contract's function.\r\n    */\r\n    function genericCall(address _contract,bytes _data) public onlyOwner {\r\n        // solium-disable-next-line security/no-low-level-calls\r\n        bool result = _contract.call(_data);\r\n        // solium-disable-next-line security/no-inline-assembly\r\n        assembly {\r\n        // Copy the returned data.\r\n        returndatacopy(0, 0, returndatasize)\r\n\r\n        switch result\r\n        // call returns 0 on error.\r\n        case 0 { revert(0, returndatasize) }\r\n        default { return(0, returndatasize) }\r\n        }\r\n    }\r\n\r\n    /**\r\n    * @dev send ethers from the avatar's wallet\r\n    * @param _amountInWei amount to send in Wei units\r\n    * @param _to send the ethers to this address\r\n    * @return bool which represents success\r\n    */\r\n    function sendEther(uint _amountInWei, address _to) public onlyOwner returns(bool) {\r\n        _to.transfer(_amountInWei);\r\n        emit SendEther(_amountInWei, _to);\r\n        return true;\r\n    }\r\n\r\n    /**\r\n    * @dev external token transfer\r\n    * @param _externalToken the token contract\r\n    * @param _to the destination address\r\n    * @param _value the amount of tokens to transfer\r\n    * @return bool which represents success\r\n    */\r\n    function externalTokenTransfer(StandardToken _externalToken, address _to, uint _value)\r\n    public onlyOwner returns(bool)\r\n    {\r\n        _externalToken.transfer(_to, _value);\r\n        emit ExternalTokenTransfer(_externalToken, _to, _value);\r\n        return true;\r\n    }\r\n\r\n    /**\r\n    * @dev external token transfer from a specific account\r\n    * @param _externalToken the token contract\r\n    * @param _from the account to spend token from\r\n    * @param _to the destination address\r\n    * @param _value the amount of tokens to transfer\r\n    * @return bool which represents success\r\n    */\r\n    function externalTokenTransferFrom(\r\n        StandardToken _externalToken,\r\n        address _from,\r\n        address _to,\r\n        uint _value\r\n    )\r\n    public onlyOwner returns(bool)\r\n    {\r\n        _externalToken.transferFrom(_from, _to, _value);\r\n        emit ExternalTokenTransferFrom(_externalToken, _from, _to, _value);\r\n        return true;\r\n    }\r\n\r\n    /**\r\n    * @dev increase approval for the spender address to spend a specified amount of tokens\r\n    *      on behalf of msg.sender.\r\n    * @param _externalToken the address of the Token Contract\r\n    * @param _spender address\r\n    * @param _addedValue the amount of ether (in Wei) which the approval is referring to.\r\n    * @return bool which represents a success\r\n    */\r\n    function externalTokenIncreaseApproval(StandardToken _externalToken, address _spender, uint _addedValue)\r\n    public onlyOwner returns(bool)\r\n    {\r\n        _externalToken.increaseApproval(_spender, _addedValue);\r\n        emit ExternalTokenIncreaseApproval(_externalToken, _spender, _addedValue);\r\n        return true;\r\n    }\r\n\r\n    /**\r\n    * @dev decrease approval for the spender address to spend a specified amount of tokens\r\n    *      on behalf of msg.sender.\r\n    * @param _externalToken the address of the Token Contract\r\n    * @param _spender address\r\n    * @param _subtractedValue the amount of ether (in Wei) which the approval is referring to.\r\n    * @return bool which represents a success\r\n    */\r\n    function externalTokenDecreaseApproval(StandardToken _externalToken, address _spender, uint _subtractedValue )\r\n    public onlyOwner returns(bool)\r\n    {\r\n        _externalToken.decreaseApproval(_spender, _subtractedValue);\r\n        emit ExternalTokenDecreaseApproval(_externalToken,_spender, _subtractedValue);\r\n        return true;\r\n    }\r\n\r\n}\r\n",
  "sourcePath": "C:\\users\\dkent\\documents\\projects\\github\\daostack\\arc\\contracts\\controller\\Avatar.sol",
  "compiler": {
    "name": "solc",
    "version": "0.4.24+commit.e67f0147.Emscripten.clang"
  },
  "schemaVersion": "2.0.0",
  "updatedAt": "2018-07-21T19:08:34.310Z"
}