{
  "contractName": "ContributionReward",
  "abi": [
    {
      "constant": true,
      "inputs": [
        {
          "name": "",
          "type": "bytes32"
        }
      ],
      "name": "parameters",
      "outputs": [
        {
          "name": "orgNativeTokenFee",
          "type": "uint256"
        },
        {
          "name": "voteApproveParams",
          "type": "bytes32"
        },
        {
          "name": "intVote",
          "type": "address"
        }
      ],
      "payable": false,
      "stateMutability": "view",
      "type": "function"
    },
    {
      "constant": true,
      "inputs": [
        {
          "name": "",
          "type": "address"
        },
        {
          "name": "",
          "type": "bytes32"
        }
      ],
      "name": "organizationsProposals",
      "outputs": [
        {
          "name": "contributionDescriptionHash",
          "type": "bytes32"
        },
        {
          "name": "nativeTokenReward",
          "type": "uint256"
        },
        {
          "name": "reputationChange",
          "type": "int256"
        },
        {
          "name": "ethReward",
          "type": "uint256"
        },
        {
          "name": "externalToken",
          "type": "address"
        },
        {
          "name": "externalTokenReward",
          "type": "uint256"
        },
        {
          "name": "beneficiary",
          "type": "address"
        },
        {
          "name": "periodLength",
          "type": "uint256"
        },
        {
          "name": "numberOfPeriods",
          "type": "uint256"
        },
        {
          "name": "executionTime",
          "type": "uint256"
        }
      ],
      "payable": false,
      "stateMutability": "view",
      "type": "function"
    },
    {
      "constant": false,
      "inputs": [
        {
          "name": "_hashedParameters",
          "type": "bytes32"
        }
      ],
      "name": "updateParameters",
      "outputs": [],
      "payable": false,
      "stateMutability": "nonpayable",
      "type": "function"
    },
    {
      "constant": false,
      "inputs": [],
      "name": "renounceOwnership",
      "outputs": [],
      "payable": false,
      "stateMutability": "nonpayable",
      "type": "function"
    },
    {
      "constant": true,
      "inputs": [],
      "name": "owner",
      "outputs": [
        {
          "name": "",
          "type": "address"
        }
      ],
      "payable": false,
      "stateMutability": "view",
      "type": "function"
    },
    {
      "constant": false,
      "inputs": [
        {
          "name": "_newOwner",
          "type": "address"
        }
      ],
      "name": "transferOwnership",
      "outputs": [],
      "payable": false,
      "stateMutability": "nonpayable",
      "type": "function"
    },
    {
      "constant": true,
      "inputs": [],
      "name": "hashedParameters",
      "outputs": [
        {
          "name": "",
          "type": "bytes32"
        }
      ],
      "payable": false,
      "stateMutability": "view",
      "type": "function"
    },
    {
      "anonymous": false,
      "inputs": [
        {
          "indexed": true,
          "name": "_avatar",
          "type": "address"
        },
        {
          "indexed": true,
          "name": "_proposalId",
          "type": "bytes32"
        },
        {
          "indexed": true,
          "name": "_intVoteInterface",
          "type": "address"
        },
        {
          "indexed": false,
          "name": "_contributionDescription",
          "type": "bytes32"
        },
        {
          "indexed": false,
          "name": "_reputationChange",
          "type": "int256"
        },
        {
          "indexed": false,
          "name": "_rewards",
          "type": "uint256[5]"
        },
        {
          "indexed": false,
          "name": "_externalToken",
          "type": "address"
        },
        {
          "indexed": false,
          "name": "_beneficiary",
          "type": "address"
        }
      ],
      "name": "NewContributionProposal",
      "type": "event"
    },
    {
      "anonymous": false,
      "inputs": [
        {
          "indexed": true,
          "name": "_avatar",
          "type": "address"
        },
        {
          "indexed": true,
          "name": "_proposalId",
          "type": "bytes32"
        },
        {
          "indexed": false,
          "name": "_param",
          "type": "int256"
        }
      ],
      "name": "ProposalExecuted",
      "type": "event"
    },
    {
      "anonymous": false,
      "inputs": [
        {
          "indexed": true,
          "name": "_avatar",
          "type": "address"
        },
        {
          "indexed": true,
          "name": "_proposalId",
          "type": "bytes32"
        },
        {
          "indexed": true,
          "name": "_beneficiary",
          "type": "address"
        },
        {
          "indexed": false,
          "name": "_amount",
          "type": "int256"
        }
      ],
      "name": "RedeemReputation",
      "type": "event"
    },
    {
      "anonymous": false,
      "inputs": [
        {
          "indexed": true,
          "name": "_avatar",
          "type": "address"
        },
        {
          "indexed": true,
          "name": "_proposalId",
          "type": "bytes32"
        },
        {
          "indexed": true,
          "name": "_beneficiary",
          "type": "address"
        },
        {
          "indexed": false,
          "name": "_amount",
          "type": "uint256"
        }
      ],
      "name": "RedeemEther",
      "type": "event"
    },
    {
      "anonymous": false,
      "inputs": [
        {
          "indexed": true,
          "name": "_avatar",
          "type": "address"
        },
        {
          "indexed": true,
          "name": "_proposalId",
          "type": "bytes32"
        },
        {
          "indexed": true,
          "name": "_beneficiary",
          "type": "address"
        },
        {
          "indexed": false,
          "name": "_amount",
          "type": "uint256"
        }
      ],
      "name": "RedeemNativeToken",
      "type": "event"
    },
    {
      "anonymous": false,
      "inputs": [
        {
          "indexed": true,
          "name": "_avatar",
          "type": "address"
        },
        {
          "indexed": true,
          "name": "_proposalId",
          "type": "bytes32"
        },
        {
          "indexed": true,
          "name": "_beneficiary",
          "type": "address"
        },
        {
          "indexed": false,
          "name": "_amount",
          "type": "uint256"
        }
      ],
      "name": "RedeemExternalToken",
      "type": "event"
    },
    {
      "anonymous": false,
      "inputs": [
        {
          "indexed": true,
          "name": "previousOwner",
          "type": "address"
        }
      ],
      "name": "OwnershipRenounced",
      "type": "event"
    },
    {
      "anonymous": false,
      "inputs": [
        {
          "indexed": true,
          "name": "previousOwner",
          "type": "address"
        },
        {
          "indexed": true,
          "name": "newOwner",
          "type": "address"
        }
      ],
      "name": "OwnershipTransferred",
      "type": "event"
    },
    {
      "constant": false,
      "inputs": [
        {
          "name": "_orgNativeTokenFee",
          "type": "uint256"
        },
        {
          "name": "_voteApproveParams",
          "type": "bytes32"
        },
        {
          "name": "_intVote",
          "type": "address"
        }
      ],
      "name": "setParameters",
      "outputs": [
        {
          "name": "",
          "type": "bytes32"
        }
      ],
      "payable": false,
      "stateMutability": "nonpayable",
      "type": "function"
    },
    {
      "constant": true,
      "inputs": [
        {
          "name": "_orgNativeTokenFee",
          "type": "uint256"
        },
        {
          "name": "_voteApproveParams",
          "type": "bytes32"
        },
        {
          "name": "_intVote",
          "type": "address"
        }
      ],
      "name": "getParametersHash",
      "outputs": [
        {
          "name": "",
          "type": "bytes32"
        }
      ],
      "payable": false,
      "stateMutability": "pure",
      "type": "function"
    },
    {
      "constant": false,
      "inputs": [
        {
          "name": "_avatar",
          "type": "address"
        },
        {
          "name": "_contributionDescriptionHash",
          "type": "bytes32"
        },
        {
          "name": "_reputationChange",
          "type": "int256"
        },
        {
          "name": "_rewards",
          "type": "uint256[5]"
        },
        {
          "name": "_externalToken",
          "type": "address"
        },
        {
          "name": "_beneficiary",
          "type": "address"
        }
      ],
      "name": "proposeContributionReward",
      "outputs": [
        {
          "name": "",
          "type": "bytes32"
        }
      ],
      "payable": false,
      "stateMutability": "nonpayable",
      "type": "function"
    },
    {
      "constant": false,
      "inputs": [
        {
          "name": "_proposalId",
          "type": "bytes32"
        },
        {
          "name": "_avatar",
          "type": "address"
        },
        {
          "name": "_param",
          "type": "int256"
        }
      ],
      "name": "execute",
      "outputs": [
        {
          "name": "",
          "type": "bool"
        }
      ],
      "payable": false,
      "stateMutability": "nonpayable",
      "type": "function"
    },
    {
      "constant": false,
      "inputs": [
        {
          "name": "_proposalId",
          "type": "bytes32"
        },
        {
          "name": "_avatar",
          "type": "address"
        }
      ],
      "name": "redeemReputation",
      "outputs": [
        {
          "name": "",
          "type": "bool"
        }
      ],
      "payable": false,
      "stateMutability": "nonpayable",
      "type": "function"
    },
    {
      "constant": false,
      "inputs": [
        {
          "name": "_proposalId",
          "type": "bytes32"
        },
        {
          "name": "_avatar",
          "type": "address"
        }
      ],
      "name": "redeemNativeToken",
      "outputs": [
        {
          "name": "",
          "type": "bool"
        }
      ],
      "payable": false,
      "stateMutability": "nonpayable",
      "type": "function"
    },
    {
      "constant": false,
      "inputs": [
        {
          "name": "_proposalId",
          "type": "bytes32"
        },
        {
          "name": "_avatar",
          "type": "address"
        }
      ],
      "name": "redeemEther",
      "outputs": [
        {
          "name": "",
          "type": "bool"
        }
      ],
      "payable": false,
      "stateMutability": "nonpayable",
      "type": "function"
    },
    {
      "constant": false,
      "inputs": [
        {
          "name": "_proposalId",
          "type": "bytes32"
        },
        {
          "name": "_avatar",
          "type": "address"
        }
      ],
      "name": "redeemExternalToken",
      "outputs": [
        {
          "name": "",
          "type": "bool"
        }
      ],
      "payable": false,
      "stateMutability": "nonpayable",
      "type": "function"
    },
    {
      "constant": false,
      "inputs": [
        {
          "name": "_proposalId",
          "type": "bytes32"
        },
        {
          "name": "_avatar",
          "type": "address"
        },
        {
          "name": "_whatToRedeem",
          "type": "bool[4]"
        }
      ],
      "name": "redeem",
      "outputs": [
        {
          "name": "result",
          "type": "bool[4]"
        }
      ],
      "payable": false,
      "stateMutability": "nonpayable",
      "type": "function"
    },
    {
      "constant": true,
      "inputs": [
        {
          "name": "_proposalId",
          "type": "bytes32"
        },
        {
          "name": "_avatar",
          "type": "address"
        },
        {
          "name": "_redeemType",
          "type": "uint256"
        }
      ],
      "name": "getPeriodsToPay",
      "outputs": [
        {
          "name": "",
          "type": "uint256"
        }
      ],
      "payable": false,
      "stateMutability": "view",
      "type": "function"
    },
    {
      "constant": true,
      "inputs": [
        {
          "name": "_proposalId",
          "type": "bytes32"
        },
        {
          "name": "_avatar",
          "type": "address"
        },
        {
          "name": "_redeemType",
          "type": "uint256"
        }
      ],
      "name": "getRedeemedPeriods",
      "outputs": [
        {
          "name": "",
          "type": "uint256"
        }
      ],
      "payable": false,
      "stateMutability": "view",
      "type": "function"
    },
    {
      "constant": true,
      "inputs": [
        {
          "name": "_proposalId",
          "type": "bytes32"
        },
        {
          "name": "_avatar",
          "type": "address"
        }
      ],
      "name": "getProposalEthReward",
      "outputs": [
        {
          "name": "",
          "type": "uint256"
        }
      ],
      "payable": false,
      "stateMutability": "view",
      "type": "function"
    },
    {
      "constant": true,
      "inputs": [
        {
          "name": "_proposalId",
          "type": "bytes32"
        },
        {
          "name": "_avatar",
          "type": "address"
        }
      ],
      "name": "getProposalExternalTokenReward",
      "outputs": [
        {
          "name": "",
          "type": "uint256"
        }
      ],
      "payable": false,
      "stateMutability": "view",
      "type": "function"
    },
    {
      "constant": true,
      "inputs": [
        {
          "name": "_proposalId",
          "type": "bytes32"
        },
        {
          "name": "_avatar",
          "type": "address"
        }
      ],
      "name": "getProposalExternalToken",
      "outputs": [
        {
          "name": "",
          "type": "address"
        }
      ],
      "payable": false,
      "stateMutability": "view",
      "type": "function"
    },
    {
      "constant": true,
      "inputs": [
        {
          "name": "_proposalId",
          "type": "bytes32"
        },
        {
          "name": "_avatar",
          "type": "address"
        }
      ],
      "name": "getProposalExecutionTime",
      "outputs": [
        {
          "name": "",
          "type": "uint256"
        }
      ],
      "payable": false,
      "stateMutability": "view",
      "type": "function"
    }
  ],
  "bytecode": "0x608060405260008054600160a060020a03191633179055612206806100256000396000f30060806040526004361061010e5763ffffffff60e060020a60003504166302506804811461011357806306e3a978146101525780630d5e1e82146101d15780631c3a5713146102095780632ac2af531461023f578063310ce4e2146102595780633a256daa14610280578063465ff7d7146102a45780636046f71d146102cb578063715018a6146102ef5780638da5cb5b146103045780639a55054c14610335578063b74fd44f146103a5578063b7c251c3146103cc578063bb1c9351146103f3578063cd3ce30614610417578063d58bf09a1461043b578063e074ee55146104c5578063e63b681e146104ec578063f2fde38b14610510578063f70bbb9a14610531578063f98e87ba14610555575b600080fd5b34801561011f57600080fd5b5061012b60043561056a565b604080519384526020840192909252600160a060020a031682820152519081900360600190f35b34801561015e57600080fd5b50610176600160a060020a0360043516602435610594565b604080519a8b5260208b0199909952898901979097526060890195909552600160a060020a03938416608089015260a088019290925290911660c086015260e085015261010084015261012083015251908190036101400190f35b3480156101dd57600080fd5b506101f5600435600160a060020a03602435166105fb565b604080519115158252519081900360200190f35b34801561021557600080fd5b5061022d600435600160a060020a0360243516610a17565b60408051918252519081900360200190f35b34801561024b57600080fd5b50610257600435610a45565b005b34801561026557600080fd5b506101f5600435600160a060020a0360243516604435610a61565b34801561028c57600080fd5b5061022d600435600160a060020a0360243516610b7a565b3480156102b057600080fd5b5061022d600435602435600160a060020a0360443516610ba2565b3480156102d757600080fd5b5061022d600435600160a060020a0360243516610bff565b3480156102fb57600080fd5b50610257610c27565b34801561031057600080fd5b50610319610c93565b60408051600160a060020a039092168252519081900360200190f35b34801561034157600080fd5b506040805160a080820190925261022d9160048035600160a060020a031692602435926044359236929091610104919060649060059083908390808284375093965050600160a060020a038435811695506020909401359093169250610ca2915050565b3480156103b157600080fd5b5061022d600435602435600160a060020a03604435166112af565b3480156103d857600080fd5b5061022d600435600160a060020a0360243516604435611355565b3480156103ff57600080fd5b506101f5600435600160a060020a0360243516611390565b34801561042357600080fd5b506101f5600435600160a060020a0360243516611679565b34801561044757600080fd5b5060408051608081810190925261048d916004803592600160a060020a03602435169236929160c491604490849083908390808284375093965061196295505050505050565b6040518082608080838360005b838110156104b257818101518382015260200161049a565b5050505090500191505060405180910390f35b3480156104d157600080fd5b5061022d600435600160a060020a03602435166044356119db565b3480156104f857600080fd5b506101f5600435600160a060020a0360243516611b8c565b34801561051c57600080fd5b50610257600160a060020a0360043516611ea6565b34801561053d57600080fd5b50610319600435600160a060020a0360243516611ec9565b34801561056157600080fd5b5061022d611ef7565b600360205260009081526040902080546001820154600290920154909190600160a060020a031683565b60026020818152600093845260408085209091529183529120805460018201549282015460038301546004840154600585015460068601546007870154600888015460099098015496989795969495600160a060020a03948516959394909216929091908a565b60006106056120cb565b600160a060020a0383811660009081526002602081815260408084208985528252808420815161016081018352815481526001820154938101939093529283015482820152600383015460608301526004808401548616608080850191909152600585015460a0850152600685015490961660c0840152600784015460e08401526008840154610100840152600984015461012084015281519586019182905293948594859485949390926101408501929091600a8501919082845b8154815260200190600101908083116106c15750505091909252505050600160a060020a03881660009081526002602090815260408083208c8452909152902060098101549196509450151561071657600080fd5b610722888860006119db565b92506000846002018190555084604001518302905060008113156108635786600160a060020a0316638da5cb5b6040518163ffffffff1660e060020a028152600401602060405180830381600087803b15801561077e57600080fd5b505af1158015610792573d6000803e3d6000fd5b505050506040513d60208110156107a857600080fd5b505160c0860151604080517feaf994b200000000000000000000000000000000000000000000000000000000815260048101859052600160a060020a0392831660248201528a831660448201529051919092169163eaf994b29160648083019260209291908290030181600087803b15801561082357600080fd5b505af1158015610837573d6000803e3d6000fd5b505050506040513d602081101561084d57600080fd5b5051151561085a57600080fd5b6001915061098e565b600081121561098e5786600160a060020a0316638da5cb5b6040518163ffffffff1660e060020a028152600401602060405180830381600087803b1580156108aa57600080fd5b505af11580156108be573d6000803e3d6000fd5b505050506040513d60208110156108d457600080fd5b505160c0860151604080517f6e94d27800000000000000000000000000000000000000000000000000000000815260008581036004830152600160a060020a0393841660248301528b8416604483015291519290931692636e94d2789260648083019360209383900390910190829087803b15801561095257600080fd5b505af1158015610966573d6000803e3d6000fd5b505050506040513d602081101561097c57600080fd5b5051151561098957600080fd5b600191505b81156109fd576109ad83600a860160005b01549063ffffffff611efd16565b600a85015560c0850151604080518381529051600160a060020a03928316928b92908b16917feab8bc4bf2fd6ce5634b8e75023e0e48367e68249ce2aa2c0ef7c0efe5648bee9181900360200190a45b604085015160028501559094508490505050505092915050565b600160a060020a03811660009081526002602090815260408083208584529091529020600501545b92915050565b600054600160a060020a03163314610a5c57600080fd5b600155565b600033600382610a7086611f0a565b8152602081019190915260400160002060020154600160a060020a031614610a9757600080fd5b600160a060020a038316600090815260026020908152604080832087845290915290206009015415610ac857600080fd5b600160a060020a038381166000908152600260209081526040808320888452909152902060060154161515610afc57600080fd5b8160011415610b3057600160a060020a03831660009081526002602090815260408083208784529091529020426009909101555b6040805183815290518591600160a060020a038616917fd2632e80f5364f02aded1c64e8a04637b7c8bb9c2db2bedf4b6ac47c013acbc09181900360200190a35060019392505050565b600160a060020a03166000908152600260209081526040808320938352929052206009015490565b600080610bb08585856112af565b6000818152600360205260409020958655600186019490945550506002909201805473ffffffffffffffffffffffffffffffffffffffff1916600160a060020a03939093169290921790915590565b600160a060020a03166000908152600260209081526040808320938352929052206003015490565b600054600160a060020a03163314610c3e57600080fd5b60008054604051600160a060020a03909116917ff8df31144d9c2f0f6b59d69b8b98abd5459d07f2742c4df920b25aae33c6482091a26000805473ffffffffffffffffffffffffffffffffffffffff19169055565b600054600160a060020a031681565b6000610cac612140565b600080610cb76120cb565b606088015160001080610cce575060808801516001145b1515610d6157604080517f08c379a000000000000000000000000000000000000000000000000000000000815260206004820152603460248201527f706572696f644c656e67746820657175616c20302072657175697265206e756d60448201527f6265724f66506572696f647320746f2062652031000000000000000000000000606482015290519081900360840190fd5b60036000610d6e8d611f0a565b81526020808201929092526040908101600090812082516060810184528154808252600183015495820195909552600290910154600160a060020a0316928101929092529095501015610ec7578a600160a060020a031663e1758bd86040518163ffffffff1660e060020a028152600401602060405180830381600087803b158015610df957600080fd5b505af1158015610e0d573d6000803e3d6000fd5b505050506040513d6020811015610e2357600080fd5b50518451604080517f23b872dd000000000000000000000000000000000000000000000000000000008152336004820152600160a060020a038f811660248301526044820193909352905191909216916323b872dd9160648083019260209291908290030181600087803b158015610e9a57600080fd5b505af1158015610eae573d6000803e3d6000fd5b505050506040513d6020811015610ec457600080fd5b50505b60408085015160208087015183517f0905c9f9000000000000000000000000000000000000000000000000000000008152600260048201526024810191909152600160a060020a038f8116604483015230606483015233608483015293519390921692630905c9f99260a48082019392918290030181600087803b158015610f4e57600080fd5b505af1158015610f62573d6000803e3d6000fd5b505050506040513d6020811015610f7857600080fd5b50519250859150600160a060020a0382161515610f93573391505b60408051610160810182528b815289516020808301919091528183018c90528a01516060820152600160a060020a038981166080830152918a015160a082015290831660c082015260e081018960036020908102919091015182520189600460200201518152602001600081526020016080604051908101604052806000815260200160008152602001600081526020016000815250815250905080600260008d600160a060020a0316600160a060020a03168152602001908152602001600020600085600019166000191681526020019081526020016000206000820151816000019060001916905560208201518160010155604082015181600201556060820151816003015560808201518160040160006101000a815481600160a060020a030219169083600160a060020a0316021790555060a0820151816005015560c08201518160060160006101000a815481600160a060020a030219169083600160a060020a0316021790555060e082015181600701556101008201518160080155610120820151816009015561014082015181600a01906004611137929190612160565b509050508360400151600160a060020a031683600019168c600160a060020a03167f5b4cba14eb387b69d923b37c2989ce3da21ca17cfebd07644b8b7ff1f4cec7df8d8d8d8d8960405180866000191660001916815260200185815260200184600560200280838360005b838110156111ba5781810151838201526020016111a2565b5050505090500183600160a060020a0316600160a060020a0316815260200182600160a060020a0316600160a060020a031681526020019550505050505060405180910390a460408085015181517f339e23d100000000000000000000000000000000000000000000000000000000815260048101869052600160248201523360448201529151600160a060020a039091169163339e23d19160648083019260209291908290030181600087803b15801561127457600080fd5b505af1158015611288573d6000803e3d6000fd5b505050506040513d602081101561129e57600080fd5b50929b9a5050505050505050505050565b6040805160208082018590528183018690526c01000000000000000000000000600160a060020a038516026060830152825160548184030181526074909201928390528151600093918291908401908083835b602083106113215780518252601f199092019160209182019101611302565b5181516020939093036101000a60001901801990911692169190911790526040519201829003909120979650505050505050565b600160a060020a03821660009081526002602090815260408083208684529091528120600a01826004811061138657fe5b0154949350505050565b600061139a6120cb565b600160a060020a0383811660009081526002602081815260408084208985528252808420815161016081018352815481526001820154938101939093529283015482820152600383015460608301526004808401548616608080850191909152600585015460a0850152600685015490961660c0840152600784015460e08401526008840154610100840152600984015461012084015281519586019182905293948594859485949390926101408501929091600a8501919082845b8154815260200190600101908083116114565750505091909252505050600160a060020a03881660009081526002602090815260408083208c845290915290206009810154919650945015156114ab57600080fd5b6114b7888860016119db565b6000600186015560208601519093506114d790849063ffffffff61201316565b9050600081111561165f5786600160a060020a0316638da5cb5b6040518163ffffffff1660e060020a028152600401602060405180830381600087803b15801561152057600080fd5b505af1158015611534573d6000803e3d6000fd5b505050506040513d602081101561154a57600080fd5b505160c0860151604080517f6407e43200000000000000000000000000000000000000000000000000000000815260048101859052600160a060020a0392831660248201528a8316604482015290519190921691636407e4329160648083019260209291908290030181600087803b1580156115c557600080fd5b505af11580156115d9573d6000803e3d6000fd5b505050506040513d60208110156115ef57600080fd5b505115156115fc57600080fd5b61160b83600a8601600161099f565b600b85015560c085015160408051838152905160019450600160a060020a03928316928b92908b16917f13f7471cab9806ac4ff5d80ae879babfbf1081e240d05c4450b75f69c626cb2e9181900360200190a45b602085015160018501559094508490505050505092915050565b60006116836120cb565b600160a060020a0383811660009081526002602081815260408084208985528252808420815161016081018352815481526001820154938101939093529283015482820152600383015460608301526004808401548616608080850191909152600585015460a0850152600685015490961660c0840152600784015460e08401526008840154610100840152600984015461012084015281519586019182905293948594859485949390926101408501929091600a8501919082845b81548152602001906001019080831161173f5750505091909252505050600160a060020a03881660009081526002602090815260408083208c8452909152902060098101549196509450151561179457600080fd5b6117a0888860026119db565b6000600386015560608601519093506117c090849063ffffffff61201316565b905060008111156119485786600160a060020a0316638da5cb5b6040518163ffffffff1660e060020a028152600401602060405180830381600087803b15801561180957600080fd5b505af115801561181d573d6000803e3d6000fd5b505050506040513d602081101561183357600080fd5b505160c0860151604080517f634965da00000000000000000000000000000000000000000000000000000000815260048101859052600160a060020a0392831660248201528a831660448201529051919092169163634965da9160648083019260209291908290030181600087803b1580156118ae57600080fd5b505af11580156118c2573d6000803e3d6000fd5b505050506040513d60208110156118d857600080fd5b505115156118e557600080fd5b6118f483600a8601600261099f565b600c85015560c085015160408051838152905160019450600160a060020a03928316928b92908b16917f7dd55ea53ce2c347b544c257b778e1dd6638f232fa6b94320e740440e72b4b879181900360200190a45b606085015160038501559094508490505050505092915050565b61196a61219e565b8151156119805761197b84846105fb565b151581525b60208201511561199c576119948484611390565b151560208201525b6040820151156119b8576119b08484611679565b151560408201525b6060820151156119d4576119cc8484611b8c565b151560608201525b9392505050565b60006119e56120cb565b600160a060020a0384811660009081526002602081815260408084208a85528252808420815161016081018352815481526001820154938101939093529283015482820152600383015460608301526004808401548616608080850191909152600585015460a0850152600685015490961660c0840152600784015460e08401526008840154610100840152600984015461012084015281519586019182905293948594929392610140850192600a8501919082845b815481526020019060010190808311611a9b57505050505081525050925082610120015160001415611ad05760009350611b82565b60008360e001511115611b065760e0830151610120840151611af990429063ffffffff61203c16565b811515611b0257fe5b0491505b60e08301511580611b1c57508261010001518210155b15611b5457610140830151611b4d908660048110611b3657fe5b60200201516101008501519063ffffffff61203c16565b9050611b7e565b610140830151611b7b908660048110611b6957fe5b6020020151839063ffffffff61203c16565b90505b8093505b5050509392505050565b6000611b966120cb565b600160a060020a0383811660009081526002602081815260408084208985528252808420815161016081018352815481526001820154938101939093529283015482820152600383015460608301526004808401548616608080850191909152600585015460a0850152600685015490961660c0840152600784015460e08401526008840154610100840152600984015461012084015281519586019182905293948594859485949390926101408501929091600a8501919082845b815481526020019060010190808311611c525750505091909252505050600160a060020a03881660009081526002602090815260408083208c84529091529020600981015491965094501515611ca757600080fd5b611cb3888860036119db565b600060058601556004850154909350600160a060020a031615801590611cdd575060008560a00151115b15611e8c5760a0850151611cf890849063ffffffff61201316565b90506000811115611e8c5786600160a060020a0316638da5cb5b6040518163ffffffff1660e060020a028152600401602060405180830381600087803b158015611d4157600080fd5b505af1158015611d55573d6000803e3d6000fd5b505050506040513d6020811015611d6b57600080fd5b5051608086015160c0870151604080517fb9a04cdd000000000000000000000000000000000000000000000000000000008152600160a060020a0393841660048201529183166024830152604482018590528a8316606483015251919092169163b9a04cdd9160848083019260209291908290030181600087803b158015611df257600080fd5b505af1158015611e06573d6000803e3d6000fd5b505050506040513d6020811015611e1c57600080fd5b50511515611e2957600080fd5b611e3883600a8601600361099f565b600d85015560c085015160408051838152905160019450600160a060020a03928316928b92908b16917f5a66e28cdcd3bc22082d9f07be2b6bed5f50f349e5d89f655d750ecdd19883749181900360200190a45b60a085015160058501559094508490505050505092915050565b600054600160a060020a03163314611ebd57600080fd5b611ec68161204e565b50565b600160a060020a03908116600090815260026020908152604080832094835293905291909120600401541690565b60015481565b81810182811015610a3f57fe5b600081600160a060020a0316638da5cb5b6040518163ffffffff1660e060020a028152600401602060405180830381600087803b158015611f4a57600080fd5b505af1158015611f5e573d6000803e3d6000fd5b505050506040513d6020811015611f7457600080fd5b5051604080517f1c4d5608000000000000000000000000000000000000000000000000000000008152306004820152600160a060020a03858116602483015291519190921691631c4d56089160448083019260209291908290030181600087803b158015611fe157600080fd5b505af1158015611ff5573d6000803e3d6000fd5b505050506040513d602081101561200b57600080fd5b505192915050565b600082151561202457506000610a3f565b5081810281838281151561203457fe5b0414610a3f57fe5b60008282111561204857fe5b50900390565b600160a060020a038116151561206357600080fd5b60008054604051600160a060020a03808516939216917f8be0079c531659141344cd1fd0a4f28419497f9722a3daafe3b4186f6b6457e091a36000805473ffffffffffffffffffffffffffffffffffffffff1916600160a060020a0392909216919091179055565b6101c060405190810160405280600080191681526020016000815260200160008152602001600081526020016000600160a060020a03168152602001600081526020016000600160a060020a0316815260200160008152602001600081526020016000815260200161213b61219e565b905290565b604080516060810182526000808252602082018190529181019190915290565b826004810192821561218e579160200282015b8281111561218e578251825591602001919060010190612173565b5061219a9291506121bd565b5090565b6080604051908101604052806004906020820280388339509192915050565b6121d791905b8082111561219a57600081556001016121c3565b905600a165627a7a72305820971fab3243ea0d86679af134694e44a8ce5fb2ab154da558946bbff6e4fe29ff0029",
  "source": "pragma solidity ^0.4.24;\n\nimport \"../VotingMachines/IntVoteInterface.sol\";\nimport \"./UniversalScheme.sol\";\n\n\n/**\n * @title A scheme for proposing and rewarding contributions to an organization\n * @dev An agent can ask an organization to recognize a contribution and reward\n * him with token, reputation, ether or any combination.\n */\n\ncontract ContributionReward is UniversalScheme {\n    using SafeMath for uint;\n\n    event NewContributionProposal(\n        address indexed _avatar,\n        bytes32 indexed _proposalId,\n        address indexed _intVoteInterface,\n        bytes32 _contributionDescription,\n        int _reputationChange,\n        uint[5]  _rewards,\n        StandardToken _externalToken,\n        address _beneficiary\n    );\n    event ProposalExecuted(address indexed _avatar, bytes32 indexed _proposalId,int _param);\n    event RedeemReputation(address indexed _avatar, bytes32 indexed _proposalId, address indexed _beneficiary,int _amount);\n    event RedeemEther(address indexed _avatar, bytes32 indexed _proposalId, address indexed _beneficiary,uint _amount);\n    event RedeemNativeToken(address indexed _avatar, bytes32 indexed _proposalId, address indexed _beneficiary,uint _amount);\n    event RedeemExternalToken(address indexed _avatar, bytes32 indexed _proposalId, address indexed _beneficiary,uint _amount);\n\n    // A struct holding the data for a contribution proposal\n    struct ContributionProposal {\n        bytes32 contributionDescriptionHash; // Hash of contribution document.\n        uint nativeTokenReward; // Reward asked in the native token of the organization.\n        int reputationChange; // Organization reputation reward requested.\n        uint ethReward;\n        StandardToken externalToken;\n        uint externalTokenReward;\n        address beneficiary;\n        uint periodLength;\n        uint numberOfPeriods;\n        uint executionTime;\n        uint[4] redeemedPeriods;\n    }\n\n    // A mapping from the organization (Avatar) address to the saved data of the organization:\n    mapping(address=>mapping(bytes32=>ContributionProposal)) public organizationsProposals;\n\n    // A mapping from hashes to parameters (use to store a particular configuration on the controller)\n    // A contribution fee can be in the organization token or the scheme token or a combination\n    struct Parameters {\n        uint orgNativeTokenFee; // a fee (in the organization's token) that is to be paid for submitting a contribution\n        bytes32 voteApproveParams;\n        IntVoteInterface intVote;\n    }\n    // A mapping from hashes to parameters (use to store a particular configuration on the controller)\n    mapping(bytes32=>Parameters) public parameters;\n\n    /**\n    * @dev hash the parameters, save them if necessary, and return the hash value\n    */\n    function setParameters(\n        uint _orgNativeTokenFee,\n        bytes32 _voteApproveParams,\n        IntVoteInterface _intVote\n    ) public returns(bytes32)\n    {\n        bytes32 paramsHash = getParametersHash(\n            _orgNativeTokenFee,\n            _voteApproveParams,\n            _intVote\n        );\n        parameters[paramsHash].orgNativeTokenFee = _orgNativeTokenFee;\n        parameters[paramsHash].voteApproveParams = _voteApproveParams;\n        parameters[paramsHash].intVote = _intVote;\n        return paramsHash;\n    }\n\n    /**\n    * @dev return a hash of the given parameters\n    * @param _orgNativeTokenFee the fee for submitting a contribution in organizations native token\n    * @param _voteApproveParams parameters for the voting machine used to approve a contribution\n    * @param _intVote the voting machine used to approve a contribution\n    * @return a hash of the parameters\n    */\n    // TODO: These fees are messy. Better to have a _fee and _feeToken pair, just as in some other contract (which one?) with some sane default\n    function getParametersHash(\n        uint _orgNativeTokenFee,\n        bytes32 _voteApproveParams,\n        IntVoteInterface _intVote\n    ) public pure returns(bytes32)\n    {\n        return (keccak256(abi.encodePacked(_voteApproveParams, _orgNativeTokenFee, _intVote)));\n    }\n\n    /**\n    * @dev Submit a proposal for a reward for a contribution:\n    * @param _avatar Avatar of the organization that the contribution was made for\n    * @param _contributionDescriptionHash A hash of the contribution's description\n    * @param _reputationChange - Amount of reputation change requested .Can be negative.\n    * @param _rewards rewards array:\n    *         rewards[0] - Amount of tokens requested per period\n    *         rewards[1] - Amount of ETH requested per period\n    *         rewards[2] - Amount of external tokens requested per period\n    *         rewards[3] - Period length - if set to zero it allows immediate redeeming after execution.\n    *         rewards[4] - Number of periods\n    * @param _externalToken Address of external token, if reward is requested there\n    * @param _beneficiary Who gets the rewards\n    */\n    function proposeContributionReward(\n        Avatar _avatar,\n        bytes32 _contributionDescriptionHash,\n        int _reputationChange,\n        uint[5] _rewards,\n        StandardToken _externalToken,\n        address _beneficiary\n    ) public\n      returns(bytes32)\n    {\n        require(((_rewards[3] > 0) || (_rewards[4] == 1)),\"periodLength equal 0 require numberOfPeriods to be 1\");\n        Parameters memory controllerParams = parameters[getParametersFromController(_avatar)];\n        // Pay fees for submitting the contribution:\n        if (controllerParams.orgNativeTokenFee > 0) {\n            _avatar.nativeToken().transferFrom(msg.sender, _avatar, controllerParams.orgNativeTokenFee);\n        }\n\n        bytes32 contributionId = controllerParams.intVote.propose(\n            2,\n            controllerParams.voteApproveParams,\n           _avatar,\n           ExecutableInterface(this),\n           msg.sender\n        );\n\n        // Check beneficiary is not null:\n        address beneficiary = _beneficiary;\n        if (beneficiary == address(0)) {\n            beneficiary = msg.sender;\n        }\n\n        // Set the struct:\n        ContributionProposal memory proposal = ContributionProposal({\n            contributionDescriptionHash: _contributionDescriptionHash,\n            nativeTokenReward: _rewards[0],\n            reputationChange: _reputationChange,\n            ethReward: _rewards[1],\n            externalToken: _externalToken,\n            externalTokenReward: _rewards[2],\n            beneficiary: beneficiary,\n            periodLength: _rewards[3],\n            numberOfPeriods: _rewards[4],\n            executionTime: 0,\n            redeemedPeriods:[uint(0),uint(0),uint(0),uint(0)]\n        });\n        organizationsProposals[_avatar][contributionId] = proposal;\n\n        emit NewContributionProposal(\n            _avatar,\n            contributionId,\n            controllerParams.intVote,\n            _contributionDescriptionHash,\n            _reputationChange,\n            _rewards,\n            _externalToken,\n            beneficiary\n        );\n\n        // vote for this proposal\n        controllerParams.intVote.ownerVote(contributionId, 1, msg.sender); // Automatically votes `yes` in the name of the opener.\n        return contributionId;\n    }\n\n    /**\n    * @dev execution of proposals, can only be called by the voting machine in which the vote is held.\n    * @param _proposalId the ID of the voting in the voting machine\n    * @param _avatar address of the controller\n    * @param _param a parameter of the voting result, 1 yes and 2 is no.\n    */\n    function execute(bytes32 _proposalId, address _avatar, int _param) public returns(bool) {\n        // Check the caller is indeed the voting machine:\n        require(parameters[getParametersFromController(Avatar(_avatar))].intVote == msg.sender);\n        require(organizationsProposals[_avatar][_proposalId].executionTime == 0);\n        require(organizationsProposals[_avatar][_proposalId].beneficiary != address(0));\n        // Check if vote was successful:\n        if (_param == 1) {\n          // solium-disable-next-line security/no-block-members\n            organizationsProposals[_avatar][_proposalId].executionTime = now;\n        }\n        emit ProposalExecuted(_avatar, _proposalId,_param);\n        return true;\n    }\n\n    /**\n    * @dev RedeemReputation reward for proposal\n    * @param _proposalId the ID of the voting in the voting machine\n    * @param _avatar address of the controller\n    * @return  result boolean for success indication.\n    */\n    function redeemReputation(bytes32 _proposalId, address _avatar) public returns(bool) {\n\n        ContributionProposal memory _proposal = organizationsProposals[_avatar][_proposalId];\n        ContributionProposal storage proposal = organizationsProposals[_avatar][_proposalId];\n        require(proposal.executionTime != 0);\n        uint periodsToPay = getPeriodsToPay(_proposalId,_avatar,0);\n        bool result;\n\n        //set proposal reward to zero to prevent reentrancy attack.\n        proposal.reputationChange = 0;\n        int reputation = int(periodsToPay) * _proposal.reputationChange;\n        if (reputation > 0 ) {\n            require(ControllerInterface(Avatar(_avatar).owner()).mintReputation(uint(reputation), _proposal.beneficiary,_avatar));\n            result = true;\n        } else if (reputation < 0 ) {\n            require(ControllerInterface(Avatar(_avatar).owner()).burnReputation(uint(reputation*(-1)), _proposal.beneficiary,_avatar));\n            result = true;\n        }\n        if (result) {\n            proposal.redeemedPeriods[0] = proposal.redeemedPeriods[0].add(periodsToPay);\n            emit RedeemReputation(_avatar,_proposalId,_proposal.beneficiary,reputation);\n        }\n        //restore proposal reward.\n        proposal.reputationChange = _proposal.reputationChange;\n        return result;\n    }\n\n    /**\n    * @dev RedeemNativeToken reward for proposal\n    * @param _proposalId the ID of the voting in the voting machine\n    * @param _avatar address of the controller\n    * @return  result boolean for success indication.\n    */\n    function redeemNativeToken(bytes32 _proposalId, address _avatar) public returns(bool) {\n\n        ContributionProposal memory _proposal = organizationsProposals[_avatar][_proposalId];\n        ContributionProposal storage proposal = organizationsProposals[_avatar][_proposalId];\n        require(proposal.executionTime != 0);\n        uint periodsToPay = getPeriodsToPay(_proposalId,_avatar,1);\n        bool result;\n        //set proposal rewards to zero to prevent reentrancy attack.\n        proposal.nativeTokenReward = 0;\n\n        uint amount = periodsToPay.mul(_proposal.nativeTokenReward);\n        if (amount > 0) {\n            require(ControllerInterface(Avatar(_avatar).owner()).mintTokens(amount, _proposal.beneficiary,_avatar));\n            proposal.redeemedPeriods[1] = proposal.redeemedPeriods[1].add(periodsToPay);\n            result = true;\n            emit RedeemNativeToken(_avatar,_proposalId,_proposal.beneficiary,amount);\n        }\n\n        //restore proposal reward.\n        proposal.nativeTokenReward = _proposal.nativeTokenReward;\n        return result;\n    }\n\n    /**\n    * @dev RedeemEther reward for proposal\n    * @param _proposalId the ID of the voting in the voting machine\n    * @param _avatar address of the controller\n    * @return  result boolean for success indication.\n    */\n    function redeemEther(bytes32 _proposalId, address _avatar) public returns(bool) {\n\n        ContributionProposal memory _proposal = organizationsProposals[_avatar][_proposalId];\n        ContributionProposal storage proposal = organizationsProposals[_avatar][_proposalId];\n        require(proposal.executionTime != 0);\n        uint periodsToPay = getPeriodsToPay(_proposalId,_avatar,2);\n        bool result;\n        //set proposal rewards to zero to prevent reentrancy attack.\n        proposal.ethReward = 0;\n        uint amount = periodsToPay.mul(_proposal.ethReward);\n\n        if (amount > 0) {\n            require(ControllerInterface(Avatar(_avatar).owner()).sendEther(amount, _proposal.beneficiary,_avatar));\n            proposal.redeemedPeriods[2] = proposal.redeemedPeriods[2].add(periodsToPay);\n            result = true;\n            emit RedeemEther(_avatar,_proposalId,_proposal.beneficiary,amount);\n        }\n\n        //restore proposal reward.\n        proposal.ethReward = _proposal.ethReward;\n        return result;\n    }\n\n    /**\n    * @dev RedeemNativeToken reward for proposal\n    * @param _proposalId the ID of the voting in the voting machine\n    * @param _avatar address of the controller\n    * @return  result boolean for success indication.\n    */\n    function redeemExternalToken(bytes32 _proposalId, address _avatar) public returns(bool) {\n\n        ContributionProposal memory _proposal = organizationsProposals[_avatar][_proposalId];\n        ContributionProposal storage proposal = organizationsProposals[_avatar][_proposalId];\n        require(proposal.executionTime != 0);\n        uint periodsToPay = getPeriodsToPay(_proposalId,_avatar,3);\n        bool result;\n        //set proposal rewards to zero to prevent reentrancy attack.\n        proposal.externalTokenReward = 0;\n\n        if (proposal.externalToken != address(0) && _proposal.externalTokenReward > 0) {\n            uint amount = periodsToPay.mul(_proposal.externalTokenReward);\n            if (amount > 0) {\n                require(ControllerInterface(Avatar(_avatar).owner()).externalTokenTransfer(_proposal.externalToken, _proposal.beneficiary, amount,_avatar));\n                proposal.redeemedPeriods[3] = proposal.redeemedPeriods[3].add(periodsToPay);\n                result = true;\n                emit RedeemExternalToken(_avatar,_proposalId,_proposal.beneficiary,amount);\n            }\n        }\n        //restore proposal reward.\n        proposal.externalTokenReward = _proposal.externalTokenReward;\n        return result;\n    }\n\n    /**\n    * @dev redeem rewards for proposal\n    * @param _proposalId the ID of the voting in the voting machine\n    * @param _avatar address of the controller\n    * @param _whatToRedeem whatToRedeem array:\n    *         whatToRedeem[0] - reputation\n    *         whatToRedeem[1] - nativeTokenReward\n    *         whatToRedeem[2] - Ether\n    *         whatToRedeem[3] - ExternalToken\n    * @return  result boolean array for each redeem type.\n    */\n    function redeem(bytes32 _proposalId, address _avatar,bool[4] _whatToRedeem) public returns(bool[4] result) {\n\n        if (_whatToRedeem[0]) {\n            result[0] = redeemReputation(_proposalId,_avatar);\n        }\n\n        if (_whatToRedeem[1]) {\n            result[1] = redeemNativeToken(_proposalId,_avatar);\n        }\n\n        if (_whatToRedeem[2]) {\n            result[2] = redeemEther(_proposalId,_avatar);\n        }\n\n        if (_whatToRedeem[3]) {\n            result[3] = redeemExternalToken(_proposalId,_avatar);\n        }\n\n        return result;\n    }\n\n    /**\n    * @dev getPeriodsToPay return the periods left to be paid for reputation,nativeToken,ether or externalToken.\n    * The function ignore the reward amount to be paid (which can be zero).\n    * @param _proposalId the ID of the voting in the voting machine\n    * @param _avatar address of the controller\n    * @param _redeemType - the type of the reward  :\n    *         0 - reputation\n    *         1 - nativeTokenReward\n    *         2 - Ether\n    *         3 - ExternalToken\n    * @return  periods left to be paid.\n    */\n    function getPeriodsToPay(bytes32 _proposalId, address _avatar,uint _redeemType) public view returns (uint) {\n        ContributionProposal memory _proposal = organizationsProposals[_avatar][_proposalId];\n        if (_proposal.executionTime == 0)\n            return 0;\n        uint periodsFromExecution;\n        if (_proposal.periodLength > 0) {\n          // solium-disable-next-line security/no-block-members\n            periodsFromExecution = (now.sub(_proposal.executionTime))/(_proposal.periodLength);\n        }\n        uint periodsToPay;\n        if ((_proposal.periodLength == 0) || (periodsFromExecution >= _proposal.numberOfPeriods)) {\n            periodsToPay = _proposal.numberOfPeriods.sub(_proposal.redeemedPeriods[_redeemType]);\n        } else {\n            periodsToPay = periodsFromExecution.sub(_proposal.redeemedPeriods[_redeemType]);\n        }\n        return periodsToPay;\n    }\n\n    /**\n    * @dev getRedeemedPeriods return the already redeemed periods for reputation, nativeToken, ether or externalToken.\n    * @param _proposalId the ID of the voting in the voting machine\n    * @param _avatar address of the controller\n    * @param _redeemType - the type of the reward  :\n    *         0 - reputation\n    *         1 - nativeTokenReward\n    *         2 - Ether\n    *         3 - ExternalToken\n    * @return redeemed period.\n    */\n    function getRedeemedPeriods(bytes32 _proposalId, address _avatar,uint _redeemType) public view returns (uint) {\n        return organizationsProposals[_avatar][_proposalId].redeemedPeriods[_redeemType];\n    }\n\n    function getProposalEthReward(bytes32 _proposalId, address _avatar) public view returns (uint) {\n        return organizationsProposals[_avatar][_proposalId].ethReward;\n    }\n\n    function getProposalExternalTokenReward(bytes32 _proposalId, address _avatar) public view returns (uint) {\n        return organizationsProposals[_avatar][_proposalId].externalTokenReward;\n    }\n\n    function getProposalExternalToken(bytes32 _proposalId, address _avatar) public view returns (address) {\n        return organizationsProposals[_avatar][_proposalId].externalToken;\n    }\n\n    function getProposalExecutionTime(bytes32 _proposalId, address _avatar) public view returns (uint) {\n        return organizationsProposals[_avatar][_proposalId].executionTime;\n    }\n\n}\n",
  "sourcePath": "/Users/oren/daostack/daostack2/daostack/contracts/universalSchemes/ContributionReward.sol",
  "compiler": {
    "name": "solc",
    "version": "0.4.24+commit.e67f0147.Emscripten.clang"
  },
  "schemaVersion": "2.0.0",
  "updatedAt": "2018-08-15T23:19:53.704Z"
}