{
  "contractName": "ERC827Token",
  "abi": [
    {
      "constant": false,
      "inputs": [
        {
          "name": "_spender",
          "type": "address"
        },
        {
          "name": "_value",
          "type": "uint256"
        }
      ],
      "name": "approve",
      "outputs": [
        {
          "name": "",
          "type": "bool"
        }
      ],
      "payable": false,
      "stateMutability": "nonpayable",
      "type": "function"
    },
    {
      "constant": true,
      "inputs": [],
      "name": "totalSupply",
      "outputs": [
        {
          "name": "",
          "type": "uint256"
        }
      ],
      "payable": false,
      "stateMutability": "view",
      "type": "function"
    },
    {
      "constant": false,
      "inputs": [
        {
          "name": "_from",
          "type": "address"
        },
        {
          "name": "_to",
          "type": "address"
        },
        {
          "name": "_value",
          "type": "uint256"
        }
      ],
      "name": "transferFrom",
      "outputs": [
        {
          "name": "",
          "type": "bool"
        }
      ],
      "payable": false,
      "stateMutability": "nonpayable",
      "type": "function"
    },
    {
      "constant": false,
      "inputs": [
        {
          "name": "_spender",
          "type": "address"
        },
        {
          "name": "_subtractedValue",
          "type": "uint256"
        }
      ],
      "name": "decreaseApproval",
      "outputs": [
        {
          "name": "",
          "type": "bool"
        }
      ],
      "payable": false,
      "stateMutability": "nonpayable",
      "type": "function"
    },
    {
      "constant": true,
      "inputs": [
        {
          "name": "_owner",
          "type": "address"
        }
      ],
      "name": "balanceOf",
      "outputs": [
        {
          "name": "",
          "type": "uint256"
        }
      ],
      "payable": false,
      "stateMutability": "view",
      "type": "function"
    },
    {
      "constant": false,
      "inputs": [
        {
          "name": "_to",
          "type": "address"
        },
        {
          "name": "_value",
          "type": "uint256"
        }
      ],
      "name": "transfer",
      "outputs": [
        {
          "name": "",
          "type": "bool"
        }
      ],
      "payable": false,
      "stateMutability": "nonpayable",
      "type": "function"
    },
    {
      "constant": false,
      "inputs": [
        {
          "name": "_spender",
          "type": "address"
        },
        {
          "name": "_addedValue",
          "type": "uint256"
        }
      ],
      "name": "increaseApproval",
      "outputs": [
        {
          "name": "",
          "type": "bool"
        }
      ],
      "payable": false,
      "stateMutability": "nonpayable",
      "type": "function"
    },
    {
      "constant": true,
      "inputs": [
        {
          "name": "_owner",
          "type": "address"
        },
        {
          "name": "_spender",
          "type": "address"
        }
      ],
      "name": "allowance",
      "outputs": [
        {
          "name": "",
          "type": "uint256"
        }
      ],
      "payable": false,
      "stateMutability": "view",
      "type": "function"
    },
    {
      "anonymous": false,
      "inputs": [
        {
          "indexed": true,
          "name": "owner",
          "type": "address"
        },
        {
          "indexed": true,
          "name": "spender",
          "type": "address"
        },
        {
          "indexed": false,
          "name": "value",
          "type": "uint256"
        }
      ],
      "name": "Approval",
      "type": "event"
    },
    {
      "anonymous": false,
      "inputs": [
        {
          "indexed": true,
          "name": "from",
          "type": "address"
        },
        {
          "indexed": true,
          "name": "to",
          "type": "address"
        },
        {
          "indexed": false,
          "name": "value",
          "type": "uint256"
        }
      ],
      "name": "Transfer",
      "type": "event"
    },
    {
      "constant": false,
      "inputs": [
        {
          "name": "_spender",
          "type": "address"
        },
        {
          "name": "_value",
          "type": "uint256"
        },
        {
          "name": "_data",
          "type": "bytes"
        }
      ],
      "name": "approveAndCall",
      "outputs": [
        {
          "name": "",
          "type": "bool"
        }
      ],
      "payable": true,
      "stateMutability": "payable",
      "type": "function"
    },
    {
      "constant": false,
      "inputs": [
        {
          "name": "_to",
          "type": "address"
        },
        {
          "name": "_value",
          "type": "uint256"
        },
        {
          "name": "_data",
          "type": "bytes"
        }
      ],
      "name": "transferAndCall",
      "outputs": [
        {
          "name": "",
          "type": "bool"
        }
      ],
      "payable": true,
      "stateMutability": "payable",
      "type": "function"
    },
    {
      "constant": false,
      "inputs": [
        {
          "name": "_from",
          "type": "address"
        },
        {
          "name": "_to",
          "type": "address"
        },
        {
          "name": "_value",
          "type": "uint256"
        },
        {
          "name": "_data",
          "type": "bytes"
        }
      ],
      "name": "transferFromAndCall",
      "outputs": [
        {
          "name": "",
          "type": "bool"
        }
      ],
      "payable": true,
      "stateMutability": "payable",
      "type": "function"
    },
    {
      "constant": false,
      "inputs": [
        {
          "name": "_spender",
          "type": "address"
        },
        {
          "name": "_addedValue",
          "type": "uint256"
        },
        {
          "name": "_data",
          "type": "bytes"
        }
      ],
      "name": "increaseApprovalAndCall",
      "outputs": [
        {
          "name": "",
          "type": "bool"
        }
      ],
      "payable": true,
      "stateMutability": "payable",
      "type": "function"
    },
    {
      "constant": false,
      "inputs": [
        {
          "name": "_spender",
          "type": "address"
        },
        {
          "name": "_subtractedValue",
          "type": "uint256"
        },
        {
          "name": "_data",
          "type": "bytes"
        }
      ],
      "name": "decreaseApprovalAndCall",
      "outputs": [
        {
          "name": "",
          "type": "bool"
        }
      ],
      "payable": true,
      "stateMutability": "payable",
      "type": "function"
    }
  ],
  "bytecode": "0x608060405234801561001057600080fd5b50610a84806100206000396000f3006080604052600436106100c45763ffffffff7c0100000000000000000000000000000000000000000000000000000000600035041663095ea7b381146100c957806318160ddd1461010157806323b872dd146101285780634000aea01461015257806366188463146101ae57806370a08231146101d257806390db623f146101f3578063a9059cbb1461024f578063c1d34b8914610273578063cae9ca51146102d5578063cb3993be14610331578063d73dd6231461038d578063dd62ed3e146103b1575b600080fd5b3480156100d557600080fd5b506100ed600160a060020a03600435166024356103d8565b604080519115158252519081900360200190f35b34801561010d57600080fd5b5061011661043e565b60408051918252519081900360200190f35b34801561013457600080fd5b506100ed600160a060020a0360043581169060243516604435610444565b604080516020600460443581810135601f81018490048402850184019095528484526100ed948235600160a060020a03169460248035953695946064949201919081908401838280828437509497506105bb9650505050505050565b3480156101ba57600080fd5b506100ed600160a060020a036004351660243561066b565b3480156101de57600080fd5b50610116600160a060020a036004351661075b565b604080516020600460443581810135601f81018490048402850184019095528484526100ed948235600160a060020a03169460248035953695946064949201919081908401838280828437509497506107769650505050505050565b34801561025b57600080fd5b506100ed600160a060020a0360043516602435610798565b604080516020601f6064356004818101359283018490048402850184019095528184526100ed94600160a060020a0381358116956024803590921695604435953695608494019181908401838280828437509497506108799650505050505050565b604080516020600460443581810135601f81018490048402850184019095528484526100ed948235600160a060020a031694602480359536959460649492019190819084018382808284375094975061092b9650505050505050565b604080516020600460443581810135601f81018490048402850184019095528484526100ed948235600160a060020a031694602480359536959460649492019190819084018382808284375094975061094d9650505050505050565b34801561039957600080fd5b506100ed600160a060020a036004351660243561096f565b3480156103bd57600080fd5b50610116600160a060020a0360043581169060243516610a08565b336000818152600260209081526040808320600160a060020a038716808552908352818420869055815186815291519394909390927f8c5be1e5ebec7d5bd14f71427d1e84f3dd0314c0f7b2291e5b200ac8c7c3b925928290030190a350600192915050565b60015490565b6000600160a060020a038316151561045b57600080fd5b600160a060020a03841660009081526020819052604090205482111561048057600080fd5b600160a060020a03841660009081526002602090815260408083203384529091529020548211156104b057600080fd5b600160a060020a0384166000908152602081905260409020546104d9908363ffffffff610a3316565b600160a060020a03808616600090815260208190526040808220939093559085168152205461050e908363ffffffff610a4516565b600160a060020a03808516600090815260208181526040808320949094559187168152600282528281203382529091522054610550908363ffffffff610a3316565b600160a060020a03808616600081815260026020908152604080832033845282529182902094909455805186815290519287169391927fddf252ad1be2c89b69c2b068fc378daa952ba7f163c4a11628f55a4df523b3ef929181900390910190a35060019392505050565b6000600160a060020a0384163014156105d357600080fd5b6105dd8484610798565b5083600160a060020a0316348360405180828051906020019080838360005b838110156106145781810151838201526020016105fc565b50505050905090810190601f1680156106415780820380516001836020036101000a031916815260200191505b5091505060006040518083038185875af192505050151561066157600080fd5b5060019392505050565b336000908152600260209081526040808320600160a060020a0386168452909152812054808311156106c057336000908152600260209081526040808320600160a060020a03881684529091528120556106f5565b6106d0818463ffffffff610a3316565b336000908152600260209081526040808320600160a060020a03891684529091529020555b336000818152600260209081526040808320600160a060020a0389168085529083529281902054815190815290519293927f8c5be1e5ebec7d5bd14f71427d1e84f3dd0314c0f7b2291e5b200ac8c7c3b925929181900390910190a35060019392505050565b600160a060020a031660009081526020819052604090205490565b6000600160a060020a03841630141561078e57600080fd5b6105dd848461096f565b6000600160a060020a03831615156107af57600080fd5b336000908152602081905260409020548211156107cb57600080fd5b336000908152602081905260409020546107eb908363ffffffff610a3316565b3360009081526020819052604080822092909255600160a060020a0385168152205461081d908363ffffffff610a4516565b600160a060020a038416600081815260208181526040918290209390935580518581529051919233927fddf252ad1be2c89b69c2b068fc378daa952ba7f163c4a11628f55a4df523b3ef9281900390910190a350600192915050565b6000600160a060020a03841630141561089157600080fd5b61089c858585610444565b5083600160a060020a0316348360405180828051906020019080838360005b838110156108d35781810151838201526020016108bb565b50505050905090810190601f1680156109005780820380516001836020036101000a031916815260200191505b5091505060006040518083038185875af192505050151561092057600080fd5b506001949350505050565b6000600160a060020a03841630141561094357600080fd5b6105dd84846103d8565b6000600160a060020a03841630141561096557600080fd5b6105dd848461066b565b336000908152600260209081526040808320600160a060020a03861684529091528120546109a3908363ffffffff610a4516565b336000818152600260209081526040808320600160a060020a0389168085529083529281902085905580519485525191937f8c5be1e5ebec7d5bd14f71427d1e84f3dd0314c0f7b2291e5b200ac8c7c3b925929081900390910190a350600192915050565b600160a060020a03918216600090815260026020908152604080832093909416825291909152205490565b600082821115610a3f57fe5b50900390565b81810182811015610a5257fe5b929150505600a165627a7a72305820584784802619dc87625ba1b35f797449fedc59ad437a367e72c8633a9c0d988e0029",
  "source": "/* solium-disable security/no-low-level-calls */\n\npragma solidity ^0.4.23;\n\nimport \"./ERC827.sol\";\nimport \"../ERC20/StandardToken.sol\";\n\n\n/**\n * @title ERC827, an extension of ERC20 token standard\n *\n * @dev Implementation the ERC827, following the ERC20 standard with extra\n * @dev methods to transfer value and data and execute calls in transfers and\n * @dev approvals.\n *\n * @dev Uses OpenZeppelin StandardToken.\n */\ncontract ERC827Token is ERC827, StandardToken {\n\n  /**\n   * @dev Addition to ERC20 token methods. It allows to\n   * @dev approve the transfer of value and execute a call with the sent data.\n   *\n   * @dev Beware that changing an allowance with this method brings the risk that\n   * @dev someone may use both the old and the new allowance by unfortunate\n   * @dev transaction ordering. One possible solution to mitigate this race condition\n   * @dev is to first reduce the spender's allowance to 0 and set the desired value\n   * @dev afterwards:\n   * @dev https://github.com/ethereum/EIPs/issues/20#issuecomment-263524729\n   *\n   * @param _spender The address that will spend the funds.\n   * @param _value The amount of tokens to be spent.\n   * @param _data ABI-encoded contract call to call `_to` address.\n   *\n   * @return true if the call function was executed successfully\n   */\n  function approveAndCall(\n    address _spender,\n    uint256 _value,\n    bytes _data\n  )\n    public\n    payable\n    returns (bool)\n  {\n    require(_spender != address(this));\n\n    super.approve(_spender, _value);\n\n    // solium-disable-next-line security/no-call-value\n    require(_spender.call.value(msg.value)(_data));\n\n    return true;\n  }\n\n  /**\n   * @dev Addition to ERC20 token methods. Transfer tokens to a specified\n   * @dev address and execute a call with the sent data on the same transaction\n   *\n   * @param _to address The address which you want to transfer to\n   * @param _value uint256 the amout of tokens to be transfered\n   * @param _data ABI-encoded contract call to call `_to` address.\n   *\n   * @return true if the call function was executed successfully\n   */\n  function transferAndCall(\n    address _to,\n    uint256 _value,\n    bytes _data\n  )\n    public\n    payable\n    returns (bool)\n  {\n    require(_to != address(this));\n\n    super.transfer(_to, _value);\n\n    // solium-disable-next-line security/no-call-value\n    require(_to.call.value(msg.value)(_data));\n    return true;\n  }\n\n  /**\n   * @dev Addition to ERC20 token methods. Transfer tokens from one address to\n   * @dev another and make a contract call on the same transaction\n   *\n   * @param _from The address which you want to send tokens from\n   * @param _to The address which you want to transfer to\n   * @param _value The amout of tokens to be transferred\n   * @param _data ABI-encoded contract call to call `_to` address.\n   *\n   * @return true if the call function was executed successfully\n   */\n  function transferFromAndCall(\n    address _from,\n    address _to,\n    uint256 _value,\n    bytes _data\n  )\n    public payable returns (bool)\n  {\n    require(_to != address(this));\n\n    super.transferFrom(_from, _to, _value);\n\n    // solium-disable-next-line security/no-call-value\n    require(_to.call.value(msg.value)(_data));\n    return true;\n  }\n\n  /**\n   * @dev Addition to StandardToken methods. Increase the amount of tokens that\n   * @dev an owner allowed to a spender and execute a call with the sent data.\n   *\n   * @dev approve should be called when allowed[_spender] == 0. To increment\n   * @dev allowed value is better to use this function to avoid 2 calls (and wait until\n   * @dev the first transaction is mined)\n   * @dev From MonolithDAO Token.sol\n   *\n   * @param _spender The address which will spend the funds.\n   * @param _addedValue The amount of tokens to increase the allowance by.\n   * @param _data ABI-encoded contract call to call `_spender` address.\n   */\n  function increaseApprovalAndCall(\n    address _spender,\n    uint _addedValue,\n    bytes _data\n  )\n    public\n    payable\n    returns (bool)\n  {\n    require(_spender != address(this));\n\n    super.increaseApproval(_spender, _addedValue);\n\n    // solium-disable-next-line security/no-call-value\n    require(_spender.call.value(msg.value)(_data));\n\n    return true;\n  }\n\n  /**\n   * @dev Addition to StandardToken methods. Decrease the amount of tokens that\n   * @dev an owner allowed to a spender and execute a call with the sent data.\n   *\n   * @dev approve should be called when allowed[_spender] == 0. To decrement\n   * @dev allowed value is better to use this function to avoid 2 calls (and wait until\n   * @dev the first transaction is mined)\n   * @dev From MonolithDAO Token.sol\n   *\n   * @param _spender The address which will spend the funds.\n   * @param _subtractedValue The amount of tokens to decrease the allowance by.\n   * @param _data ABI-encoded contract call to call `_spender` address.\n   */\n  function decreaseApprovalAndCall(\n    address _spender,\n    uint _subtractedValue,\n    bytes _data\n  )\n    public\n    payable\n    returns (bool)\n  {\n    require(_spender != address(this));\n\n    super.decreaseApproval(_spender, _subtractedValue);\n\n    // solium-disable-next-line security/no-call-value\n    require(_spender.call.value(msg.value)(_data));\n\n    return true;\n  }\n\n}\n",
  "sourcePath": "openzeppelin-solidity/contracts/token/ERC827/ERC827Token.sol",
  "compiler": {
    "name": "solc",
    "version": "0.4.24+commit.e67f0147.Emscripten.clang"
  },
  "schemaVersion": "2.0.0",
  "updatedAt": "2018-07-21T19:08:34.414Z"
}