{
  "contractName": "ExecutableTest",
  "abi": [
    {
      "anonymous": false,
      "inputs": [
        {
          "indexed": false,
          "name": "_msg",
          "type": "address"
        }
      ],
      "name": "LogAddress",
      "type": "event"
    },
    {
      "anonymous": false,
      "inputs": [
        {
          "indexed": false,
          "name": "_msg",
          "type": "int256"
        }
      ],
      "name": "LogInt",
      "type": "event"
    },
    {
      "anonymous": false,
      "inputs": [
        {
          "indexed": false,
          "name": "_msg",
          "type": "string"
        }
      ],
      "name": "LogString",
      "type": "event"
    },
    {
      "anonymous": false,
      "inputs": [
        {
          "indexed": false,
          "name": "_msg",
          "type": "uint256"
        }
      ],
      "name": "LogUint",
      "type": "event"
    },
    {
      "anonymous": false,
      "inputs": [
        {
          "indexed": false,
          "name": "_msg",
          "type": "bytes"
        }
      ],
      "name": "LogBytes",
      "type": "event"
    },
    {
      "anonymous": false,
      "inputs": [
        {
          "indexed": false,
          "name": "_msg",
          "type": "bytes32"
        }
      ],
      "name": "LogBytes32",
      "type": "event"
    },
    {
      "anonymous": false,
      "inputs": [
        {
          "indexed": false,
          "name": "_msg",
          "type": "bool"
        }
      ],
      "name": "LogBool",
      "type": "event"
    },
    {
      "constant": false,
      "inputs": [
        {
          "name": "_proposalId",
          "type": "bytes32"
        },
        {
          "name": "_avatar",
          "type": "address"
        },
        {
          "name": "_param",
          "type": "int256"
        }
      ],
      "name": "execute",
      "outputs": [
        {
          "name": "",
          "type": "bool"
        }
      ],
      "payable": false,
      "stateMutability": "nonpayable",
      "type": "function"
    }
  ],
  "bytecode": "0x608060405234801561001057600080fd5b50610175806100206000396000f3006080604052600436106100405763ffffffff7c0100000000000000000000000000000000000000000000000000000000600035041663310ce4e28114610045575b600080fd5b34801561005157600080fd5b5061007960043573ffffffffffffffffffffffffffffffffffffffff6024351660443561008d565b604080519115158252519081900360200190f35b6040805184815290516000917e9fd52f05c0ded31d6fb0ee580b923f85e99cf1a5a1da342f25e73c45829c83919081900360200190a16040805173ffffffffffffffffffffffffffffffffffffffff8516815290517fb123f68b8ba02b447d91a6629e121111b7dd6061ff418a60139c8bf00522a2849181900360200190a16040805183815290517f1aa4309bfd99af8afa7454590e1bdaa5a9b3b63e5baa109ae9afa3ecd0c67f399181900360200190a150600193925050505600a165627a7a7230582054f6f40b58f9377a4597d50253d6f65417472a839c1311d08b260415a76725130029",
  "source": "pragma solidity ^0.4.24;\r\n\r\nimport \"./Debug.sol\";\r\nimport \"../universalSchemes/ExecutableInterface.sol\";\r\n\r\n\r\ncontract ExecutableTest is ExecutableInterface, Debug {\r\n\r\n    function execute(bytes32 _proposalId, address _avatar, int _param) public returns(bool) {\r\n        emit LogBytes32(_proposalId);\r\n        emit LogAddress(_avatar);\r\n        emit LogInt(_param);\r\n        return true;\r\n    }\r\n}\r\n",
  "sourcePath": "C:\\users\\dkent\\documents\\projects\\github\\daostack\\arc\\contracts\\test\\ExecutableTest.sol",
  "compiler": {
    "name": "solc",
    "version": "0.4.24+commit.e67f0147.Emscripten.clang"
  },
  "schemaVersion": "2.0.0",
  "updatedAt": "2018-07-21T19:59:28.177Z"
}