{
  "contractName": "GlobalConstraintRegistrar",
  "abi": [
    {
      "constant": true,
      "inputs": [
        {
          "name": "",
          "type": "bytes32"
        }
      ],
      "name": "parameters",
      "outputs": [
        {
          "name": "voteRegisterParams",
          "type": "bytes32"
        },
        {
          "name": "intVote",
          "type": "address"
        }
      ],
      "payable": false,
      "stateMutability": "view",
      "type": "function"
    },
    {
      "constant": true,
      "inputs": [
        {
          "name": "",
          "type": "address"
        },
        {
          "name": "",
          "type": "bytes32"
        }
      ],
      "name": "organizationsProposals",
      "outputs": [
        {
          "name": "gc",
          "type": "address"
        },
        {
          "name": "params",
          "type": "bytes32"
        },
        {
          "name": "proposalType",
          "type": "uint256"
        },
        {
          "name": "voteToRemoveParams",
          "type": "bytes32"
        }
      ],
      "payable": false,
      "stateMutability": "view",
      "type": "function"
    },
    {
      "constant": false,
      "inputs": [
        {
          "name": "_hashedParameters",
          "type": "bytes32"
        }
      ],
      "name": "updateParameters",
      "outputs": [],
      "payable": false,
      "stateMutability": "nonpayable",
      "type": "function"
    },
    {
      "constant": false,
      "inputs": [],
      "name": "renounceOwnership",
      "outputs": [],
      "payable": false,
      "stateMutability": "nonpayable",
      "type": "function"
    },
    {
      "constant": true,
      "inputs": [],
      "name": "owner",
      "outputs": [
        {
          "name": "",
          "type": "address"
        }
      ],
      "payable": false,
      "stateMutability": "view",
      "type": "function"
    },
    {
      "constant": true,
      "inputs": [
        {
          "name": "",
          "type": "address"
        },
        {
          "name": "",
          "type": "address"
        }
      ],
      "name": "voteToRemoveParams",
      "outputs": [
        {
          "name": "",
          "type": "bytes32"
        }
      ],
      "payable": false,
      "stateMutability": "view",
      "type": "function"
    },
    {
      "constant": false,
      "inputs": [
        {
          "name": "_newOwner",
          "type": "address"
        }
      ],
      "name": "transferOwnership",
      "outputs": [],
      "payable": false,
      "stateMutability": "nonpayable",
      "type": "function"
    },
    {
      "constant": true,
      "inputs": [],
      "name": "hashedParameters",
      "outputs": [
        {
          "name": "",
          "type": "bytes32"
        }
      ],
      "payable": false,
      "stateMutability": "view",
      "type": "function"
    },
    {
      "anonymous": false,
      "inputs": [
        {
          "indexed": true,
          "name": "_avatar",
          "type": "address"
        },
        {
          "indexed": true,
          "name": "_proposalId",
          "type": "bytes32"
        },
        {
          "indexed": true,
          "name": "_intVoteInterface",
          "type": "address"
        },
        {
          "indexed": false,
          "name": "_gc",
          "type": "address"
        },
        {
          "indexed": false,
          "name": "_params",
          "type": "bytes32"
        },
        {
          "indexed": false,
          "name": "_voteToRemoveParams",
          "type": "bytes32"
        }
      ],
      "name": "NewGlobalConstraintsProposal",
      "type": "event"
    },
    {
      "anonymous": false,
      "inputs": [
        {
          "indexed": true,
          "name": "_avatar",
          "type": "address"
        },
        {
          "indexed": true,
          "name": "_proposalId",
          "type": "bytes32"
        },
        {
          "indexed": true,
          "name": "_intVoteInterface",
          "type": "address"
        },
        {
          "indexed": false,
          "name": "_gc",
          "type": "address"
        }
      ],
      "name": "RemoveGlobalConstraintsProposal",
      "type": "event"
    },
    {
      "anonymous": false,
      "inputs": [
        {
          "indexed": true,
          "name": "_avatar",
          "type": "address"
        },
        {
          "indexed": true,
          "name": "_proposalId",
          "type": "bytes32"
        },
        {
          "indexed": false,
          "name": "_param",
          "type": "int256"
        }
      ],
      "name": "ProposalExecuted",
      "type": "event"
    },
    {
      "anonymous": false,
      "inputs": [
        {
          "indexed": true,
          "name": "_avatar",
          "type": "address"
        },
        {
          "indexed": true,
          "name": "_proposalId",
          "type": "bytes32"
        }
      ],
      "name": "ProposalDeleted",
      "type": "event"
    },
    {
      "anonymous": false,
      "inputs": [
        {
          "indexed": true,
          "name": "previousOwner",
          "type": "address"
        }
      ],
      "name": "OwnershipRenounced",
      "type": "event"
    },
    {
      "anonymous": false,
      "inputs": [
        {
          "indexed": true,
          "name": "previousOwner",
          "type": "address"
        },
        {
          "indexed": true,
          "name": "newOwner",
          "type": "address"
        }
      ],
      "name": "OwnershipTransferred",
      "type": "event"
    },
    {
      "constant": false,
      "inputs": [
        {
          "name": "_proposalId",
          "type": "bytes32"
        },
        {
          "name": "_avatar",
          "type": "address"
        },
        {
          "name": "_param",
          "type": "int256"
        }
      ],
      "name": "execute",
      "outputs": [
        {
          "name": "",
          "type": "bool"
        }
      ],
      "payable": false,
      "stateMutability": "nonpayable",
      "type": "function"
    },
    {
      "constant": false,
      "inputs": [
        {
          "name": "_voteRegisterParams",
          "type": "bytes32"
        },
        {
          "name": "_intVote",
          "type": "address"
        }
      ],
      "name": "setParameters",
      "outputs": [
        {
          "name": "",
          "type": "bytes32"
        }
      ],
      "payable": false,
      "stateMutability": "nonpayable",
      "type": "function"
    },
    {
      "constant": true,
      "inputs": [
        {
          "name": "_voteRegisterParams",
          "type": "bytes32"
        },
        {
          "name": "_intVote",
          "type": "address"
        }
      ],
      "name": "getParametersHash",
      "outputs": [
        {
          "name": "",
          "type": "bytes32"
        }
      ],
      "payable": false,
      "stateMutability": "pure",
      "type": "function"
    },
    {
      "constant": false,
      "inputs": [
        {
          "name": "_avatar",
          "type": "address"
        },
        {
          "name": "_gc",
          "type": "address"
        },
        {
          "name": "_params",
          "type": "bytes32"
        },
        {
          "name": "_voteToRemoveParams",
          "type": "bytes32"
        }
      ],
      "name": "proposeGlobalConstraint",
      "outputs": [
        {
          "name": "",
          "type": "bytes32"
        }
      ],
      "payable": false,
      "stateMutability": "nonpayable",
      "type": "function"
    },
    {
      "constant": false,
      "inputs": [
        {
          "name": "_avatar",
          "type": "address"
        },
        {
          "name": "_gc",
          "type": "address"
        }
      ],
      "name": "proposeToRemoveGC",
      "outputs": [
        {
          "name": "",
          "type": "bytes32"
        }
      ],
      "payable": false,
      "stateMutability": "nonpayable",
      "type": "function"
    }
  ],
  "bytecode": "0x608060405260008054600160a060020a03191633179055611195806100256000396000f3006080604052600436106100ab5763ffffffff60e060020a6000350416630250680481146100b057806306e3a978146100e95780630fd6e4981461013d5780632453732a1461017c5780632ac2af53146101a0578063310ce4e2146101ba57806368e14dac146101f5578063715018a6146102195780638da5cb5b1461022e578063a3379f901461025f578063f2fde38b14610286578063f731e470146102a7578063f98e87ba146102ce575b600080fd5b3480156100bc57600080fd5b506100c86004356102e3565b60408051928352600160a060020a0390911660208301528051918290030190f35b3480156100f557600080fd5b5061010d600160a060020a0360043516602435610305565b60408051600160a060020a0390951685526020850193909352838301919091526060830152519081900360800190f35b34801561014957600080fd5b5061016a600160a060020a0360043581169060243516604435606435610340565b60408051918252519081900360200190f35b34801561018857600080fd5b5061016a600435600160a060020a0360243516610649565b3480156101ac57600080fd5b506101b86004356106e7565b005b3480156101c657600080fd5b506101e1600435600160a060020a0360243516604435610703565b604080519115158252519081900360200190f35b34801561020157600080fd5b5061016a600435600160a060020a0360243516610a76565b34801561022557600080fd5b506101b8610acb565b34801561023a57600080fd5b50610243610b37565b60408051600160a060020a039092168252519081900360200190f35b34801561026b57600080fd5b5061016a600160a060020a0360043581169060243516610b46565b34801561029257600080fd5b506101b8600160a060020a0360043516610b63565b3480156102b357600080fd5b5061016a600160a060020a0360043581169060243516610b86565b3480156102da57600080fd5b5061016a610f9f565b60046020526000908152604090208054600190910154600160a060020a031682565b600260208181526000938452604080852090915291835291208054600182015492820154600390920154600160a060020a0390911692919084565b600061034a61112b565b600080610355611142565b600460006103628b610fa5565b815260208082019290925260409081016000908120825180840184528154808252600190920154600160a060020a0390811682870181905285517f0905c9f9000000000000000000000000000000000000000000000000000000008152600260048201526024810194909452908f16604484015230606484015233608484015293519098509296508693630905c9f99360a48084019492939192918390030190829087803b15801561041357600080fd5b505af1158015610427573d6000803e3d6000fd5b505050506040513d602081101561043d57600080fd5b8101908080519060200190929190505050915060806040519081016040528089600160a060020a0316815260200188600019168152602001600181526020018760001916815250905080600260008b600160a060020a0316600160a060020a031681526020019081526020016000206000846000191660001916815260200190815260200160002060008201518160000160006101000a815481600160a060020a030219169083600160a060020a0316021790555060208201518160010190600019169055604082015181600201556060820151816003019060001916905590505082600160a060020a031682600019168a600160a060020a03167f4e87f569c5a3f504eea38add71bbdd022e5d63d0ee92d4130c407b8d64941bc08b8b8b6040518084600160a060020a0316600160a060020a0316815260200183600019166000191681526020018260001916600019168152602001935050505060405180910390a4604080517f339e23d100000000000000000000000000000000000000000000000000000000815260048101849052600160248201523360448201529051600160a060020a0385169163339e23d19160648083019260209291908290030181600087803b15801561061057600080fd5b505af1158015610624573d6000803e3d6000fd5b505050506040513d602081101561063a57600080fd5b50919998505050505050505050565b6040805160208082018590526c01000000000000000000000000600160a060020a0385160282840152825160348184030181526054909201928390528151600093918291908401908083835b602083106106b45780518252601f199092019160209182019101610695565b5181516020939093036101000a600019018019909116921691909117905260405192018290039091209695505050505050565b600054600160a060020a031633146106fe57600080fd5b600155565b60008061070e611142565b60003360048261071d89610fa5565b8152602081019190915260400160002060010154600160a060020a03161461074457600080fd5b600160a060020a0380871660009081526002602081815260408084208c855282529283902083516080810185528154909516808652600182810154938701939093529281015493850193909352600390920154606084015290945090925015156107ad57600080fd5b600160a060020a03861660008181526002602081815260408084208c8552909152808320805473ffffffffffffffffffffffffffffffffffffffff19168155600181018490559182018390556003909101829055518992917f6bc0cb9e9967b59a69ace442598e1df4368d38661bd5c0800fbcbc9fe855fbbe91a38460011415610a2b5785600160a060020a0316638da5cb5b6040518163ffffffff1660e060020a028152600401602060405180830381600087803b15801561086f57600080fd5b505af1158015610883573d6000803e3d6000fd5b505050506040513d602081101561089957600080fd5b5051604083015190915060011415610980578151602080840151604080517fe4537a74000000000000000000000000000000000000000000000000000000008152600160a060020a03948516600482015260248101929092528984166044830152519284169263e4537a74926064808401939192918290030181600087803b15801561092457600080fd5b505af1158015610938573d6000803e3d6000fd5b505050506040513d602081101561094e57600080fd5b50516060830151600160a060020a03808916600090815260036020908152604080832088519094168352929052205592505b816040015160021415610a2b578151604080517f4f52b5be000000000000000000000000000000000000000000000000000000008152600160a060020a0392831660048201528883166024820152905191831691634f52b5be916044808201926020929091908290030181600087803b1580156109fc57600080fd5b505af1158015610a10573d6000803e3d6000fd5b505050506040513d6020811015610a2657600080fd5b505192505b6040805186815290518891600160a060020a038916917fd2632e80f5364f02aded1c64e8a04637b7c8bb9c2db2bedf4b6ac47c013acbc09181900360200190a3509095945050505050565b600080610a838484610649565b60008181526004602052604090208581556001018054600160a060020a03861673ffffffffffffffffffffffffffffffffffffffff1990911617905591508190505092915050565b600054600160a060020a03163314610ae257600080fd5b60008054604051600160a060020a03909116917ff8df31144d9c2f0f6b59d69b8b98abd5459d07f2742c4df920b25aae33c6482091a26000805473ffffffffffffffffffffffffffffffffffffffff19169055565b600054600160a060020a031681565b600360209081526000928352604080842090915290825290205481565b600054600160a060020a03163314610b7a57600080fd5b610b83816110ae565b50565b600080610b9161112b565b600080610b9c611142565b87600160a060020a0316638da5cb5b6040518163ffffffff1660e060020a028152600401602060405180830381600087803b158015610bda57600080fd5b505af1158015610bee573d6000803e3d6000fd5b505050506040513d6020811015610c0457600080fd5b5051604080517ff76488be000000000000000000000000000000000000000000000000000000008152600160a060020a038a811660048301528b8116602483015291519297509087169163f76488be916044808201926020929091908290030181600087803b158015610c7657600080fd5b505af1158015610c8a573d6000803e3d6000fd5b505050506040513d6020811015610ca057600080fd5b50511515610cad57600080fd5b60046000610cba8a610fa5565b8152602080820192909252604090810160009081208251808401845281548152600190910154600160a060020a039081168286018190528d821680855260038752858520928e1685529186528484205485517f0905c9f9000000000000000000000000000000000000000000000000000000008152600260048201526024810191909152604481019290925230606483015233608483015293519198509296508693630905c9f99360a480820194929392918390030190829087803b158015610d8257600080fd5b505af1158015610d96573d6000803e3d6000fd5b505050506040513d6020811015610dac57600080fd5b8101908080519060200190929190505050915060806040519081016040528088600160a060020a03168152602001600060010260001916815260200160028152602001600060010260001916815250905080600260008a600160a060020a0316600160a060020a031681526020019081526020016000206000846000191660001916815260200190815260200160002060008201518160000160006101000a815481600160a060020a030219169083600160a060020a0316021790555060208201518160010190600019169055604082015181600201556060820151816003019060001916905590505082600160a060020a0316826000191689600160a060020a03167f661684a19fb0680f3f8beceaa9ee56c665ffec0875442e2cddc9a7a887d35c3e8a6040518082600160a060020a0316600160a060020a0316815260200191505060405180910390a4604080517f339e23d100000000000000000000000000000000000000000000000000000000815260048101849052600160248201523360448201529051600160a060020a0385169163339e23d19160648083019260209291908290030181600087803b158015610f6757600080fd5b505af1158015610f7b573d6000803e3d6000fd5b505050506040513d6020811015610f9157600080fd5b509198975050505050505050565b60015481565b600081600160a060020a0316638da5cb5b6040518163ffffffff1660e060020a028152600401602060405180830381600087803b158015610fe557600080fd5b505af1158015610ff9573d6000803e3d6000fd5b505050506040513d602081101561100f57600080fd5b5051604080517f1c4d5608000000000000000000000000000000000000000000000000000000008152306004820152600160a060020a03858116602483015291519190921691631c4d56089160448083019260209291908290030181600087803b15801561107c57600080fd5b505af1158015611090573d6000803e3d6000fd5b505050506040513d60208110156110a657600080fd5b505192915050565b600160a060020a03811615156110c357600080fd5b60008054604051600160a060020a03808516939216917f8be0079c531659141344cd1fd0a4f28419497f9722a3daafe3b4186f6b6457e091a36000805473ffffffffffffffffffffffffffffffffffffffff1916600160a060020a0392909216919091179055565b604080518082019091526000808252602082015290565b604080516080810182526000808252602082018190529181018290526060810191909152905600a165627a7a72305820edb3a156dc23afb54aee7edcd72fbeb9fe3dde1937443eaf39a828f2827c4a1c0029",
  "source": "pragma solidity ^0.4.24;\r\n\r\nimport \"./UniversalScheme.sol\";\r\nimport \"../VotingMachines/IntVoteInterface.sol\";\r\n\r\n\r\n\r\n/**\r\n * @title A scheme to manage global constraint for organizations\r\n * @dev The scheme is used to register or remove new global constraints\r\n */\r\ncontract GlobalConstraintRegistrar is UniversalScheme {\r\n    event NewGlobalConstraintsProposal(\r\n        address indexed _avatar,\r\n        bytes32 indexed _proposalId,\r\n        address indexed _intVoteInterface,\r\n        address _gc,\r\n        bytes32 _params,\r\n        bytes32 _voteToRemoveParams\r\n    );\r\n    event RemoveGlobalConstraintsProposal(\r\n        address indexed _avatar,\r\n        bytes32 indexed _proposalId,\r\n        address indexed _intVoteInterface,\r\n        address _gc\r\n    );\r\n    event ProposalExecuted(address indexed _avatar, bytes32 indexed _proposalId,int _param);\r\n    event ProposalDeleted(address indexed _avatar, bytes32 indexed _proposalId);\r\n\r\n    // The struct that holds the information of a global constraint proposed to be added or removed.\r\n    struct GCProposal {\r\n        address gc; // The address of the global constraint contract.\r\n        bytes32 params; // Parameters for global constraint.\r\n        uint proposalType; // 1: add a GC, 2: remove a GC.\r\n        bytes32 voteToRemoveParams; // Voting parameters for removing this GC.\r\n    }\r\n\r\n    // GCProposal by avatar and proposalId\r\n    mapping(address=>mapping(bytes32=>GCProposal)) public organizationsProposals;\r\n\r\n    // voteToRemoveParams hash by avatar and proposal.gc\r\n    mapping(address=>mapping(address=>bytes32)) public voteToRemoveParams;\r\n\r\n    // A mapping from hashes to parameters (use to store a particular configuration on the controller)\r\n    struct Parameters {\r\n        bytes32 voteRegisterParams;\r\n        IntVoteInterface intVote;\r\n    }\r\n\r\n    mapping(bytes32=>Parameters) public parameters;\r\n\r\n    /**\r\n    * @dev execution of proposals, can only be called by the voting machine in which the vote is held.\r\n    * @param _proposalId the ID of the voting in the voting machine\r\n    * @param _avatar address of the controller\r\n    * @param _param a parameter of the voting result, 0 is no and 1 is yes.\r\n    * @return bool which represents a successful of the function.\r\n    */\r\n    function execute(bytes32 _proposalId, address _avatar, int _param) external returns(bool) {\r\n        // Check the caller is indeed the voting machine:\r\n\r\n        require(parameters[getParametersFromController(Avatar(_avatar))].intVote == msg.sender);\r\n        bool retVal = true;\r\n        // Check if vote was successful:\r\n        GCProposal memory proposal = organizationsProposals[_avatar][_proposalId];\r\n        require(proposal.gc != address(0));\r\n        delete organizationsProposals[_avatar][_proposalId];\r\n        emit ProposalDeleted(_avatar,_proposalId);\r\n\r\n        if (_param == 1 ) {\r\n\r\n        // Define controller and get the params:\r\n            ControllerInterface controller = ControllerInterface(Avatar(_avatar).owner());\r\n\r\n        // Adding a GC\r\n            if (proposal.proposalType == 1) {\r\n                retVal = controller.addGlobalConstraint(proposal.gc, proposal.params,_avatar);\r\n                voteToRemoveParams[_avatar][proposal.gc] = proposal.voteToRemoveParams;\r\n              }\r\n        // Removing a GC\r\n            if (proposal.proposalType == 2) {\r\n                retVal = controller.removeGlobalConstraint(proposal.gc,_avatar);\r\n              }\r\n        }\r\n        emit ProposalExecuted(_avatar, _proposalId,_param);\r\n        return retVal;\r\n    }\r\n\r\n    /**\r\n    * @dev Hash the parameters, save them if necessary, and return the hash value\r\n    * @param _voteRegisterParams -  voting parameters for register global constraint\r\n    * @param _intVote  - voting machine contract.\r\n    * @return bytes32 -the parameters hash\r\n    */\r\n    function setParameters(\r\n        bytes32 _voteRegisterParams,\r\n        IntVoteInterface _intVote\r\n    ) public returns(bytes32)\r\n    {\r\n        bytes32 paramsHash = getParametersHash(_voteRegisterParams, _intVote);\r\n        parameters[paramsHash].voteRegisterParams = _voteRegisterParams;\r\n        parameters[paramsHash].intVote = _intVote;\r\n        return paramsHash;\r\n    }\r\n\r\n    /**\r\n    * @dev Hash the parameters and return the hash value\r\n    * @param _voteRegisterParams -  voting parameters\r\n    * @param _intVote  - voting machine contract.\r\n    * @return bytes32 -the parameters hash\r\n    */\r\n    function getParametersHash(\r\n        bytes32 _voteRegisterParams,\r\n        IntVoteInterface _intVote\r\n    ) public pure returns(bytes32)\r\n    {\r\n        return (keccak256(abi.encodePacked(_voteRegisterParams, _intVote)));\r\n    }\r\n\r\n    /**\r\n    * @dev propose to add a new global constraint:\r\n    * @param _avatar the avatar of the organization that the constraint is proposed for\r\n    * @param _gc the address of the global constraint that is being proposed\r\n    * @param _params the parameters for the global constraint\r\n    * @param _voteToRemoveParams the conditions (on the voting machine) for removing this global constraint\r\n    * @return bytes32 -the proposal id\r\n    */\r\n    // TODO: do some checks on _voteToRemoveParams - it is very easy to make a mistake and not be able to remove the GC\r\n    function proposeGlobalConstraint(Avatar _avatar, address _gc, bytes32 _params, bytes32 _voteToRemoveParams)\r\n    public\r\n    returns(bytes32)\r\n    {\r\n        Parameters memory votingParams = parameters[getParametersFromController(_avatar)];\r\n\r\n        IntVoteInterface intVote = votingParams.intVote;\r\n        bytes32 proposalId = intVote.propose(2, votingParams.voteRegisterParams, _avatar, ExecutableInterface(this),msg.sender);\r\n\r\n        GCProposal memory proposal = GCProposal({\r\n            gc: _gc,\r\n            params: _params,\r\n            proposalType: 1,\r\n            voteToRemoveParams: _voteToRemoveParams\r\n        });\r\n\r\n        organizationsProposals[_avatar][proposalId] = proposal;\r\n        emit NewGlobalConstraintsProposal(\r\n            _avatar,\r\n            proposalId,\r\n            intVote,\r\n            _gc,\r\n            _params,\r\n            _voteToRemoveParams\r\n        );\r\n        intVote.ownerVote(proposalId, 1, msg.sender); // Automatically votes `yes` in the name of the opener.\r\n        return proposalId;\r\n    }\r\n\r\n    /**\r\n    * @dev propose to remove a global constraint:\r\n    * @param _avatar the avatar of the organization that the constraint is proposed for\r\n    * @param _gc the address of the global constraint that is being proposed\r\n    * @return bytes32 -the proposal id\r\n    */\r\n    function proposeToRemoveGC(Avatar _avatar, address _gc) public returns(bytes32) {\r\n        Controller controller = Controller(Avatar(_avatar).owner());\r\n        require(controller.isGlobalConstraintRegistered(_gc,address(_avatar)));\r\n        Parameters memory params = parameters[getParametersFromController(_avatar)];\r\n        IntVoteInterface intVote = params.intVote;\r\n        bytes32 proposalId = intVote.propose(2, voteToRemoveParams[_avatar][_gc], _avatar, ExecutableInterface(this),msg.sender);\r\n\r\n        GCProposal memory proposal = GCProposal({\r\n            gc: _gc,\r\n            params: 0,\r\n            proposalType: 2,\r\n            voteToRemoveParams: 0\r\n        });\r\n\r\n        organizationsProposals[_avatar][proposalId] = proposal;\r\n        emit RemoveGlobalConstraintsProposal(_avatar, proposalId, intVote, _gc);\r\n        intVote.ownerVote(proposalId, 1, msg.sender); // Automatically votes `yes` in the name of the opener.\r\n        return proposalId;\r\n    }\r\n}\r\n",
  "sourcePath": "C:\\users\\dkent\\documents\\projects\\github\\daostack\\arc\\contracts\\universalSchemes\\GlobalConstraintRegistrar.sol",
  "compiler": {
    "name": "solc",
    "version": "0.4.24+commit.e67f0147.Emscripten.clang"
  },
  "schemaVersion": "2.0.0",
  "updatedAt": "2018-07-21T19:59:28.190Z"
}