{
  "contractName": "LockingEth4Reputation",
  "abi": [
    {
      "constant": true,
      "inputs": [],
      "name": "lockingStartTime",
      "outputs": [
        {
          "name": "",
          "type": "uint256"
        }
      ],
      "payable": false,
      "stateMutability": "view",
      "type": "function"
    },
    {
      "constant": true,
      "inputs": [],
      "name": "totalLocked",
      "outputs": [
        {
          "name": "",
          "type": "uint256"
        }
      ],
      "payable": false,
      "stateMutability": "view",
      "type": "function"
    },
    {
      "constant": true,
      "inputs": [],
      "name": "avatar",
      "outputs": [
        {
          "name": "",
          "type": "address"
        }
      ],
      "payable": false,
      "stateMutability": "view",
      "type": "function"
    },
    {
      "constant": true,
      "inputs": [
        {
          "name": "",
          "type": "address"
        }
      ],
      "name": "scores",
      "outputs": [
        {
          "name": "",
          "type": "uint256"
        }
      ],
      "payable": false,
      "stateMutability": "view",
      "type": "function"
    },
    {
      "constant": true,
      "inputs": [
        {
          "name": "",
          "type": "address"
        },
        {
          "name": "",
          "type": "bytes32"
        }
      ],
      "name": "lockers",
      "outputs": [
        {
          "name": "amount",
          "type": "uint256"
        },
        {
          "name": "releaseTime",
          "type": "uint256"
        }
      ],
      "payable": false,
      "stateMutability": "view",
      "type": "function"
    },
    {
      "constant": true,
      "inputs": [],
      "name": "lockingEndTime",
      "outputs": [
        {
          "name": "",
          "type": "uint256"
        }
      ],
      "payable": false,
      "stateMutability": "view",
      "type": "function"
    },
    {
      "constant": true,
      "inputs": [],
      "name": "reputationRewardLeft",
      "outputs": [
        {
          "name": "",
          "type": "uint256"
        }
      ],
      "payable": false,
      "stateMutability": "view",
      "type": "function"
    },
    {
      "constant": true,
      "inputs": [],
      "name": "maxLockingPeriod",
      "outputs": [
        {
          "name": "",
          "type": "uint256"
        }
      ],
      "payable": false,
      "stateMutability": "view",
      "type": "function"
    },
    {
      "constant": true,
      "inputs": [],
      "name": "totalScore",
      "outputs": [
        {
          "name": "",
          "type": "uint256"
        }
      ],
      "payable": false,
      "stateMutability": "view",
      "type": "function"
    },
    {
      "constant": true,
      "inputs": [],
      "name": "lockingsCounter",
      "outputs": [
        {
          "name": "",
          "type": "uint256"
        }
      ],
      "payable": false,
      "stateMutability": "view",
      "type": "function"
    },
    {
      "constant": true,
      "inputs": [],
      "name": "totalLockedLeft",
      "outputs": [
        {
          "name": "",
          "type": "uint256"
        }
      ],
      "payable": false,
      "stateMutability": "view",
      "type": "function"
    },
    {
      "constant": false,
      "inputs": [
        {
          "name": "_beneficiary",
          "type": "address"
        },
        {
          "name": "_lockingId",
          "type": "bytes32"
        }
      ],
      "name": "redeem",
      "outputs": [
        {
          "name": "",
          "type": "bool"
        }
      ],
      "payable": false,
      "stateMutability": "nonpayable",
      "type": "function"
    },
    {
      "constant": true,
      "inputs": [],
      "name": "reputationReward",
      "outputs": [
        {
          "name": "",
          "type": "uint256"
        }
      ],
      "payable": false,
      "stateMutability": "view",
      "type": "function"
    },
    {
      "inputs": [
        {
          "name": "_avatar",
          "type": "address"
        },
        {
          "name": "_reputationReward",
          "type": "uint256"
        },
        {
          "name": "_lockingStartTime",
          "type": "uint256"
        },
        {
          "name": "_lockingEndTime",
          "type": "uint256"
        },
        {
          "name": "_maxLockingPeriod",
          "type": "uint256"
        }
      ],
      "payable": false,
      "stateMutability": "nonpayable",
      "type": "constructor"
    },
    {
      "anonymous": false,
      "inputs": [
        {
          "indexed": true,
          "name": "_lockingId",
          "type": "bytes32"
        },
        {
          "indexed": true,
          "name": "_beneficiary",
          "type": "address"
        },
        {
          "indexed": false,
          "name": "_amount",
          "type": "uint256"
        }
      ],
      "name": "Redeem",
      "type": "event"
    },
    {
      "anonymous": false,
      "inputs": [
        {
          "indexed": true,
          "name": "_lockingId",
          "type": "bytes32"
        },
        {
          "indexed": true,
          "name": "_beneficiary",
          "type": "address"
        },
        {
          "indexed": false,
          "name": "_amount",
          "type": "uint256"
        }
      ],
      "name": "Release",
      "type": "event"
    },
    {
      "anonymous": false,
      "inputs": [
        {
          "indexed": true,
          "name": "_lockingId",
          "type": "bytes32"
        },
        {
          "indexed": false,
          "name": "_amount",
          "type": "uint256"
        },
        {
          "indexed": false,
          "name": "_period",
          "type": "uint256"
        },
        {
          "indexed": false,
          "name": "_locker",
          "type": "address"
        }
      ],
      "name": "Lock",
      "type": "event"
    },
    {
      "constant": false,
      "inputs": [
        {
          "name": "_beneficiary",
          "type": "address"
        },
        {
          "name": "_lockingId",
          "type": "bytes32"
        }
      ],
      "name": "release",
      "outputs": [
        {
          "name": "",
          "type": "bool"
        }
      ],
      "payable": false,
      "stateMutability": "nonpayable",
      "type": "function"
    },
    {
      "constant": false,
      "inputs": [
        {
          "name": "_period",
          "type": "uint256"
        }
      ],
      "name": "lock",
      "outputs": [
        {
          "name": "lockingId",
          "type": "bytes32"
        }
      ],
      "payable": true,
      "stateMutability": "payable",
      "type": "function"
    }
  ],
  "bytecode": "0x608060405234801561001057600080fd5b5060405160a080610d93833981016040908152815160208301519183015160608401516080909401519193909184848484848282116100d657604080517f08c379a000000000000000000000000000000000000000000000000000000000815260206004820152603a60248201527f6c6f636b696e6720656e642074696d652073686f756c6420626520677265617460448201527f6572207468616e206c6f636b696e672073746172742074696d65000000000000606482015290519081900360840190fd5b6007849055600893909355600955600a9190915560008054600160a060020a03909316600160a060020a031990931692909217909155600b555050505050610c70806101236000396000f3006080604052600436106100da5763ffffffff7c010000000000000000000000000000000000000000000000000000000060003504166355bfec8881146100df57806356891412146101065780635aef7de61461011b57806376dd110f1461014c578063838057421461016d578063a8c33017146101aa578063afe0e33c146101bf578063bf0df445146101d4578063c006719f146101e9578063c3201add146101fe578063c348a24b14610213578063c85c892514610228578063d7c2eec714610260578063dd46706414610284578063ed1ff6d81461028f575b600080fd5b3480156100eb57600080fd5b506100f46102a4565b60408051918252519081900360200190f35b34801561011257600080fd5b506100f46102aa565b34801561012757600080fd5b506101306102b0565b60408051600160a060020a039092168252519081900360200190f35b34801561015857600080fd5b506100f4600160a060020a03600435166102bf565b34801561017957600080fd5b50610191600160a060020a03600435166024356102d1565b6040805192835260208301919091528051918290030190f35b3480156101b657600080fd5b506100f46102f2565b3480156101cb57600080fd5b506100f46102f8565b3480156101e057600080fd5b506100f46102fe565b3480156101f557600080fd5b506100f4610304565b34801561020a57600080fd5b506100f461030a565b34801561021f57600080fd5b506100f4610310565b34801561023457600080fd5b5061024c600160a060020a0360043516602435610316565b604080519115158252519081900360200190f35b34801561026c57600080fd5b5061024c600160a060020a036004351660243561064c565b6100f460043561069d565b34801561029b57600080fd5b506100f46106b0565b600b5481565b60035481565b600054600160a060020a031681565b60026020526000908152604090205481565b60016020818152600093845260408085209091529183529120805491015482565b60095481565b60085481565b600a5481565b60055481565b60065481565b60045481565b6000806000806009544210151515610378576040805160e560020a62461bcd02815260206004820152601a60248201527f636865636b20746865206c6f636b20706572696f642070617373000000000000604482015290519081900360640190fd5b600160a060020a038616600090815260026020526040812054116103e6576040805160e560020a62461bcd02815260206004820152601360248201527f73636f72652073686f756c64206265203e203000000000000000000000000000604482015290519081900360640190fd5b600160a060020a038616600090815260026020526040812080549190556007549093506104319061041990601a0b6106b6565b61042585601a0b6106b6565b9063ffffffff6106c416565b9150610459610454610447600554601a0b6106b6565b849063ffffffff6106d116565b6106ee565b601a0b9050610473816008546106fa90919063ffffffff16565b60085560008054604080517f8da5cb5b0000000000000000000000000000000000000000000000000000000081529051600160a060020a0390921692638da5cb5b926004808401936020939083900390910190829087803b1580156104d757600080fd5b505af11580156104eb573d6000803e3d6000fd5b505050506040513d602081101561050157600080fd5b505160008054604080517feaf994b200000000000000000000000000000000000000000000000000000000815260048101869052600160a060020a038b8116602483015292831660448201529051919093169263eaf994b29260648083019360209390929083900390910190829087803b15801561057e57600080fd5b505af1158015610592573d6000803e3d6000fd5b505050506040513d60208110156105a857600080fd5b50511515610600576040805160e560020a62461bcd02815260206004820152601e60248201527f6d696e742072657075746174696f6e2073686f756c6420737563636573730000604482015290519081900360640190fd5b604080518281529051600160a060020a0388169187917fc1d8140f5bf31e06ddd48b4deb96488598efd767dc846befd4faf27a3fe986df9181900360200190a350600195945050505050565b600080610659848461070c565b604051909150600160a060020a0385169082156108fc029083906000818181858888f19350505050158015610692573d6000803e3d6000fd5b506001949350505050565b60006106aa348333610849565b92915050565b60075481565b601a0b650100000000000290565b6501000000000091020590565b6000816501000000000084028115156106e657fe5b059392505050565b65010000000000900590565b60008282111561070657fe5b50900390565b600160a060020a0382166000908152600160209081526040808320848452909152812080548210610787576040805160e560020a62461bcd02815260206004820152601460248201527f616d6f756e742073686f756c64206265203e2030000000000000000000000000604482015290519081900360640190fd5b80546000825560018201549092504210156107ec576040805160e560020a62461bcd02815260206004820152601a60248201527f636865636b20746865206c6f636b20706572696f642070617373000000000000604482015290519081900360640190fd5b6004546107ff908363ffffffff6106fa16565b600455604080518381529051600160a060020a0386169185917fcb7ab693259d2332e08e7666832578144deb74443e37a762847e848793fc29819181900360200190a35092915050565b6000808085116108a3576040805160e560020a62461bcd02815260206004820152601c60248201527f6c6f636b696e6720616d6f756e742073686f756c64206265203e203000000000604482015290519081900360640190fd5b600a54841115610923576040805160e560020a62461bcd02815260206004820152602c60248201527f6c6f636b696e6720706572696f642073686f756c64206265203c3d206d61784c60448201527f6f636b696e67506572696f640000000000000000000000000000000000000000606482015290519081900360840190fd5b6000841161097b576040805160e560020a62461bcd02815260206004820152601c60248201527f6c6f636b696e6720706572696f642073686f756c64206265203e203000000000604482015290519081900360640190fd5b6009544211156109fb576040805160e560020a62461bcd02815260206004820152603060248201527f6c6f636b2073686f756c642062652077697468696e2074686520616c6c6f776560448201527f64206c6f636b696e6720706572696f6400000000000000000000000000000000606482015290519081900360840190fd5b600b54421015610a7b576040805160e560020a62461bcd02815260206004820152602860248201527f6c6f636b2073686f756c64207374617274206166746572206c6f636b696e675360448201527f7461727454696d65000000000000000000000000000000000000000000000000606482015290519081900360840190fd5b600654604080516c01000000000000000000000000300260208083019190915260348083019490945282518083039094018452605490910191829052825182918401908083835b60208310610ae15780518252601f199092019160209182019101610ac2565b51815160209384036101000a60001901801990921691161790526040805192909401829003909120600680546001908101909155600160a060020a038a166000908152818452858120838252909352939091208a8155428a0193810193909355600380548b01908190556004559550909350610b8b9250610b66915086905087610c0e565b600160a060020a0385166000908152600260205260409020549063ffffffff610c3716565b600160a060020a0384166000908152600260205260409020819055600554610bb89163ffffffff610c3716565b6005556040805186815260208101869052600160a060020a03851681830152905183917f71bb0e30e916e594f9f826bfd52649e8a116c9f7416dfafdb6ea076d174eb244919081900360600190a2509392505050565b6000821515610c1f575060006106aa565b50818102818382811515610c2f57fe5b04146106aa57fe5b818101828110156106aa57fe00a165627a7a723058201b04a9dfd7977c28dc55e80ac32f20ccaf900f26833ee29eb959ae4800e4ce130029",
  "source": "pragma solidity ^0.4.24;\r\n\r\nimport \"./Locking4Reputation.sol\";\r\n\r\n\r\n/**\r\n * @title A scheme for locking ETH for reputation\r\n */\r\n\r\ncontract LockingEth4Reputation is Locking4Reputation {\r\n\r\n    /**\r\n     * @dev constructor\r\n     * @param _avatar the avatar to mint reputation from\r\n     * @param _reputationReward the total reputation this contract will reward\r\n     *        for eth locking\r\n     * @param _lockingStartTime locking starting period time.\r\n     * @param _lockingEndTime the locking end time.\r\n     *        redeem reputation can be done after this period.\r\n     *        locking is disable after this time.\r\n     * @param _maxLockingPeriod maximum locking period allowed.\r\n     */\r\n    constructor(Avatar _avatar,\r\n                uint _reputationReward,\r\n                uint _lockingStartTime,\r\n                uint _lockingEndTime,\r\n                uint _maxLockingPeriod)\r\n    Locking4Reputation(_avatar,\r\n                      _reputationReward,\r\n                      _lockingStartTime,\r\n                      _lockingEndTime,\r\n                      _maxLockingPeriod)\r\n    public\r\n    {}\r\n\r\n    /**\r\n     * @dev release locked eth\r\n     * @param _beneficiary the release _beneficiary\r\n     * @param _lockingId the locking id\r\n     * @return bool\r\n     */\r\n    function release(address _beneficiary, bytes32 _lockingId) public returns(bool) {\r\n        uint amount = super._release(_beneficiary,_lockingId);\r\n        _beneficiary.transfer(amount);\r\n        return true;\r\n    }\r\n\r\n    /**\r\n     * @dev lock function\r\n     * @param _period the locking period\r\n     * @return lockingId the unique Id\r\n     */\r\n    function lock(uint _period) public payable returns(bytes32 lockingId) {\r\n        return super._lock(msg.value, _period, msg.sender);\r\n    }\r\n\r\n}\r\n",
  "sourcePath": "C:\\users\\dkent\\documents\\projects\\github\\daostack\\arc\\contracts\\schemes\\LockingEth4Reputation.sol",
  "compiler": {
    "name": "solc",
    "version": "0.4.24+commit.e67f0147.Emscripten.clang"
  },
  "schemaVersion": "2.0.0",
  "updatedAt": "2018-07-21T19:08:34.367Z"
}