{
  "contractName": "MirrorContractICO",
  "abi": [
    {
      "constant": true,
      "inputs": [],
      "name": "simpleICO",
      "outputs": [
        {
          "name": "",
          "type": "address"
        }
      ],
      "payable": false,
      "stateMutability": "view",
      "type": "function"
    },
    {
      "constant": true,
      "inputs": [],
      "name": "organization",
      "outputs": [
        {
          "name": "",
          "type": "address"
        }
      ],
      "payable": false,
      "stateMutability": "view",
      "type": "function"
    },
    {
      "constant": false,
      "inputs": [],
      "name": "renounceOwnership",
      "outputs": [],
      "payable": false,
      "stateMutability": "nonpayable",
      "type": "function"
    },
    {
      "constant": false,
      "inputs": [],
      "name": "destroy",
      "outputs": [],
      "payable": false,
      "stateMutability": "nonpayable",
      "type": "function"
    },
    {
      "constant": true,
      "inputs": [],
      "name": "owner",
      "outputs": [
        {
          "name": "",
          "type": "address"
        }
      ],
      "payable": false,
      "stateMutability": "view",
      "type": "function"
    },
    {
      "constant": false,
      "inputs": [
        {
          "name": "_newOwner",
          "type": "address"
        }
      ],
      "name": "transferOwnership",
      "outputs": [],
      "payable": false,
      "stateMutability": "nonpayable",
      "type": "function"
    },
    {
      "constant": false,
      "inputs": [
        {
          "name": "_recipient",
          "type": "address"
        }
      ],
      "name": "destroyAndSend",
      "outputs": [],
      "payable": false,
      "stateMutability": "nonpayable",
      "type": "function"
    },
    {
      "inputs": [
        {
          "name": "_organization",
          "type": "address"
        },
        {
          "name": "_simpleICO",
          "type": "address"
        }
      ],
      "payable": false,
      "stateMutability": "nonpayable",
      "type": "constructor"
    },
    {
      "payable": true,
      "stateMutability": "payable",
      "type": "fallback"
    },
    {
      "anonymous": false,
      "inputs": [
        {
          "indexed": true,
          "name": "previousOwner",
          "type": "address"
        }
      ],
      "name": "OwnershipRenounced",
      "type": "event"
    },
    {
      "anonymous": false,
      "inputs": [
        {
          "indexed": true,
          "name": "previousOwner",
          "type": "address"
        },
        {
          "indexed": true,
          "name": "newOwner",
          "type": "address"
        }
      ],
      "name": "OwnershipTransferred",
      "type": "event"
    }
  ],
  "bytecode": "0x608060405234801561001057600080fd5b5060405160408061042183398101604052805160209091015160008054600160a060020a0319908116331790915560018054600160a060020a03948516908316179055600280549390921692169190911790556103af806100726000396000f3006080604052600436106100825763ffffffff7c01000000000000000000000000000000000000000000000000000000006000350416631ebbede2811461013b57806323bd4d7a1461016c578063715018a61461018157806383197ef0146101965780638da5cb5b146101ab578063f2fde38b146101c0578063f5074f41146101e1575b34151561008e57600080fd5b600254600154604080517f21bea7cc000000000000000000000000000000000000000000000000000000008152600160a060020a039283166004820152336024820152905191909216916321bea7cc91349160448082019260209290919082900301818588803b15801561010157600080fd5b505af1158015610115573d6000803e3d6000fd5b50505050506040513d602081101561012c57600080fd5b5051151561013957600080fd5b005b34801561014757600080fd5b50610150610202565b60408051600160a060020a039092168252519081900360200190f35b34801561017857600080fd5b50610150610211565b34801561018d57600080fd5b50610139610220565b3480156101a257600080fd5b5061013961028c565b3480156101b757600080fd5b506101506102b1565b3480156101cc57600080fd5b50610139600160a060020a03600435166102c0565b3480156101ed57600080fd5b50610139600160a060020a03600435166102e3565b600254600160a060020a031681565b600154600160a060020a031681565b600054600160a060020a0316331461023757600080fd5b60008054604051600160a060020a03909116917ff8df31144d9c2f0f6b59d69b8b98abd5459d07f2742c4df920b25aae33c6482091a26000805473ffffffffffffffffffffffffffffffffffffffff19169055565b600054600160a060020a031633146102a357600080fd5b600054600160a060020a0316ff5b600054600160a060020a031681565b600054600160a060020a031633146102d757600080fd5b6102e081610306565b50565b600054600160a060020a031633146102fa57600080fd5b80600160a060020a0316ff5b600160a060020a038116151561031b57600080fd5b60008054604051600160a060020a03808516939216917f8be0079c531659141344cd1fd0a4f28419497f9722a3daafe3b4186f6b6457e091a36000805473ffffffffffffffffffffffffffffffffffffffff1916600160a060020a03929092169190911790555600a165627a7a72305820eaabab0269fc8c84eca02d140825a87ace6d4212f47d0cb854b73b3c8bb154950029",
  "source": "pragma solidity ^0.4.24;\r\n\r\nimport \"./UniversalScheme.sol\";\r\nimport \"openzeppelin-solidity/contracts/ownership/Ownable.sol\";\r\nimport \"openzeppelin-solidity/contracts/math/SafeMath.sol\";\r\nimport \"openzeppelin-solidity/contracts/lifecycle/Destructible.sol\";\r\n\r\n\r\n/**\r\n * @title An avatar contract for ICO.\r\n * @dev Allow people to donate by simply sending ether to an address.\r\n */\r\ncontract MirrorContractICO is Destructible {\r\n    Avatar public organization; // The organization address (the avatar)\r\n    SimpleICO public simpleICO;  // The ICO contract address\r\n    /**\r\n    * @dev Constructor, setting the organization and ICO scheme.\r\n    * @param _organization The organization's avatar.\r\n    * @param _simpleICO The ICO Scheme.\r\n    */\r\n    constructor(Avatar _organization, SimpleICO _simpleICO) public {\r\n        organization = _organization;\r\n        simpleICO = _simpleICO;\r\n    }\r\n\r\n    /**\r\n    * @dev Fallback function, when ether is sent it will donate to the ICO.\r\n    * The ether will be returned if the donation is failed.\r\n    */\r\n    function () public payable {\r\n        // Not to waste gas, if no value.\r\n        require(msg.value != 0);\r\n\r\n        // Return ether if couldn't donate.\r\n        require(simpleICO.donate.value(msg.value)(organization, msg.sender) != 0);\r\n    }\r\n}\r\n\r\n\r\n/**\r\n * @title SimpleICO scheme.\r\n * @dev A universal scheme to allow organizations to open a simple ICO and get donations.\r\n */\r\ncontract SimpleICO is UniversalScheme {\r\n    using SafeMath for uint;\r\n\r\n    // Struct holding the data for each organization\r\n    struct Organization {\r\n        bytes32 paramsHash; // Save the parameters approved by the org to open the ICO, so reuse of ICO will not change.\r\n        address avatarContractICO; // Avatar is a contract for users that want to send ether without calling a function.\r\n        uint totalEthRaised;\r\n        bool isHalted; // The admin of the ICO can halt the ICO at any time, and also resume it.\r\n    }\r\n\r\n    // A mapping from hashes to parameters (use to store a particular configuration on the controller)\r\n    struct Parameters {\r\n        uint cap; // Cap in Eth\r\n        uint price; // Price represents Tokens per 1 Eth\r\n        uint startBlock;\r\n        uint endBlock;\r\n        address beneficiary; // all funds received will be transferred to this address.\r\n        address admin; // The admin can halt or resume ICO.\r\n    }\r\n\r\n    // A mapping from the organization (Avatar) address to the saved data of the organization:\r\n    mapping(address=>Organization) public organizationsICOInfo;\r\n\r\n    mapping(bytes32=>Parameters) public parameters;\r\n\r\n    event DonationReceived(address indexed organization, address indexed _beneficiary, uint _incomingEther, uint indexed _tokensAmount);\r\n\r\n    /**\r\n    * @dev Hash the parameters, save them if necessary, and return the hash value\r\n    * @param _cap the ico cap\r\n    * @param _price  represents Tokens per 1 Eth\r\n    * @param _startBlock  ico start block\r\n    * @param _endBlock ico end\r\n    * @param _beneficiary the ico ether beneficiary\r\n    * @param _admin the address of the ico admin which can hold and resume the ICO.\r\n    * @return bytes32 -the params hash\r\n    */\r\n    function setParameters(\r\n        uint _cap,\r\n        uint _price,\r\n        uint _startBlock,\r\n        uint _endBlock,\r\n        address _beneficiary,\r\n        address _admin\r\n    )\r\n        public\r\n        returns(bytes32)\r\n    {\r\n        require(_cap != 0);\r\n        bytes32 paramsHash = getParametersHash(\r\n            _cap,\r\n            _price,\r\n            _startBlock,\r\n            _endBlock,\r\n            _beneficiary,\r\n            _admin\r\n        );\r\n        if (parameters[paramsHash].cap == 0) {\r\n            parameters[paramsHash] = Parameters({\r\n                cap: _cap,\r\n                price: _price,\r\n                startBlock: _startBlock,\r\n                endBlock:_endBlock,\r\n                beneficiary:_beneficiary,\r\n                admin:_admin\r\n            });\r\n        }\r\n        return paramsHash;\r\n    }\r\n\r\n    /**\r\n    * @dev Hash the parameters and return the hash value\r\n    * @param _cap the ico cap\r\n    * @param _price  represents Tokens per 1 Eth\r\n    * @param _startBlock  ico start block\r\n    * @param _endBlock ico end\r\n    * @param _beneficiary the ico ether beneficiary\r\n    * @param _admin the address of the ico admin which can hold and resume the ICO.\r\n    * @return bytes32 -the params hash\r\n    */\r\n    function getParametersHash(\r\n        uint _cap,\r\n        uint _price,\r\n        uint _startBlock,\r\n        uint _endBlock,\r\n        address _beneficiary,\r\n        address _admin\r\n    )\r\n        public\r\n        pure\r\n        returns(bytes32)\r\n   {\r\n        return (keccak256(\r\n            abi.encodePacked(\r\n            _cap,\r\n            _price,\r\n            _startBlock,\r\n            _endBlock,\r\n            _beneficiary,\r\n            _admin\r\n        )));\r\n    }\r\n\r\n    /**\r\n     * @dev start an ICO\r\n     * @param _avatar The Avatar's of the organization\r\n     */\r\n    function start(address _avatar) public {\r\n        require(!isActive(_avatar));\r\n        Organization memory org;\r\n        org.paramsHash = getParametersFromController(Avatar(_avatar));\r\n        require(parameters[org.paramsHash].cap != 0);\r\n        org.avatarContractICO = new MirrorContractICO(Avatar(_avatar), this);\r\n        organizationsICOInfo[_avatar] = org;\r\n    }\r\n\r\n    /**\r\n     * @dev Allowing admin to halt an ICO.\r\n     * @param _avatar The Avatar's of the organization\r\n     */\r\n    function haltICO(address _avatar) public {\r\n        require(msg.sender == parameters[organizationsICOInfo[_avatar].paramsHash].admin);\r\n        organizationsICOInfo[_avatar].isHalted = true;\r\n    }\r\n\r\n    /**\r\n     * @dev Allowing admin to reopen an ICO.\r\n     * @param _avatar The Avatar's of the organization\r\n     */\r\n    function resumeICO(address _avatar) public {\r\n        require(msg.sender == parameters[organizationsICOInfo[_avatar].paramsHash].admin);\r\n        organizationsICOInfo[_avatar].isHalted = false;\r\n    }\r\n\r\n    /**\r\n     * @dev Check is an ICO is active (halted is still considered active). Active ICO:\r\n     * 1. The organization is registered.\r\n     * 2. The ICO didn't reach it's cap yet.\r\n     * 3. The current block isn't bigger than the \"endBlock\" & Smaller then the \"startBlock\"\r\n     * @param _avatar The Avatar's of the organization\r\n     * @return bool which represents a successful of the function\r\n     */\r\n    function isActive(address _avatar) public view returns(bool) {\r\n        Organization memory org = organizationsICOInfo[_avatar];\r\n        Parameters memory params = parameters[org.paramsHash];\r\n\r\n        if (org.totalEthRaised >= params.cap) {\r\n            return false;\r\n        }\r\n        if (block.number >= params.endBlock) {\r\n            return false;\r\n        }\r\n        if (block.number <= params.startBlock) {\r\n            return false;\r\n        }\r\n        return true;\r\n    }\r\n\r\n    /**\r\n     * @dev Donating ethers to get tokens.\r\n     * If the donation is higher than the remaining ethers in the \"cap\",\r\n     * The donator will get the change in ethers.\r\n     * @param _avatar The Avatar's of the organization.\r\n     * @param _beneficiary The donator's address - which will receive the ICO's tokens.\r\n     * @return uint number of tokens minted for the donation.\r\n     */\r\n    function donate(Avatar _avatar, address _beneficiary) public payable returns(uint) {\r\n        Organization memory org = organizationsICOInfo[_avatar];\r\n        Parameters memory params = parameters[org.paramsHash];\r\n\r\n        // Check ICO is active:\r\n        require(isActive(_avatar));\r\n\r\n        // Check ICO is not halted:\r\n        require(!org.isHalted);\r\n\r\n\r\n        uint incomingEther;\r\n        uint change;\r\n\r\n        // Compute how much tokens to buy:\r\n        if ( msg.value > (params.cap).sub(org.totalEthRaised) ) {\r\n            incomingEther = (params.cap).sub(org.totalEthRaised);\r\n            change = (msg.value).sub(incomingEther);\r\n        } else {\r\n            incomingEther = msg.value;\r\n        }\r\n\r\n        uint tokens = incomingEther.mul(params.price);\r\n        // Update total raised, call event and return amount of tokens bought:\r\n        organizationsICOInfo[_avatar].totalEthRaised += incomingEther;\r\n        // Send ether to the defined address, mint, and send change to beneficiary:\r\n        params.beneficiary.transfer(incomingEther);\r\n\r\n        require(ControllerInterface(_avatar.owner()).mintTokens(tokens, _beneficiary,address(_avatar)));\r\n        if (change != 0) {\r\n            _beneficiary.transfer(change);\r\n        }\r\n        emit DonationReceived(_avatar, _beneficiary, incomingEther, tokens);\r\n        return tokens;\r\n    }\r\n}\r\n",
  "sourcePath": "C:\\users\\dkent\\documents\\projects\\github\\daostack\\arc\\contracts\\universalSchemes\\SimpleICO.sol",
  "compiler": {
    "name": "solc",
    "version": "0.4.24+commit.e67f0147.Emscripten.clang"
  },
  "schemaVersion": "2.0.0",
  "updatedAt": "2018-07-21T19:08:34.390Z"
}