{
  "contractName": "OrderStatisticTreeMock",
  "abi": [
    {
      "constant": false,
      "inputs": [
        {
          "name": "value",
          "type": "uint256"
        }
      ],
      "name": "insert",
      "outputs": [],
      "payable": false,
      "stateMutability": "nonpayable",
      "type": "function"
    },
    {
      "constant": true,
      "inputs": [
        {
          "name": "value",
          "type": "uint256"
        }
      ],
      "name": "rank",
      "outputs": [
        {
          "name": "",
          "type": "uint256"
        }
      ],
      "payable": false,
      "stateMutability": "view",
      "type": "function"
    },
    {
      "constant": true,
      "inputs": [],
      "name": "count",
      "outputs": [
        {
          "name": "",
          "type": "uint256"
        }
      ],
      "payable": false,
      "stateMutability": "view",
      "type": "function"
    },
    {
      "constant": false,
      "inputs": [
        {
          "name": "_value",
          "type": "uint256"
        }
      ],
      "name": "remove",
      "outputs": [],
      "payable": false,
      "stateMutability": "nonpayable",
      "type": "function"
    }
  ],
  "bytecode": "0x608060405234801561001057600080fd5b50610c98806100206000396000f3006080604052600436106100615763ffffffff7c010000000000000000000000000000000000000000000000000000000060003504166306661abd81146100665780634cc822151461008d57806390b5561d146100a7578063b37c191b146100bf575b600080fd5b34801561007257600080fd5b5061007b6100d7565b60408051918252519081900360200190f35b34801561009957600080fd5b506100a56004356100e8565b005b3480156100b357600080fd5b506100a56004356100fc565b3480156100cb57600080fd5b5061007b60043561010d565b60006100e36000610125565b905090565b6100f960008263ffffffff6101a316565b50565b6100f960008263ffffffff61023516565b600061011f818363ffffffff61026b16565b92915050565b600080610130610c3a565b5050600080805260208381526040808320600180855281845282852054855295835292819020815160a081018352958101548652600281015460ff161515928601929092526003820154908501526004810154606085018190526005918201546080909501949094520154909101919050565b60008181526020839052604090208115156101cd57600581015415156101c857610230565b6101dd565b600481015415156101dd57610230565b600081600501541115610226576005810180546000190190558115610209576004810180546000190190555b6001810154600282015461022191859160ff1661033a565b610230565b610230838361035f565b505050565b80151561025957600081815260208390526040902060050180546001019055610267565b610267826000600184610453565b5050565b600080808084156103315760008080526020878152604080832060058101546001855290835281842054808552928a90529220919550935091505b8483116102f057848310156102c2578160050154846001010193505b5060008080526020829052604090205480156102f05760008181526020879052604090206004015493909301925b848314156102fd57610331565b9184116000908152602082905260409020549182151561031c57610331565b600083815260208790526040902091506102a6565b50505092915050565b81156102305761034a8383610522565b6103548383610575565b6102308383836105af565b60008181526020838152604080832060018082015460028301548187528487208780529584905284872054928752938620549295909460ff90941693929080831580156103aa575082155b156103db578515156000908152602086905260408120556103cb8a8a6106be565b6103d68a888861033a565b610447565b83158015906103e957508215155b156103f9576103d68a8a8661070c565b5050818101600081815260208a815260408083208815158085529288905292208390556001820188905560028201805460ff1916909117905561043c8a8a6106be565b6104478a888861033a565b50505050505050505050565b60008381526020858152604080832085151584529182905282205490918115156104d65750831515600081815260208481526040808320879055868352908990529020600180820188905560028201805460ff19169093179092556003810182905560048101919091556104c78785610575565b6104d187856108f4565b610519565b8382141561050a576000828152602088905260409020600501805460010190556105008785610522565b6104d18785610575565b61051987838487101587610453565b50505050505050565b600090815260208281526040808320600581015460018086528285528386205486528685528386206004908101548780528487528588205488529790955292909420830154909401909201909101910155565b6000818152602083905260409020600101545b8015610230576105988382610522565b600090815260208390526040902060010154610588565b6000808080808087156106b3576105c68989610995565b6105d089896109fa565b955086156105e157600194506105e7565b60001994505b6105f189896109fa565b93508460020284141561068257600088815260208a815260408083208a1584529182905290912054909350915061062889836109fa565b905084600019028114156106425761064289838915610a42565b61064d898989610a42565b801561067d57600088815260208a9052604090206001810154600282015491945061067d918b919060ff166105af565b6106b3565b8585146106b357600088815260208a905260409020600181015460028201549194506106b3918b919060ff166105af565b505050505050505050565b600090815260209182526040808220600180820184905560028201805460ff191690558380529381905281832083905592825281208190556004820181905560038201819055600590910155565b60008060008060008060008060008060006107278e8d610c02565b9a508d60000160008c81526020019081526020016000209950896005015498506107518e8c61035f565b8d60000160008e81526020019081526020016000209750876001015496508d60000160008881526020019081526020016000209550876003015494508760020160009054906101000a900460ff169350876004015492508760000160006001151515158152602001908152602001600020549150876000016000801515151581526020019081526020016000205490508a8660000160008615151515815260200190815260200160002081905550868a60010181905550838a60020160006101000a81548160ff0219169083151502179055508760050154898401038a60040181905550848a60030181905550888a6005018190555080600014151561088d57808a600001600080151515158152602001908152602001600020819055508a8e6000016000838152602001908152602001600020600101819055505b81156108d057818a60000160006001151515158152602001908152602001600020819055508a8e6000016000848152602001908152602001600020600101819055505b6108da8e8e6106be565b6108e48e8c610575565b5050505050505050505050505050565b60008060008060006109068787610995565b60008681526020889052604090206001810154909550935083156105195761092e87856109fa565b600286015490935060ff169150811561094a575060001961094e565b5060015b8060020283141561098557806000190261096888886109fa565b141561097957610979878784610a42565b6104d187858415610a42565b82156105195761051987856108f4565b6000818152602083815260408083208380528083528184205484528583528184206003908101546001865282855283862054865293879052919093200154808211156109e9576001820160038401556109f3565b6001810160038401555b5050505050565b600081815260208381526040808320600184528083528184205484528583528184206003908101548580528285528386205486529387905291909320015403905b5092915050565b6000806000806000806000806000891598508b60000160008c815260200190815260200160002097508760020160009054906101000a900460ff169650876001015495508760000160008a1515151581526020019081526020016000205494508b600001600086815260200190815260200160002093508360000160008b1515151581526020019081526020016000205492508b600001600087815260200190815260200160002091508b60000160008481526020019081526020016000209050848260000160008915151515815260200190815260200160002081905550868460020160006101000a81548160ff0219169083151502179055508584600101819055508a8460000160008c15151515815260200190815260200160002081905550848860010181905550898860020160006101000a81548160ff021916908315150217905550828860000160008b151515158152602001908152602001600020819055508a8160010181905550888160020160006101000a81548160ff021916908315150217905550610bd68c8c610995565b610be08c86610995565b610bea8c8c610522565b610bf48c86610522565b505050505050505050505050565b600081815260208381526040808320600184529091528120548015610c3257610c2b8482610c02565b9150610a3b565b829150610a3b565b60a0604051908101604052806000815260200160001515815260200160008152602001600081526020016000815250905600a165627a7a72305820819e977065f7ea11410c54b284ad8712d7db31b2bb802725e899e668589ca38d0029",
  "source": "pragma solidity ^0.4.24;\r\n\r\nimport \"../libs/OrderStatisticTree.sol\";\r\n\r\n\r\ncontract OrderStatisticTreeMock {\r\n    using OrderStatisticTree for OrderStatisticTree.Tree;\r\n\r\n    OrderStatisticTree.Tree tree;\r\n\r\n    function insert(uint value) public {\r\n        tree.insert(value);\r\n    }\r\n\r\n    function rank(uint value) public view returns (uint) {\r\n        return tree.rank(value);\r\n    }\r\n\r\n    function count() public view returns (uint) {\r\n        return tree.count();\r\n    }\r\n\r\n    function remove(uint _value) public {\r\n        return tree.remove(_value);\r\n    }\r\n}\r\n",
  "sourcePath": "C:\\users\\dkent\\documents\\projects\\github\\daostack\\arc\\contracts\\test\\OrderStatisticTreeMock.sol",
  "compiler": {
    "name": "solc",
    "version": "0.4.24+commit.e67f0147.Emscripten.clang"
  },
  "schemaVersion": "2.0.0",
  "updatedAt": "2018-07-21T19:08:34.370Z"
}