{
  "contractName": "OrganizationRegister",
  "abi": [
    {
      "constant": true,
      "inputs": [
        {
          "name": "",
          "type": "bytes32"
        }
      ],
      "name": "parameters",
      "outputs": [
        {
          "name": "fee",
          "type": "uint256"
        },
        {
          "name": "token",
          "type": "address"
        },
        {
          "name": "beneficiary",
          "type": "address"
        }
      ],
      "payable": false,
      "stateMutability": "view",
      "type": "function"
    },
    {
      "constant": false,
      "inputs": [
        {
          "name": "_hashedParameters",
          "type": "bytes32"
        }
      ],
      "name": "updateParameters",
      "outputs": [],
      "payable": false,
      "stateMutability": "nonpayable",
      "type": "function"
    },
    {
      "constant": true,
      "inputs": [
        {
          "name": "",
          "type": "address"
        },
        {
          "name": "",
          "type": "address"
        }
      ],
      "name": "organizationsRegistry",
      "outputs": [
        {
          "name": "",
          "type": "uint256"
        }
      ],
      "payable": false,
      "stateMutability": "view",
      "type": "function"
    },
    {
      "constant": false,
      "inputs": [],
      "name": "renounceOwnership",
      "outputs": [],
      "payable": false,
      "stateMutability": "nonpayable",
      "type": "function"
    },
    {
      "constant": true,
      "inputs": [],
      "name": "owner",
      "outputs": [
        {
          "name": "",
          "type": "address"
        }
      ],
      "payable": false,
      "stateMutability": "view",
      "type": "function"
    },
    {
      "constant": false,
      "inputs": [
        {
          "name": "_newOwner",
          "type": "address"
        }
      ],
      "name": "transferOwnership",
      "outputs": [],
      "payable": false,
      "stateMutability": "nonpayable",
      "type": "function"
    },
    {
      "constant": true,
      "inputs": [],
      "name": "hashedParameters",
      "outputs": [
        {
          "name": "",
          "type": "bytes32"
        }
      ],
      "payable": false,
      "stateMutability": "view",
      "type": "function"
    },
    {
      "anonymous": false,
      "inputs": [
        {
          "indexed": true,
          "name": "_registry",
          "type": "address"
        },
        {
          "indexed": true,
          "name": "_org",
          "type": "address"
        }
      ],
      "name": "OrgAdded",
      "type": "event"
    },
    {
      "anonymous": false,
      "inputs": [
        {
          "indexed": true,
          "name": "_registry",
          "type": "address"
        },
        {
          "indexed": true,
          "name": "_org",
          "type": "address"
        },
        {
          "indexed": false,
          "name": "_amount",
          "type": "uint256"
        }
      ],
      "name": "Promotion",
      "type": "event"
    },
    {
      "anonymous": false,
      "inputs": [
        {
          "indexed": true,
          "name": "previousOwner",
          "type": "address"
        }
      ],
      "name": "OwnershipRenounced",
      "type": "event"
    },
    {
      "anonymous": false,
      "inputs": [
        {
          "indexed": true,
          "name": "previousOwner",
          "type": "address"
        },
        {
          "indexed": true,
          "name": "newOwner",
          "type": "address"
        }
      ],
      "name": "OwnershipTransferred",
      "type": "event"
    },
    {
      "constant": false,
      "inputs": [
        {
          "name": "_token",
          "type": "address"
        },
        {
          "name": "_fee",
          "type": "uint256"
        },
        {
          "name": "_beneficiary",
          "type": "address"
        }
      ],
      "name": "setParameters",
      "outputs": [
        {
          "name": "",
          "type": "bytes32"
        }
      ],
      "payable": false,
      "stateMutability": "nonpayable",
      "type": "function"
    },
    {
      "constant": true,
      "inputs": [
        {
          "name": "_token",
          "type": "address"
        },
        {
          "name": "_fee",
          "type": "uint256"
        },
        {
          "name": "_beneficiary",
          "type": "address"
        }
      ],
      "name": "getParametersHash",
      "outputs": [
        {
          "name": "",
          "type": "bytes32"
        }
      ],
      "payable": false,
      "stateMutability": "pure",
      "type": "function"
    },
    {
      "constant": false,
      "inputs": [
        {
          "name": "_avatar",
          "type": "address"
        },
        {
          "name": "_record",
          "type": "address"
        },
        {
          "name": "_amount",
          "type": "uint256"
        }
      ],
      "name": "addOrPromoteAddress",
      "outputs": [],
      "payable": false,
      "stateMutability": "nonpayable",
      "type": "function"
    }
  ],
  "bytecode": "0x608060405260008054600160a060020a031916331790556108b8806100256000396000f3006080604052600436106100a35763ffffffff7c01000000000000000000000000000000000000000000000000000000006000350416630250680481146100a8578063197275f1146100e85780632ac2af531461011457806343cfe6b21461012c578063715018a6146101655780638da5cb5b1461017a5780638fd631af146101ab57806399cc9e73146101d6578063f2fde38b14610201578063f98e87ba14610222575b600080fd5b3480156100b457600080fd5b506100c0600435610237565b60408051938452600160a060020a039283166020850152911682820152519081900360600190f35b3480156100f457600080fd5b50610112600160a060020a0360043581169060243516604435610264565b005b34801561012057600080fd5b506101126004356104a3565b34801561013857600080fd5b50610153600160a060020a03600435811690602435166104bf565b60408051918252519081900360200190f35b34801561017157600080fd5b506101126104dc565b34801561018657600080fd5b5061018f610548565b60408051600160a060020a039092168252519081900360200190f35b3480156101b757600080fd5b50610153600160a060020a036004358116906024359060443516610557565b3480156101e257600080fd5b50610153600160a060020a0360043581169060243590604435166105e2565b34801561020d57600080fd5b50610112600160a060020a0360043516610691565b34801561022e57600080fd5b506101536106b4565b6003602052600090815260409020805460018201546002909201549091600160a060020a03908116911683565b61026c61086c565b60036000610279866106ba565b8152602080820192909252604090810160009081208251606081018452815481526001820154600160a060020a03908116828701526002928301548116828601528981168452918552838320918816835293529081205491925010806102e0575080518210155b15156102eb57600080fd5b60208082015160408084015181517f23b872dd000000000000000000000000000000000000000000000000000000008152336004820152600160a060020a0391821660248201526044810187905291519216926323b872dd926064808401938290030181600087803b15801561036057600080fd5b505af1158015610374573d6000803e3d6000fd5b505050506040513d602081101561038a57600080fd5b5051151561039757600080fd5b600160a060020a0380851660009081526002602090815260408083209387168352929052205415156104045782600160a060020a031684600160a060020a03167fbb755c25de622371a070056e89daca3dffb2591e14bfeaf5a22a5ff538f6430460405160405180910390a35b600160a060020a0380851660009081526002602090815260408083209387168352929052205461043a908363ffffffff6107dc16565b600160a060020a038086166000818152600260209081526040808320948916808452948252918290209490945580518681529051929391927fbd26cf001a8e3be5dc9ac9f95c5e8fef2258c1ded9c61814e107db3ce9bbf2ca929181900390910190a350505050565b600054600160a060020a031633146104ba57600080fd5b600155565b600260209081526000928352604080842090915290825290205481565b600054600160a060020a031633146104f357600080fd5b60008054604051600160a060020a03909116917ff8df31144d9c2f0f6b59d69b8b98abd5459d07f2742c4df920b25aae33c6482091a26000805473ffffffffffffffffffffffffffffffffffffffff19169055565b600054600160a060020a031681565b6000806105658585856105e2565b600081815260036020526040902060010154909150600160a060020a031615156105da576000818152600360205260409020600181018054600160a060020a0380891673ffffffffffffffffffffffffffffffffffffffff199283161790925586835560029092018054918616919092161790555b949350505050565b60408051600160a060020a038581166c0100000000000000000000000090810260208085019190915260348401879052918516026054830152825180830360480181526068909201928390528151600093918291908401908083835b6020831061065d5780518252601f19909201916020918201910161063e565b5181516020939093036101000a60001901801990911692169190911790526040519201829003909120979650505050505050565b600054600160a060020a031633146106a857600080fd5b6106b1816107ef565b50565b60015481565b600081600160a060020a0316638da5cb5b6040518163ffffffff167c0100000000000000000000000000000000000000000000000000000000028152600401602060405180830381600087803b15801561071357600080fd5b505af1158015610727573d6000803e3d6000fd5b505050506040513d602081101561073d57600080fd5b5051604080517f1c4d5608000000000000000000000000000000000000000000000000000000008152306004820152600160a060020a03858116602483015291519190921691631c4d56089160448083019260209291908290030181600087803b1580156107aa57600080fd5b505af11580156107be573d6000803e3d6000fd5b505050506040513d60208110156107d457600080fd5b505192915050565b818101828110156107e957fe5b92915050565b600160a060020a038116151561080457600080fd5b60008054604051600160a060020a03808516939216917f8be0079c531659141344cd1fd0a4f28419497f9722a3daafe3b4186f6b6457e091a36000805473ffffffffffffffffffffffffffffffffffffffff1916600160a060020a0392909216919091179055565b6040805160608101825260008082526020820181905291810191909152905600a165627a7a72305820dec21d61be44f36af01735ca915d5f9f01e20cf358019053ef686cfac08b7b3e0029",
  "source": "pragma solidity ^0.4.24;\r\n\r\nimport \"./UniversalScheme.sol\";\r\n\r\n/**\r\n * @title A universal organization registry.\r\n * @dev Organizations can use this scheme to open a registry.\r\n * Other organizations can then add and promote themselves on this registry.\r\n */\r\n\r\n\r\ncontract OrganizationRegister is UniversalScheme {\r\n    using SafeMath for uint;\r\n\r\n    struct Parameters {\r\n        uint fee;\r\n        StandardToken token;\r\n        address beneficiary;\r\n    }\r\n\r\n    // A mapping from the organization (Avatar) address to the saved data of the organization:\r\n    mapping(address=>mapping(address=>uint)) public organizationsRegistry;\r\n\r\n    mapping(bytes32=>Parameters) public parameters;\r\n\r\n    event OrgAdded( address indexed _registry, address indexed _org);\r\n    event Promotion( address indexed _registry, address indexed _org, uint _amount);\r\n\r\n\r\n    /**\r\n    * @dev Hash the parameters, save if needed and return the hash value\r\n    * @param _token -  the token to pay for register or promotion an address.\r\n    * @param _fee  - fee needed for register an address.\r\n    * @param _beneficiary  - the beneficiary payment address\r\n    * @return bytes32 -the parameters hash\r\n    */\r\n    function setParameters(StandardToken _token, uint _fee, address _beneficiary) public returns(bytes32) {\r\n        bytes32 paramsHash = getParametersHash(_token, _fee, _beneficiary);\r\n        if (parameters[paramsHash].token == address(0)) {\r\n            parameters[paramsHash].token = _token;\r\n            parameters[paramsHash].fee = _fee;\r\n            parameters[paramsHash].beneficiary = _beneficiary;\r\n        }\r\n        return paramsHash;\r\n    }\r\n\r\n    /**\r\n    * @dev Hash the parameters ,and return the hash value\r\n    * @param _token -  the token to pay for register or promotion an address.\r\n    * @param _fee  - fee needed for register an address.\r\n    * @param _beneficiary  - the beneficiary payment address\r\n    * @return bytes32 -the parameters hash\r\n    */\r\n    function getParametersHash(StandardToken _token, uint _fee, address _beneficiary)\r\n    public pure returns(bytes32)\r\n    {\r\n        return (keccak256(abi.encodePacked(_token, _fee, _beneficiary)));\r\n    }\r\n\r\n    /**\r\n     * @dev Adding or promoting an address on the registry.\r\n     *      An address(record) to add or promote can be organization address or any contract address.\r\n     *      Adding a record is done by paying at least the minimum required by the registry params.\r\n     *      Promoting a record is done by paying(adding)amount of token to the registry beneficiary.\r\n     * @param _avatar The _avatar of the organization which own the registry.\r\n     * @param _record The address to add or promote.\r\n     * @param _amount amount to pay for adding or promoting\r\n     */\r\n    function addOrPromoteAddress(Avatar _avatar, address _record, uint _amount)\r\n    public\r\n    {\r\n        Parameters memory params = parameters[getParametersFromController(_avatar)];\r\n        // Pay promotion, if the org was not listed the minimum is the fee:\r\n        require((organizationsRegistry[_avatar][_record] > 0) || (_amount >= params.fee));\r\n\r\n        require(params.token.transferFrom(msg.sender, params.beneficiary, _amount));\r\n        if (organizationsRegistry[_avatar][_record] == 0) {\r\n            emit OrgAdded(_avatar, _record);\r\n        }\r\n        organizationsRegistry[_avatar][_record] = organizationsRegistry[_avatar][_record].add(_amount);\r\n        emit Promotion(_avatar, _record, _amount);\r\n    }\r\n}\r\n",
  "sourcePath": "C:\\users\\dkent\\documents\\projects\\github\\daostack\\arc\\contracts\\universalSchemes\\OrganizationRegister.sol",
  "compiler": {
    "name": "solc",
    "version": "0.4.24+commit.e67f0147.Emscripten.clang"
  },
  "schemaVersion": "2.0.0",
  "updatedAt": "2018-07-21T19:59:28.299Z"
}