{
  "contractName": "Redeemer",
  "abi": [
    {
      "constant": true,
      "inputs": [],
      "name": "contributionReward",
      "outputs": [
        {
          "name": "",
          "type": "address"
        }
      ],
      "payable": false,
      "stateMutability": "view",
      "type": "function"
    },
    {
      "constant": true,
      "inputs": [],
      "name": "genesisProtocol",
      "outputs": [
        {
          "name": "",
          "type": "address"
        }
      ],
      "payable": false,
      "stateMutability": "view",
      "type": "function"
    },
    {
      "inputs": [
        {
          "name": "_contributionReward",
          "type": "address"
        },
        {
          "name": "_genesisProtocol",
          "type": "address"
        }
      ],
      "payable": false,
      "stateMutability": "nonpayable",
      "type": "constructor"
    },
    {
      "constant": false,
      "inputs": [
        {
          "name": "_proposalId",
          "type": "bytes32"
        },
        {
          "name": "_avatar",
          "type": "address"
        },
        {
          "name": "_beneficiary",
          "type": "address"
        }
      ],
      "name": "redeem",
      "outputs": [
        {
          "name": "gpRewards",
          "type": "uint256[5]"
        },
        {
          "name": "gpDaoBountyReward",
          "type": "uint256[2]"
        },
        {
          "name": "executed",
          "type": "bool"
        },
        {
          "name": "crResults",
          "type": "bool[4]"
        }
      ],
      "payable": false,
      "stateMutability": "nonpayable",
      "type": "function"
    }
  ],
  "bytecode": "0x608060405234801561001057600080fd5b50604051604080610c7f83398101604052805160209091015160008054600160a060020a03938416600160a060020a03199182161790915560018054939092169216919091179055610c18806100676000396000f30060806040526004361061003d5763ffffffff60e060020a60003504166318db075081146100425780636be85df9146100735780637581d62f14610134575b600080fd5b34801561004e57600080fd5b50610057610149565b60408051600160a060020a039092168252519081900360200190f35b34801561007f57600080fd5b5061009d600435600160a060020a0360243581169060443516610158565b604051808560a080838360005b838110156100c25781810151838201526020016100aa565b5050505090500184600260200280838360005b838110156100ed5781810151838201526020016100d5565b5050505085151592019182525060200182608080838360005b8381101561011e578181015183820152602001610106565b5050505090500194505050505060405180910390f35b34801561014057600080fd5b506100576105b9565b600054600160a060020a031681565b610160610b93565b610168610bb2565b6000610172610bcd565b600154604080517f61d585da000000000000000000000000000000000000000000000000000000008152600481018a90529051600092600160a060020a0316916361d585da91602480830192602092919082900301818787803b1580156101d857600080fd5b505af11580156101ec573d6000803e3d6000fd5b505050506040513d602081101561020257600080fd5b50519050600381600581111561021457fe5b148061022b5750600481600581111561022957fe5b145b806102415750600581600581111561023f57fe5b145b156102dc57600154604080517fe751f271000000000000000000000000000000000000000000000000000000008152600481018b90529051600160a060020a039092169163e751f271916024808201926020929091908290030181600087803b1580156102ad57600080fd5b505af11580156102c1573d6000803e3d6000fd5b505050506040513d60208110156102d757600080fd5b505192505b600154604080517f61d585da000000000000000000000000000000000000000000000000000000008152600481018b90529051600160a060020a03909216916361d585da916024808201926020929091908290030181600087803b15801561034357600080fd5b505af1158015610357573d6000803e3d6000fd5b505050506040513d602081101561036d57600080fd5b50519050600281600581111561037f57fe5b14806103965750600181600581111561039457fe5b145b156105af57600154604080517fcc3bf9e9000000000000000000000000000000000000000000000000000000008152600481018b9052600160a060020a0389811660248301529151919092169163cc3bf9e99160448083019260a09291908290030181600087803b15801561040a57600080fd5b505af115801561041e573d6000803e3d6000fd5b505050506040513d601f19601f8201168201806040525060a081101561044357600080fd5b50600154604080517f6359036b000000000000000000000000000000000000000000000000000000008152600481018c9052600160a060020a038a81166024830152825194995090921692636359036b9260448082019392918290030181600087803b1580156104b257600080fd5b505af11580156104c6573d6000803e3d6000fd5b505050506040513d60408110156104dc57600080fd5b50805160209182015186830152855260008054604080517f3a256daa000000000000000000000000000000000000000000000000000000008152600481018d9052600160a060020a038c81166024830152915193949190921692633a256daa92604480820193929182900301818787803b15801561055957600080fd5b505af115801561056d573d6000803e3d6000fd5b505050506040513d602081101561058357600080fd5b505111156105af5761059588886105c8565b151560608601521515604085015215156020840152151582525b5093509350935093565b600154600160a060020a031681565b6000806000806105d6610bcd565b600180825260208083019190915260008054604080517fe074ee55000000000000000000000000000000000000000000000000000000008152600481018c9052600160a060020a038b811660248301526002604483015291519394859485948594169263e074ee5592606480830193919282900301818787803b15801561065c57600080fd5b505af1158015610670573d6000803e3d6000fd5b505050506040513d602081101561068657600080fd5b810190808051906020019092919050505093506000809054906101000a9004600160a060020a0316600160a060020a0316636046f71d8c8c6040518363ffffffff1660e060020a02815260040180836000191660001916815260200182600160a060020a0316600160a060020a0316815260200192505050602060405180830381600087803b15801561071857600080fd5b505af115801561072c573d6000803e3d6000fd5b505050506040513d602081101561074257600080fd5b810190808051906020019092919050505092506000809054906101000a9004600160a060020a0316600160a060020a0316631c3a57138c8c6040518363ffffffff1660e060020a02815260040180836000191660001916815260200182600160a060020a0316600160a060020a0316815260200192505050602060405180830381600087803b1580156107d457600080fd5b505af11580156107e8573d6000803e3d6000fd5b505050506040513d60208110156107fe57600080fd5b810190808051906020019092919050505091506000809054906101000a9004600160a060020a0316600160a060020a031663f70bbb9a8c8c6040518363ffffffff1660e060020a02815260040180836000191660001916815260200182600160a060020a0316600160a060020a0316815260200192505050602060405180830381600087803b15801561089057600080fd5b505af11580156108a4573d6000803e3d6000fd5b505050506040513d60208110156108ba57600080fd5b505190506108ce848463ffffffff610b6416565b92508215806108e65750828a600160a060020a031631105b156108f757600060408601526108ff565b600160408601525b60008054604080517fe074ee55000000000000000000000000000000000000000000000000000000008152600481018f9052600160a060020a038e81166024830152600360448301529151919092169263e074ee5592606480820193602093909283900390910190829087803b15801561097857600080fd5b505af115801561098c573d6000803e3d6000fd5b505050506040513d60208110156109a257600080fd5b505193506109b6848363ffffffff610b6416565b9150811580610a4a57508181600160a060020a03166370a082318c6040518263ffffffff1660e060020a0281526004018082600160a060020a0316600160a060020a03168152602001915050602060405180830381600087803b158015610a1c57600080fd5b505af1158015610a30573d6000803e3d6000fd5b505050506040513d6020811015610a4657600080fd5b5051105b15610a5b5760006060860152610a63565b600160608601525b600080546040517fd58bf09a000000000000000000000000000000000000000000000000000000008152600481018e8152600160a060020a038e811660248401529092169263d58bf09a928f928f928b92916044019083906080908190849084905b83811015610add578181015183820152602001610ac5565b505050509050019350505050608060405180830381600087803b158015610b0357600080fd5b505af1158015610b17573d6000803e3d6000fd5b505050506040513d601f19601f820116820180604052506080811015610b3c57600080fd5b50805160208201516040830151606090930151919e909d50919b509950975050505050505050565b6000821515610b7557506000610b8d565b50818102818382811515610b8557fe5b0414610b8d57fe5b92915050565b60a0604051908101604052806005906020820280388339509192915050565b60408051808201825290600290829080388339509192915050565b60806040519081016040528060049060208202803883395091929150505600a165627a7a72305820637d4ae6e55a74e2c5209483aeb8b7fe98ff1a813fcd3bd4c2bb590e8375c5760029",
  "source": "pragma solidity ^0.4.24;\n\nimport \"../universalSchemes/ContributionReward.sol\";\nimport \"../VotingMachines/GenesisProtocol.sol\";\n\n\ncontract Redeemer {\n    using SafeMath for uint;\n\n    ContributionReward public contributionReward;\n    GenesisProtocol public genesisProtocol;\n\n    constructor(address _contributionReward,address _genesisProtocol) public {\n        contributionReward = ContributionReward(_contributionReward);\n        genesisProtocol = GenesisProtocol(_genesisProtocol);\n    }\n\n   /**\n    * @dev helper to redeem rewards for a proposal\n    * It calls execute on the proposal if it is not yet executed.\n    * It tries to redeem reputation and stake from the GenesisProtocol.\n    * It tries to redeem proposal rewards from the contribution rewards scheme.\n    * This function does not emit events.\n    * A client should listen to GenesisProtocol and ContributionReward redemption events\n    * to monitor redemption operations.\n    * @param _proposalId the ID of the voting in the voting machine\n    * @param _avatar address of the controller\n    * @param _beneficiary beneficiary\n    * @return gpRewards array\n    *          gpRewards[0] - stakerTokenAmount\n    *          gpRewards[1] - stakerReputationAmount\n    *          gpRewards[2] - voterTokenAmount\n    *          gpRewards[3] - voterReputationAmount\n    *          gpRewards[4] - proposerReputationAmount\n    * @return gpDaoBountyReward array\n    *         gpDaoBountyReward[0] - staker dao bounty reward -\n    *                                will be zero for the case there is not enough tokens in avatar for the reward.\n    *         gpDaoBountyReward[1] - staker potential dao bounty reward.\n    * @return executed bool true or false\n    * @return crResults array\n    *          crResults[0]- reputation - from ContributionReward\n    *          crResults[1]- nativeTokenReward - from ContributionReward\n    *          crResults[2]- Ether - from ContributionReward\n    *          crResults[3]- ExternalToken - from ContributionReward\n\n    */\n    function redeem(bytes32 _proposalId,address _avatar,address _beneficiary)\n    external\n    returns(uint[5] gpRewards,\n            uint[2] gpDaoBountyReward,\n            bool executed,\n            bool[4] crResults)\n    {\n        GenesisProtocol.ProposalState pState = genesisProtocol.state(_proposalId);\n        // solium-disable-next-line operator-whitespace\n        if ((pState == GenesisProtocol.ProposalState.PreBoosted)||\n            (pState == GenesisProtocol.ProposalState.Boosted)||\n            (pState == GenesisProtocol.ProposalState.QuietEndingPeriod)) {\n            executed = genesisProtocol.execute(_proposalId);\n        }\n        pState = genesisProtocol.state(_proposalId);\n        if ((pState == GenesisProtocol.ProposalState.Executed) ||\n            (pState == GenesisProtocol.ProposalState.Closed)) {\n            gpRewards = genesisProtocol.redeem(_proposalId,_beneficiary);\n            (gpDaoBountyReward[0],gpDaoBountyReward[1]) = genesisProtocol.redeemDaoBounty(_proposalId,_beneficiary);\n            //redeem from contributionReward only if it executed\n            if (contributionReward.getProposalExecutionTime(_proposalId,_avatar) > 0) {\n                (crResults[0],crResults[1],crResults[2],crResults[3]) = contributionRewardRedeem(_proposalId,_avatar);\n            }\n        }\n    }\n\n    function contributionRewardRedeem(bytes32 _proposalId,address _avatar)\n    private\n    returns (bool,bool,bool,bool)\n    {\n        bool[4] memory whatToRedeem;\n        whatToRedeem[0] = true; //reputation\n        whatToRedeem[1] = true; //nativeToken\n        uint periodsToPay = contributionReward.getPeriodsToPay(_proposalId,_avatar,2);\n        uint ethReward = contributionReward.getProposalEthReward(_proposalId,_avatar);\n        uint externalTokenReward = contributionReward.getProposalExternalTokenReward(_proposalId,_avatar);\n        address externalToken = contributionReward.getProposalExternalToken(_proposalId,_avatar);\n        ethReward = periodsToPay.mul(ethReward);\n        if ((ethReward == 0) || (_avatar.balance < ethReward)) {\n            whatToRedeem[2] = false;\n        } else {\n            whatToRedeem[2] = true;\n        }\n        periodsToPay = contributionReward.getPeriodsToPay(_proposalId,_avatar,3);\n        externalTokenReward = periodsToPay.mul(externalTokenReward);\n        if ((externalTokenReward == 0) || (StandardToken(externalToken).balanceOf(_avatar) < externalTokenReward)) {\n            whatToRedeem[3] = false;\n        } else {\n            whatToRedeem[3] = true;\n        }\n        whatToRedeem = contributionReward.redeem(_proposalId,_avatar,whatToRedeem);\n        return (whatToRedeem[0],whatToRedeem[1],whatToRedeem[2],whatToRedeem[3]);\n    }\n}\n",
  "sourcePath": "/Users/oren/daostack/daostack2/daostack/contracts/utils/Redeemer.sol",
  "compiler": {
    "name": "solc",
    "version": "0.4.24+commit.e67f0147.Emscripten.clang"
  },
  "schemaVersion": "2.0.0",
  "updatedAt": "2018-08-15T23:19:53.688Z"
}