{
  "contractName": "Reputation",
  "abi": [
    {
      "constant": true,
      "inputs": [],
      "name": "totalSupply",
      "outputs": [
        {
          "name": "",
          "type": "uint256"
        }
      ],
      "payable": false,
      "stateMutability": "view",
      "type": "function"
    },
    {
      "constant": true,
      "inputs": [
        {
          "name": "",
          "type": "address"
        }
      ],
      "name": "balances",
      "outputs": [
        {
          "name": "",
          "type": "uint256"
        }
      ],
      "payable": false,
      "stateMutability": "view",
      "type": "function"
    },
    {
      "constant": true,
      "inputs": [],
      "name": "decimals",
      "outputs": [
        {
          "name": "",
          "type": "uint256"
        }
      ],
      "payable": false,
      "stateMutability": "view",
      "type": "function"
    },
    {
      "constant": false,
      "inputs": [],
      "name": "renounceOwnership",
      "outputs": [],
      "payable": false,
      "stateMutability": "nonpayable",
      "type": "function"
    },
    {
      "constant": true,
      "inputs": [],
      "name": "owner",
      "outputs": [
        {
          "name": "",
          "type": "address"
        }
      ],
      "payable": false,
      "stateMutability": "view",
      "type": "function"
    },
    {
      "constant": false,
      "inputs": [
        {
          "name": "_newOwner",
          "type": "address"
        }
      ],
      "name": "transferOwnership",
      "outputs": [],
      "payable": false,
      "stateMutability": "nonpayable",
      "type": "function"
    },
    {
      "anonymous": false,
      "inputs": [
        {
          "indexed": true,
          "name": "_to",
          "type": "address"
        },
        {
          "indexed": false,
          "name": "_amount",
          "type": "uint256"
        }
      ],
      "name": "Mint",
      "type": "event"
    },
    {
      "anonymous": false,
      "inputs": [
        {
          "indexed": true,
          "name": "_from",
          "type": "address"
        },
        {
          "indexed": false,
          "name": "_amount",
          "type": "uint256"
        }
      ],
      "name": "Burn",
      "type": "event"
    },
    {
      "anonymous": false,
      "inputs": [
        {
          "indexed": true,
          "name": "previousOwner",
          "type": "address"
        }
      ],
      "name": "OwnershipRenounced",
      "type": "event"
    },
    {
      "anonymous": false,
      "inputs": [
        {
          "indexed": true,
          "name": "previousOwner",
          "type": "address"
        },
        {
          "indexed": true,
          "name": "newOwner",
          "type": "address"
        }
      ],
      "name": "OwnershipTransferred",
      "type": "event"
    },
    {
      "constant": true,
      "inputs": [
        {
          "name": "_owner",
          "type": "address"
        }
      ],
      "name": "reputationOf",
      "outputs": [
        {
          "name": "balance",
          "type": "uint256"
        }
      ],
      "payable": false,
      "stateMutability": "view",
      "type": "function"
    },
    {
      "constant": false,
      "inputs": [
        {
          "name": "_to",
          "type": "address"
        },
        {
          "name": "_amount",
          "type": "uint256"
        }
      ],
      "name": "mint",
      "outputs": [
        {
          "name": "",
          "type": "bool"
        }
      ],
      "payable": false,
      "stateMutability": "nonpayable",
      "type": "function"
    },
    {
      "constant": false,
      "inputs": [
        {
          "name": "_from",
          "type": "address"
        },
        {
          "name": "_amount",
          "type": "uint256"
        }
      ],
      "name": "burn",
      "outputs": [
        {
          "name": "",
          "type": "bool"
        }
      ],
      "payable": false,
      "stateMutability": "nonpayable",
      "type": "function"
    }
  ],
  "bytecode": "0x6080604052601260035560008054600160a060020a0319163317905561052a8061002a6000396000f3006080604052600436106100985763ffffffff7c010000000000000000000000000000000000000000000000000000000060003504166318160ddd811461009d57806327e235e3146100c4578063313ce567146100e557806340c10f19146100fa578063715018a6146101325780638da5cb5b146101495780639dc29fac1461017a578063db89c0441461019e578063f2fde38b146101bf575b600080fd5b3480156100a957600080fd5b506100b26101e0565b60408051918252519081900360200190f35b3480156100d057600080fd5b506100b2600160a060020a03600435166101e6565b3480156100f157600080fd5b506100b26101f8565b34801561010657600080fd5b5061011e600160a060020a03600435166024356101fe565b604080519115158252519081900360200190f35b34801561013e57600080fd5b506101476102b0565b005b34801561015557600080fd5b5061015e61031c565b60408051600160a060020a039092168252519081900360200190f35b34801561018657600080fd5b5061011e600160a060020a036004351660243561032b565b3480156101aa57600080fd5b506100b2600160a060020a036004351661041e565b3480156101cb57600080fd5b50610147600160a060020a0360043516610439565b60025481565b60016020526000908152604090205481565b60035481565b60008054600160a060020a0316331461021657600080fd5b600254610229908363ffffffff61045c16565b600255600160a060020a038316600090815260016020526040902054610255908363ffffffff61045c16565b600160a060020a038416600081815260016020908152604091829020939093558051858152905191927f0f6798a560793a54c3bcfe86a93cde1e73087d944c0ea20544137d412139688592918290030190a250600192915050565b600054600160a060020a031633146102c757600080fd5b60008054604051600160a060020a03909116917ff8df31144d9c2f0f6b59d69b8b98abd5459d07f2742c4df920b25aae33c6482091a26000805473ffffffffffffffffffffffffffffffffffffffff19169055565b600054600160a060020a031681565b600080548190600160a060020a0316331461034557600080fd5b50600160a060020a03831660009081526001602052604090205482908111156103835750600160a060020a0383166000908152600160205260409020545b600254610396908263ffffffff61046f16565b600255600160a060020a0384166000908152600160205260409020546103c2908263ffffffff61046f16565b600160a060020a038516600081815260016020908152604091829020939093558051848152905191927fcc16f5dbb4873280815c1ee09dbd06736cffcc184412cf7a71a0fdb75d397ca592918290030190a25060019392505050565b600160a060020a031660009081526001602052604090205490565b600054600160a060020a0316331461045057600080fd5b61045981610481565b50565b8181018281101561046957fe5b92915050565b60008282111561047b57fe5b50900390565b600160a060020a038116151561049657600080fd5b60008054604051600160a060020a03808516939216917f8be0079c531659141344cd1fd0a4f28419497f9722a3daafe3b4186f6b6457e091a36000805473ffffffffffffffffffffffffffffffffffffffff1916600160a060020a03929092169190911790555600a165627a7a72305820f8044469fada5015cd536349d037209c8959a079ceb75e68b9aaaa8f226f6f060029",
  "source": "pragma solidity ^0.4.24;\r\n\r\nimport \"openzeppelin-solidity/contracts/ownership/Ownable.sol\";\r\nimport \"openzeppelin-solidity/contracts/math/SafeMath.sol\";\r\n\r\n\r\n/**\r\n * @title Reputation system\r\n * @dev A DAO has Reputation System which allows peers to rate other peers in order to build trust .\r\n * A reputation is use to assign influence measure to a DAO'S peers.\r\n * Reputation is similar to regular tokens but with one crucial difference: It is non-transferable.\r\n * The Reputation contract maintain a map of address to reputation value.\r\n * It provides an onlyOwner functions to mint and burn reputation _to (or _from) a specific address.\r\n */\r\n\r\ncontract Reputation is Ownable {\r\n    using SafeMath for uint;\r\n\r\n    mapping (address => uint256) public balances;\r\n    uint256 public totalSupply;\r\n    uint public decimals = 18;\r\n\r\n    // Event indicating minting of reputation to an address.\r\n    event Mint(address indexed _to, uint256 _amount);\r\n    // Event indicating burning of reputation for an address.\r\n    event Burn(address indexed _from, uint256 _amount);\r\n\r\n    /**\r\n    * @dev return the reputation amount of a given owner\r\n    * @param _owner an address of the owner which we want to get his reputation\r\n    */\r\n    function reputationOf(address _owner) public view returns (uint256 balance) {\r\n        return balances[_owner];\r\n    }\r\n\r\n    /**\r\n    * @dev Generates `_amount` of reputation that are assigned to `_to`\r\n    * @param _to The address that will be assigned the new reputation\r\n    * @param _amount The quantity of reputation to be generated\r\n    * @return True if the reputation are generated correctly\r\n    */\r\n    function mint(address _to, uint _amount)\r\n    public\r\n    onlyOwner\r\n    returns (bool)\r\n    {\r\n        totalSupply = totalSupply.add(_amount);\r\n        balances[_to] = balances[_to].add(_amount);\r\n        emit Mint(_to, _amount);\r\n        return true;\r\n    }\r\n\r\n    /**\r\n    * @dev Burns `_amount` of reputation from `_from`\r\n    * if _amount tokens to burn > balances[_from] the balance of _from will turn to zero.\r\n    * @param _from The address that will lose the reputation\r\n    * @param _amount The quantity of reputation to burn\r\n    * @return True if the reputation are burned correctly\r\n    */\r\n    function burn(address _from, uint _amount)\r\n    public\r\n    onlyOwner\r\n    returns (bool)\r\n    {\r\n        uint amountMinted = _amount;\r\n        if (balances[_from] < _amount) {\r\n            amountMinted = balances[_from];\r\n        }\r\n        totalSupply = totalSupply.sub(amountMinted);\r\n        balances[_from] = balances[_from].sub(amountMinted);\r\n        emit Burn(_from, amountMinted);\r\n        return true;\r\n    }\r\n}\r\n",
  "sourcePath": "C:\\users\\dkent\\documents\\projects\\github\\daostack\\arc\\contracts\\controller\\Reputation.sol",
  "compiler": {
    "name": "solc",
    "version": "0.4.24+commit.e67f0147.Emscripten.clang"
  },
  "schemaVersion": "2.0.0",
  "updatedAt": "2018-07-21T19:08:34.330Z"
}