{
  "contractName": "SchemeRegistrar",
  "abi": [
    {
      "constant": true,
      "inputs": [
        {
          "name": "",
          "type": "bytes32"
        }
      ],
      "name": "parameters",
      "outputs": [
        {
          "name": "voteRegisterParams",
          "type": "bytes32"
        },
        {
          "name": "voteRemoveParams",
          "type": "bytes32"
        },
        {
          "name": "intVote",
          "type": "address"
        }
      ],
      "payable": false,
      "stateMutability": "view",
      "type": "function"
    },
    {
      "constant": true,
      "inputs": [
        {
          "name": "",
          "type": "address"
        },
        {
          "name": "",
          "type": "bytes32"
        }
      ],
      "name": "organizationsProposals",
      "outputs": [
        {
          "name": "scheme",
          "type": "address"
        },
        {
          "name": "parametersHash",
          "type": "bytes32"
        },
        {
          "name": "proposalType",
          "type": "uint256"
        },
        {
          "name": "permissions",
          "type": "bytes4"
        }
      ],
      "payable": false,
      "stateMutability": "view",
      "type": "function"
    },
    {
      "constant": false,
      "inputs": [
        {
          "name": "_hashedParameters",
          "type": "bytes32"
        }
      ],
      "name": "updateParameters",
      "outputs": [],
      "payable": false,
      "stateMutability": "nonpayable",
      "type": "function"
    },
    {
      "constant": false,
      "inputs": [],
      "name": "renounceOwnership",
      "outputs": [],
      "payable": false,
      "stateMutability": "nonpayable",
      "type": "function"
    },
    {
      "constant": true,
      "inputs": [],
      "name": "owner",
      "outputs": [
        {
          "name": "",
          "type": "address"
        }
      ],
      "payable": false,
      "stateMutability": "view",
      "type": "function"
    },
    {
      "constant": false,
      "inputs": [
        {
          "name": "_newOwner",
          "type": "address"
        }
      ],
      "name": "transferOwnership",
      "outputs": [],
      "payable": false,
      "stateMutability": "nonpayable",
      "type": "function"
    },
    {
      "constant": true,
      "inputs": [],
      "name": "hashedParameters",
      "outputs": [
        {
          "name": "",
          "type": "bytes32"
        }
      ],
      "payable": false,
      "stateMutability": "view",
      "type": "function"
    },
    {
      "anonymous": false,
      "inputs": [
        {
          "indexed": true,
          "name": "_avatar",
          "type": "address"
        },
        {
          "indexed": true,
          "name": "_proposalId",
          "type": "bytes32"
        },
        {
          "indexed": true,
          "name": "_intVoteInterface",
          "type": "address"
        },
        {
          "indexed": false,
          "name": "_scheme",
          "type": "address"
        },
        {
          "indexed": false,
          "name": "_parametersHash",
          "type": "bytes32"
        },
        {
          "indexed": false,
          "name": "_permissions",
          "type": "bytes4"
        }
      ],
      "name": "NewSchemeProposal",
      "type": "event"
    },
    {
      "anonymous": false,
      "inputs": [
        {
          "indexed": true,
          "name": "_avatar",
          "type": "address"
        },
        {
          "indexed": true,
          "name": "_proposalId",
          "type": "bytes32"
        },
        {
          "indexed": true,
          "name": "_intVoteInterface",
          "type": "address"
        },
        {
          "indexed": false,
          "name": "_scheme",
          "type": "address"
        }
      ],
      "name": "RemoveSchemeProposal",
      "type": "event"
    },
    {
      "anonymous": false,
      "inputs": [
        {
          "indexed": true,
          "name": "_avatar",
          "type": "address"
        },
        {
          "indexed": true,
          "name": "_proposalId",
          "type": "bytes32"
        },
        {
          "indexed": false,
          "name": "_param",
          "type": "int256"
        }
      ],
      "name": "ProposalExecuted",
      "type": "event"
    },
    {
      "anonymous": false,
      "inputs": [
        {
          "indexed": true,
          "name": "_avatar",
          "type": "address"
        },
        {
          "indexed": true,
          "name": "_proposalId",
          "type": "bytes32"
        }
      ],
      "name": "ProposalDeleted",
      "type": "event"
    },
    {
      "anonymous": false,
      "inputs": [
        {
          "indexed": true,
          "name": "previousOwner",
          "type": "address"
        }
      ],
      "name": "OwnershipRenounced",
      "type": "event"
    },
    {
      "anonymous": false,
      "inputs": [
        {
          "indexed": true,
          "name": "previousOwner",
          "type": "address"
        },
        {
          "indexed": true,
          "name": "newOwner",
          "type": "address"
        }
      ],
      "name": "OwnershipTransferred",
      "type": "event"
    },
    {
      "constant": false,
      "inputs": [
        {
          "name": "_proposalId",
          "type": "bytes32"
        },
        {
          "name": "_avatar",
          "type": "address"
        },
        {
          "name": "_param",
          "type": "int256"
        }
      ],
      "name": "execute",
      "outputs": [
        {
          "name": "",
          "type": "bool"
        }
      ],
      "payable": false,
      "stateMutability": "nonpayable",
      "type": "function"
    },
    {
      "constant": false,
      "inputs": [
        {
          "name": "_voteRegisterParams",
          "type": "bytes32"
        },
        {
          "name": "_voteRemoveParams",
          "type": "bytes32"
        },
        {
          "name": "_intVote",
          "type": "address"
        }
      ],
      "name": "setParameters",
      "outputs": [
        {
          "name": "",
          "type": "bytes32"
        }
      ],
      "payable": false,
      "stateMutability": "nonpayable",
      "type": "function"
    },
    {
      "constant": true,
      "inputs": [
        {
          "name": "_voteRegisterParams",
          "type": "bytes32"
        },
        {
          "name": "_voteRemoveParams",
          "type": "bytes32"
        },
        {
          "name": "_intVote",
          "type": "address"
        }
      ],
      "name": "getParametersHash",
      "outputs": [
        {
          "name": "",
          "type": "bytes32"
        }
      ],
      "payable": false,
      "stateMutability": "pure",
      "type": "function"
    },
    {
      "constant": false,
      "inputs": [
        {
          "name": "_avatar",
          "type": "address"
        },
        {
          "name": "_scheme",
          "type": "address"
        },
        {
          "name": "_parametersHash",
          "type": "bytes32"
        },
        {
          "name": "_permissions",
          "type": "bytes4"
        }
      ],
      "name": "proposeScheme",
      "outputs": [
        {
          "name": "",
          "type": "bytes32"
        }
      ],
      "payable": false,
      "stateMutability": "nonpayable",
      "type": "function"
    },
    {
      "constant": false,
      "inputs": [
        {
          "name": "_avatar",
          "type": "address"
        },
        {
          "name": "_scheme",
          "type": "address"
        }
      ],
      "name": "proposeToRemoveScheme",
      "outputs": [
        {
          "name": "",
          "type": "bytes32"
        }
      ],
      "payable": false,
      "stateMutability": "nonpayable",
      "type": "function"
    }
  ],
  "bytecode": "0x608060405260008054600160a060020a03191633179055610f5b806100256000396000f3006080604052600436106100a05763ffffffff60e060020a6000350416630250680481146100a557806306e3a978146100e45780630a6687fd146101425780631c940d511461017b5780632ac2af53146101b2578063310ce4e2146101cc57806357b4c46014610207578063715018a61461022e57806377182261146102435780638da5cb5b1461026a578063f2fde38b1461029b578063f98e87ba146102bc575b600080fd5b3480156100b157600080fd5b506100bd6004356102d1565b604080519384526020840192909252600160a060020a031682820152519081900360600190f35b3480156100f057600080fd5b50610108600160a060020a03600435166024356102fb565b60408051600160a060020a039095168552602085019390935283830191909152600160e060020a0319166060830152519081900360800190f35b34801561014e57600080fd5b50610169600435602435600160a060020a036044351661033c565b60408051918252519081900360200190f35b34801561018757600080fd5b50610169600160a060020a0360043581169060243516604435600160e060020a031960643516610399565b3480156101be57600080fd5b506101ca600435610658565b005b3480156101d857600080fd5b506101f3600435600160a060020a0360243516604435610674565b604080519115158252519081900360200190f35b34801561021357600080fd5b50610169600160a060020a03600435811690602435166109f2565b34801561023a57600080fd5b506101ca610c18565b34801561024f57600080fd5b50610169600435602435600160a060020a0360443516610c84565b34801561027657600080fd5b5061027f610d2a565b60408051600160a060020a039092168252519081900360200190f35b3480156102a757600080fd5b506101ca600160a060020a0360043516610d39565b3480156102c857600080fd5b50610169610d5c565b600360205260009081526040902080546001820154600290920154909190600160a060020a031683565b600260208181526000938452604080852090915291835291208054600182015492820154600390920154600160a060020a0390911692919060e060020a0284565b60008061034a858585610c84565b6000818152600360205260409020958655600186019490945550506002909201805473ffffffffffffffffffffffffffffffffffffffff1916600160a060020a03939093169290921790915590565b60006103a3610ee8565b60006103ad610f08565b600160a060020a03871615156103c257600080fd5b600360006103cf8a610d62565b81526020808201929092526040908101600090812082516060810184528154808252600183015482870152600292830154600160a060020a0390811683870181905286517f0905c9f9000000000000000000000000000000000000000000000000000000008152600481019590955260248501929092528e16604484015230606484015233608484015293519097509293630905c9f99360a48084019492939192918390030190829087803b15801561048757600080fd5b505af115801561049b573d6000803e3d6000fd5b505050506040513d60208110156104b157600080fd5b505160408051608081018252600160a060020a03808b1680835260208381018c9052600184860152600160e060020a03198b1660608086018290528a87015187519485529284018e9052838701919091529451959750929550918116938693918d16927fcf7d36187d1692043e611763e817bc4c89e2b7e86483734c6a928a99dcdc117e92908290030190a4600160a060020a03888116600090815260026020818152604080842087855282528084208651815473ffffffffffffffffffffffffffffffffffffffff191690871617815586830151600180830191909155878301519482019490945560608701516003909101805463ffffffff191660e060020a9092049190911790558781015181517f339e23d1000000000000000000000000000000000000000000000000000000008152600481018990526024810194909452336044850152905194169363339e23d1936064808501948390030190829087803b15801561062057600080fd5b505af1158015610634573d6000803e3d6000fd5b505050506040513d602081101561064a57600080fd5b509198975050505050505050565b600054600160a060020a0316331461066f57600080fd5b600155565b600061067e610f08565b60003360038261068d88610d62565b8152602081019190915260400160002060020154600160a060020a0316146106b457600080fd5b600160a060020a0385811660009081526002602081815260408084208b85528252928390208351608081018552815490951680865260018201549286019290925291820154928401929092526003015460e060020a02600160e060020a0319166060830152909250151561072757600080fd5b600160a060020a03851660008181526002602081815260408084208b8552909152808320805473ffffffffffffffffffffffffffffffffffffffff19168155600181018490559182018390556003909101805463ffffffff19169055518892917f6bc0cb9e9967b59a69ace442598e1df4368d38661bd5c0800fbcbc9fe855fbbe91a383600114156109a65784600160a060020a0316638da5cb5b6040518163ffffffff1660e060020a028152600401602060405180830381600087803b1580156107f157600080fd5b505af1158015610805573d6000803e3d6000fd5b505050506040513d602081101561081b57600080fd5b50516040830151909150600114156108f35781516020808401516060850151604080517fe869d45f000000000000000000000000000000000000000000000000000000008152600160a060020a0395861660048201526024810193909352600160e060020a031990911660448301528884166064830152519284169263e869d45f926084808401939192918290030181600087803b1580156108bc57600080fd5b505af11580156108d0573d6000803e3d6000fd5b505050506040513d60208110156108e657600080fd5b505115156108f357600080fd5b8160400151600214156109a6578151604080517f039de01d000000000000000000000000000000000000000000000000000000008152600160a060020a039283166004820152878316602482015290519183169163039de01d916044808201926020929091908290030181600087803b15801561096f57600080fd5b505af1158015610983573d6000803e3d6000fd5b505050506040513d602081101561099957600080fd5b505115156109a657600080fd5b6040805185815290518791600160a060020a038816917fd2632e80f5364f02aded1c64e8a04637b7c8bb9c2db2bedf4b6ac47c013acbc09181900360200190a350600195945050505050565b6000806109fd610ee8565b600080610a0987610d62565b60008181526003602090815260408083208151606081018352815481526001820154818501819052600292830154600160a060020a0390811683860181905285517f0905c9f9000000000000000000000000000000000000000000000000000000008152600481019590955260248501929092528e166044840152306064840152336084840152925195995097509095508593630905c9f99360a480840194938390030190829087803b158015610abf57600080fd5b505af1158015610ad3573d6000803e3d6000fd5b505050506040513d6020811015610ae957600080fd5b5051600160a060020a03888116600081815260026020818152604080842087855282529283902080830192909255815473ffffffffffffffffffffffffffffffffffffffff19168c8616908117909255825191825291519495509286169385937f9b1e830946ff2e96ae2d6f9853dd3a8fce640829ce9595a01422561d493e1bdc92908290030190a4604080517f339e23d100000000000000000000000000000000000000000000000000000000815260048101839052600160248201523360448201529051600160a060020a0384169163339e23d19160648083019260209291908290030181600087803b158015610be157600080fd5b505af1158015610bf5573d6000803e3d6000fd5b505050506040513d6020811015610c0b57600080fd5b5090979650505050505050565b600054600160a060020a03163314610c2f57600080fd5b60008054604051600160a060020a03909116917ff8df31144d9c2f0f6b59d69b8b98abd5459d07f2742c4df920b25aae33c6482091a26000805473ffffffffffffffffffffffffffffffffffffffff19169055565b6040805160208082018690528183018590526c01000000000000000000000000600160a060020a038516026060830152825160548184030181526074909201928390528151600093918291908401908083835b60208310610cf65780518252601f199092019160209182019101610cd7565b5181516020939093036101000a60001901801990911692169190911790526040519201829003909120979650505050505050565b600054600160a060020a031681565b600054600160a060020a03163314610d5057600080fd5b610d5981610e6b565b50565b60015481565b600081600160a060020a0316638da5cb5b6040518163ffffffff1660e060020a028152600401602060405180830381600087803b158015610da257600080fd5b505af1158015610db6573d6000803e3d6000fd5b505050506040513d6020811015610dcc57600080fd5b5051604080517f1c4d5608000000000000000000000000000000000000000000000000000000008152306004820152600160a060020a03858116602483015291519190921691631c4d56089160448083019260209291908290030181600087803b158015610e3957600080fd5b505af1158015610e4d573d6000803e3d6000fd5b505050506040513d6020811015610e6357600080fd5b505192915050565b600160a060020a0381161515610e8057600080fd5b60008054604051600160a060020a03808516939216917f8be0079c531659141344cd1fd0a4f28419497f9722a3daafe3b4186f6b6457e091a36000805473ffffffffffffffffffffffffffffffffffffffff1916600160a060020a0392909216919091179055565b604080516060810182526000808252602082018190529181019190915290565b604080516080810182526000808252602082018190529181018290526060810191909152905600a165627a7a7230582081c58018f85366cff4f671efb79adb4db73fda519cf9895448bf0d0895bf1fb00029",
  "source": "pragma solidity ^0.4.24;\r\n\r\nimport \"../VotingMachines/IntVoteInterface.sol\";\r\nimport \"./UniversalScheme.sol\";\r\n\r\n\r\n/**\r\n * @title A registrar for Schemes for organizations\r\n * @dev The SchemeRegistrar is used for registering and unregistering schemes at organizations\r\n */\r\n\r\ncontract SchemeRegistrar is UniversalScheme {\r\n    event NewSchemeProposal(\r\n        address indexed _avatar,\r\n        bytes32 indexed _proposalId,\r\n        address indexed _intVoteInterface,\r\n        address _scheme,\r\n        bytes32 _parametersHash,\r\n        bytes4 _permissions\r\n    );\r\n    event RemoveSchemeProposal(address indexed _avatar,\r\n        bytes32 indexed _proposalId,\r\n        address indexed _intVoteInterface,\r\n        address _scheme\r\n    );\r\n    event ProposalExecuted(address indexed _avatar, bytes32 indexed _proposalId,int _param);\r\n    event ProposalDeleted(address indexed _avatar, bytes32 indexed _proposalId);\r\n\r\n    // a SchemeProposal is a  proposal to add or remove a scheme to/from the an organization\r\n    struct SchemeProposal {\r\n        address scheme; //\r\n        bytes32 parametersHash;\r\n        uint proposalType; // 1: add a scheme, 2: remove a scheme.\r\n        bytes4 permissions;\r\n    }\r\n\r\n    // A mapping from the organization (Avatar) address to the saved data of the organization:\r\n    mapping(address=>mapping(bytes32=>SchemeProposal)) public organizationsProposals;\r\n\r\n    // A mapping from hashes to parameters (use to store a particular configuration on the controller)\r\n    struct Parameters {\r\n        bytes32 voteRegisterParams;\r\n        bytes32 voteRemoveParams;\r\n        IntVoteInterface intVote;\r\n    }\r\n    mapping(bytes32=>Parameters) public parameters;\r\n\r\n\r\n    /**\r\n    * @dev execute a  proposal\r\n    * This method can only be called by the voting machine in which the vote is held.\r\n    * @param _proposalId the ID of the proposal in the voting machine\r\n    * @param _avatar address of the controller\r\n    * @param _param identifies the action to be taken\r\n    */\r\n    // TODO: this call can be simplified if we save the _avatar together with the proposal\r\n    function execute(bytes32 _proposalId, address _avatar, int _param) external returns(bool) {\r\n          // Check the caller is indeed the voting machine:\r\n        require(parameters[getParametersFromController(Avatar(_avatar))].intVote == msg.sender);\r\n        SchemeProposal memory proposal = organizationsProposals[_avatar][_proposalId];\r\n        require(proposal.scheme != address(0));\r\n        delete organizationsProposals[_avatar][_proposalId];\r\n        emit ProposalDeleted(_avatar,_proposalId);\r\n        if (_param == 1) {\r\n\r\n          // Define controller and get the params:\r\n            ControllerInterface controller = ControllerInterface(Avatar(_avatar).owner());\r\n\r\n          // Add a scheme:\r\n            if (proposal.proposalType == 1) {\r\n                require(controller.registerScheme(proposal.scheme, proposal.parametersHash, proposal.permissions,_avatar));\r\n            }\r\n          // Remove a scheme:\r\n            if ( proposal.proposalType == 2 ) {\r\n                require(controller.unregisterScheme(proposal.scheme,_avatar));\r\n            }\r\n          }\r\n        emit ProposalExecuted(_avatar, _proposalId,_param);\r\n        return true;\r\n    }\r\n\r\n    /**\r\n    * @dev hash the parameters, save them if necessary, and return the hash value\r\n    */\r\n    function setParameters(\r\n        bytes32 _voteRegisterParams,\r\n        bytes32 _voteRemoveParams,\r\n        IntVoteInterface _intVote\r\n    ) public returns(bytes32)\r\n    {\r\n        bytes32 paramsHash = getParametersHash(_voteRegisterParams, _voteRemoveParams, _intVote);\r\n        parameters[paramsHash].voteRegisterParams = _voteRegisterParams;\r\n        parameters[paramsHash].voteRemoveParams = _voteRemoveParams;\r\n        parameters[paramsHash].intVote = _intVote;\r\n        return paramsHash;\r\n    }\r\n\r\n    function getParametersHash(\r\n        bytes32 _voteRegisterParams,\r\n        bytes32 _voteRemoveParams,\r\n        IntVoteInterface _intVote\r\n    ) public pure returns(bytes32)\r\n    {\r\n        return keccak256(abi.encodePacked(_voteRegisterParams, _voteRemoveParams, _intVote));\r\n    }\r\n\r\n    /**\r\n    * @dev create a proposal to register a scheme\r\n    * @param _avatar the address of the organization the scheme will be registered for\r\n    * @param _scheme the address of the scheme to be registered\r\n    * @param _parametersHash a hash of the configuration of the _scheme\r\n    * @param _permissions the permission of the scheme to be registered\r\n    * @return a proposal Id\r\n    * @dev NB: not only proposes the vote, but also votes for it\r\n    */\r\n    function proposeScheme(\r\n        Avatar _avatar,\r\n        address _scheme,\r\n        bytes32 _parametersHash,\r\n        bytes4 _permissions\r\n    )\r\n    public\r\n    returns(bytes32)\r\n    {\r\n        // propose\r\n        require(_scheme != address(0));\r\n        Parameters memory controllerParams = parameters[getParametersFromController(_avatar)];\r\n\r\n        bytes32 proposalId = controllerParams.intVote.propose(\r\n            2,\r\n            controllerParams.voteRegisterParams,\r\n            _avatar,\r\n            ExecutableInterface(this),\r\n            msg.sender\r\n        );\r\n\r\n        SchemeProposal memory proposal = SchemeProposal({\r\n            scheme: _scheme,\r\n            parametersHash: _parametersHash,\r\n            proposalType: 1,\r\n            permissions: _permissions\r\n        });\r\n        emit NewSchemeProposal(\r\n            _avatar,\r\n            proposalId,\r\n            controllerParams.intVote,\r\n            _scheme, _parametersHash,\r\n            _permissions\r\n        );\r\n        organizationsProposals[_avatar][proposalId] = proposal;\r\n\r\n        // vote for this proposal\r\n        controllerParams.intVote.ownerVote(proposalId, 1, msg.sender); // Automatically votes `yes` in the name of the opener.\r\n        return proposalId;\r\n    }\r\n\r\n    /**\r\n    * @dev propose to remove a scheme for a controller\r\n    * @param _avatar the address of the controller from which we want to remove a scheme\r\n    * @param _scheme the address of the scheme we want to remove\r\n    *\r\n    * NB: not only registers the proposal, but also votes for it\r\n    */\r\n    function proposeToRemoveScheme(Avatar _avatar, address _scheme)\r\n    public\r\n    returns(bytes32)\r\n    {\r\n        bytes32 paramsHash = getParametersFromController(_avatar);\r\n        Parameters memory params = parameters[paramsHash];\r\n\r\n        IntVoteInterface intVote = params.intVote;\r\n        bytes32 proposalId = intVote.propose(2, params.voteRemoveParams, _avatar, ExecutableInterface(this),msg.sender);\r\n\r\n        organizationsProposals[_avatar][proposalId].proposalType = 2;\r\n        organizationsProposals[_avatar][proposalId].scheme = _scheme;\r\n        emit RemoveSchemeProposal(_avatar, proposalId, intVote, _scheme);\r\n        // vote for this proposal\r\n        intVote.ownerVote(proposalId, 1, msg.sender); // Automatically votes `yes` in the name of the opener.\r\n        return proposalId;\r\n    }\r\n}\r\n",
  "sourcePath": "C:\\users\\dkent\\documents\\projects\\github\\daostack\\arc\\contracts\\universalSchemes\\SchemeRegistrar.sol",
  "compiler": {
    "name": "solc",
    "version": "0.4.24+commit.e67f0147.Emscripten.clang"
  },
  "schemaVersion": "2.0.0",
  "updatedAt": "2018-07-21T19:59:28.214Z"
}