{
  "contractName": "SimpleICO",
  "abi": [
    {
      "constant": true,
      "inputs": [
        {
          "name": "",
          "type": "bytes32"
        }
      ],
      "name": "parameters",
      "outputs": [
        {
          "name": "cap",
          "type": "uint256"
        },
        {
          "name": "price",
          "type": "uint256"
        },
        {
          "name": "startBlock",
          "type": "uint256"
        },
        {
          "name": "endBlock",
          "type": "uint256"
        },
        {
          "name": "beneficiary",
          "type": "address"
        },
        {
          "name": "admin",
          "type": "address"
        }
      ],
      "payable": false,
      "stateMutability": "view",
      "type": "function"
    },
    {
      "constant": false,
      "inputs": [
        {
          "name": "_hashedParameters",
          "type": "bytes32"
        }
      ],
      "name": "updateParameters",
      "outputs": [],
      "payable": false,
      "stateMutability": "nonpayable",
      "type": "function"
    },
    {
      "constant": true,
      "inputs": [
        {
          "name": "",
          "type": "address"
        }
      ],
      "name": "organizationsICOInfo",
      "outputs": [
        {
          "name": "paramsHash",
          "type": "bytes32"
        },
        {
          "name": "avatarContractICO",
          "type": "address"
        },
        {
          "name": "totalEthRaised",
          "type": "uint256"
        },
        {
          "name": "isHalted",
          "type": "bool"
        }
      ],
      "payable": false,
      "stateMutability": "view",
      "type": "function"
    },
    {
      "constant": false,
      "inputs": [],
      "name": "renounceOwnership",
      "outputs": [],
      "payable": false,
      "stateMutability": "nonpayable",
      "type": "function"
    },
    {
      "constant": true,
      "inputs": [],
      "name": "owner",
      "outputs": [
        {
          "name": "",
          "type": "address"
        }
      ],
      "payable": false,
      "stateMutability": "view",
      "type": "function"
    },
    {
      "constant": false,
      "inputs": [
        {
          "name": "_newOwner",
          "type": "address"
        }
      ],
      "name": "transferOwnership",
      "outputs": [],
      "payable": false,
      "stateMutability": "nonpayable",
      "type": "function"
    },
    {
      "constant": true,
      "inputs": [],
      "name": "hashedParameters",
      "outputs": [
        {
          "name": "",
          "type": "bytes32"
        }
      ],
      "payable": false,
      "stateMutability": "view",
      "type": "function"
    },
    {
      "anonymous": false,
      "inputs": [
        {
          "indexed": true,
          "name": "organization",
          "type": "address"
        },
        {
          "indexed": true,
          "name": "_beneficiary",
          "type": "address"
        },
        {
          "indexed": false,
          "name": "_incomingEther",
          "type": "uint256"
        },
        {
          "indexed": true,
          "name": "_tokensAmount",
          "type": "uint256"
        }
      ],
      "name": "DonationReceived",
      "type": "event"
    },
    {
      "anonymous": false,
      "inputs": [
        {
          "indexed": true,
          "name": "previousOwner",
          "type": "address"
        }
      ],
      "name": "OwnershipRenounced",
      "type": "event"
    },
    {
      "anonymous": false,
      "inputs": [
        {
          "indexed": true,
          "name": "previousOwner",
          "type": "address"
        },
        {
          "indexed": true,
          "name": "newOwner",
          "type": "address"
        }
      ],
      "name": "OwnershipTransferred",
      "type": "event"
    },
    {
      "constant": false,
      "inputs": [
        {
          "name": "_cap",
          "type": "uint256"
        },
        {
          "name": "_price",
          "type": "uint256"
        },
        {
          "name": "_startBlock",
          "type": "uint256"
        },
        {
          "name": "_endBlock",
          "type": "uint256"
        },
        {
          "name": "_beneficiary",
          "type": "address"
        },
        {
          "name": "_admin",
          "type": "address"
        }
      ],
      "name": "setParameters",
      "outputs": [
        {
          "name": "",
          "type": "bytes32"
        }
      ],
      "payable": false,
      "stateMutability": "nonpayable",
      "type": "function"
    },
    {
      "constant": true,
      "inputs": [
        {
          "name": "_cap",
          "type": "uint256"
        },
        {
          "name": "_price",
          "type": "uint256"
        },
        {
          "name": "_startBlock",
          "type": "uint256"
        },
        {
          "name": "_endBlock",
          "type": "uint256"
        },
        {
          "name": "_beneficiary",
          "type": "address"
        },
        {
          "name": "_admin",
          "type": "address"
        }
      ],
      "name": "getParametersHash",
      "outputs": [
        {
          "name": "",
          "type": "bytes32"
        }
      ],
      "payable": false,
      "stateMutability": "pure",
      "type": "function"
    },
    {
      "constant": false,
      "inputs": [
        {
          "name": "_avatar",
          "type": "address"
        }
      ],
      "name": "start",
      "outputs": [],
      "payable": false,
      "stateMutability": "nonpayable",
      "type": "function"
    },
    {
      "constant": false,
      "inputs": [
        {
          "name": "_avatar",
          "type": "address"
        }
      ],
      "name": "haltICO",
      "outputs": [],
      "payable": false,
      "stateMutability": "nonpayable",
      "type": "function"
    },
    {
      "constant": false,
      "inputs": [
        {
          "name": "_avatar",
          "type": "address"
        }
      ],
      "name": "resumeICO",
      "outputs": [],
      "payable": false,
      "stateMutability": "nonpayable",
      "type": "function"
    },
    {
      "constant": true,
      "inputs": [
        {
          "name": "_avatar",
          "type": "address"
        }
      ],
      "name": "isActive",
      "outputs": [
        {
          "name": "",
          "type": "bool"
        }
      ],
      "payable": false,
      "stateMutability": "view",
      "type": "function"
    },
    {
      "constant": false,
      "inputs": [
        {
          "name": "_avatar",
          "type": "address"
        },
        {
          "name": "_beneficiary",
          "type": "address"
        }
      ],
      "name": "donate",
      "outputs": [
        {
          "name": "",
          "type": "uint256"
        }
      ],
      "payable": true,
      "stateMutability": "payable",
      "type": "function"
    }
  ],
  "bytecode": "0x608060405260008054600160a060020a03191633179055611287806100256000396000f3006080604052600436106100b65763ffffffff60e060020a6000350416630250680481146100bb5780630d6099391461011257806321bea7cc146101575780632ac2af53146101715780634b9f69b81461018b5780634eb09bf4146101dc578063715018a61461020f5780638da5cb5b146102245780639f8a13d714610255578063bdbb829d1461028a578063dd0b281e146102ab578063e270bc81146102cc578063f2fde38b146102ed578063f98e87ba1461030e575b600080fd5b3480156100c757600080fd5b506100d3600435610323565b604080519687526020870195909552858501939093526060850191909152600160a060020a0390811660808501521660a0830152519081900360c00190f35b34801561011e57600080fd5b50610145600435602435604435606435600160a060020a0360843581169060a43516610367565b60408051918252519081900360200190f35b610145600160a060020a0360043581169060243516610449565b34801561017d57600080fd5b5061018960043561078f565b005b34801561019757600080fd5b506101ac600160a060020a03600435166107ab565b60408051948552600160a060020a0390931660208501528383019190915215156060830152519081900360800190f35b3480156101e857600080fd5b50610145600435602435604435606435600160a060020a0360843581169060a435166107e0565b34801561021b57600080fd5b506101896108a1565b34801561023057600080fd5b5061023961090d565b60408051600160a060020a039092168252519081900360200190f35b34801561026157600080fd5b50610276600160a060020a036004351661091c565b604080519115158252519081900360200190f35b34801561029657600080fd5b50610189600160a060020a0360043516610a1e565b3480156102b757600080fd5b50610189600160a060020a0360043516610a7b565b3480156102d857600080fd5b50610189600160a060020a0360043516610b71565b3480156102f957600080fd5b50610189600160a060020a0360043516610bcb565b34801561031a57600080fd5b50610145610bee565b60036020819052600091825260409091208054600182015460028301549383015460048401546005909401549294919391929091600160a060020a03908116911686565b60008087151561037657600080fd5b6103848888888888886107e0565b600081815260036020526040902054909150151561043e576040805160c08101825289815260208082018a81528284018a8152606084018a8152600160a060020a03808b16608087019081528a821660a0880190815260008a81526003978890529890982096518755935160018701559151600286015551928401929092555160048301805491831673ffffffffffffffffffffffffffffffffffffffff1992831617905592516005909201805492909116919092161790555b979650505050505050565b6000610453610dba565b61045b610de1565b5050600160a060020a03808416600090815260026020818152604080842081516080818101845282548083526001808501548a1684880152848801548487015260039485015460ff161515606080860191909152918952848752858920865160c08101885281548152918101549782019790975296860154948701949094529184015492850192909252600483015486169084015260059091015490931660a082015290808061050a8861091c565b151561051557600080fd5b60608501511561052457600080fd5b6040850151845161053a9163ffffffff610bf416565b34111561057057604085015184516105579163ffffffff610bf416565b9250610569348463ffffffff610bf416565b9150610574565b3492505b602084015161058a90849063ffffffff610c0b16565b600160a060020a03808a166000908152600260208190526040808320909101805488019055608088015190519394509091169185156108fc0291869190818181858888f193505050501580156105e4573d6000803e3d6000fd5b5087600160a060020a0316638da5cb5b6040518163ffffffff1660e060020a028152600401602060405180830381600087803b15801561062357600080fd5b505af1158015610637573d6000803e3d6000fd5b505050506040513d602081101561064d57600080fd5b5051604080517f6407e43200000000000000000000000000000000000000000000000000000000815260048101849052600160a060020a038a811660248301528b8116604483015291519190921691636407e4329160648083019260209291908290030181600087803b1580156106c357600080fd5b505af11580156106d7573d6000803e3d6000fd5b505050506040513d60208110156106ed57600080fd5b505115156106fa57600080fd5b811561073857604051600160a060020a0388169083156108fc029084906000818181858888f19350505050158015610736573d6000803e3d6000fd5b505b8087600160a060020a031689600160a060020a03167fce9409ee3dc10e35de83dda0f830e4a13935452188fe71a956b850ecb839425f866040518082815260200191505060405180910390a4979650505050505050565b600054600160a060020a031633146107a657600080fd5b600155565b600260208190526000918252604090912080546001820154928201546003909201549092600160a060020a0316919060ff1684565b60408051602080820189905281830188905260608201879052608082018690526c01000000000000000000000000600160a060020a03808716820260a085015285160260b4830152825160a881840301815260c8909201928390528151600093918291908401908083835b6020831061086a5780518252601f19909201916020918201910161084b565b5181516020939093036101000a600019018019909116921691909117905260405192018290039091209a9950505050505050505050565b600054600160a060020a031633146108b857600080fd5b60008054604051600160a060020a03909116917ff8df31144d9c2f0f6b59d69b8b98abd5459d07f2742c4df920b25aae33c6482091a26000805473ffffffffffffffffffffffffffffffffffffffff19169055565b600054600160a060020a031681565b6000610926610dba565b61092e610de1565b5050600160a060020a03808316600090815260026020818152604080842081516080818101845282548083526001808501548a16848801528488015484870190815260039586015460ff161515606080870191909152928a5285885298869020865160c0810188528154808252928201549881019890985297880154958701959095529286015492850192909252600485015487169184019190915260059093015490941660a082015291519092116109ea5760009250610a17565b606081015143106109fe5760009250610a17565b60408101514311610a125760009250610a17565b600192505b5050919050565b600160a060020a0381811660009081526002602090815260408083205483526003909152902060050154163314610a5457600080fd5b600160a060020a03166000908152600260205260409020600301805460ff19166001179055565b610a83610dba565b610a8c8261091c565b15610a9657600080fd5b610a9f82610c34565b8082526000908152600360205260409020541515610abc57600080fd5b8130610ac6610e2a565b600160a060020a03928316815291166020820152604080519182900301906000f080158015610af9573d6000803e3d6000fd5b50600160a060020a039081166020838101918252938216600090815260029485905260409081902084518155915160018301805473ffffffffffffffffffffffffffffffffffffffff191691909416179092559082015192810192909255606001516003909101805460ff1916911515919091179055565b600160a060020a0381811660009081526002602090815260408083205483526003909152902060050154163314610ba757600080fd5b600160a060020a03166000908152600260205260409020600301805460ff19169055565b600054600160a060020a03163314610be257600080fd5b610beb81610d3d565b50565b60015481565b600082821115610c0057fe5b508082035b92915050565b6000821515610c1c57506000610c05565b50818102818382811515610c2c57fe5b0414610c0557fe5b600081600160a060020a0316638da5cb5b6040518163ffffffff1660e060020a028152600401602060405180830381600087803b158015610c7457600080fd5b505af1158015610c88573d6000803e3d6000fd5b505050506040513d6020811015610c9e57600080fd5b5051604080517f1c4d5608000000000000000000000000000000000000000000000000000000008152306004820152600160a060020a03858116602483015291519190921691631c4d56089160448083019260209291908290030181600087803b158015610d0b57600080fd5b505af1158015610d1f573d6000803e3d6000fd5b505050506040513d6020811015610d3557600080fd5b505192915050565b600160a060020a0381161515610d5257600080fd5b60008054604051600160a060020a03808516939216917f8be0079c531659141344cd1fd0a4f28419497f9722a3daafe3b4186f6b6457e091a36000805473ffffffffffffffffffffffffffffffffffffffff1916600160a060020a0392909216919091179055565b60408051608081018252600080825260208201819052918101829052606081019190915290565b60c060405190810160405280600081526020016000815260200160008152602001600081526020016000600160a060020a031681526020016000600160a060020a031681525090565b60405161042180610e3b833901905600608060405234801561001057600080fd5b5060405160408061042183398101604052805160209091015160008054600160a060020a0319908116331790915560018054600160a060020a03948516908316179055600280549390921692169190911790556103af806100726000396000f3006080604052600436106100825763ffffffff7c01000000000000000000000000000000000000000000000000000000006000350416631ebbede2811461013b57806323bd4d7a1461016c578063715018a61461018157806383197ef0146101965780638da5cb5b146101ab578063f2fde38b146101c0578063f5074f41146101e1575b34151561008e57600080fd5b600254600154604080517f21bea7cc000000000000000000000000000000000000000000000000000000008152600160a060020a039283166004820152336024820152905191909216916321bea7cc91349160448082019260209290919082900301818588803b15801561010157600080fd5b505af1158015610115573d6000803e3d6000fd5b50505050506040513d602081101561012c57600080fd5b5051151561013957600080fd5b005b34801561014757600080fd5b50610150610202565b60408051600160a060020a039092168252519081900360200190f35b34801561017857600080fd5b50610150610211565b34801561018d57600080fd5b50610139610220565b3480156101a257600080fd5b5061013961028c565b3480156101b757600080fd5b506101506102b1565b3480156101cc57600080fd5b50610139600160a060020a03600435166102c0565b3480156101ed57600080fd5b50610139600160a060020a03600435166102e3565b600254600160a060020a031681565b600154600160a060020a031681565b600054600160a060020a0316331461023757600080fd5b60008054604051600160a060020a03909116917ff8df31144d9c2f0f6b59d69b8b98abd5459d07f2742c4df920b25aae33c6482091a26000805473ffffffffffffffffffffffffffffffffffffffff19169055565b600054600160a060020a031633146102a357600080fd5b600054600160a060020a0316ff5b600054600160a060020a031681565b600054600160a060020a031633146102d757600080fd5b6102e081610306565b50565b600054600160a060020a031633146102fa57600080fd5b80600160a060020a0316ff5b600160a060020a038116151561031b57600080fd5b60008054604051600160a060020a03808516939216917f8be0079c531659141344cd1fd0a4f28419497f9722a3daafe3b4186f6b6457e091a36000805473ffffffffffffffffffffffffffffffffffffffff1916600160a060020a03929092169190911790555600a165627a7a72305820eaabab0269fc8c84eca02d140825a87ace6d4212f47d0cb854b73b3c8bb154950029a165627a7a72305820728649814466c67f0b66fe08bf035506d69c046ae155d8120850465ee679ab5c0029",
  "source": "pragma solidity ^0.4.24;\r\n\r\nimport \"./UniversalScheme.sol\";\r\nimport \"openzeppelin-solidity/contracts/ownership/Ownable.sol\";\r\nimport \"openzeppelin-solidity/contracts/math/SafeMath.sol\";\r\nimport \"openzeppelin-solidity/contracts/lifecycle/Destructible.sol\";\r\n\r\n\r\n/**\r\n * @title An avatar contract for ICO.\r\n * @dev Allow people to donate by simply sending ether to an address.\r\n */\r\ncontract MirrorContractICO is Destructible {\r\n    Avatar public organization; // The organization address (the avatar)\r\n    SimpleICO public simpleICO;  // The ICO contract address\r\n    /**\r\n    * @dev Constructor, setting the organization and ICO scheme.\r\n    * @param _organization The organization's avatar.\r\n    * @param _simpleICO The ICO Scheme.\r\n    */\r\n    constructor(Avatar _organization, SimpleICO _simpleICO) public {\r\n        organization = _organization;\r\n        simpleICO = _simpleICO;\r\n    }\r\n\r\n    /**\r\n    * @dev Fallback function, when ether is sent it will donate to the ICO.\r\n    * The ether will be returned if the donation is failed.\r\n    */\r\n    function () public payable {\r\n        // Not to waste gas, if no value.\r\n        require(msg.value != 0);\r\n\r\n        // Return ether if couldn't donate.\r\n        require(simpleICO.donate.value(msg.value)(organization, msg.sender) != 0);\r\n    }\r\n}\r\n\r\n\r\n/**\r\n * @title SimpleICO scheme.\r\n * @dev A universal scheme to allow organizations to open a simple ICO and get donations.\r\n */\r\ncontract SimpleICO is UniversalScheme {\r\n    using SafeMath for uint;\r\n\r\n    // Struct holding the data for each organization\r\n    struct Organization {\r\n        bytes32 paramsHash; // Save the parameters approved by the org to open the ICO, so reuse of ICO will not change.\r\n        address avatarContractICO; // Avatar is a contract for users that want to send ether without calling a function.\r\n        uint totalEthRaised;\r\n        bool isHalted; // The admin of the ICO can halt the ICO at any time, and also resume it.\r\n    }\r\n\r\n    // A mapping from hashes to parameters (use to store a particular configuration on the controller)\r\n    struct Parameters {\r\n        uint cap; // Cap in Eth\r\n        uint price; // Price represents Tokens per 1 Eth\r\n        uint startBlock;\r\n        uint endBlock;\r\n        address beneficiary; // all funds received will be transferred to this address.\r\n        address admin; // The admin can halt or resume ICO.\r\n    }\r\n\r\n    // A mapping from the organization (Avatar) address to the saved data of the organization:\r\n    mapping(address=>Organization) public organizationsICOInfo;\r\n\r\n    mapping(bytes32=>Parameters) public parameters;\r\n\r\n    event DonationReceived(address indexed organization, address indexed _beneficiary, uint _incomingEther, uint indexed _tokensAmount);\r\n\r\n    /**\r\n    * @dev Hash the parameters, save them if necessary, and return the hash value\r\n    * @param _cap the ico cap\r\n    * @param _price  represents Tokens per 1 Eth\r\n    * @param _startBlock  ico start block\r\n    * @param _endBlock ico end\r\n    * @param _beneficiary the ico ether beneficiary\r\n    * @param _admin the address of the ico admin which can hold and resume the ICO.\r\n    * @return bytes32 -the params hash\r\n    */\r\n    function setParameters(\r\n        uint _cap,\r\n        uint _price,\r\n        uint _startBlock,\r\n        uint _endBlock,\r\n        address _beneficiary,\r\n        address _admin\r\n    )\r\n        public\r\n        returns(bytes32)\r\n    {\r\n        require(_cap != 0);\r\n        bytes32 paramsHash = getParametersHash(\r\n            _cap,\r\n            _price,\r\n            _startBlock,\r\n            _endBlock,\r\n            _beneficiary,\r\n            _admin\r\n        );\r\n        if (parameters[paramsHash].cap == 0) {\r\n            parameters[paramsHash] = Parameters({\r\n                cap: _cap,\r\n                price: _price,\r\n                startBlock: _startBlock,\r\n                endBlock:_endBlock,\r\n                beneficiary:_beneficiary,\r\n                admin:_admin\r\n            });\r\n        }\r\n        return paramsHash;\r\n    }\r\n\r\n    /**\r\n    * @dev Hash the parameters and return the hash value\r\n    * @param _cap the ico cap\r\n    * @param _price  represents Tokens per 1 Eth\r\n    * @param _startBlock  ico start block\r\n    * @param _endBlock ico end\r\n    * @param _beneficiary the ico ether beneficiary\r\n    * @param _admin the address of the ico admin which can hold and resume the ICO.\r\n    * @return bytes32 -the params hash\r\n    */\r\n    function getParametersHash(\r\n        uint _cap,\r\n        uint _price,\r\n        uint _startBlock,\r\n        uint _endBlock,\r\n        address _beneficiary,\r\n        address _admin\r\n    )\r\n        public\r\n        pure\r\n        returns(bytes32)\r\n   {\r\n        return (keccak256(\r\n            abi.encodePacked(\r\n            _cap,\r\n            _price,\r\n            _startBlock,\r\n            _endBlock,\r\n            _beneficiary,\r\n            _admin\r\n        )));\r\n    }\r\n\r\n    /**\r\n     * @dev start an ICO\r\n     * @param _avatar The Avatar's of the organization\r\n     */\r\n    function start(address _avatar) public {\r\n        require(!isActive(_avatar));\r\n        Organization memory org;\r\n        org.paramsHash = getParametersFromController(Avatar(_avatar));\r\n        require(parameters[org.paramsHash].cap != 0);\r\n        org.avatarContractICO = new MirrorContractICO(Avatar(_avatar), this);\r\n        organizationsICOInfo[_avatar] = org;\r\n    }\r\n\r\n    /**\r\n     * @dev Allowing admin to halt an ICO.\r\n     * @param _avatar The Avatar's of the organization\r\n     */\r\n    function haltICO(address _avatar) public {\r\n        require(msg.sender == parameters[organizationsICOInfo[_avatar].paramsHash].admin);\r\n        organizationsICOInfo[_avatar].isHalted = true;\r\n    }\r\n\r\n    /**\r\n     * @dev Allowing admin to reopen an ICO.\r\n     * @param _avatar The Avatar's of the organization\r\n     */\r\n    function resumeICO(address _avatar) public {\r\n        require(msg.sender == parameters[organizationsICOInfo[_avatar].paramsHash].admin);\r\n        organizationsICOInfo[_avatar].isHalted = false;\r\n    }\r\n\r\n    /**\r\n     * @dev Check is an ICO is active (halted is still considered active). Active ICO:\r\n     * 1. The organization is registered.\r\n     * 2. The ICO didn't reach it's cap yet.\r\n     * 3. The current block isn't bigger than the \"endBlock\" & Smaller then the \"startBlock\"\r\n     * @param _avatar The Avatar's of the organization\r\n     * @return bool which represents a successful of the function\r\n     */\r\n    function isActive(address _avatar) public view returns(bool) {\r\n        Organization memory org = organizationsICOInfo[_avatar];\r\n        Parameters memory params = parameters[org.paramsHash];\r\n\r\n        if (org.totalEthRaised >= params.cap) {\r\n            return false;\r\n        }\r\n        if (block.number >= params.endBlock) {\r\n            return false;\r\n        }\r\n        if (block.number <= params.startBlock) {\r\n            return false;\r\n        }\r\n        return true;\r\n    }\r\n\r\n    /**\r\n     * @dev Donating ethers to get tokens.\r\n     * If the donation is higher than the remaining ethers in the \"cap\",\r\n     * The donator will get the change in ethers.\r\n     * @param _avatar The Avatar's of the organization.\r\n     * @param _beneficiary The donator's address - which will receive the ICO's tokens.\r\n     * @return uint number of tokens minted for the donation.\r\n     */\r\n    function donate(Avatar _avatar, address _beneficiary) public payable returns(uint) {\r\n        Organization memory org = organizationsICOInfo[_avatar];\r\n        Parameters memory params = parameters[org.paramsHash];\r\n\r\n        // Check ICO is active:\r\n        require(isActive(_avatar));\r\n\r\n        // Check ICO is not halted:\r\n        require(!org.isHalted);\r\n\r\n\r\n        uint incomingEther;\r\n        uint change;\r\n\r\n        // Compute how much tokens to buy:\r\n        if ( msg.value > (params.cap).sub(org.totalEthRaised) ) {\r\n            incomingEther = (params.cap).sub(org.totalEthRaised);\r\n            change = (msg.value).sub(incomingEther);\r\n        } else {\r\n            incomingEther = msg.value;\r\n        }\r\n\r\n        uint tokens = incomingEther.mul(params.price);\r\n        // Update total raised, call event and return amount of tokens bought:\r\n        organizationsICOInfo[_avatar].totalEthRaised += incomingEther;\r\n        // Send ether to the defined address, mint, and send change to beneficiary:\r\n        params.beneficiary.transfer(incomingEther);\r\n\r\n        require(ControllerInterface(_avatar.owner()).mintTokens(tokens, _beneficiary,address(_avatar)));\r\n        if (change != 0) {\r\n            _beneficiary.transfer(change);\r\n        }\r\n        emit DonationReceived(_avatar, _beneficiary, incomingEther, tokens);\r\n        return tokens;\r\n    }\r\n}\r\n",
  "sourcePath": "C:\\users\\dkent\\documents\\projects\\github\\daostack\\arc\\contracts\\universalSchemes\\SimpleICO.sol",
  "compiler": {
    "name": "solc",
    "version": "0.4.24+commit.e67f0147.Emscripten.clang"
  },
  "schemaVersion": "2.0.0",
  "updatedAt": "2018-07-21T19:59:28.242Z"
}