{
  "contractName": "TokenCapGC",
  "abi": [
    {
      "constant": true,
      "inputs": [
        {
          "name": "",
          "type": "bytes32"
        }
      ],
      "name": "parameters",
      "outputs": [
        {
          "name": "token",
          "type": "address"
        },
        {
          "name": "cap",
          "type": "uint256"
        }
      ],
      "payable": false,
      "stateMutability": "view",
      "type": "function"
    },
    {
      "constant": false,
      "inputs": [
        {
          "name": "_token",
          "type": "address"
        },
        {
          "name": "_cap",
          "type": "uint256"
        }
      ],
      "name": "setParameters",
      "outputs": [
        {
          "name": "",
          "type": "bytes32"
        }
      ],
      "payable": false,
      "stateMutability": "nonpayable",
      "type": "function"
    },
    {
      "constant": true,
      "inputs": [
        {
          "name": "_token",
          "type": "address"
        },
        {
          "name": "_cap",
          "type": "uint256"
        }
      ],
      "name": "getParametersHash",
      "outputs": [
        {
          "name": "",
          "type": "bytes32"
        }
      ],
      "payable": false,
      "stateMutability": "pure",
      "type": "function"
    },
    {
      "constant": true,
      "inputs": [
        {
          "name": "",
          "type": "address"
        },
        {
          "name": "",
          "type": "bytes32"
        },
        {
          "name": "",
          "type": "bytes32"
        }
      ],
      "name": "pre",
      "outputs": [
        {
          "name": "",
          "type": "bool"
        }
      ],
      "payable": false,
      "stateMutability": "pure",
      "type": "function"
    },
    {
      "constant": true,
      "inputs": [
        {
          "name": "",
          "type": "address"
        },
        {
          "name": "_paramsHash",
          "type": "bytes32"
        },
        {
          "name": "",
          "type": "bytes32"
        }
      ],
      "name": "post",
      "outputs": [
        {
          "name": "",
          "type": "bool"
        }
      ],
      "payable": false,
      "stateMutability": "view",
      "type": "function"
    },
    {
      "constant": true,
      "inputs": [],
      "name": "when",
      "outputs": [
        {
          "name": "",
          "type": "uint8"
        }
      ],
      "payable": false,
      "stateMutability": "pure",
      "type": "function"
    }
  ],
  "bytecode": "0x608060405234801561001057600080fd5b506103e4806100206000396000f3006080604052600436106100775763ffffffff7c010000000000000000000000000000000000000000000000000000000060003504166302506804811461007c57806378fc063c146100b75780638043154d146100ed578063c1786ab214610128578063c41981611461014f578063e2b0caef14610173575b600080fd5b34801561008857600080fd5b506100946004356101ac565b60408051600160a060020a03909316835260208301919091528051918290030190f35b3480156100c357600080fd5b506100db600160a060020a03600435166024356101d1565b60408051918252519081900360200190f35b3480156100f957600080fd5b50610114600160a060020a036004351660243560443561027e565b604080519115158252519081900360200190f35b34801561013457600080fd5b50610114600160a060020a0360043516602435604435610355565b34801561015b57600080fd5b506100db600160a060020a036004351660243561035e565b34801561017f57600080fd5b506101886103b3565b6040518082600281111561019857fe5b60ff16815260200191505060405180910390f35b60006020819052908152604090208054600190910154600160a060020a039091169082565b600082826040516020018083600160a060020a0316600160a060020a03166c01000000000000000000000000028152601401828152602001925050506040516020818303038152906040526040518082805190602001908083835b6020831061024b5780518252601f19909201916020918201910161022c565b5181516020939093036101000a600019018019909116921691909117905260405192018290039091209695505050505050565b600082815260208190526040812054600160a060020a03161580159061033d57506000838152602081815260408083206001810154905482517f18160ddd00000000000000000000000000000000000000000000000000000000815292519194600160a060020a03909116936318160ddd936004808201949293918390030190829087803b15801561030f57600080fd5b505af1158015610323573d6000803e3d6000fd5b505050506040513d602081101561033957600080fd5b5051115b1561034a5750600061034e565b5060015b9392505050565b60019392505050565b60008061036b84846101d1565b60008181526020819052604090208054600160a060020a03871673ffffffffffffffffffffffffffffffffffffffff1990911617815560010184905591508190505092915050565b6001905600a165627a7a72305820a045cae0976b84c1146a2cd4e6a79341a827a068e0d27db7d018c9223b9316800029",
  "source": "pragma solidity ^0.4.24;\r\n\r\nimport \"openzeppelin-solidity/contracts/token/ERC20/StandardToken.sol\";\r\nimport \"./GlobalConstraintInterface.sol\";\r\n\r\n\r\n/**\r\n * @title Token Cap Global Constraint\r\n * @dev A simple global constraint to cap the number of tokens.\r\n */\r\n\r\ncontract TokenCapGC {\r\n    // A set of parameters, on which the cap will be checked:\r\n    struct Parameters {\r\n        StandardToken token;\r\n        uint cap;\r\n    }\r\n\r\n    // Mapping from the hash of the parameters to the parameters themselves:\r\n    mapping (bytes32=>Parameters) public parameters;\r\n\r\n\r\n    /**\r\n     * @dev adding a new set of parameters\r\n     * @param  _token the token to add to the params.\r\n     * @param _cap the cap to check the total supply against.\r\n     * @return the calculated parameters hash\r\n     */\r\n    function setParameters(StandardToken _token, uint _cap) public returns(bytes32) {\r\n        bytes32 paramsHash = getParametersHash(_token, _cap);\r\n        parameters[paramsHash].token = _token;\r\n        parameters[paramsHash].cap = _cap;\r\n        return paramsHash;\r\n    }\r\n\r\n    /**\r\n     * @dev calculate and returns the hash of the given parameters\r\n     * @param  _token the token to add to the params.\r\n     * @param _cap the cap to check the total supply against.\r\n     * @return the calculated parameters hash\r\n     */\r\n    function getParametersHash(StandardToken _token, uint _cap) public pure returns(bytes32) {\r\n        return (keccak256(abi.encodePacked(_token, _cap)));\r\n    }\r\n\r\n    /**\r\n     * @dev check the constraint after the action.\r\n     * This global constraint only checks the state after the action, so here we just return true:\r\n     * @return true\r\n     */\r\n    function pre(address, bytes32, bytes32) public pure returns(bool) {\r\n        return true;\r\n    }\r\n\r\n    /**\r\n     * @dev check the total supply cap.\r\n     * @param  _paramsHash the parameters hash to check the total supply cap against.\r\n     * @return bool which represents a success\r\n     */\r\n    function post(address, bytes32 _paramsHash, bytes32) public view returns(bool) {\r\n        if ((parameters[_paramsHash].token != StandardToken(0)) &&\r\n            ( parameters[_paramsHash].token.totalSupply() > parameters[_paramsHash].cap)) {\r\n            return false;\r\n          }\r\n        return true;\r\n    }\r\n\r\n    /**\r\n     * @dev when return if this globalConstraints is pre, post or both.\r\n     * @return CallPhase enum indication  Pre, Post or PreAndPost.\r\n     */\r\n    function when() public pure returns(GlobalConstraintInterface.CallPhase) {\r\n        return GlobalConstraintInterface.CallPhase.Post;\r\n    }\r\n}\r\n",
  "sourcePath": "C:\\users\\dkent\\documents\\projects\\github\\daostack\\arc\\contracts\\globalConstraints\\TokenCapGC.sol",
  "compiler": {
    "name": "solc",
    "version": "0.4.24+commit.e67f0147.Emscripten.clang"
  },
  "schemaVersion": "2.0.0",
  "updatedAt": "2018-07-21T19:59:28.298Z"
}