{
  "contractName": "UController",
  "abi": [
    {
      "constant": true,
      "inputs": [
        {
          "name": "",
          "type": "address"
        }
      ],
      "name": "reputations",
      "outputs": [
        {
          "name": "",
          "type": "bool"
        }
      ],
      "payable": false,
      "stateMutability": "view",
      "type": "function"
    },
    {
      "constant": true,
      "inputs": [
        {
          "name": "",
          "type": "address"
        }
      ],
      "name": "newControllers",
      "outputs": [
        {
          "name": "",
          "type": "address"
        }
      ],
      "payable": false,
      "stateMutability": "view",
      "type": "function"
    },
    {
      "constant": true,
      "inputs": [
        {
          "name": "",
          "type": "address"
        }
      ],
      "name": "organizations",
      "outputs": [
        {
          "name": "nativeToken",
          "type": "address"
        },
        {
          "name": "nativeReputation",
          "type": "address"
        },
        {
          "name": "exist",
          "type": "bool"
        }
      ],
      "payable": false,
      "stateMutability": "view",
      "type": "function"
    },
    {
      "constant": true,
      "inputs": [
        {
          "name": "",
          "type": "address"
        }
      ],
      "name": "tokens",
      "outputs": [
        {
          "name": "",
          "type": "bool"
        }
      ],
      "payable": false,
      "stateMutability": "view",
      "type": "function"
    },
    {
      "anonymous": false,
      "inputs": [
        {
          "indexed": true,
          "name": "_sender",
          "type": "address"
        },
        {
          "indexed": true,
          "name": "_to",
          "type": "address"
        },
        {
          "indexed": false,
          "name": "_amount",
          "type": "uint256"
        },
        {
          "indexed": true,
          "name": "_avatar",
          "type": "address"
        }
      ],
      "name": "MintReputation",
      "type": "event"
    },
    {
      "anonymous": false,
      "inputs": [
        {
          "indexed": true,
          "name": "_sender",
          "type": "address"
        },
        {
          "indexed": true,
          "name": "_from",
          "type": "address"
        },
        {
          "indexed": false,
          "name": "_amount",
          "type": "uint256"
        },
        {
          "indexed": true,
          "name": "_avatar",
          "type": "address"
        }
      ],
      "name": "BurnReputation",
      "type": "event"
    },
    {
      "anonymous": false,
      "inputs": [
        {
          "indexed": true,
          "name": "_sender",
          "type": "address"
        },
        {
          "indexed": true,
          "name": "_beneficiary",
          "type": "address"
        },
        {
          "indexed": false,
          "name": "_amount",
          "type": "uint256"
        },
        {
          "indexed": true,
          "name": "_avatar",
          "type": "address"
        }
      ],
      "name": "MintTokens",
      "type": "event"
    },
    {
      "anonymous": false,
      "inputs": [
        {
          "indexed": true,
          "name": "_sender",
          "type": "address"
        },
        {
          "indexed": true,
          "name": "_scheme",
          "type": "address"
        },
        {
          "indexed": true,
          "name": "_avatar",
          "type": "address"
        }
      ],
      "name": "RegisterScheme",
      "type": "event"
    },
    {
      "anonymous": false,
      "inputs": [
        {
          "indexed": true,
          "name": "_sender",
          "type": "address"
        },
        {
          "indexed": true,
          "name": "_scheme",
          "type": "address"
        },
        {
          "indexed": true,
          "name": "_avatar",
          "type": "address"
        }
      ],
      "name": "UnregisterScheme",
      "type": "event"
    },
    {
      "anonymous": false,
      "inputs": [
        {
          "indexed": true,
          "name": "_sender",
          "type": "address"
        },
        {
          "indexed": false,
          "name": "_params",
          "type": "bytes32[]"
        }
      ],
      "name": "GenericAction",
      "type": "event"
    },
    {
      "anonymous": false,
      "inputs": [
        {
          "indexed": true,
          "name": "_sender",
          "type": "address"
        },
        {
          "indexed": false,
          "name": "_amountInWei",
          "type": "uint256"
        },
        {
          "indexed": true,
          "name": "_to",
          "type": "address"
        }
      ],
      "name": "SendEther",
      "type": "event"
    },
    {
      "anonymous": false,
      "inputs": [
        {
          "indexed": true,
          "name": "_sender",
          "type": "address"
        },
        {
          "indexed": true,
          "name": "_externalToken",
          "type": "address"
        },
        {
          "indexed": true,
          "name": "_to",
          "type": "address"
        },
        {
          "indexed": false,
          "name": "_value",
          "type": "uint256"
        }
      ],
      "name": "ExternalTokenTransfer",
      "type": "event"
    },
    {
      "anonymous": false,
      "inputs": [
        {
          "indexed": true,
          "name": "_sender",
          "type": "address"
        },
        {
          "indexed": true,
          "name": "_externalToken",
          "type": "address"
        },
        {
          "indexed": false,
          "name": "_from",
          "type": "address"
        },
        {
          "indexed": false,
          "name": "_to",
          "type": "address"
        },
        {
          "indexed": false,
          "name": "_value",
          "type": "uint256"
        }
      ],
      "name": "ExternalTokenTransferFrom",
      "type": "event"
    },
    {
      "anonymous": false,
      "inputs": [
        {
          "indexed": true,
          "name": "_sender",
          "type": "address"
        },
        {
          "indexed": true,
          "name": "_externalToken",
          "type": "address"
        },
        {
          "indexed": false,
          "name": "_spender",
          "type": "address"
        },
        {
          "indexed": false,
          "name": "_value",
          "type": "uint256"
        }
      ],
      "name": "ExternalTokenIncreaseApproval",
      "type": "event"
    },
    {
      "anonymous": false,
      "inputs": [
        {
          "indexed": true,
          "name": "_sender",
          "type": "address"
        },
        {
          "indexed": true,
          "name": "_externalToken",
          "type": "address"
        },
        {
          "indexed": false,
          "name": "_spender",
          "type": "address"
        },
        {
          "indexed": false,
          "name": "_value",
          "type": "uint256"
        }
      ],
      "name": "ExternalTokenDecreaseApproval",
      "type": "event"
    },
    {
      "anonymous": false,
      "inputs": [
        {
          "indexed": true,
          "name": "_oldController",
          "type": "address"
        },
        {
          "indexed": false,
          "name": "_newController",
          "type": "address"
        },
        {
          "indexed": false,
          "name": "_avatar",
          "type": "address"
        }
      ],
      "name": "UpgradeController",
      "type": "event"
    },
    {
      "anonymous": false,
      "inputs": [
        {
          "indexed": true,
          "name": "_contract",
          "type": "address"
        },
        {
          "indexed": false,
          "name": "_data",
          "type": "bytes"
        },
        {
          "indexed": true,
          "name": "_avatar",
          "type": "address"
        }
      ],
      "name": "GenericCall",
      "type": "event"
    },
    {
      "anonymous": false,
      "inputs": [
        {
          "indexed": true,
          "name": "_globalConstraint",
          "type": "address"
        },
        {
          "indexed": false,
          "name": "_params",
          "type": "bytes32"
        },
        {
          "indexed": false,
          "name": "_when",
          "type": "uint8"
        },
        {
          "indexed": true,
          "name": "_avatar",
          "type": "address"
        }
      ],
      "name": "AddGlobalConstraint",
      "type": "event"
    },
    {
      "anonymous": false,
      "inputs": [
        {
          "indexed": true,
          "name": "_globalConstraint",
          "type": "address"
        },
        {
          "indexed": false,
          "name": "_index",
          "type": "uint256"
        },
        {
          "indexed": false,
          "name": "_isPre",
          "type": "bool"
        },
        {
          "indexed": true,
          "name": "_avatar",
          "type": "address"
        }
      ],
      "name": "RemoveGlobalConstraint",
      "type": "event"
    },
    {
      "constant": false,
      "inputs": [
        {
          "name": "_avatar",
          "type": "address"
        }
      ],
      "name": "newOrganization",
      "outputs": [],
      "payable": false,
      "stateMutability": "nonpayable",
      "type": "function"
    },
    {
      "constant": false,
      "inputs": [
        {
          "name": "_amount",
          "type": "uint256"
        },
        {
          "name": "_to",
          "type": "address"
        },
        {
          "name": "_avatar",
          "type": "address"
        }
      ],
      "name": "mintReputation",
      "outputs": [
        {
          "name": "",
          "type": "bool"
        }
      ],
      "payable": false,
      "stateMutability": "nonpayable",
      "type": "function"
    },
    {
      "constant": false,
      "inputs": [
        {
          "name": "_amount",
          "type": "uint256"
        },
        {
          "name": "_from",
          "type": "address"
        },
        {
          "name": "_avatar",
          "type": "address"
        }
      ],
      "name": "burnReputation",
      "outputs": [
        {
          "name": "",
          "type": "bool"
        }
      ],
      "payable": false,
      "stateMutability": "nonpayable",
      "type": "function"
    },
    {
      "constant": false,
      "inputs": [
        {
          "name": "_amount",
          "type": "uint256"
        },
        {
          "name": "_beneficiary",
          "type": "address"
        },
        {
          "name": "_avatar",
          "type": "address"
        }
      ],
      "name": "mintTokens",
      "outputs": [
        {
          "name": "",
          "type": "bool"
        }
      ],
      "payable": false,
      "stateMutability": "nonpayable",
      "type": "function"
    },
    {
      "constant": false,
      "inputs": [
        {
          "name": "_scheme",
          "type": "address"
        },
        {
          "name": "_paramsHash",
          "type": "bytes32"
        },
        {
          "name": "_permissions",
          "type": "bytes4"
        },
        {
          "name": "_avatar",
          "type": "address"
        }
      ],
      "name": "registerScheme",
      "outputs": [
        {
          "name": "",
          "type": "bool"
        }
      ],
      "payable": false,
      "stateMutability": "nonpayable",
      "type": "function"
    },
    {
      "constant": false,
      "inputs": [
        {
          "name": "_scheme",
          "type": "address"
        },
        {
          "name": "_avatar",
          "type": "address"
        }
      ],
      "name": "unregisterScheme",
      "outputs": [
        {
          "name": "",
          "type": "bool"
        }
      ],
      "payable": false,
      "stateMutability": "nonpayable",
      "type": "function"
    },
    {
      "constant": false,
      "inputs": [
        {
          "name": "_avatar",
          "type": "address"
        }
      ],
      "name": "unregisterSelf",
      "outputs": [
        {
          "name": "",
          "type": "bool"
        }
      ],
      "payable": false,
      "stateMutability": "nonpayable",
      "type": "function"
    },
    {
      "constant": true,
      "inputs": [
        {
          "name": "_scheme",
          "type": "address"
        },
        {
          "name": "_avatar",
          "type": "address"
        }
      ],
      "name": "isSchemeRegistered",
      "outputs": [
        {
          "name": "",
          "type": "bool"
        }
      ],
      "payable": false,
      "stateMutability": "view",
      "type": "function"
    },
    {
      "constant": true,
      "inputs": [
        {
          "name": "_scheme",
          "type": "address"
        },
        {
          "name": "_avatar",
          "type": "address"
        }
      ],
      "name": "getSchemeParameters",
      "outputs": [
        {
          "name": "",
          "type": "bytes32"
        }
      ],
      "payable": false,
      "stateMutability": "view",
      "type": "function"
    },
    {
      "constant": true,
      "inputs": [
        {
          "name": "_scheme",
          "type": "address"
        },
        {
          "name": "_avatar",
          "type": "address"
        }
      ],
      "name": "getSchemePermissions",
      "outputs": [
        {
          "name": "",
          "type": "bytes4"
        }
      ],
      "payable": false,
      "stateMutability": "view",
      "type": "function"
    },
    {
      "constant": true,
      "inputs": [
        {
          "name": "_globalConstraint",
          "type": "address"
        },
        {
          "name": "_avatar",
          "type": "address"
        }
      ],
      "name": "getGlobalConstraintParameters",
      "outputs": [
        {
          "name": "",
          "type": "bytes32"
        }
      ],
      "payable": false,
      "stateMutability": "view",
      "type": "function"
    },
    {
      "constant": true,
      "inputs": [
        {
          "name": "_avatar",
          "type": "address"
        }
      ],
      "name": "globalConstraintsCount",
      "outputs": [
        {
          "name": "",
          "type": "uint256"
        },
        {
          "name": "",
          "type": "uint256"
        }
      ],
      "payable": false,
      "stateMutability": "view",
      "type": "function"
    },
    {
      "constant": true,
      "inputs": [
        {
          "name": "_globalConstraint",
          "type": "address"
        },
        {
          "name": "_avatar",
          "type": "address"
        }
      ],
      "name": "isGlobalConstraintRegistered",
      "outputs": [
        {
          "name": "",
          "type": "bool"
        }
      ],
      "payable": false,
      "stateMutability": "view",
      "type": "function"
    },
    {
      "constant": false,
      "inputs": [
        {
          "name": "_globalConstraint",
          "type": "address"
        },
        {
          "name": "_params",
          "type": "bytes32"
        },
        {
          "name": "_avatar",
          "type": "address"
        }
      ],
      "name": "addGlobalConstraint",
      "outputs": [
        {
          "name": "",
          "type": "bool"
        }
      ],
      "payable": false,
      "stateMutability": "nonpayable",
      "type": "function"
    },
    {
      "constant": false,
      "inputs": [
        {
          "name": "_globalConstraint",
          "type": "address"
        },
        {
          "name": "_avatar",
          "type": "address"
        }
      ],
      "name": "removeGlobalConstraint",
      "outputs": [
        {
          "name": "",
          "type": "bool"
        }
      ],
      "payable": false,
      "stateMutability": "nonpayable",
      "type": "function"
    },
    {
      "constant": false,
      "inputs": [
        {
          "name": "_newController",
          "type": "address"
        },
        {
          "name": "_avatar",
          "type": "address"
        }
      ],
      "name": "upgradeController",
      "outputs": [
        {
          "name": "",
          "type": "bool"
        }
      ],
      "payable": false,
      "stateMutability": "nonpayable",
      "type": "function"
    },
    {
      "constant": false,
      "inputs": [
        {
          "name": "_contract",
          "type": "address"
        },
        {
          "name": "_data",
          "type": "bytes"
        },
        {
          "name": "_avatar",
          "type": "address"
        }
      ],
      "name": "genericCall",
      "outputs": [
        {
          "name": "",
          "type": "bytes32"
        }
      ],
      "payable": false,
      "stateMutability": "nonpayable",
      "type": "function"
    },
    {
      "constant": false,
      "inputs": [
        {
          "name": "_amountInWei",
          "type": "uint256"
        },
        {
          "name": "_to",
          "type": "address"
        },
        {
          "name": "_avatar",
          "type": "address"
        }
      ],
      "name": "sendEther",
      "outputs": [
        {
          "name": "",
          "type": "bool"
        }
      ],
      "payable": false,
      "stateMutability": "nonpayable",
      "type": "function"
    },
    {
      "constant": false,
      "inputs": [
        {
          "name": "_externalToken",
          "type": "address"
        },
        {
          "name": "_to",
          "type": "address"
        },
        {
          "name": "_value",
          "type": "uint256"
        },
        {
          "name": "_avatar",
          "type": "address"
        }
      ],
      "name": "externalTokenTransfer",
      "outputs": [
        {
          "name": "",
          "type": "bool"
        }
      ],
      "payable": false,
      "stateMutability": "nonpayable",
      "type": "function"
    },
    {
      "constant": false,
      "inputs": [
        {
          "name": "_externalToken",
          "type": "address"
        },
        {
          "name": "_from",
          "type": "address"
        },
        {
          "name": "_to",
          "type": "address"
        },
        {
          "name": "_value",
          "type": "uint256"
        },
        {
          "name": "_avatar",
          "type": "address"
        }
      ],
      "name": "externalTokenTransferFrom",
      "outputs": [
        {
          "name": "",
          "type": "bool"
        }
      ],
      "payable": false,
      "stateMutability": "nonpayable",
      "type": "function"
    },
    {
      "constant": false,
      "inputs": [
        {
          "name": "_externalToken",
          "type": "address"
        },
        {
          "name": "_spender",
          "type": "address"
        },
        {
          "name": "_addedValue",
          "type": "uint256"
        },
        {
          "name": "_avatar",
          "type": "address"
        }
      ],
      "name": "externalTokenIncreaseApproval",
      "outputs": [
        {
          "name": "",
          "type": "bool"
        }
      ],
      "payable": false,
      "stateMutability": "nonpayable",
      "type": "function"
    },
    {
      "constant": false,
      "inputs": [
        {
          "name": "_externalToken",
          "type": "address"
        },
        {
          "name": "_spender",
          "type": "address"
        },
        {
          "name": "_subtractedValue",
          "type": "uint256"
        },
        {
          "name": "_avatar",
          "type": "address"
        }
      ],
      "name": "externalTokenDecreaseApproval",
      "outputs": [
        {
          "name": "",
          "type": "bool"
        }
      ],
      "payable": false,
      "stateMutability": "nonpayable",
      "type": "function"
    },
    {
      "constant": true,
      "inputs": [
        {
          "name": "_avatar",
          "type": "address"
        }
      ],
      "name": "getNativeReputation",
      "outputs": [
        {
          "name": "",
          "type": "address"
        }
      ],
      "payable": false,
      "stateMutability": "view",
      "type": "function"
    }
  ],
  "bytecode": "0x608060405234801561001057600080fd5b50614f03806100206000396000f3006080604052600436106101455763ffffffff60e060020a600035041663039de01d811461014a57806306fa15a7146101855780631c4d5608146101a657806320204fb7146101df57806342427bf8146102125780634f52b5be146102395780634fe125a3146102605780635a1f74061461029d578063634965da146102ea5780636407e43214610314578063644b98ed1461033e5780636c525b131461036f5780636e94d27814610390578063824f2f1f146103ba5780638da03997146103f45780639b51e35a146104155780639be2faed1461046e578063b998136414610495578063b9a04cdd146104b8578063c6ab78b9146104e9578063e08738da1461051a578063e4537a7414610541578063e48603391461056c578063e869d45f1461058d578063eaf994b2146105db578063f76488be14610605578063fb4856a21461062c575b600080fd5b34801561015657600080fd5b50610171600160a060020a0360043581169060243516610663565b604080519115158252519081900360200190f35b34801561019157600080fd5b50610171600160a060020a0360043516610af4565b3480156101b257600080fd5b506101cd600160a060020a0360043581169060243516610b09565b60408051918252519081900360200190f35b3480156101eb57600080fd5b506101cd600160a060020a0360048035821691602480359081019201359060443516610b37565b34801561021e57600080fd5b50610171600160a060020a0360043581169060243516610fb3565b34801561024557600080fd5b50610171600160a060020a036004358116906024351661152c565b34801561026c57600080fd5b50610281600160a060020a036004351661166e565b60408051600160a060020a039092168252519081900360200190f35b3480156102a957600080fd5b506102be600160a060020a0360043516611689565b60408051600160a060020a03948516815292909316602083015215158183015290519081900360600190f35b3480156102f657600080fd5b50610171600435600160a060020a03602435811690604435166116ba565b34801561032057600080fd5b50610171600435600160a060020a0360243581169060443516611ae3565b34801561034a57600080fd5b50610171600160a060020a036004358116906024358116906044359060643516611f4e565b34801561037b57600080fd5b50610171600160a060020a0360043516612386565b34801561039c57600080fd5b50610171600435600160a060020a036024358116906044351661240b565b3480156103c657600080fd5b506103db600160a060020a0360043516612876565b6040805192835260208301919091528051918290030190f35b34801561040057600080fd5b50610281600160a060020a036004351661289c565b34801561042157600080fd5b5061043c600160a060020a03600435811690602435166128bd565b604080517bffffffffffffffffffffffffffffffffffffffffffffffffffffffff199092168252519081900360200190f35b34801561047a57600080fd5b50610171600160a060020a03600435811690602435166128f4565b3480156104a157600080fd5b506104b6600160a060020a0360043516612907565b005b3480156104c457600080fd5b50610171600160a060020a036004358116906024358116906044359060643516612e58565b3480156104f557600080fd5b50610171600160a060020a03600435811690602435811690604435906064351661329a565b34801561052657600080fd5b506101cd600160a060020a03600435811690602435166136d2565b34801561054d57600080fd5b50610171600160a060020a0360043581169060243590604435166137b0565b34801561057857600080fd5b50610171600160a060020a0360043516613b6d565b34801561059957600080fd5b50610171600160a060020a03600435811690602435907bffffffffffffffffffffffffffffffffffffffffffffffffffffffff19604435169060643516613b82565b3480156105e757600080fd5b50610171600435600160a060020a0360243581169060443516614160565b34801561061157600080fd5b50610171600160a060020a03600435811690602435166145cb565b34801561063857600080fd5b50610171600160a060020a036004358116906024358116906044358116906064359060843516614630565b600160a060020a0381166000908152602081815260408083203384526002019091528120600101548190839060e060020a027c0200000000000000000000000000000000000000000000000000000000908116146106c057600080fd5b7f756e7265676973746572536368656d650000000000000000000000000000000084600060608060008085600160a060020a0316600160a060020a03168152602001908152602001600020600301805480602002602001604051908101604052809291908181526020016000905b8282101561077657600084815260209081902060408051808201909152600285029091018054600160a060020a0316825260019081015482840152908352909201910161072e565b505050600160a060020a03861660009081526020818152604080832060040180548251818502810185019093528083529597509094909350919084015b828210156107fb57600084815260209081902060408051808201909152600285029091018054600160a060020a031682526001908101548284015290835290920191016107b3565b505050509050600092505b81518310156108e757818381518110151561081d57fe5b9060200190602002015160000151600160a060020a031663c1786ab233848681518110151561084857fe5b60209081029091018101518101516040805160e060020a63ffffffff8716028152600160a060020a0390941660048501526024840191909152604483018a9052516064808401938290030181600087803b1580156108a557600080fd5b505af11580156108b9573d6000803e3d6000fd5b505050506040513d60208110156108cf57600080fd5b505115156108dc57600080fd5b600190920191610806565b600160a060020a03808a16600090815260208181526040808320938e16835260029093019052206001015460e060020a90810297508716151561092d5760009750610a01565b600160a060020a03891660009081526020818152604080832033845260020190915290206001015460e060020a021987167c1f00000000000000000000000000000000000000000000000000000000161561098757600080fd5b604051600160a060020a03808b1691908c169033907f6c6acccb2a8bdecd133efe43bc929b25f75255a88da20af641c9ba4acc0e0e5b90600090a4600160a060020a03808a16600090815260208181526040808320938e168352600290930190529081209081556001908101805463ffffffff1916905597505b600092505b8051831015610ae7578083815181101515610a1d57fe5b9060200190602002015160000151600160a060020a0316638043154d338386815181101515610a4857fe5b60209081029091018101518101516040805160e060020a63ffffffff8716028152600160a060020a0390941660048501526024840191909152604483018a9052516064808401938290030181600087803b158015610aa557600080fd5b505af1158015610ab9573d6000803e3d6000fd5b505050506040513d6020811015610acf57600080fd5b50511515610adc57600080fd5b600190920191610a06565b5050505050505092915050565b60026020526000908152604090205460ff1681565b600160a060020a03808216600090815260208181526040808320938616835260029093019052205492915050565b600160a060020a038116600090815260208181526040808320338452600201909152812060010154829060e060020a027c100000000000000000000000000000000000000000000000000000000090811614610b9257600080fd5b7f67656e6572696343616c6c00000000000000000000000000000000000000000083600060608060008085600160a060020a0316600160a060020a03168152602001908152602001600020600301805480602002602001604051908101604052809291908181526020016000905b82821015610c4857600084815260209081902060408051808201909152600285029091018054600160a060020a03168252600190810154828401529083529092019101610c00565b505050600160a060020a03861660009081526020818152604080832060040180548251818502810185019093528083529597509094909350919084015b82821015610ccd57600084815260209081902060408051808201909152600285029091018054600160a060020a03168252600190810154828401529083529092019101610c85565b505050509050600092505b8151831015610db9578183815181101515610cef57fe5b9060200190602002015160000151600160a060020a031663c1786ab2338486815181101515610d1a57fe5b60209081029091018101518101516040805160e060020a63ffffffff8716028152600160a060020a0390941660048501526024840191909152604483018a9052516064808401938290030181600087803b158015610d7757600080fd5b505af1158015610d8b573d6000803e3d6000fd5b505050506040513d6020811015610da157600080fd5b50511515610dae57600080fd5b600190920191610cd8565b87600160a060020a03168b600160a060020a03167fa743676b1a031531c0fa1c1f28d58c4ae40ed698cca410238f7b4584d695e5ef8c8c6040518080602001828103825284848281815260200192508082843760405192018290039550909350505050a3604080517f4650c308000000000000000000000000000000000000000000000000000000008152600160a060020a038d81166004830190815260248301938452604483018d9052908b1692634650c308928f928f928f926064018484808284378201915050945050505050600060405180830381600087803b158015610ea257600080fd5b505af1158015610eb6573d6000803e3d6000fd5b505050503d6000803e3d6000f35b8051831015610fa5578083815181101515610edb57fe5b9060200190602002015160000151600160a060020a0316638043154d338386815181101515610f0657fe5b60209081029091018101518101516040805160e060020a63ffffffff8716028152600160a060020a0390941660048501526024840191909152604483018a9052516064808401938290030181600087803b158015610f6357600080fd5b505af1158015610f77573d6000803e3d6000fd5b505050506040513d6020811015610f8d57600080fd5b50511515610f9a57600080fd5b600190920191610ec4565b505050505050949350505050565b600160a060020a038116600090815260208181526040808320338452600201909152812060010154829060e060020a027c08000000000000000000000000000000000000000000000000000000009081161461100e57600080fd5b600160a060020a03838116600090815260016020526040902054161561103357600080fd5b600160a060020a038416151561104857600080fd5b600160a060020a038381166000818152600160205260408082208054600160a060020a031916948916948517905580517ff2fde38b000000000000000000000000000000000000000000000000000000008152600481019490945251919263f2fde38b926024808301939282900301818387803b1580156110c857600080fd5b505af11580156110dc573d6000803e3d6000fd5b5050505083600160a060020a031683600160a060020a0316638da5cb5b6040518163ffffffff1660e060020a028152600401602060405180830381600087803b15801561112857600080fd5b505af115801561113c573d6000803e3d6000fd5b505050506040513d602081101561115257600080fd5b5051600160a060020a03161461116757600080fd5b600160a060020a0383811660009081526020818152604080832054815160e060020a638da5cb5b028152915130959190911693638da5cb5b93600480850194919392918390030190829087803b1580156111c057600080fd5b505af11580156111d4573d6000803e3d6000fd5b505050506040513d60208110156111ea57600080fd5b5051600160a060020a0316141561131e57600160a060020a038084166000908152602081905260408082205481517ff2fde38b0000000000000000000000000000000000000000000000000000000081528885166004820152915193169263f2fde38b9260248084019391929182900301818387803b15801561126c57600080fd5b505af1158015611280573d6000803e3d6000fd5b50505050600160a060020a0383811660009081526020818152604080832054815160e060020a638da5cb5b0281529151858a16959190911693638da5cb5b93600480850194919392918390030190829087803b1580156112df57600080fd5b505af11580156112f3573d6000803e3d6000fd5b505050506040513d602081101561130957600080fd5b5051600160a060020a03161461131e57600080fd5b600160a060020a0383811660009081526020818152604080832060010154815160e060020a638da5cb5b028152915130959190911693638da5cb5b93600480850194919392918390030190829087803b15801561137a57600080fd5b505af115801561138e573d6000803e3d6000fd5b505050506040513d60208110156113a457600080fd5b5051600160a060020a031614156114de57600160a060020a038084166000908152602081905260408082206001015481517ff2fde38b0000000000000000000000000000000000000000000000000000000081528885166004820152915193169263f2fde38b9260248084019391929182900301818387803b15801561142957600080fd5b505af115801561143d573d6000803e3d6000fd5b50505050600160a060020a0383811660009081526020818152604080832060010154815160e060020a638da5cb5b0281529151858a16959190911693638da5cb5b93600480850194919392918390030190829087803b15801561149f57600080fd5b505af11580156114b3573d6000803e3d6000fd5b505050506040513d60208110156114c957600080fd5b5051600160a060020a0316146114de57600080fd5b60408051600160a060020a03868116825285166020820152815130927f8206909fdb23a8ad42188f753026bc9082758d85e20dce9bc8c4b34f2ec3db32928290030190a25060019392505050565b600160a060020a0381166000908152602081815260408083203384526002019091528120600101548190839060e060020a027c04000000000000000000000000000000000000000000000000000000009081161461158957600080fd5b84600160a060020a031663e2b0caef6040518163ffffffff1660e060020a028152600401602060405180830381600087803b1580156115c757600080fd5b505af11580156115db573d6000803e3d6000fd5b505050506040513d60208110156115f157600080fd5b50519150600082600281111561160357fe5b148061161a5750600282600281111561161857fe5b145b1561162b576116298585614a86565b505b600182600281111561163957fe5b14806116505750600282600281111561164e57fe5b145b156116615761165f8585614c5c565b505b600092505b505092915050565b600160205260009081526040902054600160a060020a031681565b600060208190529081526040902080546001820154600790920154600160a060020a03918216929091169060ff1683565b600160a060020a038116600090815260208181526040808320338452600201909152812060010154829060e060020a9081028116146116f857600080fd5b7f73656e644574686572000000000000000000000000000000000000000000000083600060608060008085600160a060020a0316600160a060020a03168152602001908152602001600020600301805480602002602001604051908101604052809291908181526020016000905b828210156117ae57600084815260209081902060408051808201909152600285029091018054600160a060020a03168252600190810154828401529083529092019101611766565b505050600160a060020a03861660009081526020818152604080832060040180548251818502810185019093528083529597509094909350919084015b8282101561183357600084815260209081902060408051808201909152600285029091018054600160a060020a031682526001908101548284015290835290920191016117eb565b505050509050600092505b815183101561191f57818381518110151561185557fe5b9060200190602002015160000151600160a060020a031663c1786ab233848681518110151561188057fe5b60209081029091018101518101516040805160e060020a63ffffffff8716028152600160a060020a0390941660048501526024840191909152604483018a9052516064808401938290030181600087803b1580156118dd57600080fd5b505af11580156118f1573d6000803e3d6000fd5b505050506040513d602081101561190757600080fd5b5051151561191457600080fd5b60019092019161183e565b604080518b81529051600160a060020a038b169133917fda35e091786fbaaace32084910404a0e3a14f22a7645a4c3d0fec2c6731e3c349181900360200190a387600160a060020a031663cb16d4a28b8b6040518363ffffffff1660e060020a0281526004018083815260200182600160a060020a0316600160a060020a0316815260200192505050602060405180830381600087803b1580156119c257600080fd5b505af11580156119d6573d6000803e3d6000fd5b505050506040513d60208110156119ec57600080fd5b50519650600092505b8051831015611ad6578083815181101515611a0c57fe5b9060200190602002015160000151600160a060020a0316638043154d338386815181101515611a3757fe5b60209081029091018101518101516040805160e060020a63ffffffff8716028152600160a060020a0390941660048501526024840191909152604483018a9052516064808401938290030181600087803b158015611a9457600080fd5b505af1158015611aa8573d6000803e3d6000fd5b505050506040513d6020811015611abe57600080fd5b50511515611acb57600080fd5b6001909201916119f5565b5050505050509392505050565b600160a060020a038116600090815260208181526040808320338452600201909152812060010154829060e060020a908102811614611b2157600080fd5b7f6d696e74546f6b656e730000000000000000000000000000000000000000000083600060608060008085600160a060020a0316600160a060020a03168152602001908152602001600020600301805480602002602001604051908101604052809291908181526020016000905b82821015611bd757600084815260209081902060408051808201909152600285029091018054600160a060020a03168252600190810154828401529083529092019101611b8f565b505050600160a060020a03861660009081526020818152604080832060040180548251818502810185019093528083529597509094909350919084015b82821015611c5c57600084815260209081902060408051808201909152600285029091018054600160a060020a03168252600190810154828401529083529092019101611c14565b505050509050600092505b8151831015611d48578183815181101515611c7e57fe5b9060200190602002015160000151600160a060020a031663c1786ab2338486815181101515611ca957fe5b60209081029091018101518101516040805160e060020a63ffffffff8716028152600160a060020a0390941660048501526024840191909152604483018a9052516064808401938290030181600087803b158015611d0657600080fd5b505af1158015611d1a573d6000803e3d6000fd5b505050506040513d6020811015611d3057600080fd5b50511515611d3d57600080fd5b600190920191611c67565b87600160a060020a031689600160a060020a031633600160a060020a03167f5f31335b49d4d41584177ece651b9e2bb48565b82a1dfbf1b75eec6343215e4c8d6040518082815260200191505060405180910390a460008089600160a060020a0316600160a060020a0316815260200190815260200160002060000160009054906101000a9004600160a060020a0316600160a060020a03166340c10f198a8c6040518363ffffffff1660e060020a0281526004018083600160a060020a0316600160a060020a0316815260200182815260200192505050602060405180830381600087803b158015611e3a57600080fd5b505af1158015611e4e573d6000803e3d6000fd5b505050506040513d6020811015611e6457600080fd5b50519650600092505b8051831015611ad6578083815181101515611e8457fe5b9060200190602002015160000151600160a060020a0316638043154d338386815181101515611eaf57fe5b60209081029091018101518101516040805160e060020a63ffffffff8716028152600160a060020a0390941660048501526024840191909152604483018a9052516064808401938290030181600087803b158015611f0c57600080fd5b505af1158015611f20573d6000803e3d6000fd5b505050506040513d6020811015611f3657600080fd5b50511515611f4357600080fd5b600190920191611e6d565b600160a060020a038116600090815260208181526040808320338452600201909152812060010154829060e060020a908102811614611f8c57600080fd5b7f65787465726e616c546f6b656e496e637265617365417070726f76616c00000083600060608060008085600160a060020a0316600160a060020a03168152602001908152602001600020600301805480602002602001604051908101604052809291908181526020016000905b8282101561204257600084815260209081902060408051808201909152600285029091018054600160a060020a03168252600190810154828401529083529092019101611ffa565b505050600160a060020a03861660009081526020818152604080832060040180548251818502810185019093528083529597509094909350919084015b828210156120c757600084815260209081902060408051808201909152600285029091018054600160a060020a0316825260019081015482840152908352909201910161207f565b505050509050600092505b81518310156121b35781838151811015156120e957fe5b9060200190602002015160000151600160a060020a031663c1786ab233848681518110151561211457fe5b60209081029091018101518101516040805160e060020a63ffffffff8716028152600160a060020a0390941660048501526024840191909152604483018a9052516064808401938290030181600087803b15801561217157600080fd5b505af1158015612185573d6000803e3d6000fd5b505050506040513d602081101561219b57600080fd5b505115156121a857600080fd5b6001909201916120d2565b60408051600160a060020a038c81168252602082018c90528251908e169233927f2cee0640e7c161518a78fa901d8c0e4b2f51d42612532184a4f017a45b01ba28929081900390910190a3604080517f8cf1355c000000000000000000000000000000000000000000000000000000008152600160a060020a038d811660048301528c81166024830152604482018c90529151918a1691638cf1355c916064808201926020929091908290030181600087803b15801561227257600080fd5b505af1158015612286573d6000803e3d6000fd5b505050506040513d602081101561229c57600080fd5b50519650600092505b8051831015610fa55780838151811015156122bc57fe5b9060200190602002015160000151600160a060020a0316638043154d3383868151811015156122e757fe5b60209081029091018101518101516040805160e060020a63ffffffff8716028152600160a060020a0390941660048501526024840191909152604483018a9052516064808401938290030181600087803b15801561234457600080fd5b505af1158015612358573d6000803e3d6000fd5b505050506040513d602081101561236e57600080fd5b5051151561237b57600080fd5b6001909201916122a5565b60006123923383614e21565b15156123a057506000612406565b600160a060020a038216600081815260208181526040808320338085526002909101909252808320838155600101805463ffffffff1916905551909182917f6c6acccb2a8bdecd133efe43bc929b25f75255a88da20af641c9ba4acc0e0e5b9190a45060015b919050565b600160a060020a038116600090815260208181526040808320338452600201909152812060010154829060e060020a90810281161461244957600080fd5b7f6275726e52657075746174696f6e00000000000000000000000000000000000083600060608060008085600160a060020a0316600160a060020a03168152602001908152602001600020600301805480602002602001604051908101604052809291908181526020016000905b828210156124ff57600084815260209081902060408051808201909152600285029091018054600160a060020a031682526001908101548284015290835290920191016124b7565b505050600160a060020a03861660009081526020818152604080832060040180548251818502810185019093528083529597509094909350919084015b8282101561258457600084815260209081902060408051808201909152600285029091018054600160a060020a0316825260019081015482840152908352909201910161253c565b505050509050600092505b81518310156126705781838151811015156125a657fe5b9060200190602002015160000151600160a060020a031663c1786ab23384868151811015156125d157fe5b60209081029091018101518101516040805160e060020a63ffffffff8716028152600160a060020a0390941660048501526024840191909152604483018a9052516064808401938290030181600087803b15801561262e57600080fd5b505af1158015612642573d6000803e3d6000fd5b505050506040513d602081101561265857600080fd5b5051151561266557600080fd5b60019092019161258f565b87600160a060020a031689600160a060020a031633600160a060020a03167fc9d509efc43bbd833bfbc3d7031bf2c4b4a7c30c53ba374bc9d5ec44661dbf878d6040518082815260200191505060405180910390a460008089600160a060020a0316600160a060020a0316815260200190815260200160002060010160009054906101000a9004600160a060020a0316600160a060020a0316639dc29fac8a8c6040518363ffffffff1660e060020a0281526004018083600160a060020a0316600160a060020a0316815260200182815260200192505050602060405180830381600087803b15801561276257600080fd5b505af1158015612776573d6000803e3d6000fd5b505050506040513d602081101561278c57600080fd5b50519650600092505b8051831015611ad65780838151811015156127ac57fe5b9060200190602002015160000151600160a060020a0316638043154d3383868151811015156127d757fe5b60209081029091018101518101516040805160e060020a63ffffffff8716028152600160a060020a0390941660048501526024840191909152604483018a9052516064808401938290030181600087803b15801561283457600080fd5b505af1158015612848573d6000803e3d6000fd5b505050506040513d602081101561285e57600080fd5b5051151561286b57600080fd5b600190920191612795565b600160a060020a0316600090815260208190526040902060038101546004909101549091565b600160a060020a039081166000908152602081905260409020600101541690565b600160a060020a03808216600090815260208181526040808320938616835260029093019052206001015460e060020a0292915050565b60006129008383614e21565b9392505050565b600160a060020a03811660009081526020819052604090206007015460ff161561293057600080fd5b30600160a060020a031681600160a060020a0316638da5cb5b6040518163ffffffff1660e060020a028152600401602060405180830381600087803b15801561297857600080fd5b505af115801561298c573d6000803e3d6000fd5b505050506040513d60208110156129a257600080fd5b5051600160a060020a0316146129b757600080fd5b6002600082600160a060020a03166389ae1c906040518163ffffffff1660e060020a028152600401602060405180830381600087803b1580156129f957600080fd5b505af1158015612a0d573d6000803e3d6000fd5b505050506040513d6020811015612a2357600080fd5b5051600160a060020a0316815260208101919091526040016000205460ff1615612a4c57600080fd5b6003600082600160a060020a031663e1758bd86040518163ffffffff1660e060020a028152600401602060405180830381600087803b158015612a8e57600080fd5b505af1158015612aa2573d6000803e3d6000fd5b505050506040513d6020811015612ab857600080fd5b5051600160a060020a0316815260208101919091526040016000205460ff1615612ae157600080fd5b600160a060020a038116600081815260208181526040808320600701805460ff1916600117905580517fe1758bd8000000000000000000000000000000000000000000000000000000008152905163e1758bd893600480840194938390030190829087803b158015612b5257600080fd5b505af1158015612b66573d6000803e3d6000fd5b505050506040513d6020811015612b7c57600080fd5b5051600160a060020a038281166000818152602081815260408083208054600160a060020a031916959096169490941790945582517f89ae1c90000000000000000000000000000000000000000000000000000000008152925191936389ae1c90936004808201949293918390030190829087803b158015612bfd57600080fd5b505af1158015612c11573d6000803e3d6000fd5b505050506040513d6020811015612c2757600080fd5b5051600160a060020a0382811660008181526020818152604080832060019081018054600160a060020a031916969097169590951790955584517f89ae1c90000000000000000000000000000000000000000000000000000000008152945193946002949293926389ae1c909260048084019391929182900301818787803b158015612cb257600080fd5b505af1158015612cc6573d6000803e3d6000fd5b505050506040513d6020811015612cdc57600080fd5b5051600160a060020a03908116825260208083019390935260409182016000908120805460ff19169515159590951790945581517fe1758bd8000000000000000000000000000000000000000000000000000000008152915160019460039490939287169263e1758bd8926004808301939282900301818787803b158015612d6357600080fd5b505af1158015612d77573d6000803e3d6000fd5b505050506040513d6020811015612d8d57600080fd5b5051600160a060020a03908116825260208083019390935260409182016000908120805460ff191695151595909517909455815180830183528481527c1f00000000000000000000000000000000000000000000000000000000818501908152918616808652858552838620338088526002909101909552838620915182559151600191909101805463ffffffff191660e060020a9092049190911790559051909282917f521230fe5fa463e77907aa7d9653b8cf93661e82561e966af8aa0a99910554c19190a450565b600160a060020a038116600090815260208181526040808320338452600201909152812060010154829060e060020a908102811614612e9657600080fd5b7f65787465726e616c546f6b656e5472616e73666572000000000000000000000083600060608060008085600160a060020a0316600160a060020a03168152602001908152602001600020600301805480602002602001604051908101604052809291908181526020016000905b82821015612f4c57600084815260209081902060408051808201909152600285029091018054600160a060020a03168252600190810154828401529083529092019101612f04565b505050600160a060020a03861660009081526020818152604080832060040180548251818502810185019093528083529597509094909350919084015b82821015612fd157600084815260209081902060408051808201909152600285029091018054600160a060020a03168252600190810154828401529083529092019101612f89565b505050509050600092505b81518310156130bd578183815181101515612ff357fe5b9060200190602002015160000151600160a060020a031663c1786ab233848681518110151561301e57fe5b60209081029091018101518101516040805160e060020a63ffffffff8716028152600160a060020a0390941660048501526024840191909152604483018a9052516064808401938290030181600087803b15801561307b57600080fd5b505af115801561308f573d6000803e3d6000fd5b505050506040513d60208110156130a557600080fd5b505115156130b257600080fd5b600190920191612fdc565b89600160a060020a03168b600160a060020a031633600160a060020a03167fd4c08afec48fd2cbe49032dc89d3b388b7a4e4f0563a1fdccd73339beb025aa18c6040518082815260200191505060405180910390a4604080517fdab0efff000000000000000000000000000000000000000000000000000000008152600160a060020a038d811660048301528c81166024830152604482018c90529151918a169163dab0efff916064808201926020929091908290030181600087803b15801561318657600080fd5b505af115801561319a573d6000803e3d6000fd5b505050506040513d60208110156131b057600080fd5b50519650600092505b8051831015610fa55780838151811015156131d057fe5b9060200190602002015160000151600160a060020a0316638043154d3383868151811015156131fb57fe5b60209081029091018101518101516040805160e060020a63ffffffff8716028152600160a060020a0390941660048501526024840191909152604483018a9052516064808401938290030181600087803b15801561325857600080fd5b505af115801561326c573d6000803e3d6000fd5b505050506040513d602081101561328257600080fd5b5051151561328f57600080fd5b6001909201916131b9565b600160a060020a038116600090815260208181526040808320338452600201909152812060010154829060e060020a9081028116146132d857600080fd5b7f65787465726e616c546f6b656e4465637265617365417070726f76616c00000083600060608060008085600160a060020a0316600160a060020a03168152602001908152602001600020600301805480602002602001604051908101604052809291908181526020016000905b8282101561338e57600084815260209081902060408051808201909152600285029091018054600160a060020a03168252600190810154828401529083529092019101613346565b505050600160a060020a03861660009081526020818152604080832060040180548251818502810185019093528083529597509094909350919084015b8282101561341357600084815260209081902060408051808201909152600285029091018054600160a060020a031682526001908101548284015290835290920191016133cb565b505050509050600092505b81518310156134ff57818381518110151561343557fe5b9060200190602002015160000151600160a060020a031663c1786ab233848681518110151561346057fe5b60209081029091018101518101516040805160e060020a63ffffffff8716028152600160a060020a0390941660048501526024840191909152604483018a9052516064808401938290030181600087803b1580156134bd57600080fd5b505af11580156134d1573d6000803e3d6000fd5b505050506040513d60208110156134e757600080fd5b505115156134f457600080fd5b60019092019161341e565b60408051600160a060020a038c81168252602082018c90528251908e169233927f56fc1f50d44108d3b715d77eb371d388bf2998c65b4eb5cf0ccd6c055be46d49929081900390910190a3604080517fd29ab9c4000000000000000000000000000000000000000000000000000000008152600160a060020a038d811660048301528c81166024830152604482018c90529151918a169163d29ab9c4916064808201926020929091908290030181600087803b1580156135be57600080fd5b505af11580156135d2573d6000803e3d6000fd5b505050506040513d60208110156135e857600080fd5b50519650600092505b8051831015610fa557808381518110151561360857fe5b9060200190602002015160000151600160a060020a0316638043154d33838681518110151561363357fe5b60209081029091018101518101516040805160e060020a63ffffffff8716028152600160a060020a0390941660048501526024840191909152604483018a9052516064808401938290030181600087803b15801561369057600080fd5b505af11580156136a4573d6000803e3d6000fd5b505050506040513d60208110156136ba57600080fd5b505115156136c757600080fd5b6001909201916135f1565b6000806136dd614e5d565b5050600160a060020a038083166000908152602081815260408083209387168352600584018252918290208251808401909352805460ff161580158452600190910154918301919091526137595781600301816020015181548110151561374057fe5b9060005260206000209060020201600101549250611666565b50600160a060020a03841660009081526006820160209081526040918290208251808401909352805460ff161580158452600190910154918301919091526116665781600401816020015181548110151561374057fe5b600160a060020a03811660009081526020818152604080832033845260020190915281206001015481908190849060e060020a027c04000000000000000000000000000000000000000000000000000000009081161461380f57600080fd5b60008086600160a060020a0316600160a060020a03168152602001908152602001600020925086600160a060020a031663e2b0caef6040518163ffffffff1660e060020a028152600401602060405180830381600087803b15801561387357600080fd5b505af1158015613887573d6000803e3d6000fd5b505050506040513d602081101561389d57600080fd5b5051915060008260028111156138af57fe5b14806138c6575060028260028111156138c457fe5b145b156139cc57600160a060020a038716600090815260058401602052604090205460ff16151561398857604080518082018252600160a060020a0389811680835260208084018b8152600389018054600180820183556000838152858120985160029093029098018054600160a060020a031916929097169190911786559151948201949094558551808701875281815293546000190184830190815292855260058901909152939092209051815460ff191690151517815590519101556139cc565b600160a060020a038716600090815260058401602052604090206001015460038401805488929081106139b757fe5b60009182526020909120600160029092020101555b60018260028111156139da57fe5b14806139f1575060028260028111156139ef57fe5b145b15613af757600160a060020a038716600090815260068401602052604090205460ff161515613ab357604080518082018252600160a060020a0389811680835260208084018b8152600489018054600180820183556000838152858120985160029093029098018054600160a060020a031916929097169190911786559151948201949094558551808701875281815293546000190184830190815292855260068901909152939092209051815460ff19169015151781559051910155613af7565b600160a060020a03871660009081526006840160205260409020600101546004840180548892908110613ae257fe5b60009182526020909120600160029092020101555b84600160a060020a031687600160a060020a03167ffc47a21fc3b2a989787e5778a52ac976fa54ccfecf6fda51089ffa95b699b90a8885604051808360001916600019168152602001826002811115613b4c57fe5b60ff1681526020019250505060405180910390a35060019695505050505050565b60036020526000908152604090205460ff1681565b600160a060020a03811660009081526020818152604080832033845260020190915281206001015481908190849060e060020a027c020000000000000000000000000000000000000000000000000000000090811614613be157600080fd5b7f7265676973746572536368656d6500000000000000000000000000000000000085600060608060008085600160a060020a0316600160a060020a03168152602001908152602001600020600301805480602002602001604051908101604052809291908181526020016000905b82821015613c9757600084815260209081902060408051808201909152600285029091018054600160a060020a03168252600190810154828401529083529092019101613c4f565b505050600160a060020a03861660009081526020818152604080832060040180548251818502810185019093528083529597509094909350919084015b82821015613d1c57600084815260209081902060408051808201909152600285029091018054600160a060020a03168252600190810154828401529083529092019101613cd4565b505050509050600092505b8151831015613e08578183815181101515613d3e57fe5b9060200190602002015160000151600160a060020a031663c1786ab2338486815181101515613d6957fe5b60209081029091018101518101516040805160e060020a63ffffffff8716028152600160a060020a0390941660048501526024840191909152604483018a9052516064808401938290030181600087803b158015613dc657600080fd5b505af1158015613dda573d6000803e3d6000fd5b505050506040513d6020811015613df057600080fd5b50511515613dfd57600080fd5b600190920191613d27565b6000808b600160a060020a0316600160a060020a0316815260200190815260200160002060020160008e600160a060020a0316600160a060020a0316815260200190815260200160002060010160009054906101000a900460e060020a0297506000808b600160a060020a0316600160a060020a03168152602001908152602001600020600201600033600160a060020a0316600160a060020a0316815260200190815260200160002060010160009054906101000a900460e060020a029650600060e060020a027bffffffffffffffffffffffffffffffffffffffffffffffffffffffff19168719898d18601f60e060020a0216167bffffffffffffffffffffffffffffffffffffffffffffffffffffffff1916141515613f2957600080fd5b7c1f00000000000000000000000000000000000000000000000000000000871989161615613f5657600080fd5b60408051908101604052808d600019168152602001600160e060020a028d177bffffffffffffffffffffffffffffffffffffffffffffffffffffffff19168152506000808c600160a060020a0316600160a060020a0316815260200190815260200160002060020160008f600160a060020a0316600160a060020a031681526020019081526020016000206000820151816000019060001916905560208201518160010160006101000a81548163ffffffff021916908360e060020a9004021790555090505089600160a060020a03168d600160a060020a031633600160a060020a03167f521230fe5fa463e77907aa7d9653b8cf93661e82561e966af8aa0a99910554c160405160405180910390a460019850600092505b805183101561415057808381518110151561408657fe5b9060200190602002015160000151600160a060020a0316638043154d3383868151811015156140b157fe5b60209081029091018101518101516040805160e060020a63ffffffff8716028152600160a060020a0390941660048501526024840191909152604483018a9052516064808401938290030181600087803b15801561410e57600080fd5b505af1158015614122573d6000803e3d6000fd5b505050506040513d602081101561413857600080fd5b5051151561414557600080fd5b60019092019161406f565b5050505050505050949350505050565b600160a060020a038116600090815260208181526040808320338452600201909152812060010154829060e060020a90810281161461419e57600080fd5b7f6d696e7452657075746174696f6e00000000000000000000000000000000000083600060608060008085600160a060020a0316600160a060020a03168152602001908152602001600020600301805480602002602001604051908101604052809291908181526020016000905b8282101561425457600084815260209081902060408051808201909152600285029091018054600160a060020a0316825260019081015482840152908352909201910161420c565b505050600160a060020a03861660009081526020818152604080832060040180548251818502810185019093528083529597509094909350919084015b828210156142d957600084815260209081902060408051808201909152600285029091018054600160a060020a03168252600190810154828401529083529092019101614291565b505050509050600092505b81518310156143c55781838151811015156142fb57fe5b9060200190602002015160000151600160a060020a031663c1786ab233848681518110151561432657fe5b60209081029091018101518101516040805160e060020a63ffffffff8716028152600160a060020a0390941660048501526024840191909152604483018a9052516064808401938290030181600087803b15801561438357600080fd5b505af1158015614397573d6000803e3d6000fd5b505050506040513d60208110156143ad57600080fd5b505115156143ba57600080fd5b6001909201916142e4565b87600160a060020a031689600160a060020a031633600160a060020a03167feb0f295d539be95eb3777b524f7bff44ed3505db2e2795382482bb1a9cd1dae08d6040518082815260200191505060405180910390a460008089600160a060020a0316600160a060020a0316815260200190815260200160002060010160009054906101000a9004600160a060020a0316600160a060020a03166340c10f198a8c6040518363ffffffff1660e060020a0281526004018083600160a060020a0316600160a060020a0316815260200182815260200192505050602060405180830381600087803b1580156144b757600080fd5b505af11580156144cb573d6000803e3d6000fd5b505050506040513d60208110156144e157600080fd5b50519650600092505b8051831015611ad657808381518110151561450157fe5b9060200190602002015160000151600160a060020a0316638043154d33838681518110151561452c57fe5b60209081029091018101518101516040805160e060020a63ffffffff8716028152600160a060020a0390941660048501526024840191909152604483018a9052516064808401938290030181600087803b15801561458957600080fd5b505af115801561459d573d6000803e3d6000fd5b505050506040513d60208110156145b357600080fd5b505115156145c057600080fd5b6001909201916144ea565b600160a060020a038082166000908152602081815260408083209386168352600590930190529081205460ff1680612900575050600160a060020a03908116600090815260208181526040808320949093168252600690930190925290205460ff1690565b600160a060020a038116600090815260208181526040808320338452600201909152812060010154829060e060020a90810281161461466e57600080fd5b7f65787465726e616c546f6b656e5472616e7366657246726f6d0000000000000083600060608060008085600160a060020a0316600160a060020a03168152602001908152602001600020600301805480602002602001604051908101604052809291908181526020016000905b8282101561472457600084815260209081902060408051808201909152600285029091018054600160a060020a031682526001908101548284015290835290920191016146dc565b505050600160a060020a03861660009081526020818152604080832060040180548251818502810185019093528083529597509094909350919084015b828210156147a957600084815260209081902060408051808201909152600285029091018054600160a060020a03168252600190810154828401529083529092019101614761565b505050509050600092505b81518310156148955781838151811015156147cb57fe5b9060200190602002015160000151600160a060020a031663c1786ab23384868151811015156147f657fe5b60209081029091018101518101516040805160e060020a63ffffffff8716028152600160a060020a0390941660048501526024840191909152604483018a9052516064808401938290030181600087803b15801561485357600080fd5b505af1158015614867573d6000803e3d6000fd5b505050506040513d602081101561487d57600080fd5b5051151561488a57600080fd5b6001909201916147b4565b60408051600160a060020a038d811682528c811660208301528183018c90529151918e169133917f283faba4b8dcfe263728666be500623fdf5ae89ac78e40952fe2493f918ed62c919081900360600190a3604080517fb756d5a2000000000000000000000000000000000000000000000000000000008152600160a060020a038e811660048301528d811660248301528c81166044830152606482018c90529151918a169163b756d5a2916084808201926020929091908290030181600087803b15801561496357600080fd5b505af1158015614977573d6000803e3d6000fd5b505050506040513d602081101561498d57600080fd5b50519650600092505b8051831015614a775780838151811015156149ad57fe5b9060200190602002015160000151600160a060020a0316638043154d3383868151811015156149d857fe5b60209081029091018101518101516040805160e060020a63ffffffff8716028152600160a060020a0390941660048501526024840191909152604483018a9052516064808401938290030181600087803b158015614a3557600080fd5b505af1158015614a49573d6000803e3d6000fd5b505050506040513d6020811015614a5f57600080fd5b50511515614a6c57600080fd5b600190920191614996565b50505050505095945050505050565b6000614a90614e5d565b6000614a9a614e5d565b600160a060020a03808616600081815260208181526040808320948b1683526005850182528083208151808301909252805460ff161515825260010154818301529282525280519094506003909101925015614c4e57600182805490500383602001511015614bb957815482906000198101908110614b1557fe5b6000918252602091829020604080518082019091526002909202018054600160a060020a03168252600101548183015290840151835491925082918491908110614b5b57fe5b600091825260208083208451600293909302018054600160a060020a031916600160a060020a039384161781559381015160019485015586810151898316845283825260408085208751909416855260059093019091529120909101555b8154614bc9836000198301614e74565b50600160a060020a03808616600081815260208181526040808320948b1680845260059095018252808320805460ff191681556001908101939093558782015181519081529182019290925281519293927f16e52dc226f9b9f6729d31340ecff10d85e6f9c0a8f21b07ec74a2c58c485a22929181900390910190a360019350614c53565b600093505b50505092915050565b6000614c66614e5d565b6000614c70614e5d565b600160a060020a03808616600081815260208181526040808320948b1683526006850182528083208151808301909252805460ff161515825260010154818301529282525280519094506004909101925015614c4e57600182805490500383602001511015614d8f57815482906000198101908110614ceb57fe5b6000918252602091829020604080518082019091526002909202018054600160a060020a03168252600101548183015290840151835491925082918491908110614d3157fe5b600091825260208083208451600293909302018054600160a060020a031916600160a060020a039384161781559381015160019485015586810151898316845283825260408085208751909416855260069093019091529120909101555b8154614d9f836000198301614e74565b50600160a060020a03808616600081815260208181526040808320948b1680845260069095018252808320805460ff191681556001018390558782015181519081529182019290925281519293927f16e52dc226f9b9f6729d31340ecff10d85e6f9c0a8f21b07ec74a2c58c485a22929181900390910190a360019350614c53565b600160a060020a03808216600090815260208181526040808320938616835260029093019052206001015460e060020a90810216151592915050565b604080518082019091526000808252602082015290565b815481835581811115614ea057600202816002028360005260206000209182019101614ea09190614ea5565b505050565b614ed491905b80821115614ed0578054600160a060020a031916815560006001820155600201614eab565b5090565b905600a165627a7a72305820bc21434942339e6f1231ffe10620cdbc6d629609c0d72a570a51e0a6ed31ae690029",
  "source": "pragma solidity ^0.4.24;\r\n\r\nimport \"./Avatar.sol\";\r\nimport \"./Reputation.sol\";\r\nimport \"./DAOToken.sol\";\r\nimport \"../globalConstraints/GlobalConstraintInterface.sol\";\r\nimport \"./ControllerInterface.sol\";\r\n\r\n\r\n/**\r\n * @title Universal Controller contract\r\n * @dev A universal controller hold organizations and controls their tokens ,reputations\r\n *       and avatar.\r\n * It is subject to a set of schemes and constraints that determine its behavior.\r\n * Each scheme has it own parameters and operation permissions.\r\n */\r\ncontract UController is ControllerInterface {\r\n\r\n    struct Scheme {\r\n        bytes32 paramsHash;  // a hash \"configuration\" of the scheme\r\n        bytes4  permissions; // A bitwise flags of permissions,\r\n                            // All 0: Not registered,\r\n                            // 1st bit: Flag if the scheme is registered,\r\n                            // 2nd bit: Scheme can register other schemes\r\n                            // 3th bit: Scheme can add/remove global constraints\r\n                            // 4rd bit: Scheme can upgrade the controller\r\n                            // 5th bit: Scheme can call delegatecall\r\n    }\r\n\r\n    struct GlobalConstraint {\r\n        address gcAddress;\r\n        bytes32 params;\r\n    }\r\n\r\n    struct GlobalConstraintRegister {\r\n        bool isRegistered; //is registered\r\n        uint index;    //index at globalConstraints\r\n    }\r\n\r\n    struct Organization {\r\n        DAOToken                  nativeToken;\r\n        Reputation                nativeReputation;\r\n        mapping(address=>Scheme)  schemes;\r\n      // globalConstraintsPre that determine pre- conditions for all actions on the controller\r\n        GlobalConstraint[] globalConstraintsPre;\r\n        // globalConstraintsPost that determine post-conditions for all actions on the controller\r\n        GlobalConstraint[] globalConstraintsPost;\r\n      // globalConstraintsRegisterPre indicate if a globalConstraints is registered as a Pre global constraint.\r\n        mapping(address=>GlobalConstraintRegister) globalConstraintsRegisterPre;\r\n      // globalConstraintsRegisterPost indicate if a globalConstraints is registered as a Post global constraint.\r\n        mapping(address=>GlobalConstraintRegister) globalConstraintsRegisterPost;\r\n        bool exist;\r\n    }\r\n\r\n    //mapping between organization's avatar address to Organization\r\n    mapping(address=>Organization) public organizations;\r\n  // newController will point to the new controller after the present controller is upgraded\r\n  //  address external newController;\r\n    mapping(address=>address) public newControllers;//mapping between avatar address and newController address\r\n\r\n    //mapping for all reputation system addresses registered.\r\n    mapping(address=>bool) public reputations;\r\n    //mapping for all tokens addresses registered.\r\n    mapping(address=>bool) public tokens;\r\n\r\n\r\n    event MintReputation (address indexed _sender, address indexed _to, uint256 _amount,address indexed _avatar);\r\n    event BurnReputation (address indexed _sender, address indexed _from, uint256 _amount,address indexed _avatar);\r\n    event MintTokens (address indexed _sender, address indexed _beneficiary, uint256 _amount, address indexed _avatar);\r\n    event RegisterScheme (address indexed _sender, address indexed _scheme,address indexed _avatar);\r\n    event UnregisterScheme (address indexed _sender, address indexed _scheme, address indexed _avatar);\r\n    event GenericAction (address indexed _sender, bytes32[] _params);\r\n    event SendEther (address indexed _sender, uint _amountInWei, address indexed _to);\r\n    event ExternalTokenTransfer (address indexed _sender, address indexed _externalToken, address indexed _to, uint _value);\r\n    event ExternalTokenTransferFrom (address indexed _sender, address indexed _externalToken, address _from, address _to, uint _value);\r\n    event ExternalTokenIncreaseApproval (address indexed _sender, StandardToken indexed _externalToken, address _spender, uint _value);\r\n    event ExternalTokenDecreaseApproval (address indexed _sender, StandardToken indexed _externalToken, address _spender, uint _value);\r\n    event UpgradeController(address indexed _oldController,address _newController,address _avatar);\r\n    event GenericCall(address indexed _contract,bytes _data,address indexed _avatar);\r\n\r\n    event AddGlobalConstraint(\r\n        address indexed _globalConstraint,\r\n        bytes32 _params,\r\n        GlobalConstraintInterface.CallPhase _when,\r\n        address indexed _avatar\r\n    );\r\n    event RemoveGlobalConstraint(address indexed _globalConstraint ,uint256 _index,bool _isPre,address indexed _avatar);\r\n\r\n\r\n   /**\r\n    * @dev newOrganization set up a new organization with default daoCreator.\r\n    * @param _avatar the organization avatar\r\n    */\r\n    function newOrganization(\r\n        Avatar _avatar\r\n    ) external\r\n    {\r\n        require(!organizations[address(_avatar)].exist);\r\n        require(_avatar.owner() == address(this));\r\n        //To guaranty uniqueness for the reputation systems.\r\n        require(!reputations[_avatar.nativeReputation()]);\r\n        //To guaranty uniqueness for the reputation systems.\r\n        require(!tokens[_avatar.nativeToken()]);\r\n        organizations[address(_avatar)].exist = true;\r\n        organizations[address(_avatar)].nativeToken = _avatar.nativeToken();\r\n        organizations[address(_avatar)].nativeReputation = _avatar.nativeReputation();\r\n        reputations[_avatar.nativeReputation()] = true;\r\n        tokens[_avatar.nativeToken()] = true;\r\n        organizations[address(_avatar)].schemes[msg.sender] = Scheme({paramsHash: bytes32(0),permissions: bytes4(0x1F)});\r\n        emit RegisterScheme(msg.sender, msg.sender,_avatar);\r\n    }\r\n\r\n  // Modifiers:\r\n    modifier onlyRegisteredScheme(address avatar) {\r\n        require(organizations[avatar].schemes[msg.sender].permissions&bytes4(1) == bytes4(1));\r\n        _;\r\n    }\r\n\r\n    modifier onlyRegisteringSchemes(address avatar) {\r\n        require(organizations[avatar].schemes[msg.sender].permissions&bytes4(2) == bytes4(2));\r\n        _;\r\n    }\r\n\r\n    modifier onlyGlobalConstraintsScheme(address avatar) {\r\n        require(organizations[avatar].schemes[msg.sender].permissions&bytes4(4) == bytes4(4));\r\n        _;\r\n    }\r\n\r\n    modifier onlyUpgradingScheme(address _avatar) {\r\n        require(organizations[_avatar].schemes[msg.sender].permissions&bytes4(8) == bytes4(8));\r\n        _;\r\n    }\r\n\r\n    modifier onlyGenericCallScheme(address _avatar) {\r\n        require(organizations[_avatar].schemes[msg.sender].permissions&bytes4(16) == bytes4(16));\r\n        _;\r\n    }\r\n\r\n    modifier onlySubjectToConstraint(bytes32 func,address _avatar) {\r\n        uint idx;\r\n        GlobalConstraint[] memory globalConstraintsPre = organizations[_avatar].globalConstraintsPre;\r\n        GlobalConstraint[] memory globalConstraintsPost = organizations[_avatar].globalConstraintsPost;\r\n        for (idx = 0;idx<globalConstraintsPre.length;idx++) {\r\n            require((GlobalConstraintInterface(globalConstraintsPre[idx].gcAddress)).pre(msg.sender, globalConstraintsPre[idx].params, func));\r\n        }\r\n        _;\r\n        for (idx = 0;idx<globalConstraintsPost.length;idx++) {\r\n            require((GlobalConstraintInterface(globalConstraintsPost[idx].gcAddress)).post(msg.sender, globalConstraintsPost[idx].params, func));\r\n        }\r\n    }\r\n\r\n    /**\r\n     * @dev Mint `_amount` of reputation that are assigned to `_to` .\r\n     * @param  _amount amount of reputation to mint\r\n     * @param _to beneficiary address\r\n     * @param _avatar the address of the organization's avatar\r\n     * @return bool which represents a success\r\n     */\r\n    function mintReputation(uint256 _amount, address _to, address _avatar)\r\n    external\r\n    onlyRegisteredScheme(_avatar)\r\n    onlySubjectToConstraint(\"mintReputation\",_avatar)\r\n    returns(bool)\r\n    {\r\n        emit MintReputation(msg.sender, _to, _amount,_avatar);\r\n        return organizations[_avatar].nativeReputation.mint(_to, _amount);\r\n    }\r\n\r\n    /**\r\n     * @dev Burns `_amount` of reputation from `_from`\r\n     * @param _amount amount of reputation to burn\r\n     * @param _from The address that will lose the reputation\r\n     * @return bool which represents a success\r\n     */\r\n    function burnReputation(uint256 _amount, address _from,address _avatar)\r\n    external\r\n    onlyRegisteredScheme(_avatar)\r\n    onlySubjectToConstraint(\"burnReputation\",_avatar)\r\n    returns(bool)\r\n    {\r\n        emit BurnReputation(msg.sender, _from, _amount,_avatar);\r\n        return organizations[_avatar].nativeReputation.burn(_from, _amount);\r\n    }\r\n\r\n    /**\r\n     * @dev mint tokens .\r\n     * @param  _amount amount of token to mint\r\n     * @param _beneficiary beneficiary address\r\n     * @param _avatar the organization avatar.\r\n     * @return bool which represents a success\r\n     */\r\n    function mintTokens(uint256 _amount, address _beneficiary,address _avatar)\r\n    external\r\n    onlyRegisteredScheme(_avatar)\r\n    onlySubjectToConstraint(\"mintTokens\",_avatar)\r\n    returns(bool)\r\n    {\r\n        emit MintTokens(msg.sender, _beneficiary, _amount,_avatar);\r\n        return organizations[_avatar].nativeToken.mint(_beneficiary, _amount);\r\n    }\r\n\r\n  /**\r\n   * @dev register or update a scheme\r\n   * @param _scheme the address of the scheme\r\n   * @param _paramsHash a hashed configuration of the usage of the scheme\r\n   * @param _permissions the permissions the new scheme will have\r\n   * @param _avatar the organization avatar.\r\n   * @return bool which represents a success\r\n   */\r\n    function registerScheme(address _scheme, bytes32 _paramsHash, bytes4 _permissions,address _avatar)\r\n    external\r\n    onlyRegisteringSchemes(_avatar)\r\n    onlySubjectToConstraint(\"registerScheme\",_avatar)\r\n    returns(bool)\r\n    {\r\n        bytes4 schemePermission = organizations[_avatar].schemes[_scheme].permissions;\r\n        bytes4 senderPermission = organizations[_avatar].schemes[msg.sender].permissions;\r\n    // Check scheme has at least the permissions it is changing, and at least the current permissions:\r\n    // Implementation is a bit messy. One must recall logic-circuits ^^\r\n\r\n    // produces non-zero if sender does not have all of the perms that are changing between old and new\r\n        require(bytes4(0x1F)&(_permissions^schemePermission)&(~senderPermission) == bytes4(0));\r\n\r\n    // produces non-zero if sender does not have all of the perms in the old scheme\r\n        require(bytes4(0x1F)&(schemePermission&(~senderPermission)) == bytes4(0));\r\n\r\n    // Add or change the scheme:\r\n        organizations[_avatar].schemes[_scheme] = Scheme({paramsHash:_paramsHash,permissions:_permissions|bytes4(1)});\r\n        emit RegisterScheme(msg.sender, _scheme, _avatar);\r\n        return true;\r\n    }\r\n\r\n    /**\r\n     * @dev unregister a scheme\r\n     * @param _scheme the address of the scheme\r\n     * @param _avatar the organization avatar.\r\n     * @return bool which represents a success\r\n     */\r\n    function unregisterScheme(address _scheme,address _avatar)\r\n    external\r\n    onlyRegisteringSchemes(_avatar)\r\n    onlySubjectToConstraint(\"unregisterScheme\",_avatar)\r\n    returns(bool)\r\n    {\r\n        bytes4 schemePermission = organizations[_avatar].schemes[_scheme].permissions;\r\n    //check if the scheme is registered\r\n        if (schemePermission&bytes4(1) == bytes4(0)) {\r\n            return false;\r\n          }\r\n    // Check the unregistering scheme has enough permissions:\r\n        require(bytes4(0x1F)&(schemePermission&(~organizations[_avatar].schemes[msg.sender].permissions)) == bytes4(0));\r\n\r\n    // Unregister:\r\n        emit UnregisterScheme(msg.sender, _scheme,_avatar);\r\n        delete organizations[_avatar].schemes[_scheme];\r\n        return true;\r\n    }\r\n\r\n    /**\r\n     * @dev unregister the caller's scheme\r\n     * @param _avatar the organization avatar.\r\n     * @return bool which represents a success\r\n     */\r\n    function unregisterSelf(address _avatar) external returns(bool) {\r\n        if (_isSchemeRegistered(msg.sender,_avatar) == false) {\r\n            return false;\r\n        }\r\n        delete organizations[_avatar].schemes[msg.sender];\r\n        emit UnregisterScheme(msg.sender, msg.sender,_avatar);\r\n        return true;\r\n    }\r\n\r\n    function isSchemeRegistered( address _scheme,address _avatar) external view returns(bool) {\r\n        return _isSchemeRegistered(_scheme,_avatar);\r\n    }\r\n\r\n    function getSchemeParameters(address _scheme,address _avatar) external view returns(bytes32) {\r\n        return organizations[_avatar].schemes[_scheme].paramsHash;\r\n    }\r\n\r\n    function getSchemePermissions(address _scheme,address _avatar) external view returns(bytes4) {\r\n        return organizations[_avatar].schemes[_scheme].permissions;\r\n    }\r\n\r\n    function getGlobalConstraintParameters(address _globalConstraint, address _avatar) external view returns(bytes32) {\r\n\r\n        Organization storage organization = organizations[_avatar];\r\n\r\n        GlobalConstraintRegister memory register = organization.globalConstraintsRegisterPre[_globalConstraint];\r\n\r\n        if (register.isRegistered) {\r\n            return organization.globalConstraintsPre[register.index].params;\r\n        }\r\n\r\n        register = organization.globalConstraintsRegisterPost[_globalConstraint];\r\n\r\n        if (register.isRegistered) {\r\n            return organization.globalConstraintsPost[register.index].params;\r\n        }\r\n    }\r\n\r\n   /**\r\n   * @dev globalConstraintsCount return the global constraint pre and post count\r\n   * @return uint globalConstraintsPre count.\r\n   * @return uint globalConstraintsPost count.\r\n   */\r\n    function globalConstraintsCount(address _avatar) external view returns(uint,uint) {\r\n        return (organizations[_avatar].globalConstraintsPre.length,organizations[_avatar].globalConstraintsPost.length);\r\n    }\r\n\r\n    function isGlobalConstraintRegistered(address _globalConstraint,address _avatar) external view returns(bool) {\r\n        return (organizations[_avatar].globalConstraintsRegisterPre[_globalConstraint].isRegistered ||\r\n        organizations[_avatar].globalConstraintsRegisterPost[_globalConstraint].isRegistered) ;\r\n    }\r\n\r\n    /**\r\n     * @dev add or update Global Constraint\r\n     * @param _globalConstraint the address of the global constraint to be added.\r\n     * @param _params the constraint parameters hash.\r\n     * @param _avatar the avatar of the organization\r\n     * @return bool which represents a success\r\n     */\r\n    function addGlobalConstraint(address _globalConstraint, bytes32 _params, address _avatar)\r\n    external onlyGlobalConstraintsScheme(_avatar) returns(bool)\r\n    {\r\n        Organization storage organization = organizations[_avatar];\r\n        GlobalConstraintInterface.CallPhase when = GlobalConstraintInterface(_globalConstraint).when();\r\n        if ((when == GlobalConstraintInterface.CallPhase.Pre)||(when == GlobalConstraintInterface.CallPhase.PreAndPost)) {\r\n            if (!organization.globalConstraintsRegisterPre[_globalConstraint].isRegistered) {\r\n                organization.globalConstraintsPre.push(GlobalConstraint(_globalConstraint,_params));\r\n                organization.globalConstraintsRegisterPre[_globalConstraint] = GlobalConstraintRegister(true,organization.globalConstraintsPre.length-1);\r\n            }else {\r\n                organization.globalConstraintsPre[organization.globalConstraintsRegisterPre[_globalConstraint].index].params = _params;\r\n            }\r\n        }\r\n\r\n        if ((when == GlobalConstraintInterface.CallPhase.Post)||(when == GlobalConstraintInterface.CallPhase.PreAndPost)) {\r\n            if (!organization.globalConstraintsRegisterPost[_globalConstraint].isRegistered) {\r\n                organization.globalConstraintsPost.push(GlobalConstraint(_globalConstraint,_params));\r\n                organization.globalConstraintsRegisterPost[_globalConstraint] = GlobalConstraintRegister(true,organization.globalConstraintsPost.length-1);\r\n           }else {\r\n                organization.globalConstraintsPost[organization.globalConstraintsRegisterPost[_globalConstraint].index].params = _params;\r\n           }\r\n        }\r\n        emit AddGlobalConstraint(_globalConstraint, _params,when,_avatar);\r\n        return true;\r\n    }\r\n\r\n    /**\r\n     * @dev remove Global Constraint\r\n     * @param _globalConstraint the address of the global constraint to be remove.\r\n     * @param _avatar the organization avatar.\r\n     * @return bool which represents a success\r\n     */\r\n    function removeGlobalConstraint (address _globalConstraint,address _avatar)\r\n    external onlyGlobalConstraintsScheme(_avatar) returns(bool)\r\n    {\r\n        GlobalConstraintInterface.CallPhase when = GlobalConstraintInterface(_globalConstraint).when();\r\n        if ((when == GlobalConstraintInterface.CallPhase.Pre)||(when == GlobalConstraintInterface.CallPhase.PreAndPost)) {\r\n            removeGlobalConstraintPre(_globalConstraint,_avatar);\r\n        }\r\n        if ((when == GlobalConstraintInterface.CallPhase.Post)||(when == GlobalConstraintInterface.CallPhase.PreAndPost)) {\r\n            removeGlobalConstraintPost(_globalConstraint,_avatar);\r\n        }\r\n        return false;\r\n    }\r\n\r\n  /**\r\n    * @dev upgrade the Controller\r\n    *      The function will trigger an event 'UpgradeController'.\r\n    * @param  _newController the address of the new controller.\r\n    * @param _avatar the organization avatar.\r\n    * @return bool which represents a success\r\n    */\r\n    function upgradeController(address _newController,address _avatar)\r\n    external onlyUpgradingScheme(_avatar) returns(bool)\r\n    {\r\n        require(newControllers[_avatar] == address(0));   // so the upgrade could be done once for a contract.\r\n        require(_newController != address(0));\r\n        newControllers[_avatar] = _newController;\r\n        (Avatar(_avatar)).transferOwnership(_newController);\r\n        require(Avatar(_avatar).owner() == _newController);\r\n        if (organizations[_avatar].nativeToken.owner() == address(this)) {\r\n            organizations[_avatar].nativeToken.transferOwnership(_newController);\r\n            require(organizations[_avatar].nativeToken.owner() == _newController);\r\n        }\r\n        if (organizations[_avatar].nativeReputation.owner() == address(this)) {\r\n            organizations[_avatar].nativeReputation.transferOwnership(_newController);\r\n            require(organizations[_avatar].nativeReputation.owner() == _newController);\r\n        }\r\n        emit UpgradeController(this,_newController,_avatar);\r\n        return true;\r\n    }\r\n\r\n    /**\r\n    * @dev perform a generic call to an arbitrary contract\r\n    * @param _contract  the contract's address to call\r\n    * @param _data ABI-encoded contract call to call `_contract` address.\r\n    * @return bytes32  - the return value of the called _contract's function.\r\n    */\r\n    function genericCall(address _contract,bytes _data,address _avatar)\r\n    external\r\n    onlyGenericCallScheme(_avatar)\r\n    onlySubjectToConstraint(\"genericCall\",_avatar)\r\n    returns (bytes32)\r\n    {\r\n        emit GenericCall(_contract, _data,_avatar);\r\n        (Avatar(_avatar)).genericCall(_contract, _data);\r\n        // solium-disable-next-line security/no-inline-assembly\r\n        assembly {\r\n        // Copy the returned data.\r\n        returndatacopy(0, 0, returndatasize)\r\n        return(0, returndatasize)\r\n        }\r\n    }\r\n\r\n  /**\r\n   * @dev send some ether\r\n   * @param _amountInWei the amount of ether (in Wei) to send\r\n   * @param _to address of the beneficiary\r\n   * @param _avatar the organization avatar.\r\n   * @return bool which represents a success\r\n   */\r\n    function sendEther(uint _amountInWei, address _to,address _avatar)\r\n    external\r\n    onlyRegisteredScheme(_avatar)\r\n    onlySubjectToConstraint(\"sendEther\",_avatar)\r\n    returns(bool)\r\n    {\r\n        emit SendEther(msg.sender, _amountInWei, _to);\r\n        return (Avatar(_avatar)).sendEther(_amountInWei, _to);\r\n    }\r\n\r\n    /**\r\n    * @dev send some amount of arbitrary ERC20 Tokens\r\n    * @param _externalToken the address of the Token Contract\r\n    * @param _to address of the beneficiary\r\n    * @param _value the amount of ether (in Wei) to send\r\n    * @param _avatar the organization avatar.\r\n    * @return bool which represents a success\r\n    */\r\n    function externalTokenTransfer(StandardToken _externalToken, address _to, uint _value,address _avatar)\r\n    external\r\n    onlyRegisteredScheme(_avatar)\r\n    onlySubjectToConstraint(\"externalTokenTransfer\",_avatar)\r\n    returns(bool)\r\n    {\r\n        emit ExternalTokenTransfer(msg.sender, _externalToken, _to, _value);\r\n        return (Avatar(_avatar)).externalTokenTransfer(_externalToken, _to, _value);\r\n    }\r\n\r\n    /**\r\n    * @dev transfer token \"from\" address \"to\" address\r\n    *      One must to approve the amount of tokens which can be spend from the\r\n    *      \"from\" account.This can be done using externalTokenApprove.\r\n    * @param _externalToken the address of the Token Contract\r\n    * @param _from address of the account to send from\r\n    * @param _to address of the beneficiary\r\n    * @param _value the amount of ether (in Wei) to send\r\n    * @param _avatar the organization avatar.\r\n    * @return bool which represents a success\r\n    */\r\n    function externalTokenTransferFrom(StandardToken _externalToken, address _from, address _to, uint _value,address _avatar)\r\n    external\r\n    onlyRegisteredScheme(_avatar)\r\n    onlySubjectToConstraint(\"externalTokenTransferFrom\",_avatar)\r\n    returns(bool)\r\n    {\r\n        emit ExternalTokenTransferFrom(msg.sender, _externalToken, _from, _to, _value);\r\n        return (Avatar(_avatar)).externalTokenTransferFrom(_externalToken, _from, _to, _value);\r\n    }\r\n\r\n    /**\r\n    * @dev increase approval for the spender address to spend a specified amount of tokens\r\n    *      on behalf of msg.sender.\r\n    * @param _externalToken the address of the Token Contract\r\n    * @param _spender address\r\n    * @param _addedValue the amount of ether (in Wei) which the approval is referring to.\r\n    * @param _avatar the organization avatar.\r\n    * @return bool which represents a success\r\n    */\r\n    function externalTokenIncreaseApproval(StandardToken _externalToken, address _spender, uint _addedValue,address _avatar)\r\n    external\r\n    onlyRegisteredScheme(_avatar)\r\n    onlySubjectToConstraint(\"externalTokenIncreaseApproval\",_avatar)\r\n    returns(bool)\r\n    {\r\n        emit ExternalTokenIncreaseApproval(msg.sender,_externalToken,_spender,_addedValue);\r\n        return (Avatar(_avatar)).externalTokenIncreaseApproval(_externalToken, _spender, _addedValue);\r\n    }\r\n\r\n    /**\r\n    * @dev decrease approval for the spender address to spend a specified amount of tokens\r\n    *      on behalf of msg.sender.\r\n    * @param _externalToken the address of the Token Contract\r\n    * @param _spender address\r\n    * @param _subtractedValue the amount of ether (in Wei) which the approval is referring to.\r\n    * @param _avatar the organization avatar.\r\n    * @return bool which represents a success\r\n    */\r\n    function externalTokenDecreaseApproval(StandardToken _externalToken, address _spender, uint _subtractedValue,address _avatar)\r\n    external\r\n    onlyRegisteredScheme(_avatar)\r\n    onlySubjectToConstraint(\"externalTokenDecreaseApproval\",_avatar)\r\n    returns(bool)\r\n    {\r\n        emit ExternalTokenDecreaseApproval(msg.sender,_externalToken,_spender,_subtractedValue);\r\n        return (Avatar(_avatar)).externalTokenDecreaseApproval(_externalToken, _spender, _subtractedValue);\r\n    }\r\n\r\n    /**\r\n     * @dev getNativeReputation\r\n     * @param _avatar the organization avatar.\r\n     * @return organization native reputation\r\n     */\r\n    function getNativeReputation(address _avatar) external view returns(address) {\r\n        return address(organizations[_avatar].nativeReputation);\r\n    }\r\n\r\n    /**\r\n     * @dev removeGlobalConstraintPre\r\n     * @param _globalConstraint the address of the global constraint to be remove.\r\n     * @param _avatar the organization avatar.\r\n     * @return bool which represents a success\r\n     */\r\n    function removeGlobalConstraintPre(address _globalConstraint,address _avatar)\r\n    private returns(bool)\r\n    {\r\n        GlobalConstraintRegister memory globalConstraintRegister = organizations[_avatar].globalConstraintsRegisterPre[_globalConstraint];\r\n        GlobalConstraint[] storage globalConstraints = organizations[_avatar].globalConstraintsPre;\r\n\r\n        if (globalConstraintRegister.isRegistered) {\r\n            if (globalConstraintRegister.index < globalConstraints.length-1) {\r\n                GlobalConstraint memory globalConstraint = globalConstraints[globalConstraints.length-1];\r\n                globalConstraints[globalConstraintRegister.index] = globalConstraint;\r\n                organizations[_avatar].globalConstraintsRegisterPre[globalConstraint.gcAddress].index = globalConstraintRegister.index;\r\n              }\r\n            globalConstraints.length--;\r\n            delete organizations[_avatar].globalConstraintsRegisterPre[_globalConstraint];\r\n            emit RemoveGlobalConstraint(_globalConstraint,globalConstraintRegister.index,true,_avatar);\r\n            return true;\r\n        }\r\n        return false;\r\n    }\r\n\r\n    /**\r\n     * @dev removeGlobalConstraintPost\r\n     * @param _globalConstraint the address of the global constraint to be remove.\r\n     * @param _avatar the organization avatar.\r\n     * @return bool which represents a success\r\n     */\r\n    function removeGlobalConstraintPost(address _globalConstraint,address _avatar)\r\n    private returns(bool)\r\n    {\r\n        GlobalConstraintRegister memory globalConstraintRegister = organizations[_avatar].globalConstraintsRegisterPost[_globalConstraint];\r\n        GlobalConstraint[] storage globalConstraints = organizations[_avatar].globalConstraintsPost;\r\n\r\n        if (globalConstraintRegister.isRegistered) {\r\n            if (globalConstraintRegister.index < globalConstraints.length-1) {\r\n                GlobalConstraint memory globalConstraint = globalConstraints[globalConstraints.length-1];\r\n                globalConstraints[globalConstraintRegister.index] = globalConstraint;\r\n                organizations[_avatar].globalConstraintsRegisterPost[globalConstraint.gcAddress].index = globalConstraintRegister.index;\r\n              }\r\n            globalConstraints.length--;\r\n            delete organizations[_avatar].globalConstraintsRegisterPost[_globalConstraint];\r\n            emit RemoveGlobalConstraint(_globalConstraint,globalConstraintRegister.index,false,_avatar);\r\n            return true;\r\n        }\r\n        return false;\r\n    }\r\n\r\n    function _isSchemeRegistered( address _scheme,address _avatar) private view returns(bool) {\r\n        return (organizations[_avatar].schemes[_scheme].permissions&bytes4(1) != bytes4(0));\r\n    }\r\n}\r\n",
  "sourcePath": "C:\\users\\dkent\\documents\\projects\\github\\daostack\\arc\\contracts\\controller\\UController.sol",
  "compiler": {
    "name": "solc",
    "version": "0.4.24+commit.e67f0147.Emscripten.clang"
  },
  "schemaVersion": "2.0.0",
  "updatedAt": "2018-07-21T19:59:28.397Z"
}