{
  "contractName": "UpgradeScheme",
  "abi": [
    {
      "constant": true,
      "inputs": [
        {
          "name": "",
          "type": "bytes32"
        }
      ],
      "name": "parameters",
      "outputs": [
        {
          "name": "voteParams",
          "type": "bytes32"
        },
        {
          "name": "intVote",
          "type": "address"
        }
      ],
      "payable": false,
      "stateMutability": "view",
      "type": "function"
    },
    {
      "constant": true,
      "inputs": [
        {
          "name": "",
          "type": "address"
        },
        {
          "name": "",
          "type": "bytes32"
        }
      ],
      "name": "organizationsProposals",
      "outputs": [
        {
          "name": "upgradeContract",
          "type": "address"
        },
        {
          "name": "params",
          "type": "bytes32"
        },
        {
          "name": "proposalType",
          "type": "uint256"
        }
      ],
      "payable": false,
      "stateMutability": "view",
      "type": "function"
    },
    {
      "constant": false,
      "inputs": [
        {
          "name": "_hashedParameters",
          "type": "bytes32"
        }
      ],
      "name": "updateParameters",
      "outputs": [],
      "payable": false,
      "stateMutability": "nonpayable",
      "type": "function"
    },
    {
      "constant": false,
      "inputs": [],
      "name": "renounceOwnership",
      "outputs": [],
      "payable": false,
      "stateMutability": "nonpayable",
      "type": "function"
    },
    {
      "constant": true,
      "inputs": [],
      "name": "owner",
      "outputs": [
        {
          "name": "",
          "type": "address"
        }
      ],
      "payable": false,
      "stateMutability": "view",
      "type": "function"
    },
    {
      "constant": false,
      "inputs": [
        {
          "name": "_newOwner",
          "type": "address"
        }
      ],
      "name": "transferOwnership",
      "outputs": [],
      "payable": false,
      "stateMutability": "nonpayable",
      "type": "function"
    },
    {
      "constant": true,
      "inputs": [],
      "name": "hashedParameters",
      "outputs": [
        {
          "name": "",
          "type": "bytes32"
        }
      ],
      "payable": false,
      "stateMutability": "view",
      "type": "function"
    },
    {
      "anonymous": false,
      "inputs": [
        {
          "indexed": true,
          "name": "_avatar",
          "type": "address"
        },
        {
          "indexed": true,
          "name": "_proposalId",
          "type": "bytes32"
        },
        {
          "indexed": true,
          "name": "_intVoteInterface",
          "type": "address"
        },
        {
          "indexed": false,
          "name": "_newController",
          "type": "address"
        }
      ],
      "name": "NewUpgradeProposal",
      "type": "event"
    },
    {
      "anonymous": false,
      "inputs": [
        {
          "indexed": true,
          "name": "_avatar",
          "type": "address"
        },
        {
          "indexed": true,
          "name": "_proposalId",
          "type": "bytes32"
        },
        {
          "indexed": true,
          "name": "_intVoteInterface",
          "type": "address"
        },
        {
          "indexed": false,
          "name": "_newUpgradeScheme",
          "type": "address"
        },
        {
          "indexed": false,
          "name": "_params",
          "type": "bytes32"
        }
      ],
      "name": "ChangeUpgradeSchemeProposal",
      "type": "event"
    },
    {
      "anonymous": false,
      "inputs": [
        {
          "indexed": true,
          "name": "_avatar",
          "type": "address"
        },
        {
          "indexed": true,
          "name": "_proposalId",
          "type": "bytes32"
        },
        {
          "indexed": false,
          "name": "_param",
          "type": "int256"
        }
      ],
      "name": "ProposalExecuted",
      "type": "event"
    },
    {
      "anonymous": false,
      "inputs": [
        {
          "indexed": true,
          "name": "_avatar",
          "type": "address"
        },
        {
          "indexed": true,
          "name": "_proposalId",
          "type": "bytes32"
        }
      ],
      "name": "ProposalDeleted",
      "type": "event"
    },
    {
      "anonymous": false,
      "inputs": [
        {
          "indexed": true,
          "name": "previousOwner",
          "type": "address"
        }
      ],
      "name": "OwnershipRenounced",
      "type": "event"
    },
    {
      "anonymous": false,
      "inputs": [
        {
          "indexed": true,
          "name": "previousOwner",
          "type": "address"
        },
        {
          "indexed": true,
          "name": "newOwner",
          "type": "address"
        }
      ],
      "name": "OwnershipTransferred",
      "type": "event"
    },
    {
      "constant": false,
      "inputs": [
        {
          "name": "_voteParams",
          "type": "bytes32"
        },
        {
          "name": "_intVote",
          "type": "address"
        }
      ],
      "name": "setParameters",
      "outputs": [
        {
          "name": "",
          "type": "bytes32"
        }
      ],
      "payable": false,
      "stateMutability": "nonpayable",
      "type": "function"
    },
    {
      "constant": true,
      "inputs": [
        {
          "name": "_voteParams",
          "type": "bytes32"
        },
        {
          "name": "_intVote",
          "type": "address"
        }
      ],
      "name": "getParametersHash",
      "outputs": [
        {
          "name": "",
          "type": "bytes32"
        }
      ],
      "payable": false,
      "stateMutability": "pure",
      "type": "function"
    },
    {
      "constant": false,
      "inputs": [
        {
          "name": "_avatar",
          "type": "address"
        },
        {
          "name": "_newController",
          "type": "address"
        }
      ],
      "name": "proposeUpgrade",
      "outputs": [
        {
          "name": "",
          "type": "bytes32"
        }
      ],
      "payable": false,
      "stateMutability": "nonpayable",
      "type": "function"
    },
    {
      "constant": false,
      "inputs": [
        {
          "name": "_avatar",
          "type": "address"
        },
        {
          "name": "_scheme",
          "type": "address"
        },
        {
          "name": "_params",
          "type": "bytes32"
        }
      ],
      "name": "proposeChangeUpgradingScheme",
      "outputs": [
        {
          "name": "",
          "type": "bytes32"
        }
      ],
      "payable": false,
      "stateMutability": "nonpayable",
      "type": "function"
    },
    {
      "constant": false,
      "inputs": [
        {
          "name": "_proposalId",
          "type": "bytes32"
        },
        {
          "name": "_avatar",
          "type": "address"
        },
        {
          "name": "_param",
          "type": "int256"
        }
      ],
      "name": "execute",
      "outputs": [
        {
          "name": "",
          "type": "bool"
        }
      ],
      "payable": false,
      "stateMutability": "nonpayable",
      "type": "function"
    }
  ],
  "bytecode": "0x608060405260008054600160a060020a0319163317905561101b806100256000396000f3006080604052600436106100a05763ffffffff60e060020a6000350416630250680481146100a5578063049a8170146100de57806306e3a9781461011a5780632453732a146101665780632ac2af531461018a578063310ce4e2146101a457806368e14dac146101df578063715018a614610203578063887fbd1c146102185780638da5cb5b1461023f578063f2fde38b14610270578063f98e87ba14610291575b600080fd5b3480156100b157600080fd5b506100bd6004356102a6565b60408051928352600160a060020a0390911660208301528051918290030190f35b3480156100ea57600080fd5b50610108600160a060020a03600435811690602435166044356102c8565b60408051918252519081900360200190f35b34801561012657600080fd5b5061013e600160a060020a0360043516602435610556565b60408051600160a060020a039094168452602084019290925282820152519081900360600190f35b34801561017257600080fd5b50610108600435600160a060020a036024351661058a565b34801561019657600080fd5b506101a2600435610628565b005b3480156101b057600080fd5b506101cb600435600160a060020a0360243516604435610644565b604080519115158252519081900360200190f35b3480156101eb57600080fd5b50610108600435600160a060020a0360243516610ae5565b34801561020f57600080fd5b506101a2610b3a565b34801561022457600080fd5b50610108600160a060020a0360043581169060243516610ba6565b34801561024b57600080fd5b50610254610dfa565b60408051600160a060020a039092168252519081900360200190f35b34801561027c57600080fd5b506101a2600160a060020a0360043516610e09565b34801561029d57600080fd5b50610108610e2c565b60036020526000908152604090208054600190910154600160a060020a031682565b60006102d2610fb8565b6000806102dd610fcf565b600360006102ea8a610e32565b815260208082019290925260409081016000908120825180840184528154808252600190920154600160a060020a0390811682870181905285517f0905c9f9000000000000000000000000000000000000000000000000000000008152600260048201526024810194909452908e16604484015230606484015233608484015293519098509296508693630905c9f99360a48084019492939192918390030190829087803b15801561039b57600080fd5b505af11580156103af573d6000803e3d6000fd5b505050506040513d60208110156103c557600080fd5b5051600160a060020a03891660009081526002602081815260408084208585529091529091200154909250156103fa57600080fd5b5060408051606081018252600160a060020a0388811680835260208084018a815260028587018181528e861660008181528386528981208b825286528990208851815473ffffffffffffffffffffffffffffffffffffffff191690891617815593516001850155905192909101919091558882015186519384529183018b90528551949591909316938693927fa7fae9696194133d49db2024f63bc78c615866be90477c9b2c6ea54c8153893d92908290030190a4604080517f339e23d100000000000000000000000000000000000000000000000000000000815260048101849052600160248201523360448201529051600160a060020a0385169163339e23d19160648083019260209291908290030181600087803b15801561051e57600080fd5b505af1158015610532573d6000803e3d6000fd5b505050506040513d602081101561054857600080fd5b509198975050505050505050565b60026020818152600093845260408085209091529183529120805460018201549190920154600160a060020a039092169183565b6040805160208082018590526c01000000000000000000000000600160a060020a0385160282840152825160348184030181526054909201928390528151600093918291908401908083835b602083106105f55780518252601f1990920191602091820191016105d6565b5181516020939093036101000a600019018019909116921691909117905260405192018290039091209695505050505050565b600054600160a060020a0316331461063f57600080fd5b600155565b600061064e610fcf565b6000803360038261065e89610e32565b8152602081019190915260400160002060010154600160a060020a03161461068557600080fd5b600160a060020a0380871660009081526002602081815260408084208c8552825292839020835160608101855281549095168552600181015491850191909152015490820181905290935015156106db57600080fd5b600160a060020a03861660008181526002602081815260408084208c8552909152808320805473ffffffffffffffffffffffffffffffffffffffff1916815560018101849055909101829055518992917f6bc0cb9e9967b59a69ace442598e1df4368d38661bd5c0800fbcbc9fe855fbbe91a38460011415610a985785600160a060020a0316638da5cb5b6040518163ffffffff1660e060020a028152600401602060405180830381600087803b15801561079557600080fd5b505af11580156107a9573d6000803e3d6000fd5b505050506040513d60208110156107bf57600080fd5b5051604084015190925060011415610877578251604080517f42427bf8000000000000000000000000000000000000000000000000000000008152600160a060020a03928316600482015288831660248201529051918416916342427bf8916044808201926020929091908290030181600087803b15801561084057600080fd5b505af1158015610854573d6000803e3d6000fd5b505050506040513d602081101561086a57600080fd5b5051151561087757600080fd5b826040015160021415610a9857604080517f9b51e35a000000000000000000000000000000000000000000000000000000008152306004820152600160a060020a038881166024830152915191841691639b51e35a916044808201926020929091908290030181600087803b1580156108ef57600080fd5b505af1158015610903573d6000803e3d6000fd5b505050506040513d602081101561091957600080fd5b50518351602085810151604080517fe869d45f000000000000000000000000000000000000000000000000000000008152600160a060020a03948516600482015260248101929092527fffffffff00000000000000000000000000000000000000000000000000000000851660448301528a84166064830152519394509185169263e869d45f9260848082019392918290030181600087803b1580156109be57600080fd5b505af11580156109d2573d6000803e3d6000fd5b505050506040513d60208110156109e857600080fd5b505115156109f557600080fd5b8251600160a060020a03163014610a985781600160a060020a0316636c525b13876040518263ffffffff1660e060020a0281526004018082600160a060020a0316600160a060020a03168152602001915050602060405180830381600087803b158015610a6157600080fd5b505af1158015610a75573d6000803e3d6000fd5b505050506040513d6020811015610a8b57600080fd5b50511515610a9857600080fd5b6040805186815290518891600160a060020a038916917fd2632e80f5364f02aded1c64e8a04637b7c8bb9c2db2bedf4b6ac47c013acbc09181900360200190a35060019695505050505050565b600080610af2848461058a565b60008181526003602052604090208581556001018054600160a060020a03861673ffffffffffffffffffffffffffffffffffffffff1990911617905591508190505092915050565b600054600160a060020a03163314610b5157600080fd5b60008054604051600160a060020a03909116917ff8df31144d9c2f0f6b59d69b8b98abd5459d07f2742c4df920b25aae33c6482091a26000805473ffffffffffffffffffffffffffffffffffffffff19169055565b6000610bb0610fb8565b6000610bba610fcf565b60036000610bc788610e32565b815260208082019290925260409081016000908120825180840184528154808252600190920154600160a060020a0390811682870181905285517f0905c9f9000000000000000000000000000000000000000000000000000000008152600260048201526024810194909452908c16604484015230606484015233608484015293519097509293630905c9f99360a48084019492939192918390030190829087803b158015610c7557600080fd5b505af1158015610c89573d6000803e3d6000fd5b505050506040513d6020811015610c9f57600080fd5b505160408051606081018252600160a060020a038881168083526000602080850182815260018688018181528f871680865260028086528a87208c88528652958a90208951815473ffffffffffffffffffffffffffffffffffffffff1916908a16178155935192840192909255519190930155898101518651938452955196985093965093909116938693927fb0a346e68cf44757c17c633968bb9f5aa57386c65a96244b1f9ce192414a0e60928290030190a4602080840151604080517f339e23d100000000000000000000000000000000000000000000000000000000815260048101869052600160248201523360448201529051600160a060020a039092169263339e23d1926064808401938290030181600087803b158015610dc457600080fd5b505af1158015610dd8573d6000803e3d6000fd5b505050506040513d6020811015610dee57600080fd5b50919695505050505050565b600054600160a060020a031681565b600054600160a060020a03163314610e2057600080fd5b610e2981610f3b565b50565b60015481565b600081600160a060020a0316638da5cb5b6040518163ffffffff1660e060020a028152600401602060405180830381600087803b158015610e7257600080fd5b505af1158015610e86573d6000803e3d6000fd5b505050506040513d6020811015610e9c57600080fd5b5051604080517f1c4d5608000000000000000000000000000000000000000000000000000000008152306004820152600160a060020a03858116602483015291519190921691631c4d56089160448083019260209291908290030181600087803b158015610f0957600080fd5b505af1158015610f1d573d6000803e3d6000fd5b505050506040513d6020811015610f3357600080fd5b505192915050565b600160a060020a0381161515610f5057600080fd5b60008054604051600160a060020a03808516939216917f8be0079c531659141344cd1fd0a4f28419497f9722a3daafe3b4186f6b6457e091a36000805473ffffffffffffffffffffffffffffffffffffffff1916600160a060020a0392909216919091179055565b604080518082019091526000808252602082015290565b6040805160608101825260008082526020820181905291810191909152905600a165627a7a72305820ba79d8aa648b2585f47508fbe61020ec6b44024102499bce3e02196c406458f90029",
  "source": "pragma solidity ^0.4.24;\r\n\r\nimport \"../VotingMachines/IntVoteInterface.sol\";\r\nimport \"./UniversalScheme.sol\";\r\n\r\n\r\n/**\r\n * @title A scheme to manage the upgrade of an organization.\r\n * @dev The scheme is used to upgrade the controller of an organization to a new controller.\r\n */\r\n\r\ncontract UpgradeScheme is UniversalScheme, ExecutableInterface {\r\n    event NewUpgradeProposal(\r\n        address indexed _avatar,\r\n        bytes32 indexed _proposalId,\r\n        address indexed _intVoteInterface,\r\n        address _newController\r\n    );\r\n    event ChangeUpgradeSchemeProposal(\r\n        address indexed _avatar,\r\n        bytes32 indexed _proposalId,\r\n        address indexed _intVoteInterface,\r\n        address _newUpgradeScheme,\r\n        bytes32 _params\r\n    );\r\n    event ProposalExecuted(address indexed _avatar, bytes32 indexed _proposalId,int _param);\r\n    event ProposalDeleted(address indexed _avatar, bytes32 indexed _proposalId);\r\n\r\n    // Details of an upgrade proposal:\r\n    struct UpgradeProposal {\r\n        address upgradeContract; // Either the new controller we upgrade to, or the new upgrading scheme.\r\n        bytes32 params; // Params for the new upgrading scheme.\r\n        uint proposalType; // 1: Upgrade controller, 2: change upgrade scheme.\r\n    }\r\n\r\n    // A mapping from the organization's (Avatar) address to the saved data of the organization:\r\n    mapping(address=>mapping(bytes32=>UpgradeProposal)) public organizationsProposals;\r\n\r\n    // A mapping from hashes to parameters (use to store a particular configuration on the controller)\r\n    struct Parameters {\r\n        bytes32 voteParams;\r\n        IntVoteInterface intVote;\r\n    }\r\n\r\n    mapping(bytes32=>Parameters) public parameters;\r\n\r\n    /**\r\n    * @dev hash the parameters, save them if necessary, and return the hash value\r\n    */\r\n    function setParameters(\r\n        bytes32 _voteParams,\r\n        IntVoteInterface _intVote\r\n    ) public returns(bytes32)\r\n    {\r\n        bytes32 paramsHash = getParametersHash(_voteParams, _intVote);\r\n        parameters[paramsHash].voteParams = _voteParams;\r\n        parameters[paramsHash].intVote = _intVote;\r\n        return paramsHash;\r\n    }\r\n\r\n    /**\r\n    * @dev return a hash of the given parameters\r\n    */\r\n    function getParametersHash(\r\n        bytes32 _voteParams,\r\n        IntVoteInterface _intVote\r\n    ) public pure returns(bytes32)\r\n    {\r\n        return  (keccak256(abi.encodePacked(_voteParams, _intVote)));\r\n    }\r\n\r\n    /**\r\n    * @dev propose an upgrade of the organization's controller\r\n    * @param _avatar avatar of the organization\r\n    * @param _newController address of the new controller that is being proposed\r\n    * @return an id which represents the proposal\r\n    */\r\n    function proposeUpgrade(Avatar _avatar, address _newController)\r\n        public\r\n        returns(bytes32)\r\n    {\r\n        Parameters memory params = parameters[getParametersFromController(_avatar)];\r\n        bytes32 proposalId = params.intVote.propose(2, params.voteParams, _avatar, ExecutableInterface(this),msg.sender);\r\n        UpgradeProposal memory proposal = UpgradeProposal({\r\n            proposalType: 1,\r\n            upgradeContract: _newController,\r\n            params: bytes32(0)\r\n        });\r\n        organizationsProposals[_avatar][proposalId] = proposal;\r\n        emit NewUpgradeProposal(_avatar, proposalId, params.intVote, _newController);\r\n        params.intVote.ownerVote(proposalId, 1, msg.sender); // Automatically votes `yes` in the name of the proposal submitter.*/\r\n        return proposalId;\r\n    }\r\n\r\n    /**\r\n    * @dev propose to replace this scheme by another upgrading scheme\r\n    * @param _avatar avatar of the organization\r\n    * @param _scheme address of the new upgrading scheme\r\n    * @param _params ???\r\n    * @return an id which represents the proposal\r\n    */\r\n    function proposeChangeUpgradingScheme(\r\n        Avatar _avatar,\r\n        address _scheme,\r\n        bytes32 _params\r\n    )\r\n        public\r\n        returns(bytes32)\r\n    {\r\n        Parameters memory params = parameters[getParametersFromController(_avatar)];\r\n        IntVoteInterface intVote = params.intVote;\r\n        bytes32 proposalId = intVote.propose(2, params.voteParams, _avatar, ExecutableInterface(this),msg.sender);\r\n        require(organizationsProposals[_avatar][proposalId].proposalType == 0);\r\n\r\n        UpgradeProposal memory proposal = UpgradeProposal({\r\n            proposalType: 2,\r\n            upgradeContract: _scheme,\r\n            params: _params\r\n        });\r\n        organizationsProposals[_avatar][proposalId] = proposal;\r\n\r\n        emit ChangeUpgradeSchemeProposal(\r\n            _avatar,\r\n            proposalId,\r\n            params.intVote,\r\n            _scheme,\r\n            _params\r\n        );\r\n        intVote.ownerVote(proposalId, 1, msg.sender); // Automatically votes `yes` in the name of the opener.\r\n        return proposalId;\r\n    }\r\n\r\n    /**\r\n    * @dev execution of proposals, can only be called by the voting machine in which the vote is held.\r\n    * @param _proposalId the ID of the voting in the voting machine\r\n    * @param _avatar address of the controller\r\n    * @param _param a parameter of the voting result, 0 is no and 1 is yes.\r\n    */\r\n    function execute(bytes32 _proposalId, address _avatar, int _param) public returns(bool) {\r\n        // Check the caller is indeed the voting machine:\r\n        require(parameters[getParametersFromController(Avatar(_avatar))].intVote == msg.sender);\r\n        UpgradeProposal memory proposal = organizationsProposals[_avatar][_proposalId];\r\n        require(proposal.proposalType != 0);\r\n        delete organizationsProposals[_avatar][_proposalId];\r\n        emit ProposalDeleted(_avatar,_proposalId);\r\n        // Check if vote was successful:\r\n        if (_param == 1) {\r\n\r\n        // Define controller and get the params:\r\n            ControllerInterface controller = ControllerInterface(Avatar(_avatar).owner());\r\n        // Upgrading controller:\r\n            if (proposal.proposalType == 1) {\r\n                require(controller.upgradeController(proposal.upgradeContract,_avatar));\r\n            }\r\n\r\n        // Changing upgrade scheme:\r\n            if (proposal.proposalType == 2) {\r\n                bytes4 permissions = controller.getSchemePermissions(this,_avatar);\r\n\r\n                require(controller.registerScheme(proposal.upgradeContract, proposal.params, permissions,_avatar));\r\n                if (proposal.upgradeContract != address(this) ) {\r\n                    require(controller.unregisterSelf(_avatar));\r\n                    }\r\n                  }\r\n        }\r\n        emit ProposalExecuted(_avatar, _proposalId,_param);\r\n        return true;\r\n    }\r\n}\r\n",
  "sourcePath": "C:\\users\\dkent\\documents\\projects\\github\\daostack\\arc\\contracts\\universalSchemes\\UpgradeScheme.sol",
  "compiler": {
    "name": "solc",
    "version": "0.4.24+commit.e67f0147.Emscripten.clang"
  },
  "schemaVersion": "2.0.0",
  "updatedAt": "2018-07-21T19:59:28.295Z"
}