{
  "contractName": "VestingScheme",
  "abi": [
    {
      "constant": true,
      "inputs": [
        {
          "name": "",
          "type": "bytes32"
        }
      ],
      "name": "parameters",
      "outputs": [
        {
          "name": "voteParams",
          "type": "bytes32"
        },
        {
          "name": "intVote",
          "type": "address"
        }
      ],
      "payable": false,
      "stateMutability": "view",
      "type": "function"
    },
    {
      "constant": true,
      "inputs": [
        {
          "name": "",
          "type": "address"
        },
        {
          "name": "",
          "type": "bytes32"
        }
      ],
      "name": "organizationsProposals",
      "outputs": [
        {
          "name": "token",
          "type": "address"
        },
        {
          "name": "beneficiary",
          "type": "address"
        },
        {
          "name": "returnOnCancelAddress",
          "type": "address"
        },
        {
          "name": "startingBlock",
          "type": "uint256"
        },
        {
          "name": "amountPerPeriod",
          "type": "uint256"
        },
        {
          "name": "periodLength",
          "type": "uint256"
        },
        {
          "name": "numOfAgreedPeriods",
          "type": "uint256"
        },
        {
          "name": "cliffInPeriods",
          "type": "uint256"
        },
        {
          "name": "signaturesReqToCancel",
          "type": "uint256"
        },
        {
          "name": "collectedPeriods",
          "type": "uint256"
        },
        {
          "name": "signaturesReceivedCounter",
          "type": "uint256"
        }
      ],
      "payable": false,
      "stateMutability": "view",
      "type": "function"
    },
    {
      "constant": false,
      "inputs": [
        {
          "name": "_hashedParameters",
          "type": "bytes32"
        }
      ],
      "name": "updateParameters",
      "outputs": [],
      "payable": false,
      "stateMutability": "nonpayable",
      "type": "function"
    },
    {
      "constant": false,
      "inputs": [],
      "name": "renounceOwnership",
      "outputs": [],
      "payable": false,
      "stateMutability": "nonpayable",
      "type": "function"
    },
    {
      "constant": true,
      "inputs": [],
      "name": "owner",
      "outputs": [
        {
          "name": "",
          "type": "address"
        }
      ],
      "payable": false,
      "stateMutability": "view",
      "type": "function"
    },
    {
      "constant": true,
      "inputs": [
        {
          "name": "",
          "type": "uint256"
        }
      ],
      "name": "agreements",
      "outputs": [
        {
          "name": "token",
          "type": "address"
        },
        {
          "name": "beneficiary",
          "type": "address"
        },
        {
          "name": "returnOnCancelAddress",
          "type": "address"
        },
        {
          "name": "startingBlock",
          "type": "uint256"
        },
        {
          "name": "amountPerPeriod",
          "type": "uint256"
        },
        {
          "name": "periodLength",
          "type": "uint256"
        },
        {
          "name": "numOfAgreedPeriods",
          "type": "uint256"
        },
        {
          "name": "cliffInPeriods",
          "type": "uint256"
        },
        {
          "name": "signaturesReqToCancel",
          "type": "uint256"
        },
        {
          "name": "collectedPeriods",
          "type": "uint256"
        },
        {
          "name": "signaturesReceivedCounter",
          "type": "uint256"
        }
      ],
      "payable": false,
      "stateMutability": "view",
      "type": "function"
    },
    {
      "constant": false,
      "inputs": [
        {
          "name": "_newOwner",
          "type": "address"
        }
      ],
      "name": "transferOwnership",
      "outputs": [],
      "payable": false,
      "stateMutability": "nonpayable",
      "type": "function"
    },
    {
      "constant": true,
      "inputs": [],
      "name": "hashedParameters",
      "outputs": [
        {
          "name": "",
          "type": "bytes32"
        }
      ],
      "payable": false,
      "stateMutability": "view",
      "type": "function"
    },
    {
      "constant": true,
      "inputs": [],
      "name": "agreementsCounter",
      "outputs": [
        {
          "name": "",
          "type": "uint256"
        }
      ],
      "payable": false,
      "stateMutability": "view",
      "type": "function"
    },
    {
      "anonymous": false,
      "inputs": [
        {
          "indexed": true,
          "name": "_avatar",
          "type": "address"
        },
        {
          "indexed": true,
          "name": "_proposalId",
          "type": "bytes32"
        },
        {
          "indexed": false,
          "name": "_param",
          "type": "int256"
        }
      ],
      "name": "ProposalExecuted",
      "type": "event"
    },
    {
      "anonymous": false,
      "inputs": [
        {
          "indexed": true,
          "name": "_avatar",
          "type": "address"
        },
        {
          "indexed": true,
          "name": "_proposalId",
          "type": "bytes32"
        }
      ],
      "name": "ProposalDeleted",
      "type": "event"
    },
    {
      "anonymous": false,
      "inputs": [
        {
          "indexed": true,
          "name": "_avatar",
          "type": "address"
        },
        {
          "indexed": true,
          "name": "_proposalId",
          "type": "bytes32"
        }
      ],
      "name": "AgreementProposal",
      "type": "event"
    },
    {
      "anonymous": false,
      "inputs": [
        {
          "indexed": true,
          "name": "_agreementId",
          "type": "uint256"
        }
      ],
      "name": "NewVestedAgreement",
      "type": "event"
    },
    {
      "anonymous": false,
      "inputs": [
        {
          "indexed": true,
          "name": "_agreementId",
          "type": "uint256"
        },
        {
          "indexed": true,
          "name": "_proposalId",
          "type": "bytes32"
        }
      ],
      "name": "ProposedVestedAgreement",
      "type": "event"
    },
    {
      "anonymous": false,
      "inputs": [
        {
          "indexed": true,
          "name": "_agreementId",
          "type": "uint256"
        },
        {
          "indexed": true,
          "name": "_signer",
          "type": "address"
        }
      ],
      "name": "SignToCancelAgreement",
      "type": "event"
    },
    {
      "anonymous": false,
      "inputs": [
        {
          "indexed": true,
          "name": "_agreementId",
          "type": "uint256"
        },
        {
          "indexed": true,
          "name": "_signer",
          "type": "address"
        }
      ],
      "name": "RevokeSignToCancelAgreement",
      "type": "event"
    },
    {
      "anonymous": false,
      "inputs": [
        {
          "indexed": true,
          "name": "_agreementId",
          "type": "uint256"
        }
      ],
      "name": "AgreementCancel",
      "type": "event"
    },
    {
      "anonymous": false,
      "inputs": [
        {
          "indexed": true,
          "name": "_agreementId",
          "type": "uint256"
        }
      ],
      "name": "Collect",
      "type": "event"
    },
    {
      "anonymous": false,
      "inputs": [
        {
          "indexed": true,
          "name": "previousOwner",
          "type": "address"
        }
      ],
      "name": "OwnershipRenounced",
      "type": "event"
    },
    {
      "anonymous": false,
      "inputs": [
        {
          "indexed": true,
          "name": "previousOwner",
          "type": "address"
        },
        {
          "indexed": true,
          "name": "newOwner",
          "type": "address"
        }
      ],
      "name": "OwnershipTransferred",
      "type": "event"
    },
    {
      "constant": false,
      "inputs": [
        {
          "name": "_beneficiary",
          "type": "address"
        },
        {
          "name": "_returnOnCancelAddress",
          "type": "address"
        },
        {
          "name": "_startingBlock",
          "type": "uint256"
        },
        {
          "name": "_amountPerPeriod",
          "type": "uint256"
        },
        {
          "name": "_periodLength",
          "type": "uint256"
        },
        {
          "name": "_numOfAgreedPeriods",
          "type": "uint256"
        },
        {
          "name": "_cliffInPeriods",
          "type": "uint256"
        },
        {
          "name": "_signaturesReqToCancel",
          "type": "uint256"
        },
        {
          "name": "_signersArray",
          "type": "address[]"
        },
        {
          "name": "_avatar",
          "type": "address"
        }
      ],
      "name": "proposeVestingAgreement",
      "outputs": [
        {
          "name": "",
          "type": "bytes32"
        }
      ],
      "payable": false,
      "stateMutability": "nonpayable",
      "type": "function"
    },
    {
      "constant": false,
      "inputs": [
        {
          "name": "_token",
          "type": "address"
        },
        {
          "name": "_beneficiary",
          "type": "address"
        },
        {
          "name": "_returnOnCancelAddress",
          "type": "address"
        },
        {
          "name": "_startingBlock",
          "type": "uint256"
        },
        {
          "name": "_amountPerPeriod",
          "type": "uint256"
        },
        {
          "name": "_periodLength",
          "type": "uint256"
        },
        {
          "name": "_numOfAgreedPeriods",
          "type": "uint256"
        },
        {
          "name": "_cliffInPeriods",
          "type": "uint256"
        },
        {
          "name": "_signaturesReqToCancel",
          "type": "uint256"
        },
        {
          "name": "_signersArray",
          "type": "address[]"
        }
      ],
      "name": "createVestedAgreement",
      "outputs": [
        {
          "name": "",
          "type": "uint256"
        }
      ],
      "payable": false,
      "stateMutability": "nonpayable",
      "type": "function"
    },
    {
      "constant": false,
      "inputs": [
        {
          "name": "_voteParams",
          "type": "bytes32"
        },
        {
          "name": "_intVote",
          "type": "address"
        }
      ],
      "name": "setParameters",
      "outputs": [
        {
          "name": "",
          "type": "bytes32"
        }
      ],
      "payable": false,
      "stateMutability": "nonpayable",
      "type": "function"
    },
    {
      "constant": true,
      "inputs": [
        {
          "name": "_voteParams",
          "type": "bytes32"
        },
        {
          "name": "_intVote",
          "type": "address"
        }
      ],
      "name": "getParametersHash",
      "outputs": [
        {
          "name": "",
          "type": "bytes32"
        }
      ],
      "payable": false,
      "stateMutability": "pure",
      "type": "function"
    },
    {
      "constant": false,
      "inputs": [
        {
          "name": "_proposalId",
          "type": "bytes32"
        },
        {
          "name": "_avatar",
          "type": "address"
        },
        {
          "name": "_param",
          "type": "int256"
        }
      ],
      "name": "execute",
      "outputs": [
        {
          "name": "",
          "type": "bool"
        }
      ],
      "payable": false,
      "stateMutability": "nonpayable",
      "type": "function"
    },
    {
      "constant": false,
      "inputs": [
        {
          "name": "_agreementId",
          "type": "uint256"
        }
      ],
      "name": "signToCancelAgreement",
      "outputs": [],
      "payable": false,
      "stateMutability": "nonpayable",
      "type": "function"
    },
    {
      "constant": false,
      "inputs": [
        {
          "name": "_agreementId",
          "type": "uint256"
        }
      ],
      "name": "revokeSignToCancelAgreement",
      "outputs": [],
      "payable": false,
      "stateMutability": "nonpayable",
      "type": "function"
    },
    {
      "constant": false,
      "inputs": [
        {
          "name": "_agreementId",
          "type": "uint256"
        }
      ],
      "name": "collect",
      "outputs": [],
      "payable": false,
      "stateMutability": "nonpayable",
      "type": "function"
    }
  ],
  "bytecode": "0x608060405260008054600160a060020a03191633179055611ded806100256000396000f3006080604052600436106100d75763ffffffff60e060020a6000350416630250680481146100dc57806306e3a978146101155780632453732a1461019e5780632ac2af53146101d4578063310ce4e2146101ee57806367b603901461022957806368e14dac1461027d578063715018a6146102a157806389d75221146102b65780638b087f3f146102ce5780638da5cb5b146102e6578063bd14de9614610317578063ce3f865f1461032f578063f2fde38b14610347578063f76f3fb114610368578063f98e87ba146103bc578063fba62bda146103d1575b600080fd5b3480156100e857600080fd5b506100f46004356103e6565b60408051928352600160a060020a0390911660208301528051918290030190f35b34801561012157600080fd5b50610139600160a060020a0360043516602435610408565b60408051600160a060020a039c8d1681529a8c1660208c015298909a16898901526060890196909652608088019490945260a087019290925260c086015260e08501526101008401526101208301526101408201929092529051908190036101600190f35b3480156101aa57600080fd5b506101c2600435600160a060020a0360243516610478565b60408051918252519081900360200190f35b3480156101e057600080fd5b506101ec600435610519565b005b3480156101fa57600080fd5b50610215600435600160a060020a0360243516604435610535565b604080519115158252519081900360200190f35b34801561023557600080fd5b506101c2600160a060020a03600480358216916024803582169260443592606435926084359260a4359260c4359260e435926101043591820192910135906101243516610951565b34801561028957600080fd5b506101c2600435600160a060020a0360243516610fad565b3480156102ad57600080fd5b506101ec611002565b3480156102c257600080fd5b506101ec60043561106e565b3480156102da57600080fd5b506101ec60043561111c565b3480156102f257600080fd5b506102fb6111e7565b60408051600160a060020a039092168252519081900360200190f35b34801561032357600080fd5b506101396004356111f6565b34801561033b57600080fd5b506101ec60043561125d565b34801561035357600080fd5b506101ec600160a060020a03600435166114d3565b34801561037457600080fd5b506101c260048035600160a060020a0390811691602480358316926044351691606435916084359160a4359160c4359160e435916101043591610124359182019101356114f6565b3480156103c857600080fd5b506101c261188d565b3480156103dd57600080fd5b506101c2611893565b60036020526000908152604090208054600190910154600160a060020a031682565b6002602081815260009384526040808520909152918352912080546001820154928201546003830154600484015460058501546006860154600787015460088801546009890154600a90990154600160a060020a039889169a89169997909816979596949593949293919290918b565b6040805160208082018590526c01000000000000000000000000600160a060020a0385160282840152825160348184030181526054909201928390528151600093918291908401908083835b602083106104e35780518252601f1990920191602091820191016104c4565b6001836020036101000a038019825116818451168082178552505050505050905001915050604051809103902090505b92915050565b600054600160a060020a0316331461053057600080fd5b600155565b600061053f611d34565b6000803360038261054f89611899565b8152602081019190915260400160002060010154600160a060020a03161461057657600080fd5b600160a060020a0380871660009081526002602081815260408084208c85528252808420815161016081018352815487168152600182015487169381019390935292830154909416938101939093526003810154606084015260048101546080840152600581015460a08401819052600682015460c0850152600782015460e085015260088201546101008501526009820154610120850152600a909101546101408401529194501061062857600080fd5b600160a060020a03861660008181526002602081815260408084208c8552909152808320805473ffffffffffffffffffffffffffffffffffffffff19908116825560018201805482169055928101805490931690925560038201839055600482018390556005820183905560068201839055600782018390556008820183905560098201839055600a909101829055518992917f6bc0cb9e9967b59a69ace442598e1df4368d38661bd5c0800fbcbc9fe855fbbe91a384600114156109045785600160a060020a0316638da5cb5b6040518163ffffffff1660e060020a028152600401602060405180830381600087803b15801561072557600080fd5b505af1158015610739573d6000803e3d6000fd5b505050506040513d602081101561074f57600080fd5b505160c0840151608085015191935061076e919063ffffffff6119a216565b604080517f6407e43200000000000000000000000000000000000000000000000000000000815260048101839052306024820152600160a060020a038981166044830152915192935090841691636407e432916064808201926020929091908290030181600087803b1580156107e357600080fd5b505af11580156107f7573d6000803e3d6000fd5b505050506040513d602081101561080d57600080fd5b50506005805460009081526004602081815260408084208851815473ffffffffffffffffffffffffffffffffffffffff19908116600160a060020a03928316178355938a0151600180840180548716928416929092179091558a8401516002840180549096169216919091179093556060890151600382015560808901519381019390935560a08801518386015560c0880151600684015560e0880151600784015561010088015160088401556101208801516009840155610140880151600a909301929092558354908101909355518992917fe8de12be02fb718ed4a00c0d0251db271062b6cba59a64120dd3cd44296ae07291a35b6040805186815290518891600160a060020a038916917fd2632e80f5364f02aded1c64e8a04637b7c8bb9c2db2bedf4b6ac47c013acbc09181900360200190a35060019695505050505050565b600061095b611daa565b6000806003600061096b87611899565b815260208082019290925260409081016000908120825180840184528154808252600190920154600160a060020a0390811682870181905285517f0905c9f9000000000000000000000000000000000000000000000000000000008152600260048201526024810194909452908b16604484015230606484015233608484015293519097509293630905c9f99360a48084019492939192918390030190829087803b158015610a1957600080fd5b505af1158015610a2d573d6000803e3d6000fd5b505050506040513d6020811015610a4357600080fd5b5051915085881115610a5457600080fd5b60008b11610a6157600080fd5b60008a11610af657604080517f08c379a000000000000000000000000000000000000000000000000000000000815260206004820152602f60248201527f4e756d626572206f662041677265656420506572696f6473206d75737420626560448201527f2067726561746572207468616e20300000000000000000000000000000000000606482015290519081900360840190fd5b5060005b85811015610b7357600160a060020a03851660009081526002602090815260408083208584529091528120600191600b90910190898985818110610b3a57fe5b60209081029290920135600160a060020a0316835250810191909152604001600020805460ff1916911515919091179055600101610afa565b84600160a060020a031663e1758bd86040518163ffffffff1660e060020a028152600401602060405180830381600087803b158015610bb157600080fd5b505af1158015610bc5573d6000803e3d6000fd5b505050506040513d6020811015610bdb57600080fd5b81019080805190602001909291905050506002600087600160a060020a0316600160a060020a031681526020019081526020016000206000846000191660001916815260200190815260200160002060000160006101000a815481600160a060020a030219169083600160a060020a031602179055508e6002600087600160a060020a0316600160a060020a031681526020019081526020016000206000846000191660001916815260200190815260200160002060010160006101000a815481600160a060020a030219169083600160a060020a031602179055508d6002600087600160a060020a0316600160a060020a031681526020019081526020016000206000846000191660001916815260200190815260200160002060020160006101000a815481600160a060020a030219169083600160a060020a031602179055508c6002600087600160a060020a0316600160a060020a0316815260200190815260200160002060008460001916600019168152602001908152602001600020600301819055508b6002600087600160a060020a0316600160a060020a0316815260200190815260200160002060008460001916600019168152602001908152602001600020600401819055508a6002600087600160a060020a0316600160a060020a031681526020019081526020016000206000846000191660001916815260200190815260200160002060050181905550896002600087600160a060020a0316600160a060020a031681526020019081526020016000206000846000191660001916815260200190815260200160002060060181905550886002600087600160a060020a0316600160a060020a031681526020019081526020016000206000846000191660001916815260200190815260200160002060070181905550876002600087600160a060020a0316600160a060020a0316815260200190815260200160002060008460001916600019168152602001908152602001600020600801819055508260200151600160a060020a031663339e23d1836001336040518463ffffffff1660e060020a02815260040180846000191660001916815260200183815260200182600160a060020a0316600160a060020a031681526020019350505050602060405180830381600087803b158015610f3957600080fd5b505af1158015610f4d573d6000803e3d6000fd5b505050506040513d6020811015610f6357600080fd5b50506040518290600160a060020a038716907f414e0a2de8305e1fdf5cd7bd449e853c9e04644021b6c51a686a80ca1909e8fd90600090a3509d9c50505050505050505050505050565b600080610fba8484610478565b60008181526003602052604090208581556001018054600160a060020a03861673ffffffffffffffffffffffffffffffffffffffff1990911617905591508190505092915050565b600054600160a060020a0316331461101957600080fd5b60008054604051600160a060020a03909116917ff8df31144d9c2f0f6b59d69b8b98abd5459d07f2742c4df920b25aae33c6482091a26000805473ffffffffffffffffffffffffffffffffffffffff19169055565b6000818152600460209081526040808320338452600b01909152812054829060ff16151561109b57600080fd5b6000838152600460209081526040808320338452600c81019092529091205490925060ff1615156110cb57600080fd5b336000818152600c84016020526040808220805460ff19169055600a850180546000190190555185917f1df7a752240c027cfb74557fd4dac3f5e69b4da33fd2bf627af62bec9e8293c091a3505050565b6000818152600460209081526040808320338452600b01909152812054829060ff16151561114957600080fd5b6000838152600460209081526040808320338452600c81019092529091205490925060ff161561117857600080fd5b336000818152600c84016020526040808220805460ff19166001908117909155600a8601805490910190555185917f034fb4ee0593caf676b3d6d46cc590311e4119cdb1349abb1502647c4076fce291a3816008015482600a015414156111e2576111e2836119cb565b505050565b600054600160a060020a031681565b600460208190526000918252604090912080546001820154600283015460038401549484015460058501546006860154600787015460088801546009890154600a90990154600160a060020a039889169a978916999890961697949593949293919290918b565b611265611d34565b600082815260046020526040812060010154819081908590600160a060020a0316331461129157600080fd5b6000868152600460208181526040928390208351610160810185528154600160a060020a0390811682526001830154811693820193909352600282015490921693820193909352600383015460608201819052918301546080820152600583015460a08201819052600684015460c0830152600784015460e083015260088401546101008301526009840154610120830152600a909301546101408201529650611353919061134790439063ffffffff611c8316565b9063ffffffff611c9516565b60e086015190945084101561136757600080fd5b60c085015184106113935761012085015160c086015161138c9163ffffffff611c8316565b92506113ad565b6101208501516113aa90859063ffffffff611c8316565b92505b6000868152600460205260409020600901546113cf908463ffffffff611caa16565b60008781526004602052604090206009015560808501516113f790849063ffffffff6119a216565b8551602080880151604080517fa9059cbb000000000000000000000000000000000000000000000000000000008152600160a060020a03928316600482015260248101869052905194965092169263a9059cbb9260448082019392918290030181600087803b15801561146957600080fd5b505af115801561147d573d6000803e3d6000fd5b505050506040513d602081101561149357600080fd5b505115156114a057600080fd5b60405186907f3fe43822de4d3a1b02686a8e69e74f7a32cf7667d2a432a27326ec43a3b3bfd790600090a2505050505050565b600054600160a060020a031633146114ea57600080fd5b6114f381611cb7565b50565b600080808386111561150757600080fd5b6000891161151457600080fd5b600088116115a957604080517f08c379a000000000000000000000000000000000000000000000000000000000815260206004820152602f60248201527f4e756d626572206f662041677265656420506572696f6473206d75737420626560448201527f2067726561746572207468616e20300000000000000000000000000000000000606482015290519081900360840190fd5b6115b98a8963ffffffff6119a216565b91508d600160a060020a03166323b872dd3330856040518463ffffffff1660e060020a0281526004018084600160a060020a0316600160a060020a0316815260200183600160a060020a0316600160a060020a031681526020018281526020019350505050602060405180830381600087803b15801561163857600080fd5b505af115801561164c573d6000803e3d6000fd5b505050506040513d602081101561166257600080fd5b5051151561166f57600080fd5b8d60046000600554815260200190815260200160002060000160006101000a815481600160a060020a030219169083600160a060020a031602179055508c60046000600554815260200190815260200160002060010160006101000a815481600160a060020a030219169083600160a060020a031602179055508b60046000600554815260200190815260200160002060020160006101000a815481600160a060020a030219169083600160a060020a031602179055508a6004600060055481526020019081526020016000206003018190555089600460006005548152602001908152602001600020600401819055508860046000600554815260200190815260200160002060050181905550876004600060055481526020019081526020016000206006018190555086600460006005548152602001908152602001600020600701819055508560046000600554815260200190815260200160002060080181905550600090505b83811015611840576005546000908152600460205260408120600191600b9091019087878581811061180757fe5b60209081029290920135600160a060020a0316835250810191909152604001600020805460ff19169115159190911790556001016117d9565b60058054600181019091556040517f7f4395349c6d693bbcef2c3c3133c966a84bf7d8f720d00fc21c9290a200acf790600090a25050600554600019019c9b505050505050505050505050565b60015481565b60055481565b600081600160a060020a0316638da5cb5b6040518163ffffffff1660e060020a028152600401602060405180830381600087803b1580156118d957600080fd5b505af11580156118ed573d6000803e3d6000fd5b505050506040513d602081101561190357600080fd5b5051604080517f1c4d5608000000000000000000000000000000000000000000000000000000008152306004820152600160a060020a03858116602483015291519190921691631c4d56089160448083019260209291908290030181600087803b15801561197057600080fd5b505af1158015611984573d6000803e3d6000fd5b505050506040513d602081101561199a57600080fd5b505192915050565b60008215156119b357506000610513565b508181028183828115156119c357fe5b041461051357fe5b6119d3611d34565b6000806004600085815260200190815260200160002061016060405190810160405290816000820160009054906101000a9004600160a060020a0316600160a060020a0316600160a060020a031681526020016001820160009054906101000a9004600160a060020a0316600160a060020a0316600160a060020a031681526020016002820160009054906101000a9004600160a060020a0316600160a060020a0316600160a060020a0316815260200160038201548152602001600482015481526020016005820154815260200160068201548152602001600782015481526020016008820154815260200160098201548152602001600a82015481525050925060046000858152602001908152602001600020600080820160006101000a815490600160a060020a0302191690556001820160006101000a815490600160a060020a0302191690556002820160006101000a815490600160a060020a0302191690556003820160009055600482016000905560058201600090556006820160009055600782016000905560088201600090556009820160009055600a8201600090555050611b958361012001518460c00151611c8390919063ffffffff16565b9150611bae8360800151836119a290919063ffffffff16565b90508260000151600160a060020a031663a9059cbb8460400151836040518363ffffffff1660e060020a0281526004018083600160a060020a0316600160a060020a0316815260200182815260200192505050602060405180830381600087803b158015611c1b57600080fd5b505af1158015611c2f573d6000803e3d6000fd5b505050506040513d6020811015611c4557600080fd5b50511515611c5257600080fd5b60405184907f9f1c1e78870ba44a152915bdd80b589c6b72f765faf85ba3b867f0b3ce38dfc790600090a250505050565b600082821115611c8f57fe5b50900390565b60008183811515611ca257fe5b049392505050565b8181018281101561051357fe5b600160a060020a0381161515611ccc57600080fd5b60008054604051600160a060020a03808516939216917f8be0079c531659141344cd1fd0a4f28419497f9722a3daafe3b4186f6b6457e091a36000805473ffffffffffffffffffffffffffffffffffffffff1916600160a060020a0392909216919091179055565b610160604051908101604052806000600160a060020a031681526020016000600160a060020a031681526020016000600160a060020a0316815260200160008152602001600081526020016000815260200160008152602001600081526020016000815260200160008152602001600081525090565b6040805180820190915260008082526020820152905600a165627a7a72305820de910b0f2626e831fa8408fc113731f327df8874ae6344db5e5e680007b051500029",
  "source": "pragma solidity ^0.4.24;\r\n\r\nimport \"../VotingMachines/IntVoteInterface.sol\";\r\nimport \"./UniversalScheme.sol\";\r\n\r\n\r\n/**\r\n * @title A scheme for vesting.\r\n * @dev Can be used without organization just as a vesting component.\r\n */\r\n\r\ncontract VestingScheme is UniversalScheme, ExecutableInterface {\r\n    using SafeMath for uint;\r\n\r\n    event ProposalExecuted(address indexed _avatar, bytes32 indexed _proposalId,int _param);\r\n    event ProposalDeleted(address indexed _avatar, bytes32 indexed _proposalId);\r\n    event AgreementProposal(address indexed _avatar, bytes32 indexed _proposalId);\r\n    event NewVestedAgreement(uint indexed _agreementId);\r\n    event ProposedVestedAgreement(uint indexed _agreementId, bytes32 indexed _proposalId);\r\n    event SignToCancelAgreement(uint indexed _agreementId, address indexed _signer);\r\n    event RevokeSignToCancelAgreement(uint indexed _agreementId, address indexed _signer);\r\n    event AgreementCancel(uint indexed _agreementId);\r\n    event Collect(uint indexed _agreementId);\r\n\r\n\r\n    // The data for each vested agreement:\r\n    struct Agreement {\r\n        StandardToken token;\r\n        address beneficiary;\r\n        address returnOnCancelAddress;\r\n        uint startingBlock;\r\n        uint amountPerPeriod;\r\n        uint periodLength;\r\n        uint numOfAgreedPeriods;\r\n        uint cliffInPeriods;\r\n        uint signaturesReqToCancel;\r\n        uint collectedPeriods;\r\n        uint signaturesReceivedCounter;\r\n        mapping(address=>bool) signers;\r\n        mapping(address=>bool) signaturesReceived;\r\n    }\r\n\r\n\r\n    struct Parameters {\r\n        bytes32 voteParams;\r\n        IntVoteInterface intVote;\r\n    }\r\n\r\n    // A mapping from the organization (Avatar) address to the saved data of the organization:\r\n    mapping(address=>mapping(bytes32=>Agreement)) public organizationsProposals;\r\n\r\n    // A mapping from hashes to parameters (use to store a particular configuration on the controller)\r\n    mapping(bytes32=>Parameters) public parameters;\r\n\r\n    // A mapping from index to Agreement\r\n    mapping(uint=>Agreement) public agreements;\r\n\r\n    uint public agreementsCounter;\r\n\r\n    // Modifier, only the signers on an agreement:\r\n    modifier onlySigner(uint _agreementId) {\r\n        require(agreements[_agreementId].signers[msg.sender]);\r\n        _;\r\n    }\r\n\r\n    // Modifier, only the beneficiary on an agreement:\r\n    modifier onlyBeneficiary(uint _agreementId) {\r\n        require(agreements[_agreementId].beneficiary == msg.sender);\r\n        _;\r\n    }\r\n\r\n    /**\r\n    * @dev Proposing a vesting agreement in an organization.\r\n    * @param _beneficiary the beneficiary of the agreement.\r\n    * @param _returnOnCancelAddress where to send the tokens in case of stoping.\r\n    * @param _startingBlock the block from which the agreement starts.\r\n    * @param _amountPerPeriod amount of tokens per period.\r\n    * @param _periodLength period length in blocks.\r\n    * @param _numOfAgreedPeriods how many periods agreed on.\r\n    * @param _cliffInPeriods the length of the cliff in periods.\r\n    * @param _signaturesReqToCancel number of signatures required to cancel agreement.\r\n    * @param _signersArray avatar array of addresses that can sign to cancel agreement.\r\n    * @param _avatar avatar of the organization.\r\n    * @return bytes32 the proposalId\r\n    */\r\n    function proposeVestingAgreement(\r\n        address _beneficiary,\r\n        address _returnOnCancelAddress,\r\n        uint _startingBlock,\r\n        uint _amountPerPeriod,\r\n        uint _periodLength,\r\n        uint _numOfAgreedPeriods,\r\n        uint _cliffInPeriods,\r\n        uint _signaturesReqToCancel,\r\n        address[] _signersArray,\r\n        Avatar _avatar\r\n    )\r\n    external\r\n    returns(bytes32)\r\n    {\r\n        // Open voting:\r\n        Parameters memory params = parameters[getParametersFromController(_avatar)];\r\n        bytes32 proposalId = params.intVote.propose(2, params.voteParams, _avatar, ExecutableInterface(this),msg.sender);\r\n        require(_signaturesReqToCancel <= _signersArray.length);\r\n        require(_periodLength > 0);\r\n        require(_numOfAgreedPeriods > 0, \"Number of Agreed Periods must be greater than 0\");\r\n        // Write the signers mapping:\r\n        for (uint cnt = 0; cnt<_signersArray.length; cnt++) {\r\n            organizationsProposals[_avatar][proposalId].signers[_signersArray[cnt]] = true;\r\n        }\r\n        // Write parameters:\r\n        organizationsProposals[_avatar][proposalId].token = Avatar(_avatar).nativeToken();\r\n        organizationsProposals[_avatar][proposalId].beneficiary = _beneficiary;\r\n        organizationsProposals[_avatar][proposalId].returnOnCancelAddress = _returnOnCancelAddress;\r\n        organizationsProposals[_avatar][proposalId].startingBlock = _startingBlock;\r\n        organizationsProposals[_avatar][proposalId].amountPerPeriod = _amountPerPeriod;\r\n        organizationsProposals[_avatar][proposalId].periodLength = _periodLength;\r\n        organizationsProposals[_avatar][proposalId].numOfAgreedPeriods = _numOfAgreedPeriods;\r\n        organizationsProposals[_avatar][proposalId].cliffInPeriods = _cliffInPeriods;\r\n        organizationsProposals[_avatar][proposalId].signaturesReqToCancel = _signaturesReqToCancel;\r\n\r\n        params.intVote.ownerVote(proposalId, 1, msg.sender); // Automatically votes `yes` in the name of the opener.\r\n\r\n        // Log:\r\n        emit AgreementProposal(_avatar, proposalId);\r\n        return proposalId;\r\n    }\r\n\r\n    /**\r\n    * @dev Creating a vesting agreement.\r\n    * @param _token the relevant token in the agreement.\r\n    * @param _beneficiary the beneficiary of the agreement.\r\n    * @param _returnOnCancelAddress where to send the tokens in case of stoping.\r\n    * @param _startingBlock the block from which the agreement starts.\r\n    * @param _amountPerPeriod amount of tokens per period.\r\n    * @param _periodLength period length in blocks.\r\n    * @param _numOfAgreedPeriods how many periods agreed on.\r\n    * @param _cliffInPeriods the length of the cliff in periods.\r\n    * @param _signaturesReqToCancel number of signatures required to cancel agreement.\r\n    * @param _signersArray avatar array of addresses that can sign to cancel agreement.\r\n    * @return uint the agreement index.\r\n    */\r\n    function createVestedAgreement(\r\n        StandardToken _token,\r\n        address _beneficiary,\r\n        address _returnOnCancelAddress,\r\n        uint _startingBlock,\r\n        uint _amountPerPeriod,\r\n        uint _periodLength,\r\n        uint _numOfAgreedPeriods,\r\n        uint _cliffInPeriods,\r\n        uint _signaturesReqToCancel,\r\n        address[] _signersArray\r\n    )\r\n        external\r\n        returns(uint)\r\n    {\r\n        require(_signaturesReqToCancel <= _signersArray.length);\r\n        require(_periodLength > 0);\r\n        require(_numOfAgreedPeriods > 0, \"Number of Agreed Periods must be greater than 0\");\r\n        // Collect funds:\r\n        uint totalAmount = _amountPerPeriod.mul(_numOfAgreedPeriods);\r\n        require(_token.transferFrom(msg.sender, this, totalAmount));\r\n\r\n        // Write parameters:\r\n        agreements[agreementsCounter].token = _token;\r\n        agreements[agreementsCounter].beneficiary = _beneficiary;\r\n        agreements[agreementsCounter].returnOnCancelAddress = _returnOnCancelAddress;\r\n        agreements[agreementsCounter].startingBlock = _startingBlock;\r\n        agreements[agreementsCounter].amountPerPeriod = _amountPerPeriod;\r\n        agreements[agreementsCounter].periodLength = _periodLength;\r\n        agreements[agreementsCounter].numOfAgreedPeriods = _numOfAgreedPeriods;\r\n        agreements[agreementsCounter].cliffInPeriods = _cliffInPeriods;\r\n        agreements[agreementsCounter].signaturesReqToCancel = _signaturesReqToCancel;\r\n\r\n        // Write the signers mapping:\r\n        for (uint cnt = 0; cnt<_signersArray.length; cnt++) {\r\n            agreements[agreementsCounter].signers[_signersArray[cnt]] = true;\r\n        }\r\n\r\n        // Increment the agreements counter:\r\n        agreementsCounter++;\r\n\r\n        // Log new agreement and return id:\r\n        emit NewVestedAgreement(agreementsCounter-1);\r\n        return(agreementsCounter-1);\r\n    }\r\n\r\n    /**\r\n    * @dev Hash the parameters, save them if necessary, and return the hash value\r\n    * @param _voteParams -  voting parameters\r\n    * @param _intVote  - voting machine contract.\r\n    * @return bytes32 -the parameters hash\r\n    */\r\n    function setParameters(\r\n        bytes32 _voteParams,\r\n        IntVoteInterface _intVote\r\n    ) public returns(bytes32)\r\n    {\r\n        bytes32 paramsHash = getParametersHash(_voteParams, _intVote);\r\n        parameters[paramsHash].voteParams = _voteParams;\r\n        parameters[paramsHash].intVote = _intVote;\r\n        return paramsHash;\r\n    }\r\n\r\n    /**\r\n    * @dev Hash the parameters, and return the hash value\r\n    * @param _voteParams -  voting parameters\r\n    * @param _intVote  - voting machine contract.\r\n    * @return bytes32 -the parameters hash\r\n    */\r\n    function getParametersHash(\r\n        bytes32 _voteParams,\r\n        IntVoteInterface _intVote\r\n    ) public pure returns(bytes32)\r\n    {\r\n        return  (keccak256(abi.encodePacked(_voteParams, _intVote)));\r\n    }\r\n\r\n    /**\r\n    * @dev execution of proposals, can only be called by the voting machine in which the vote is held.\r\n    * @param _proposalId the ID of the voting in the voting machine\r\n    * @param _avatar address of the controller\r\n    * @param _param a parameter of the voting result, 0 is no and 1 is yes.\r\n    * @return bool which represents a successful of the function\r\n    */\r\n    function execute(bytes32 _proposalId, address _avatar, int _param) public returns(bool) {\r\n        // Check the caller is indeed the voting machine:\r\n        require(parameters[getParametersFromController(Avatar(_avatar))].intVote == msg.sender);\r\n        Agreement memory proposedAgreement = organizationsProposals[_avatar][_proposalId];\r\n        require(proposedAgreement.periodLength > 0);\r\n        delete organizationsProposals[_avatar][_proposalId];\r\n        emit ProposalDeleted(_avatar,_proposalId);\r\n\r\n        // Check if vote was successful:\r\n        if (_param == 1) {\r\n        // Define controller and mint tokens, check minting actually took place:\r\n            ControllerInterface controller = ControllerInterface(Avatar(_avatar).owner());\r\n            uint tokensToMint = proposedAgreement.amountPerPeriod.mul(proposedAgreement.numOfAgreedPeriods);\r\n            controller.mintTokens(tokensToMint, this,_avatar);\r\n            agreements[agreementsCounter] = proposedAgreement;\r\n            agreementsCounter++;\r\n        // Log the new agreement:\r\n            emit ProposedVestedAgreement(agreementsCounter-1, _proposalId);\r\n        }\r\n        emit ProposalExecuted(_avatar,_proposalId,_param);\r\n        return true;\r\n    }\r\n\r\n    /**\r\n    * @dev Function to sign to cancel an agreement.\r\n    * @param _agreementId the relevant agreement.\r\n    */\r\n    function signToCancelAgreement(uint _agreementId) public onlySigner(_agreementId) {\r\n        Agreement storage agreement = agreements[_agreementId];\r\n\r\n        // Check attempt to double sign:\r\n        require(! agreement.signaturesReceived[msg.sender]);\r\n\r\n        // Sign:\r\n        agreement.signaturesReceived[msg.sender] = true;\r\n        agreement.signaturesReceivedCounter++;\r\n\r\n        emit SignToCancelAgreement(_agreementId,msg.sender);\r\n\r\n        // Check if threshold crossed:\r\n        if (agreement.signaturesReceivedCounter == agreement.signaturesReqToCancel) {\r\n            cancelAgreement(_agreementId);\r\n        }\r\n    }\r\n\r\n    /**\r\n    * @dev Function to revoke vote for canceling agreement.\r\n    * @param _agreementId the relevant agreement.\r\n    */\r\n    function revokeSignToCancelAgreement(uint _agreementId) public onlySigner(_agreementId) {\r\n        Agreement storage agreement = agreements[_agreementId];\r\n\r\n        // Check signer did sign:\r\n        require(agreement.signaturesReceived[msg.sender]);\r\n\r\n        // Revoke signature:\r\n        agreement.signaturesReceived[msg.sender] = false;\r\n        agreement.signaturesReceivedCounter--;\r\n\r\n        emit RevokeSignToCancelAgreement(_agreementId,msg.sender);\r\n    }\r\n\r\n    /**\r\n    * @dev Function for a beneficiary to collect.\r\n    * @param _agreementId the relevant agreement.\r\n    */\r\n    function collect(uint _agreementId) public onlyBeneficiary(_agreementId) {\r\n        Agreement memory agreement = agreements[_agreementId];\r\n        uint periodsFromStartingBlock = (block.number.sub(agreement.startingBlock)).div(agreement.periodLength);\r\n        require(periodsFromStartingBlock >= agreement.cliffInPeriods);\r\n\r\n        // Compute periods to pay:\r\n        uint periodsToPay;\r\n        if (periodsFromStartingBlock >= agreement.numOfAgreedPeriods) {\r\n            periodsToPay = agreement.numOfAgreedPeriods.sub(agreement.collectedPeriods);\r\n        } else {\r\n            periodsToPay = periodsFromStartingBlock.sub(agreement.collectedPeriods);\r\n        }\r\n        // Update periods paid:\r\n        agreements[_agreementId].collectedPeriods = agreements[_agreementId].collectedPeriods.add(periodsToPay);\r\n\r\n        // Transfer:\r\n        uint tokensToTransfer = periodsToPay.mul(agreement.amountPerPeriod);\r\n        require(agreement.token.transfer(agreement.beneficiary, tokensToTransfer));\r\n\r\n        // Log collecting:\r\n        emit Collect(_agreementId);\r\n    }\r\n\r\n    /**\r\n    * @dev Internal function, to cancel an agreement.\r\n    * @param _agreementId the relevant agreement.\r\n    */\r\n    function cancelAgreement(uint _agreementId) internal {\r\n        Agreement memory agreement = agreements[_agreementId];\r\n        delete  agreements[_agreementId];\r\n        uint periodsLeft = agreement.numOfAgreedPeriods.sub(agreement.collectedPeriods);\r\n        uint tokensLeft = periodsLeft.mul(agreement.amountPerPeriod);\r\n        require(agreement.token.transfer(agreement.returnOnCancelAddress, tokensLeft));\r\n        // Log canceling agreement:\r\n        emit AgreementCancel(_agreementId);\r\n    }\r\n}\r\n",
  "sourcePath": "C:\\users\\dkent\\documents\\projects\\github\\daostack\\arc\\contracts\\universalSchemes\\VestingScheme.sol",
  "compiler": {
    "name": "solc",
    "version": "0.4.24+commit.e67f0147.Emscripten.clang"
  },
  "schemaVersion": "2.0.0",
  "updatedAt": "2018-07-21T19:59:28.312Z"
}