{
  "contractName": "EthTransferHelper",
  "abi": [
    {
      "constant": false,
      "inputs": [
        {
          "name": "_to",
          "type": "address"
        }
      ],
      "name": "transfer",
      "outputs": [],
      "payable": true,
      "stateMutability": "payable",
      "type": "function"
    }
  ],
  "bytecode": "0x608060405234801561001057600080fd5b5060d58061001f6000396000f300608060405260043610603e5763ffffffff7c01000000000000000000000000000000000000000000000000000000006000350416631a69523081146043575b600080fd5b606273ffffffffffffffffffffffffffffffffffffffff600435166064565b005b60405173ffffffffffffffffffffffffffffffffffffffff8216903480156108fc02916000818181858888f1935050505015801560a5573d6000803e3d6000fd5b50505600a165627a7a72305820ca67bf9163cd43293cdf9ec31fd3938e2ed970b235a4701670da81d30cbc4e630029",
  "source": "pragma solidity ^0.4.25;\n\n\ncontract EthTransferHelper {\n\n    function transfer(address _to) public payable  {\n        _to.transfer(msg.value);\n    }\n}\n",
  "sourcePath": "/Users/oren/daostack/daostack2/daostack/contracts/test/EthTransferHelper.sol",
  "compiler": {
    "name": "solc",
    "version": "0.4.25+commit.59dbf8f1.Emscripten.clang"
  },
  "schemaVersion": "3.0.0-beta.1",
  "updatedAt": "2018-11-08T08:19:02.812Z"
}