{
  "contractName": "AbsoluteVote",
  "abi": [
    {
      "constant": true,
      "inputs": [
        {
          "name": "",
          "type": "bytes32"
        }
      ],
      "name": "parameters",
      "outputs": [
        {
          "name": "reputationSystem",
          "type": "address"
        },
        {
          "name": "precReq",
          "type": "uint256"
        },
        {
          "name": "allowOwner",
          "type": "bool"
        }
      ],
      "payable": false,
      "stateMutability": "view",
      "type": "function"
    },
    {
      "constant": true,
      "inputs": [
        {
          "name": "_reputationSystem",
          "type": "address"
        },
        {
          "name": "_precReq",
          "type": "uint256"
        },
        {
          "name": "_allowOwner",
          "type": "bool"
        }
      ],
      "name": "getParametersHash",
      "outputs": [
        {
          "name": "",
          "type": "bytes32"
        }
      ],
      "payable": false,
      "stateMutability": "pure",
      "type": "function"
    },
    {
      "constant": true,
      "inputs": [
        {
          "name": "_proposalId",
          "type": "bytes32"
        },
        {
          "name": "_voter",
          "type": "address"
        }
      ],
      "name": "voteInfo",
      "outputs": [
        {
          "name": "",
          "type": "uint256"
        },
        {
          "name": "",
          "type": "uint256"
        }
      ],
      "payable": false,
      "stateMutability": "view",
      "type": "function"
    },
    {
      "constant": true,
      "inputs": [
        {
          "name": "",
          "type": "bytes32"
        }
      ],
      "name": "proposals",
      "outputs": [
        {
          "name": "owner",
          "type": "address"
        },
        {
          "name": "avatar",
          "type": "address"
        },
        {
          "name": "numOfChoices",
          "type": "uint256"
        },
        {
          "name": "executable",
          "type": "address"
        },
        {
          "name": "paramsHash",
          "type": "bytes32"
        },
        {
          "name": "totalVotes",
          "type": "uint256"
        },
        {
          "name": "open",
          "type": "bool"
        }
      ],
      "payable": false,
      "stateMutability": "view",
      "type": "function"
    },
    {
      "constant": false,
      "inputs": [
        {
          "name": "_proposalId",
          "type": "bytes32"
        },
        {
          "name": "_vote",
          "type": "uint256"
        },
        {
          "name": "_voter",
          "type": "address"
        }
      ],
      "name": "ownerVote",
      "outputs": [
        {
          "name": "",
          "type": "bool"
        }
      ],
      "payable": false,
      "stateMutability": "nonpayable",
      "type": "function"
    },
    {
      "constant": false,
      "inputs": [
        {
          "name": "_proposalId",
          "type": "bytes32"
        }
      ],
      "name": "cancelProposal",
      "outputs": [
        {
          "name": "",
          "type": "bool"
        }
      ],
      "payable": false,
      "stateMutability": "nonpayable",
      "type": "function"
    },
    {
      "constant": false,
      "inputs": [
        {
          "name": "_numOfChoices",
          "type": "uint256"
        },
        {
          "name": "_paramsHash",
          "type": "bytes32"
        },
        {
          "name": "_avatar",
          "type": "address"
        },
        {
          "name": "_executable",
          "type": "address"
        }
      ],
      "name": "propose",
      "outputs": [
        {
          "name": "",
          "type": "bytes32"
        }
      ],
      "payable": false,
      "stateMutability": "nonpayable",
      "type": "function"
    },
    {
      "constant": true,
      "inputs": [
        {
          "name": "_proposalId",
          "type": "bytes32"
        }
      ],
      "name": "votesStatus",
      "outputs": [
        {
          "name": "votes",
          "type": "uint256[11]"
        }
      ],
      "payable": false,
      "stateMutability": "view",
      "type": "function"
    },
    {
      "constant": false,
      "inputs": [
        {
          "name": "_proposalId",
          "type": "bytes32"
        }
      ],
      "name": "cancelVote",
      "outputs": [],
      "payable": false,
      "stateMutability": "nonpayable",
      "type": "function"
    },
    {
      "constant": false,
      "inputs": [
        {
          "name": "_proposalId",
          "type": "bytes32"
        },
        {
          "name": "_vote",
          "type": "uint256"
        }
      ],
      "name": "vote",
      "outputs": [
        {
          "name": "",
          "type": "bool"
        }
      ],
      "payable": false,
      "stateMutability": "nonpayable",
      "type": "function"
    },
    {
      "constant": true,
      "inputs": [
        {
          "name": "_proposalId",
          "type": "bytes32"
        }
      ],
      "name": "getNumberOfChoices",
      "outputs": [
        {
          "name": "",
          "type": "uint256"
        }
      ],
      "payable": false,
      "stateMutability": "view",
      "type": "function"
    },
    {
      "constant": false,
      "inputs": [
        {
          "name": "_proposalId",
          "type": "bytes32"
        },
        {
          "name": "_vote",
          "type": "uint256"
        },
        {
          "name": "_rep",
          "type": "uint256"
        },
        {
          "name": "",
          "type": "uint256"
        }
      ],
      "name": "voteWithSpecifiedAmounts",
      "outputs": [
        {
          "name": "",
          "type": "bool"
        }
      ],
      "payable": false,
      "stateMutability": "nonpayable",
      "type": "function"
    },
    {
      "constant": true,
      "inputs": [
        {
          "name": "_proposalId",
          "type": "bytes32"
        }
      ],
      "name": "isVotable",
      "outputs": [
        {
          "name": "",
          "type": "bool"
        }
      ],
      "payable": false,
      "stateMutability": "view",
      "type": "function"
    },
    {
      "constant": false,
      "inputs": [
        {
          "name": "_proposalId",
          "type": "bytes32"
        }
      ],
      "name": "execute",
      "outputs": [
        {
          "name": "",
          "type": "bool"
        }
      ],
      "payable": false,
      "stateMutability": "nonpayable",
      "type": "function"
    },
    {
      "constant": false,
      "inputs": [
        {
          "name": "_reputationSystem",
          "type": "address"
        },
        {
          "name": "_precReq",
          "type": "uint256"
        },
        {
          "name": "_allowOwner",
          "type": "bool"
        }
      ],
      "name": "setParameters",
      "outputs": [
        {
          "name": "",
          "type": "bytes32"
        }
      ],
      "payable": false,
      "stateMutability": "nonpayable",
      "type": "function"
    },
    {
      "anonymous": false,
      "inputs": [
        {
          "indexed": true,
          "name": "_proposalId",
          "type": "bytes32"
        },
        {
          "indexed": false,
          "name": "_numOfChoices",
          "type": "uint256"
        },
        {
          "indexed": false,
          "name": "_proposer",
          "type": "address"
        },
        {
          "indexed": false,
          "name": "_paramsHash",
          "type": "bytes32"
        }
      ],
      "name": "LogNewProposal",
      "type": "event"
    },
    {
      "anonymous": false,
      "inputs": [
        {
          "indexed": true,
          "name": "_proposalId",
          "type": "bytes32"
        }
      ],
      "name": "LogCancelProposal",
      "type": "event"
    },
    {
      "anonymous": false,
      "inputs": [
        {
          "indexed": true,
          "name": "_proposalId",
          "type": "bytes32"
        },
        {
          "indexed": false,
          "name": "_decision",
          "type": "uint256"
        }
      ],
      "name": "LogExecuteProposal",
      "type": "event"
    },
    {
      "anonymous": false,
      "inputs": [
        {
          "indexed": true,
          "name": "_proposalId",
          "type": "bytes32"
        },
        {
          "indexed": true,
          "name": "_voter",
          "type": "address"
        },
        {
          "indexed": false,
          "name": "_vote",
          "type": "uint256"
        },
        {
          "indexed": false,
          "name": "_reputation",
          "type": "uint256"
        },
        {
          "indexed": false,
          "name": "_isOwnerVote",
          "type": "bool"
        }
      ],
      "name": "LogVoteProposal",
      "type": "event"
    },
    {
      "anonymous": false,
      "inputs": [
        {
          "indexed": true,
          "name": "_proposalId",
          "type": "bytes32"
        },
        {
          "indexed": true,
          "name": "_voter",
          "type": "address"
        }
      ],
      "name": "LogCancelVoting",
      "type": "event"
    }
  ],
  "bytecode": "0x6060604052341561000f57600080fd5b6110d18061001e6000396000f3006060604052600436106100c15763ffffffff60e060020a6000350416630250680481146100c657806302a1cdaf1461010c578063119ce91b1461014557806332ed5b121461017f578063339e23d1146101df57806337376ca81461021857806388737b5e1461022e5780638fe23d1a146102595780639525c0cc146102a85780639ef1204c146102c0578063a003651d146102d9578063ac5d8745146102ef578063c08351061461030e578063e751f27114610324578063fed0d7df1461033a575b600080fd5b34156100d157600080fd5b6100dc600435610361565b604051600160a060020a039093168352602083019190915215156040808301919091526060909101905180910390f35b341561011757600080fd5b610133600160a060020a0360043516602435604435151561038f565b60405190815260200160405180910390f35b341561015057600080fd5b610167600435600160a060020a03602435166103f9565b60405191825260208201526040908101905180910390f35b341561018a57600080fd5b610195600435610458565b604051600160a060020a0397881681529587166020870152604080870195909552929095166060850152608084015260a083019390935291151560c082015260e001905180910390f35b34156101ea57600080fd5b610204600435602435600160a060020a03604435166104a7565b604051901515815260200160405180910390f35b341561022357600080fd5b61020460043561053e565b341561023957600080fd5b610133600435602435600160a060020a03604435811690606435166105fe565b341561026457600080fd5b61026f6004356107f5565b604051808261016080838360005b8381101561029557808201518382015260200161027d565b5050505090500191505060405180910390f35b34156102b357600080fd5b6102be600435610842565b005b34156102cb57600080fd5b610204600435602435610872565b34156102e457600080fd5b6101336004356108a9565b34156102fa57600080fd5b6102046004356024356044356064356108be565b341561031957600080fd5b6102046004356108f6565b341561032f57600080fd5b61020460043561090e565b341561034557600080fd5b610133600160a060020a03600435166024356044351515610b5c565b600060208190529081526040902080546001820154600290920154600160a060020a03909116919060ff1683565b6000838383604051600160a060020a03939093166c01000000000000000000000000028352601483019190915215157f0100000000000000000000000000000000000000000000000000000000000000026034820152603501604051809103902090509392505050565b60008061040461100a565b6000858152600160209081526040808320600160a060020a03881684526007019091529081902090805190810160405281548152600190910154602082015290508051816020015192509250509250929050565b60016020819052600091825260409091208054918101546002820154600383015460048401546005850154600890950154600160a060020a039687169694851695939490921692909160ff1687565b600083815260016020526040812054849033600160a060020a039081169116146104d057600080fd5b600085815260016020526040902060080154859060ff1615156104f257600080fd5b60008681526001602090815260408083206004015483529082905290206002015460ff1615156105255760009250610535565b6105328685876000610c11565b92505b50509392505050565b600081815260016020526040812054829033600160a060020a0390811691161461056757600080fd5b600083815260016020526040902060080154839060ff16151561058957600080fd5b60008481526001602090815260408083206004015483529082905290206002015460ff1615156105bc57600092506105f7565b6105c584610e3b565b837fd06f0966987a6526e0c1291838668e5dbcaf062ae68baadf345ff3edd792e8b560405160405180910390a2600192505b5050919050565b600080610609611021565b600086815260208190526040902054600160a060020a0316151561062c57600080fd5b60008711801561063d5750600a8711155b151561064857600080fd5b30600254604051600160a060020a03929092166c01000000000000000000000000028252601482015260340160405190819003902060028054600190810190915560408084018a905260808401899052600160a060020a03808916602080870191909152888216606087015233909116855260c085018390526000848152929052902090925081908151815473ffffffffffffffffffffffffffffffffffffffff1916600160a060020a0391909116178155602082015160018201805473ffffffffffffffffffffffffffffffffffffffff1916600160a060020a039290921691909117905560408201518160020155606082015160038201805473ffffffffffffffffffffffffffffffffffffffff1916600160a060020a03929092169190911790556080820151600482015560a0820151816005015560c0820151600891909101805460ff191691151591909117905550817f82cc1e47a0fddd1b4b3576bd36d20b845eac0f69b7057cb0357a3cb4ce29cb65883389604051928352600160a060020a0390911660208301526040808301919091526060909101905180910390a25095945050505050565b6107fd61105d565b6000828152600160205260408120905b600282015481116105f75760008181526006830160205260409020548382600b811061083557fe5b602002015260010161080d565b600081815260016020526040902060080154819060ff16151561086457600080fd5b61086e8233610ed6565b5050565b600082815260016020526040812060080154839060ff16151561089457600080fd5b6108a18433856000610c11565b949350505050565b60009081526001602052604090206002015490565b600084815260016020526040812060080154859060ff1615156108e057600080fd5b6108ec86338787610c11565b9695505050505050565b60009081526001602052604090206008015460ff1690565b600080600080600061091e611021565b600087815260016020526040902060080154879060ff16151561094057600080fd5b6000888152600160209081526040808320600481015484529183905280832054919850600160a060020a03909116916318160ddd9151602001526040518163ffffffff1660e060020a028152600401602060405180830381600087803b15156109a857600080fd5b6102c65a03f115156109b957600080fd5b505050604051805160048801546000908152602081905260408120600101549197509095509350505b60028601548311610b4c576000838152600687016020526040902054606485870204901115610b41578560e060405190810160409081528254600160a060020a039081168352600184015481166020840152600284015491830191909152600383015416606082015260048201546080820152600582015460a082015260089091015460ff16151560c08201529150610a7a88610e3b565b877f81be7b59f2640007c1101f52199758a7ea91009239bc8a7a2449472c02d221cc8460405190815260200160405180910390a28160600151600160a060020a031663310ce4e28984602001518660006040516020015260405160e060020a63ffffffff86160281526004810193909352600160a060020a0390911660248301526044820152606401602060405180830381600087803b1515610b1c57600080fd5b6102c65a03f11515610b2d57600080fd5b505050604051805190505060019650610b51565b6001909201916109e2565b600096505b505050505050919050565b60008060648411158015610b705750600084115b1515610b7b57600080fd5b610b8685858561038f565b905060606040519081016040908152600160a060020a0387168252602080830187905285151582840152600084815290819052208151815473ffffffffffffffffffffffffffffffffffffffff1916600160a060020a0391909116178155602082015181600101556040820151600291909101805460ff191691151591909117905550949350505050565b600080610c1c611085565b600087815260016020908152604080832060048101548452918390528083209194506060905190810160409081528254600160a060020a031682526001830154602083015260029283015460ff1615159082015290840154909250861115610c8357600080fd5b8151600160a060020a031663db89c0448860006040516020015260405160e060020a63ffffffff8416028152600160a060020a039091166004820152602401602060405180830381600087803b1515610cdb57600080fd5b6102c65a03f11515610cec57600080fd5b505050604051805191505084811015610d0457600080fd5b841515610d0f578094505b600160a060020a038716600090815260078401602052604090206001015415610d3c57610d3c8888610ed6565b6000868152600684016020526040902054610d5e90869063ffffffff610fe216565b60008781526006850160205260409020556005830154610d8590869063ffffffff610fe216565b60058401556040805190810160409081528782526020808301889052600160a060020a038a166000908152600787019091522081518155602082015160019091015550600160a060020a038088169089907f98919cf2e7177b2b2794b7596166eb688e15f8422b46387aab412d792035c01290899085903316851415604051928352602083019190915215156040808301919091526060909101905180910390a3610e2f8861090e565b98975050505050505050565b6000818152600160205260408120905b60028201548111610e6f576000818152600683016020526040812055600101610e4b565b505060009081526001602081905260408220805473ffffffffffffffffffffffffffffffffffffffff19908116825591810180548316905560028101839055600381018054909216909155600481018290556005810191909155600801805460ff19169055565b6000610ee061100a565b6000848152600160209081526040808320600160a060020a038716845260078101909252918290209093509080519081016040528154815260019091015460208201908152909150610f5290516006840160008451815260200190815260200160002054610ff890919063ffffffff16565b6006830160008351815260200190815260200160002081905550610f85816020015160058401549063ffffffff610ff816565b6005830155600160a060020a03831660008181526007840160205260408082208281556001019190915585907f694e00fc5266ab4e93df364ff0161f5d7e3a035126b13d918755bfed6d8ab299905160405180910390a350505050565b600082820183811015610ff157fe5b9392505050565b60008282111561100457fe5b50900390565b604080519081016040526000808252602082015290565b60e06040519081016040908152600080835260208301819052908201819052606082018190526080820181905260a0820181905260c082015290565b610160604051908101604052600b815b600081526020019060019003908161106d5790505090565b6060604051908101604090815260008083526020830181905290820152905600a165627a7a72305820233d0f87951eca728328659d48a3d1836b4c1f7d6b9d39947f13642341d927de0029",
  "source": "pragma solidity ^0.4.18;\n\nimport \"../controller/Reputation.sol\";\nimport \"./IntVoteInterface.sol\";\n\n\ncontract AbsoluteVote is IntVoteInterface {\n    using SafeMath for uint;\n\n\n    struct Parameters {\n        Reputation reputationSystem; // the reputation system that is being used\n        uint precReq; // how many percentages required for the proposal to be passed\n        bool allowOwner; // does this proposal has an owner who has owner rights?\n    }\n\n    struct Voter {\n        uint vote; // 0 - 'abstain'\n        uint reputation; // amount of voter's reputation\n    }\n\n    struct Proposal {\n        address owner; // the proposal's owner\n        address avatar; // the avatar of the organization that owns the proposal\n        uint numOfChoices;\n        ExecutableInterface executable; // will be executed if the proposal will pass\n        bytes32 paramsHash; // the hash of the parameters of the proposal\n        uint totalVotes;\n        mapping(uint=>uint) votes;\n        mapping(address=>Voter) voters;\n        bool open; // voting open flag\n    }\n\n    event LogNewProposal(bytes32 indexed _proposalId, uint _numOfChoices, address _proposer, bytes32 _paramsHash);\n    event LogCancelProposal(bytes32 indexed _proposalId);\n    event LogExecuteProposal(bytes32 indexed _proposalId, uint _decision);\n    event LogVoteProposal(bytes32 indexed _proposalId, address indexed _voter, uint _vote, uint _reputation, bool _isOwnerVote);\n    event LogCancelVoting(bytes32 indexed _proposalId, address indexed _voter);\n\n    mapping(bytes32=>Parameters) public parameters;  // A mapping from hashes to parameters\n    mapping(bytes32=>Proposal) public proposals; // Mapping from the ID of the proposal to the proposal itself.\n\n    uint constant MAX_NUM_OF_CHOICES = 10;\n    uint proposalsCnt; // Total amount of proposals\n\n  /**\n   * @dev Check that there is owner for the proposal and he sent the transaction\n   */\n    modifier onlyProposalOwner(bytes32 _proposalId) {\n        require(msg.sender == proposals[_proposalId].owner);\n        _;\n    }\n\n  /**\n   * @dev Check that the proposal is votable (open and not executed yet)\n   */\n    modifier votable(bytes32 _proposalId) {\n        require(proposals[_proposalId].open);\n        _;\n    }\n\n    /**\n     * @dev hash the parameters, save them if necessary, and return the hash value\n    */\n    function setParameters(Reputation _reputationSystem, uint _precReq, bool _allowOwner) public returns(bytes32) {\n        require(_precReq <= 100 && _precReq > 0);\n        bytes32 hashedParameters = getParametersHash(_reputationSystem, _precReq, _allowOwner);\n        parameters[hashedParameters] = Parameters({\n            reputationSystem: _reputationSystem,\n            precReq: _precReq,\n            allowOwner: _allowOwner\n        });\n        return hashedParameters;\n    }\n\n  /**\n   * @dev hashParameters returns a hash of the given parameters\n   */\n    function getParametersHash(Reputation _reputationSystem, uint _precReq, bool _allowOwner) public pure returns(bytes32) {\n        return keccak256(_reputationSystem, _precReq, _allowOwner);\n    }\n\n  /**\n   * @dev register a new proposal with the given parameters. Every proposal has a unique ID which is being\n   * generated by calculating keccak256 of a incremented counter.\n   * @param _paramsHash defined the parameters of the voting machine used for this proposal\n   * @param _avatar an address to be sent as the payload to the _executable contract.\n   * @param _executable This contract will be executed when vote is over.\n   * TODO: Maybe we need to check the 0 < precReq <= 100 ??\n   */\n    function propose(uint _numOfChoices, bytes32 _paramsHash, address _avatar, ExecutableInterface _executable) public returns(bytes32) {\n        // Check valid params and number of choices:\n        require(parameters[_paramsHash].reputationSystem != address(0));\n        require(_numOfChoices > 0 && _numOfChoices <= MAX_NUM_OF_CHOICES);\n        // Generate a unique ID:\n        bytes32 proposalId = keccak256(this, proposalsCnt);\n        proposalsCnt++;\n        // Open proposal:\n        Proposal memory proposal;\n        proposal.numOfChoices = _numOfChoices;\n        proposal.paramsHash = _paramsHash;\n        proposal.avatar = _avatar;\n        proposal.executable = _executable;\n        proposal.owner = msg.sender;\n        proposal.open = true;\n        proposals[proposalId] = proposal;\n        LogNewProposal(proposalId, _numOfChoices, msg.sender, _paramsHash);\n        return proposalId;\n    }\n\n  /**\n   * @dev Cancel a proposal, only the owner can call this function and only if allowOwner flag is true.\n   * @param _proposalId the proposal ID\n   */\n    function cancelProposal(bytes32 _proposalId) public onlyProposalOwner(_proposalId) votable(_proposalId) returns(bool) {\n        if (! parameters[proposals[_proposalId].paramsHash].allowOwner) {\n            return false;\n        }\n        deleteProposal(_proposalId);\n        LogCancelProposal(_proposalId);\n        return true;\n    }\n\n  /**\n   * @dev voting function\n   * @param _proposalId id of the proposal\n   * @param _vote a value between 0 to and the proposal number of choices.\n   * @return bool true - the proposal has been executed\n   *              false - otherwise.\n   */\n    function vote(bytes32 _proposalId, uint _vote) public votable(_proposalId) returns(bool) {\n        return internalVote(_proposalId, msg.sender, _vote, 0);\n    }\n\n  /**\n   * @dev voting function with owner functionality (can vote on behalf of someone else)\n   * @param _proposalId id of the proposal\n   * @param _vote a value between 0 to and the proposal number of choices.\n   * @param _voter will be voted with that voter's address\n   * @return bool true - the proposal has been executed\n   *              false - otherwise.\n   */\n    function ownerVote(bytes32 _proposalId, uint _vote, address _voter) public onlyProposalOwner(_proposalId) votable(_proposalId) returns(bool) {\n        if (! parameters[proposals[_proposalId].paramsHash].allowOwner) {\n            return false;\n        }\n        return  internalVote(_proposalId, _voter, _vote, 0);\n    }\n\n    function voteWithSpecifiedAmounts(bytes32 _proposalId,uint _vote,uint _rep,uint) public votable(_proposalId) returns(bool) {\n        return internalVote(_proposalId,msg.sender,_vote,_rep);\n    }\n\n  /**\n   * @dev Cancel the vote of the msg.sender: subtract the reputation amount from the votes\n   * and delete the voter from the proposal struct\n   * @param _proposalId id of the proposal\n   */\n    function cancelVote(bytes32 _proposalId) public votable(_proposalId) {\n        cancelVoteInternal(_proposalId, msg.sender);\n    }\n\n  /**\n    * @dev execute check if the proposal has been decided, and if so, execute the proposal\n    * @param _proposalId the id of the proposal\n    * @return bool true - the proposal has been executed\n    *              false - otherwise.\n   */\n    function execute(bytes32 _proposalId) public votable(_proposalId) returns(bool) {\n        Proposal storage proposal = proposals[_proposalId];\n        uint totalReputation = parameters[proposal.paramsHash].reputationSystem.totalSupply();\n        uint precReq = parameters[proposal.paramsHash].precReq;\n        // Check if someone crossed the bar:\n        for (uint cnt = 0; cnt <= proposal.numOfChoices; cnt++) {\n            if (proposal.votes[cnt] > totalReputation*precReq/100) {\n                Proposal memory tmpProposal = proposal;\n                deleteProposal(_proposalId);\n                LogExecuteProposal(_proposalId, cnt);\n                (tmpProposal.executable).execute(_proposalId, tmpProposal.avatar, int(cnt));\n                return true;\n            }\n        }\n        return false;\n    }\n\n  /**\n   * @dev getNumberOfChoices returns the number of choices possible in this proposal\n   * @param _proposalId the ID of the proposal\n   * @return uint that contains number of choices\n   */\n    function getNumberOfChoices(bytes32 _proposalId) public constant returns(uint) {\n        return proposals[_proposalId].numOfChoices;\n    }\n\n  /**\n   * @dev voteInfo returns the vote and the amount of reputation of the user committed to this proposal\n   * @param _proposalId the ID of the proposal\n   * @param _voter the address of the voter\n   * @return uint vote - the voters vote\n   *        uint reputation - amount of reputation committed by _voter to _proposalId\n   */\n    function voteInfo(bytes32 _proposalId, address _voter) public constant returns(uint, uint) {\n        Voter memory voter = proposals[_proposalId].voters[_voter];\n        return (voter.vote, voter.reputation);\n    }\n\n    /**\n     * @dev votesStatus returns the number of yes, no, and abstain and if the proposal is ended of a given proposal id\n     * @param _proposalId the ID of the proposal\n     * @return votes array of votes for each choice\n     */\n    function votesStatus(bytes32 _proposalId) public constant returns(uint[11] votes) {\n        Proposal storage proposal = proposals[_proposalId];\n        for (uint cnt = 0; cnt <= proposal.numOfChoices; cnt++) {\n            votes[cnt] = proposal.votes[cnt];\n        }\n    }\n\n    /**\n      * @dev isVotable check if the proposal is votable\n      * @param _proposalId the ID of the proposal\n      * @return bool true or false\n    */\n    function isVotable(bytes32 _proposalId) public constant returns(bool) {\n        return  proposals[_proposalId].open;\n    }\n\n    function cancelVoteInternal(bytes32 _proposalId, address _voter) internal {\n        Proposal storage proposal = proposals[_proposalId];\n        Voter memory voter = proposal.voters[_voter];\n        proposal.votes[voter.vote] = (proposal.votes[voter.vote]).sub(voter.reputation);\n        proposal.totalVotes = (proposal.totalVotes).sub(voter.reputation);\n        delete proposal.voters[_voter];\n        LogCancelVoting(_proposalId, _voter);\n    }\n\n    function deleteProposal(bytes32 _proposalId) private {\n        Proposal storage proposal = proposals[_proposalId];\n        for (uint cnt = 0; cnt <= proposal.numOfChoices; cnt++) {\n            delete proposal.votes[cnt];\n        }\n        delete proposals[_proposalId];\n    }\n\n    /**\n     * @dev Vote for a proposal, if the voter already voted, cancel the last vote and set a new one instead\n     * @param _proposalId id of the proposal\n     * @param _voter used in case the vote is cast for someone else\n     * @param _vote a value between 0 to and the proposal's number of choices.\n     * @return true in case of proposal execution otherwise false\n     * throws if proposal is not open or if it has been executed\n     * NB: executes the proposal if a decision has been reached\n     */\n    function internalVote(bytes32 _proposalId, address _voter, uint _vote, uint _rep) private returns(bool) {\n        Proposal storage proposal = proposals[_proposalId];\n        Parameters memory params = parameters[proposal.paramsHash];\n        // Check valid vote:\n        require(_vote <= proposal.numOfChoices);\n        // Check voter has enough reputation:\n        uint reputation = params.reputationSystem.reputationOf(_voter);\n        require(reputation >= _rep);\n        if (_rep == 0) {\n            _rep = reputation;\n        }\n        // If this voter has already voted, first cancel the vote:\n        if (proposal.voters[_voter].reputation != 0) {\n            cancelVoteInternal(_proposalId, _voter);\n        }\n        // The voting itself:\n        proposal.votes[_vote] = _rep.add(proposal.votes[_vote]);\n        proposal.totalVotes = _rep.add(proposal.totalVotes);\n        proposal.voters[_voter] = Voter({\n            reputation: _rep,\n            vote: _vote\n        });\n        // Event:\n        LogVoteProposal(_proposalId, _voter, _vote, reputation, (_voter != msg.sender));\n        // execute the proposal if this vote was decisive:\n        return execute(_proposalId);\n    }\n}\n",
  "sourcePath": "/Users/tibet/Dev/Emergence/daostack/contracts/VotingMachines/AbsoluteVote.sol",
  "compiler": {
    "name": "solc",
    "version": "0.4.18+commit.9cf6e910.Emscripten.clang"
  },
  "schemaVersion": "1.0.1",
  "updatedAt": "2018-01-04T23:51:58.298Z"
}