{
  "contractName": "AbsoluteVote",
  "abi": [
    {
      "constant": true,
      "inputs": [
        {
          "name": "",
          "type": "bytes32"
        }
      ],
      "name": "parameters",
      "outputs": [
        {
          "name": "reputationSystem",
          "type": "address"
        },
        {
          "name": "precReq",
          "type": "uint256"
        },
        {
          "name": "allowOwner",
          "type": "bool"
        }
      ],
      "payable": false,
      "stateMutability": "view",
      "type": "function"
    },
    {
      "constant": true,
      "inputs": [
        {
          "name": "_reputationSystem",
          "type": "address"
        },
        {
          "name": "_precReq",
          "type": "uint256"
        },
        {
          "name": "_allowOwner",
          "type": "bool"
        }
      ],
      "name": "getParametersHash",
      "outputs": [
        {
          "name": "",
          "type": "bytes32"
        }
      ],
      "payable": false,
      "stateMutability": "view",
      "type": "function"
    },
    {
      "constant": true,
      "inputs": [
        {
          "name": "_proposalId",
          "type": "bytes32"
        },
        {
          "name": "_voter",
          "type": "address"
        }
      ],
      "name": "voteInfo",
      "outputs": [
        {
          "name": "",
          "type": "uint256[13]"
        }
      ],
      "payable": false,
      "stateMutability": "view",
      "type": "function"
    },
    {
      "constant": true,
      "inputs": [
        {
          "name": "",
          "type": "bytes32"
        }
      ],
      "name": "proposals",
      "outputs": [
        {
          "name": "owner",
          "type": "address"
        },
        {
          "name": "avatar",
          "type": "address"
        },
        {
          "name": "numOfChoices",
          "type": "uint256"
        },
        {
          "name": "executable",
          "type": "address"
        },
        {
          "name": "paramsHash",
          "type": "bytes32"
        },
        {
          "name": "totalVotes",
          "type": "uint256"
        },
        {
          "name": "opened",
          "type": "bool"
        }
      ],
      "payable": false,
      "stateMutability": "view",
      "type": "function"
    },
    {
      "constant": false,
      "inputs": [
        {
          "name": "_proposalId",
          "type": "bytes32"
        },
        {
          "name": "_vote",
          "type": "uint256"
        },
        {
          "name": "_voter",
          "type": "address"
        }
      ],
      "name": "ownerVote",
      "outputs": [
        {
          "name": "",
          "type": "bool"
        }
      ],
      "payable": false,
      "stateMutability": "nonpayable",
      "type": "function"
    },
    {
      "constant": false,
      "inputs": [
        {
          "name": "_proposalId",
          "type": "bytes32"
        }
      ],
      "name": "cancelProposal",
      "outputs": [
        {
          "name": "",
          "type": "bool"
        }
      ],
      "payable": false,
      "stateMutability": "nonpayable",
      "type": "function"
    },
    {
      "constant": true,
      "inputs": [
        {
          "name": "_proposalId",
          "type": "bytes32"
        }
      ],
      "name": "proposalStatus",
      "outputs": [
        {
          "name": "",
          "type": "uint256[13]"
        }
      ],
      "payable": false,
      "stateMutability": "view",
      "type": "function"
    },
    {
      "constant": false,
      "inputs": [
        {
          "name": "_numOfChoices",
          "type": "uint256"
        },
        {
          "name": "_paramsHash",
          "type": "bytes32"
        },
        {
          "name": "_avatar",
          "type": "address"
        },
        {
          "name": "_executable",
          "type": "address"
        }
      ],
      "name": "propose",
      "outputs": [
        {
          "name": "",
          "type": "bytes32"
        }
      ],
      "payable": false,
      "stateMutability": "nonpayable",
      "type": "function"
    },
    {
      "constant": false,
      "inputs": [
        {
          "name": "_proposalId",
          "type": "bytes32"
        }
      ],
      "name": "cancelVote",
      "outputs": [],
      "payable": false,
      "stateMutability": "nonpayable",
      "type": "function"
    },
    {
      "constant": false,
      "inputs": [
        {
          "name": "_proposalId",
          "type": "bytes32"
        }
      ],
      "name": "executeProposal",
      "outputs": [
        {
          "name": "",
          "type": "bool"
        }
      ],
      "payable": false,
      "stateMutability": "nonpayable",
      "type": "function"
    },
    {
      "constant": false,
      "inputs": [
        {
          "name": "_proposalId",
          "type": "bytes32"
        },
        {
          "name": "_vote",
          "type": "uint256"
        }
      ],
      "name": "vote",
      "outputs": [],
      "payable": false,
      "stateMutability": "nonpayable",
      "type": "function"
    },
    {
      "constant": true,
      "inputs": [
        {
          "name": "_proposalId",
          "type": "bytes32"
        }
      ],
      "name": "getNumberOfChoices",
      "outputs": [
        {
          "name": "",
          "type": "uint256"
        }
      ],
      "payable": false,
      "stateMutability": "view",
      "type": "function"
    },
    {
      "constant": false,
      "inputs": [
        {
          "name": "_proposalId",
          "type": "bytes32"
        },
        {
          "name": "_vote",
          "type": "uint256"
        },
        {
          "name": "_rep",
          "type": "uint256"
        },
        {
          "name": "",
          "type": "uint256"
        }
      ],
      "name": "voteWithSpecifiedAmounts",
      "outputs": [],
      "payable": false,
      "stateMutability": "nonpayable",
      "type": "function"
    },
    {
      "constant": false,
      "inputs": [
        {
          "name": "_reputationSystem",
          "type": "address"
        },
        {
          "name": "_precReq",
          "type": "uint256"
        },
        {
          "name": "_allowOwner",
          "type": "bool"
        }
      ],
      "name": "setParameters",
      "outputs": [
        {
          "name": "",
          "type": "bytes32"
        }
      ],
      "payable": false,
      "stateMutability": "nonpayable",
      "type": "function"
    },
    {
      "anonymous": false,
      "inputs": [
        {
          "indexed": true,
          "name": "_proposalId",
          "type": "bytes32"
        },
        {
          "indexed": false,
          "name": "_numOfChoices",
          "type": "uint256"
        },
        {
          "indexed": false,
          "name": "_proposer",
          "type": "address"
        },
        {
          "indexed": false,
          "name": "_paramsHash",
          "type": "bytes32"
        }
      ],
      "name": "LogNewProposal",
      "type": "event"
    },
    {
      "anonymous": false,
      "inputs": [
        {
          "indexed": true,
          "name": "_proposalId",
          "type": "bytes32"
        }
      ],
      "name": "LogCancelProposal",
      "type": "event"
    },
    {
      "anonymous": false,
      "inputs": [
        {
          "indexed": true,
          "name": "_proposalId",
          "type": "bytes32"
        },
        {
          "indexed": false,
          "name": "_decision",
          "type": "uint256"
        }
      ],
      "name": "LogExecuteProposal",
      "type": "event"
    },
    {
      "anonymous": false,
      "inputs": [
        {
          "indexed": true,
          "name": "_proposalId",
          "type": "bytes32"
        },
        {
          "indexed": true,
          "name": "_voter",
          "type": "address"
        },
        {
          "indexed": false,
          "name": "_vote",
          "type": "uint256"
        },
        {
          "indexed": false,
          "name": "_reputation",
          "type": "uint256"
        },
        {
          "indexed": false,
          "name": "_isOwnerVote",
          "type": "bool"
        }
      ],
      "name": "LogVoteProposal",
      "type": "event"
    },
    {
      "anonymous": false,
      "inputs": [
        {
          "indexed": true,
          "name": "_proposalId",
          "type": "bytes32"
        },
        {
          "indexed": true,
          "name": "_voter",
          "type": "address"
        }
      ],
      "name": "LogCancelVoting",
      "type": "event"
    }
  ],
  "bytecode": "0x6060604052341561000f57600080fd5b6111da8061001e6000396000f3006060604052600436106100b65763ffffffff60e060020a6000350416630250680481146100bb57806302a1cdaf14610101578063119ce91b1461013a57806332ed5b1214610195578063339e23d1146101f557806337376ca81461022e57806379a1c1f61461024457806388737b5e1461025a5780639525c0cc14610285578063980ff6c61461029d5780639ef1204c146102b3578063a003651d146102cc578063ac5d8745146102e2578063fed0d7df14610301575b600080fd5b34156100c657600080fd5b6100d1600435610328565b604051600160a060020a039093168352602083019190915215156040808301919091526060909101905180910390f35b341561010c57600080fd5b610128600160a060020a03600435166024356044351515610356565b60405190815260200160405180910390f35b341561014557600080fd5b61015c600435600160a060020a03602435166103c0565b60405180826101a080838360005b8381101561018257808201518382015260200161016a565b5050505090500191505060405180910390f35b34156101a057600080fd5b6101ab600435610484565b604051600160a060020a0397881681529587166020870152604080870195909552929095166060850152608084015260a083019390935291151560c082015260e001905180910390f35b341561020057600080fd5b61021a600435602435600160a060020a03604435166104d3565b604051901515815260200160405180910390f35b341561023957600080fd5b61021a600435610549565b341561024f57600080fd5b61015c600435610664565b341561026557600080fd5b610128600435602435600160a060020a03604435811690606435166106ee565b341561029057600080fd5b61029b6004356108e5565b005b34156102a857600080fd5b61021a600435610915565b34156102be57600080fd5b61029b600435602435610c6d565b34156102d757600080fd5b610128600435610c7a565b34156102ed57600080fd5b61029b600435602435604435606435610c8f565b341561030c57600080fd5b610128600160a060020a03600435166024356044351515610cc4565b600060208190529081526040902080546001820154600290920154600160a060020a03909116919060ff1683565b6000838383604051600160a060020a03939093166c01000000000000000000000000028352601483019190915215157f0100000000000000000000000000000000000000000000000000000000000000026034820152603501604051809103902090509392505050565b6103c8611113565b6103d061113b565b6000848152600160209081526040808320600160a060020a038716845260070190915290819020908051908101604090815282548252600190920154602082015291506101a0905190810160405280825181526020018260200151815260200160008152602001600081526020016000815260200160008152602001600081526020016000815260200160008152602001600081526020016000815260200160008152602001600081525091505092915050565b60016020819052600091825260409091208054918101546002820154600383015460048401546005850154600890950154600160a060020a039687169694851695939490921692909160ff1687565b600083815260016020526040812054849033600160a060020a039081169116146104fc57600080fd5b60008581526001602090815260408083206004015483529082905290206002015460ff16151561052f5760009150610541565b61053c8584866000610d79565b600191505b509392505050565b600081815260016020526040812054829033600160a060020a0390811691161461057257600080fd5b600083815260016020526040902060080154839060ff16151561059457600080fd5b60008481526001602090815260408083206004015483529082905290206002015460ff1615156105c7576000925061065d565b6000848152600160208190526040808320805473ffffffffffffffffffffffffffffffffffffffff19908116825592810180548416905560028101849055600381018054909316909255600482018390556005820192909255600801805460ff1916905584907fd06f0966987a6526e0c1291838668e5dbcaf062ae68baadf345ff3edd792e8b5905160405180910390a2600192505b5050919050565b61066c611113565b600080610677611113565b6000858152600160205260408120600881015490945060ff1661069b57600061069e565b60015b60ff1692508282600c60200201525060005b600284015481116106e55760008181526006850160205260409020548282600d81106106d857fe5b60200201526001016106b0565b50949350505050565b6000806106f9611152565b600086815260208190526040902054600160a060020a0316151561071c57600080fd5b60008711801561072d5750600a8711155b151561073857600080fd5b30600254604051600160a060020a03929092166c01000000000000000000000000028252601482015260340160405190819003902060028054600190810190915560408084018a905260808401899052600160a060020a03808916602080870191909152888216606087015233909116855260c085018390526000848152929052902090925081908151815473ffffffffffffffffffffffffffffffffffffffff1916600160a060020a0391909116178155602082015160018201805473ffffffffffffffffffffffffffffffffffffffff1916600160a060020a039290921691909117905560408201518160020155606082015160038201805473ffffffffffffffffffffffffffffffffffffffff1916600160a060020a03929092169190911790556080820151600482015560a0820151816005015560c0820151600891909101805460ff191691151591909117905550817f82cc1e47a0fddd1b4b3576bd36d20b845eac0f69b7057cb0357a3cb4ce29cb65883389604051928352600160a060020a0390911660208301526040808301919091526060909101905180910390a25095945050505050565b600081815260016020526040902060080154819060ff16151561090757600080fd5b6109118233610fdf565b5050565b6000806000806000610925611152565b600087815260016020526040902060080154879060ff16151561094757600080fd5b6000888152600160209081526040808320600481015484529183905280832054919850600160a060020a03909116916318160ddd9151602001526040518163ffffffff1660e060020a028152600401602060405180830381600087803b15156109af57600080fd5b6102c65a03f115156109c057600080fd5b505050604051805160048801546000908152602081905260408120600101549197509095509350505b60028601548311610c5d576000838152600687016020526040902054606485870204901115610c52578560e060405190810160405290816000820160009054906101000a9004600160a060020a0316600160a060020a0316600160a060020a031681526020016001820160009054906101000a9004600160a060020a0316600160a060020a0316600160a060020a03168152602001600282015481526020016003820160009054906101000a9004600160a060020a0316600160a060020a0316600160a060020a03168152602001600482015460001916600019168152602001600582015481526020016008820160009054906101000a900460ff1615151515815250509150600160008960001916600019168152602001908152602001600020600080820160006101000a815490600160a060020a0302191690556001820160006101000a815490600160a060020a03021916905560028201600090556003820160006101000a815490600160a060020a030219169055600482016000905560058201600090556008820160006101000a81549060ff0219169055505087600019167f81be7b59f2640007c1101f52199758a7ea91009239bc8a7a2449472c02d221cc8460405190815260200160405180910390a28160600151600160a060020a031663310ce4e28984602001518660006040516020015260405160e060020a63ffffffff86160281526004810193909352600160a060020a0390911660248301526044820152606401602060405180830381600087803b1515610c2d57600080fd5b6102c65a03f11515610c3e57600080fd5b505050604051805190505060019650610c62565b6001909201916109e9565b600096505b505050505050919050565b6109118233836000610d79565b60009081526001602052604090206002015490565b600084815260016020526040902060080154849060ff161515610cb157600080fd5b610cbd85338686610d79565b5050505050565b60008060648411158015610cd85750600084115b1515610ce357600080fd5b610cee858585610356565b905060606040519081016040908152600160a060020a0387168252602080830187905285151582840152600084815290819052208151815473ffffffffffffffffffffffffffffffffffffffff1916600160a060020a0391909116178155602082015181600101556040820151600291909101805460ff191691151591909117905550949350505050565b6000610d8361118e565b6000868152600160205260408120600801548190889060ff161515610da757600080fd5b6000898152600160209081526040808320600481015484529183905291829020909650906060905190810160409081528254600160a060020a031682526001830154602083015260029283015460ff1615159082015290860154909450871115610e1057600080fd5b8351600160a060020a031663db89c0448960006040516020015260405160e060020a63ffffffff8416028152600160a060020a039091166004820152602401602060405180830381600087803b1515610e6857600080fd5b6102c65a03f11515610e7957600080fd5b505050604051805193505085831015610e9157600080fd5b851515610e9c578295505b600160a060020a038816600090815260078601602052604090206001015415610ec957610ec98989610fdf565b6000878152600686016020526040902054610eeb90879063ffffffff6110eb16565b60008881526006870160205260409020556005850154610f1290879063ffffffff6110eb16565b60058601556040805190810160409081528882526020808301899052600160a060020a038b1660009081526007890190915220815181556020820151816001015590505033600160a060020a031688600160a060020a0316141515610f7657600191505b600160a060020a038816897f98919cf2e7177b2b2794b7596166eb688e15f8422b46387aab412d792035c012898686604051928352602083019190915215156040808301919091526060909101905180910390a3610fd389610915565b50505050505050505050565b6000610fe961113b565b6000848152600160209081526040808320600160a060020a03871684526007810190925291829020909350908051908101604052815481526001909101546020820190815290915061105b9051600684016000845181526020019081526020016000205461110190919063ffffffff16565b600683016000835181526020019081526020016000208190555061108e816020015160058401549063ffffffff61110116565b6005830155600160a060020a03831660008181526007840160205260408082208281556001019190915585907f694e00fc5266ab4e93df364ff0161f5d7e3a035126b13d918755bfed6d8ab299905160405180910390a350505050565b6000828201838110156110fa57fe5b9392505050565b60008282111561110d57fe5b50900390565b6101a0604051908101604052600d815b60008152602001906001900390816111235790505090565b604080519081016040526000808252602082015290565b60e06040519081016040908152600080835260208301819052908201819052606082018190526080820181905260a0820181905260c082015290565b6060604051908101604090815260008083526020830181905290820152905600a165627a7a72305820c85bba7dc286b89656f42df0f607306784d0cadc72f3ca5b84ef69a2db87f1980029",
  "source": "pragma solidity ^0.4.18;\n\nimport \"../controller/Reputation.sol\";\nimport \"./IntVoteInterface.sol\";\n\ncontract AbsoluteVote is IntVoteInterface{\n  using SafeMath for uint;\n\n\n  struct Parameters {\n    Reputation reputationSystem; // the reputation system that is being used\n    uint precReq; // how many precentages are required for the porpsal to be passed\n    bool allowOwner; // does this porposal has a owner who has owner rights?\n  }\n\n  struct Voter {\n    uint vote; // 0 - 'abstain'\n    uint reputation; // amount of voter's reputation\n  }\n\n  struct Proposal {\n    address owner; // the porposal's owner\n    address avatar; // the avatar of the organization that owns the porposal\n    uint numOfChoices;\n    ExecutableInterface executable; // will be executed if the perposal will pass\n    bytes32 paramsHash; // the hash of the parameters of the porposal\n    uint totalVotes;\n    mapping(uint=>uint) votes;\n    mapping(address=>Voter) voters;\n    bool opened; // voting opened flag\n  }\n\n  event LogNewProposal(bytes32 indexed _proposalId, uint _numOfChoices, address _proposer, bytes32 _paramsHash);\n  event LogCancelProposal(bytes32 indexed _proposalId);\n  event LogExecuteProposal(bytes32 indexed _proposalId, uint _decision);\n  event LogVoteProposal(bytes32 indexed _proposalId, address indexed _voter, uint _vote, uint _reputation, bool _isOwnerVote);\n  event LogCancelVoting(bytes32 indexed _proposalId, address indexed _voter);\n\n  mapping(bytes32=>Parameters) public parameters;  // A mapping from hashes to parameters\n  mapping(bytes32=>Proposal) public proposals; // Mapping from the ID of the proposal to the proposal itself.\n\n  uint constant maxNumOfChoices = 10;\n  uint proposalsCnt; // Total amount of porposals\n\n  /**\n   * @dev Check that there is owner for the porposal and he sent the transaction\n   */\n  modifier onlyProposalOwner(bytes32 _proposalId) {\n    require(msg.sender == proposals[_proposalId].owner);\n    _;\n  }\n\n  /**\n   * @dev Check that the porposal is votable (opened and not executed yet)\n   */\n  modifier votableProposal(bytes32 _proposalId) {\n    require(proposals[_proposalId].opened);\n    _;\n  }\n\n  /**\n   * @dev hash the parameters, save them if necessary, and return the hash value\n   */\n  function setParameters(Reputation _reputationSystem, uint _precReq, bool _allowOwner) public returns(bytes32) {\n    require(_precReq <= 100 && _precReq > 0);\n    bytes32 hashedParameters = getParametersHash(_reputationSystem, _precReq, _allowOwner);\n    parameters[hashedParameters] = Parameters({\n      reputationSystem: _reputationSystem,\n      precReq: _precReq,\n      allowOwner: _allowOwner\n    });\n    return hashedParameters;\n  }\n\n  /**\n   * @dev hashParameters returns a hash of the given parameters\n   */\n  function getParametersHash(Reputation _reputationSystem, uint _precReq, bool _allowOwner) public constant returns(bytes32) {\n      return keccak256(_reputationSystem, _precReq, _allowOwner);\n  }\n\n  /**\n   * @dev register a new proposal with the given parameters. Every porposal has a unique ID which is being\n   * generated by calculating keccak256 of a incremented counter.\n   * @param _paramsHash defined the parameters of the voting machine used for this proposal\n   * @param _avatar an address to be sent as the payload to the _executable contract.\n   * @param _executable This contract will be executed when vote is over.\n   * TODO: Maybe we neem to check the the 0 < precReq <= 100 ??\n   */\n  function propose(uint _numOfChoices, bytes32 _paramsHash, address _avatar, ExecutableInterface _executable) public returns(bytes32) {\n    // Check valid params and number of choices:\n    require(parameters[_paramsHash].reputationSystem != address(0));\n    require(_numOfChoices > 0 && _numOfChoices <= maxNumOfChoices);\n\n    // Generate a unique ID:\n    bytes32 proposalId = keccak256(this, proposalsCnt);\n    proposalsCnt++;\n\n    // Open proposal:\n    Proposal memory proposal;\n    proposal.numOfChoices = _numOfChoices;\n    proposal.paramsHash = _paramsHash;\n    proposal.avatar = _avatar;\n    proposal.executable = _executable;\n    proposal.owner = msg.sender;\n    proposal.opened = true;\n    proposals[proposalId] = proposal;\n    LogNewProposal(proposalId, _numOfChoices, msg.sender, _paramsHash);\n    return proposalId;\n  }\n\n  /**\n   * @dev Cancel a porposal, only the owner can call this function and only if allowOwner flag is true.\n   * @param _proposalId the porposal ID\n   */\n  function cancelProposal(bytes32 _proposalId) public onlyProposalOwner(_proposalId) votableProposal(_proposalId) returns(bool){\n    if (! parameters[proposals[_proposalId].paramsHash].allowOwner) {\n      return false;\n    }\n    delete proposals[_proposalId];\n    LogCancelProposal(_proposalId);\n    return true;\n  }\n\n  /**\n   * @dev Vote for a proposal, if the voter already voted, cancel the last vote and set a new one instead\n   * @param _proposalId id of the proposal\n   * @param _voter used in case the vote is cast for someone else\n   * @param _vote yes (1) / no (-1) / abstain (0)\n   * @return true in case of success\n   * throws if proposal is not opened or if it is executed\n   * NB: executes the proposal if a decision has been reached\n   */\n  function internalVote(bytes32 _proposalId, address _voter, uint _vote, uint _rep) internal votableProposal(_proposalId) {\n    Proposal storage proposal = proposals[_proposalId];\n    Parameters memory params = parameters[proposal.paramsHash];\n\n    // Check valid vote:\n    require(_vote <= proposal.numOfChoices);\n\n    // Check voter has enough reputation:\n    uint reputation = params.reputationSystem.reputationOf(_voter);\n    require(reputation >= _rep);\n    if (_rep == 0) {\n      _rep = reputation;\n    }\n\n    // If this voter has already voted, first cancel the vote:\n    if (proposal.voters[_voter].reputation != 0) {\n        cancelVoteInternal(_proposalId, _voter);\n    }\n\n    // The voting itself:\n    proposal.votes[_vote] = _rep.add(proposal.votes[_vote]);\n    proposal.totalVotes = _rep.add(proposal.totalVotes);\n    proposal.voters[_voter] = Voter({\n      reputation: _rep,\n      vote: _vote\n    });\n\n    // Check if ownerVote:\n    bool isOwnerVote;\n    if (_voter != msg.sender) {\n      isOwnerVote = true;\n    }\n\n    // Event:\n    LogVoteProposal(_proposalId, _voter, _vote, reputation, isOwnerVote);\n\n    // execute the proposal if this vote was decisive:\n    executeProposal(_proposalId);\n  }\n\n  /**\n   * @dev voting function\n   * @param _proposalId id of the proposal\n   * @param _vote yes (1) / no (-1) / abstain (0)\n   */\n  function vote(bytes32 _proposalId, uint _vote) public {\n    internalVote(_proposalId, msg.sender, _vote, 0);\n  }\n\n  /**\n   * @dev voting function with owner functionality (can vote on behalf of someone else)\n   * @param _proposalId id of the proposal\n   * @param _vote yes (1) / no (-1) / abstain (0)\n   * @param _voter will be voted with that voter's address\n   */\n  function ownerVote(bytes32 _proposalId, uint _vote, address _voter) public onlyProposalOwner(_proposalId) returns(bool) {\n    if (! parameters[proposals[_proposalId].paramsHash].allowOwner) {\n      return false;\n    }\n    internalVote(_proposalId, _voter, _vote, 0);\n    return true;\n  }\n\n  function voteWithSpecifiedAmounts(bytes32 _proposalId, uint _vote, uint _rep, uint) public votableProposal(_proposalId) {\n    internalVote(_proposalId, msg.sender, _vote, _rep);\n  }\n\n  function cancelVoteInternal(bytes32 _proposalId, address _voter) internal {\n    Proposal storage proposal = proposals[_proposalId];\n    Voter memory voter = proposal.voters[_voter];\n\n    proposal.votes[voter.vote] = (proposal.votes[voter.vote]).sub(voter.reputation);\n    proposal.totalVotes = (proposal.totalVotes).sub(voter.reputation);\n\n    delete proposal.voters[_voter];\n    LogCancelVoting(_proposalId, _voter);\n  }\n\n  /**\n   * @dev Cancel the vote of the msg.sender: subtract the reputation amount from the votes\n   * and delete the voter from the porposal struct\n   * @param _proposalId id of the proposal\n   */\n  function cancelVote(bytes32 _proposalId) public votableProposal(_proposalId) {\n    cancelVoteInternal(_proposalId, msg.sender);\n  }\n\n  /**\n   * @dev check if the proposal has been decided, and if so, execute the proposal\n   * @param _proposalId the id of the proposal\n   * @return bool is the porposal has been executed or not?\n   */\n  // TODO: do we want to delete the vote from the proposals mapping?\n  function executeProposal(bytes32 _proposalId) public votableProposal(_proposalId) returns(bool) {\n    Proposal storage proposal = proposals[_proposalId];\n\n    uint totalReputation = parameters[proposal.paramsHash].reputationSystem.totalSupply();\n    uint precReq = parameters[proposal.paramsHash].precReq;\n\n    // Check if someone crossed the bar:\n    for (uint cnt=0; cnt<=proposal.numOfChoices; cnt++) {\n      if (proposal.votes[cnt] > totalReputation*precReq/100) {\n        Proposal memory tmpProposal = proposal;\n        delete proposals[_proposalId];\n        LogExecuteProposal(_proposalId, cnt);\n        (tmpProposal.executable).execute(_proposalId, tmpProposal.avatar, int(cnt));\n        return true;\n      }\n    }\n\n    return false;\n  }\n\n  /**\n   * @dev getNumberOfChoices returns the number of choices possible in this proposal\n   * @param _proposalId the ID of the proposal\n   * @return uint that contains number of choices\n   */\n  function getNumberOfChoices(bytes32 _proposalId) public constant returns(uint) {\n    return proposals[_proposalId].numOfChoices;\n  }\n\n  /**\n   * @dev voteInfo returns the vote and the amount of reputation of the user committed to this proposal\n   * @param _proposalId the ID of the proposal\n   * @param _voter the address of the voter\n   * @return int[10] array that contains the vote's info:\n   * amount of reputation committed by _voter to _proposalId, and the voters vote (1/-1/-0)\n   */\n  function voteInfo(bytes32 _proposalId, address _voter) public constant returns(uint[13]) {\n    Voter memory voter = proposals[_proposalId].voters[_voter];\n    return [voter.vote, voter.reputation, 0, 0, 0, 0, 0, 0, 0, 0, 0, 0, 0];\n  }\n\n  /**\n   * @dev proposalStatus returns the number of yes, no, and abstain and if the porposal is ended of a given porposal id\n   * @param _proposalId the ID of the proposal\n   * @return int[10] array that contains the porposal's info:\n   * number of yes, no, and abstain, and if the voting for the porposal has ended\n   */\n  function proposalStatus(bytes32 _proposalId) public constant returns(uint[13]) {\n    Proposal storage proposal = proposals[_proposalId];\n    uint opened = proposal.opened ? 1 : 0;\n    uint[13] memory returnedArray;\n    returnedArray[12] = opened;\n    for (uint cnt=0; cnt<=proposal.numOfChoices; cnt++) {\n      returnedArray[cnt] = proposal.votes[cnt];\n    }\n    return returnedArray;\n  }\n}\n",
  "sourcePath": "/Users/tibet/Dev/Emergence/daostack/contracts/VotingMachines/AbsoluteVote.sol",
  "compiler": {
    "name": "solc",
    "version": "0.4.18+commit.9cf6e910.Emscripten.clang"
  },
  "schemaVersion": "1.0.1",
  "updatedAt": "2017-11-22T00:50:28.580Z"
}