{
  "contractName": "ContributionReward",
  "abi": [
    {
      "constant": true,
      "inputs": [
        {
          "name": "",
          "type": "bytes32"
        }
      ],
      "name": "parameters",
      "outputs": [
        {
          "name": "orgNativeTokenFee",
          "type": "uint256"
        },
        {
          "name": "voteApproveParams",
          "type": "bytes32"
        },
        {
          "name": "schemeNativeTokenFee",
          "type": "uint256"
        },
        {
          "name": "intVote",
          "type": "address"
        }
      ],
      "payable": false,
      "stateMutability": "view",
      "type": "function"
    },
    {
      "constant": true,
      "inputs": [
        {
          "name": "",
          "type": "address"
        },
        {
          "name": "",
          "type": "bytes32"
        }
      ],
      "name": "organizationsProposals",
      "outputs": [
        {
          "name": "contributionDescriptionHash",
          "type": "bytes32"
        },
        {
          "name": "nativeTokenReward",
          "type": "uint256"
        },
        {
          "name": "reputationReward",
          "type": "uint256"
        },
        {
          "name": "ethReward",
          "type": "uint256"
        },
        {
          "name": "externalToken",
          "type": "address"
        },
        {
          "name": "externalTokenReward",
          "type": "uint256"
        },
        {
          "name": "beneficiary",
          "type": "address"
        }
      ],
      "payable": false,
      "stateMutability": "view",
      "type": "function"
    },
    {
      "constant": false,
      "inputs": [
        {
          "name": "_proposalId",
          "type": "bytes32"
        },
        {
          "name": "_avatar",
          "type": "address"
        },
        {
          "name": "_param",
          "type": "int256"
        }
      ],
      "name": "execute",
      "outputs": [
        {
          "name": "",
          "type": "bool"
        }
      ],
      "payable": false,
      "stateMutability": "nonpayable",
      "type": "function"
    },
    {
      "constant": true,
      "inputs": [],
      "name": "beneficiary",
      "outputs": [
        {
          "name": "",
          "type": "address"
        }
      ],
      "payable": false,
      "stateMutability": "view",
      "type": "function"
    },
    {
      "constant": false,
      "inputs": [
        {
          "name": "_nativeToken",
          "type": "address"
        },
        {
          "name": "_fee",
          "type": "uint256"
        },
        {
          "name": "_beneficiary",
          "type": "address"
        },
        {
          "name": "_hashedParameters",
          "type": "bytes32"
        }
      ],
      "name": "updateParameters",
      "outputs": [],
      "payable": false,
      "stateMutability": "nonpayable",
      "type": "function"
    },
    {
      "constant": true,
      "inputs": [
        {
          "name": "",
          "type": "address"
        }
      ],
      "name": "organizations",
      "outputs": [
        {
          "name": "",
          "type": "bool"
        }
      ],
      "payable": false,
      "stateMutability": "view",
      "type": "function"
    },
    {
      "constant": false,
      "inputs": [
        {
          "name": "_avatar",
          "type": "address"
        },
        {
          "name": "_contributionDesciptionHash",
          "type": "bytes32"
        },
        {
          "name": "_rewards",
          "type": "uint256[4]"
        },
        {
          "name": "_externalToken",
          "type": "address"
        },
        {
          "name": "_beneficiary",
          "type": "address"
        }
      ],
      "name": "proposeContributionReward",
      "outputs": [
        {
          "name": "",
          "type": "bytes32"
        }
      ],
      "payable": false,
      "stateMutability": "nonpayable",
      "type": "function"
    },
    {
      "constant": true,
      "inputs": [],
      "name": "owner",
      "outputs": [
        {
          "name": "",
          "type": "address"
        }
      ],
      "payable": false,
      "stateMutability": "view",
      "type": "function"
    },
    {
      "constant": false,
      "inputs": [
        {
          "name": "_avatar",
          "type": "address"
        }
      ],
      "name": "registerOrganization",
      "outputs": [],
      "payable": false,
      "stateMutability": "nonpayable",
      "type": "function"
    },
    {
      "constant": true,
      "inputs": [
        {
          "name": "_orgNativeTokenFee",
          "type": "uint256"
        },
        {
          "name": "_schemeNativeTokenFee",
          "type": "uint256"
        },
        {
          "name": "_voteApproveParams",
          "type": "bytes32"
        },
        {
          "name": "_intVote",
          "type": "address"
        }
      ],
      "name": "getParametersHash",
      "outputs": [
        {
          "name": "",
          "type": "bytes32"
        }
      ],
      "payable": false,
      "stateMutability": "pure",
      "type": "function"
    },
    {
      "constant": false,
      "inputs": [
        {
          "name": "_orgNativeTokenFee",
          "type": "uint256"
        },
        {
          "name": "_schemeNativeTokenFee",
          "type": "uint256"
        },
        {
          "name": "_voteApproveParams",
          "type": "bytes32"
        },
        {
          "name": "_intVote",
          "type": "address"
        }
      ],
      "name": "setParameters",
      "outputs": [
        {
          "name": "",
          "type": "bytes32"
        }
      ],
      "payable": false,
      "stateMutability": "nonpayable",
      "type": "function"
    },
    {
      "constant": true,
      "inputs": [
        {
          "name": "_avatar",
          "type": "address"
        }
      ],
      "name": "isRegistered",
      "outputs": [
        {
          "name": "",
          "type": "bool"
        }
      ],
      "payable": false,
      "stateMutability": "view",
      "type": "function"
    },
    {
      "constant": true,
      "inputs": [],
      "name": "fee",
      "outputs": [
        {
          "name": "",
          "type": "uint256"
        }
      ],
      "payable": false,
      "stateMutability": "view",
      "type": "function"
    },
    {
      "constant": true,
      "inputs": [],
      "name": "nativeToken",
      "outputs": [
        {
          "name": "",
          "type": "address"
        }
      ],
      "payable": false,
      "stateMutability": "view",
      "type": "function"
    },
    {
      "constant": false,
      "inputs": [
        {
          "name": "newOwner",
          "type": "address"
        }
      ],
      "name": "transferOwnership",
      "outputs": [],
      "payable": false,
      "stateMutability": "nonpayable",
      "type": "function"
    },
    {
      "constant": true,
      "inputs": [],
      "name": "hashedParameters",
      "outputs": [
        {
          "name": "",
          "type": "bytes32"
        }
      ],
      "payable": false,
      "stateMutability": "view",
      "type": "function"
    },
    {
      "inputs": [
        {
          "name": "_nativeToken",
          "type": "address"
        },
        {
          "name": "_fee",
          "type": "uint256"
        },
        {
          "name": "_beneficiary",
          "type": "address"
        }
      ],
      "payable": false,
      "stateMutability": "nonpayable",
      "type": "constructor"
    },
    {
      "anonymous": false,
      "inputs": [
        {
          "indexed": true,
          "name": "_avatar",
          "type": "address"
        },
        {
          "indexed": true,
          "name": "_proposalId",
          "type": "bytes32"
        },
        {
          "indexed": true,
          "name": "_intVoteInterface",
          "type": "address"
        },
        {
          "indexed": false,
          "name": "_contributionDesciption",
          "type": "bytes32"
        },
        {
          "indexed": false,
          "name": "_nativeTokenReward",
          "type": "uint256"
        },
        {
          "indexed": false,
          "name": "_reputationReward",
          "type": "uint256"
        },
        {
          "indexed": false,
          "name": "_ethReward",
          "type": "uint256"
        },
        {
          "indexed": false,
          "name": "_externalTokenReward",
          "type": "uint256"
        },
        {
          "indexed": false,
          "name": "_externalToken",
          "type": "address"
        },
        {
          "indexed": false,
          "name": "_beneficiary",
          "type": "address"
        }
      ],
      "name": "LogNewContributionProposal",
      "type": "event"
    },
    {
      "anonymous": false,
      "inputs": [
        {
          "indexed": true,
          "name": "_avatar",
          "type": "address"
        },
        {
          "indexed": true,
          "name": "_proposalId",
          "type": "bytes32"
        }
      ],
      "name": "LogProposalExecuted",
      "type": "event"
    },
    {
      "anonymous": false,
      "inputs": [
        {
          "indexed": true,
          "name": "_avatar",
          "type": "address"
        },
        {
          "indexed": true,
          "name": "_proposalId",
          "type": "bytes32"
        }
      ],
      "name": "LogProposalDeleted",
      "type": "event"
    },
    {
      "anonymous": false,
      "inputs": [
        {
          "indexed": false,
          "name": "_avatar",
          "type": "address"
        }
      ],
      "name": "OrganizationRegistered",
      "type": "event"
    },
    {
      "anonymous": false,
      "inputs": [
        {
          "indexed": false,
          "name": "proposalId",
          "type": "bytes32"
        }
      ],
      "name": "LogNewProposal",
      "type": "event"
    },
    {
      "anonymous": false,
      "inputs": [
        {
          "indexed": true,
          "name": "previousOwner",
          "type": "address"
        },
        {
          "indexed": true,
          "name": "newOwner",
          "type": "address"
        }
      ],
      "name": "OwnershipTransferred",
      "type": "event"
    }
  ],
  "bytecode": "0x6060604052341561000f57600080fd5b6040516060806112a083398101604052808051919060200180519190602001805160008054600160a060020a03191633600160a060020a031617815590925061006b9150849084908490640100000000610073810261086b1704565b5050506100c6565b60005433600160a060020a0390811691161461008e57600080fd5b60018054600160a060020a0319908116600160a060020a03968716179091556002939093556003805490931691909316179055600455565b6111cb806100d56000396000f3006060604052600436106100cc5763ffffffff60e060020a6000350416630250680481146100d157806306e3a9781461011b578063310ce4e21461018957806338af3eed146101c25780634345a610146101f15780635a1f74061461021f5780637cb37d8a1461023e5780638da5cb5b146102ab57806390be003c146102be57806399c0bef5146102dd578063b8961d3214610305578063c3c5a5471461032d578063ddca3f431461034c578063e1758bd81461035f578063f2fde38b14610372578063f98e87ba14610391575b600080fd5b34156100dc57600080fd5b6100e76004356103a4565b6040519384526020840192909252604080840191909152600160a060020a0390911660608301526080909101905180910390f35b341561012657600080fd5b61013d600160a060020a03600435166024356103d4565b60405196875260208701959095526040808701949094526060860192909252600160a060020a03908116608086015260a085019190915290911660c083015260e0909101905180910390f35b341561019457600080fd5b6101ae600435600160a060020a0360243516604435610426565b604051901515815260200160405180910390f35b34156101cd57600080fd5b6101d561085c565b604051600160a060020a03909116815260200160405180910390f35b34156101fc57600080fd5b61021d600160a060020a03600435811690602435906044351660643561086b565b005b341561022a57600080fd5b6101ae600160a060020a03600435166108be565b341561024957600080fd5b61029960048035600160a060020a0316906024359060c46044826080604051908101604052919082826080808284375093955050600160a060020a038435811694602001351692506108d3915050565b60405190815260200160405180910390f35b34156102b657600080fd5b6101d5610db5565b34156102c957600080fd5b61021d600160a060020a0360043516610dc4565b34156102e857600080fd5b610299600435602435604435600160a060020a0360643516610eed565b341561031057600080fd5b610299600435602435604435600160a060020a0360643516610f3f565b341561033857600080fd5b6101ae600160a060020a0360043516610f98565b341561035757600080fd5b610299610fb6565b341561036a57600080fd5b6101d5610fbc565b341561037d57600080fd5b61021d600160a060020a0360043516610fcb565b341561039c57600080fd5b610299611059565b600760205260009081526040902080546001820154600283015460039093015491929091600160a060020a031684565b6006602081815260009384526040808520909152918352912080546001820154600283015460038401546004850154600586015495909601549395929491939092600160a060020a0390811692911687565b600061043061113c565b600033600160a060020a0316600760006104498861105f565b8152602081019190915260400160002060030154600160a060020a03161461047057600080fd5b83600114156107be57600160a060020a0385166000908152600660209081526040808320898452909152908190209060e0905190810160409081528254825260018301546020830152600283015481830152600383015460608301526004830154600160a060020a039081166080840152600584015460a0840152600690930154831660c083015290935090861690638da5cb5b9060009051602001526040518163ffffffff1660e060020a028152600401602060405180830381600087803b151561053b57600080fd5b6102c65a03f1151561054c57600080fd5b5050506040518051915050600160a060020a0381166318e236e460408401518460c0015160006040516020015260405160e060020a63ffffffff85160281526004810192909252600160a060020a03166024820152604401602060405180830381600087803b15156105bd57600080fd5b6102c65a03f115156105ce57600080fd5b5050506040518051905015156105e357600080fd5b80600160a060020a03166310c5b32883602001518460c0015160006040516020015260405160e060020a63ffffffff85160281526004810192909252600160a060020a03166024820152604401602060405180830381600087803b151561064957600080fd5b6102c65a03f1151561065a57600080fd5b50505060405180519050151561066f57600080fd5b80600160a060020a031663cb16d4a283606001518460c0015160006040516020015260405160e060020a63ffffffff85160281526004810192909252600160a060020a03166024820152604401602060405180830381600087803b15156106d557600080fd5b6102c65a03f115156106e657600080fd5b5050506040518051905015156106fb57600080fd5b60006080830151600160a060020a03161415801561071d575060008260a00151115b156107be5780600160a060020a031663dab0efff83608001518460c001518560a0015160006040516020015260405160e060020a63ffffffff8616028152600160a060020a0393841660048201529190921660248201526044810191909152606401602060405180830381600087803b151561079857600080fd5b6102c65a03f115156107a957600080fd5b5050506040518051905015156107be57600080fd5b600160a060020a03851660008181526006602081815260408084208b8552909152808320838155600181018490556002810184905560038101849055600481018054600160a060020a0319908116909155600582019490945590910180549092169091558791907f1f9b6fe94f8389fd9936094c2246b3cb2b4392e59e72e915e70e6a08a47a1fb9905160405180910390a350600195945050505050565b600354600160a060020a031681565b60005433600160a060020a0390811691161461088657600080fd5b60018054600160a060020a0319908116600160a060020a03968716179091556002939093556003805490931691909316179055600455565b60056020526000908152604090205460ff1681565b60006108dd611178565b60006108e761113c565b600160a060020a038916600090815260056020526040902054899060ff16151561091057600080fd5b6007600061091d8c61105f565b815260208101919091526040908101600020906080905190810160409081528254825260018301546020830152600283015490820152600390910154600160a060020a031660608201529350600084511115610a5a5789600160a060020a031663e1758bd86000604051602001526040518163ffffffff1660e060020a028152600401602060405180830381600087803b15156109b957600080fd5b6102c65a03f115156109ca57600080fd5b5050506040518051600160a060020a031690506323b872dd338c875160006040516020015260405160e060020a63ffffffff8616028152600160a060020a0393841660048201529190921660248201526044810191909152606401602060405180830381600087803b1515610a3e57600080fd5b6102c65a03f11515610a4f57600080fd5b505050604051805150505b600084604001511115610af357600154600160a060020a03166323b872dd338c604088015160006040516020015260405160e060020a63ffffffff8616028152600160a060020a0393841660048201529190921660248201526044810191909152606401602060405180830381600087803b1515610ad757600080fd5b6102c65a03f11515610ae857600080fd5b505050604051805150505b8360600151600160a060020a03166388737b5e600286602001518d3060006040516020015260405160e060020a63ffffffff871602815260048101949094526024840192909252600160a060020a039081166044840152166064820152608401602060405180830381600087803b1515610b6c57600080fd5b6102c65a03f11515610b7d57600080fd5b5050506040518051935050600160a060020a0386161515610b9c573395505b60e060405190810160405289815260208101895181526020018960016020020151815260200160408a01518152600160a060020a038916602082015260400160608a01518152600160a060020a038089166020928301528c166000908152600682526040808220878352909252209092508290815181556020820151816001015560408201518160020155606082015181600301556080820151600482018054600160a060020a031916600160a060020a039290921691909117905560a0820151816005015560c08201516006919091018054600160a060020a031916600160a060020a03909216919091179055506060840151600160a060020a039081169084908c167f5cc98899c5cc30cc7fb336d0e1f31f81039617b2e23ff5ed8cd43803208e75ac8c8c5160208e015160408f01518f600360200201518f8f604051968752602087019590955260408087019490945260608601929092526080850152600160a060020a0390811660a085015290911660c083015260e0909101905180910390a48360600151600160a060020a031663339e23d18460013360006040516020015260405160e060020a63ffffffff861602815260048101939093526024830191909152600160a060020a03166044820152606401602060405180830381600087803b1515610d8c57600080fd5b6102c65a03f11515610d9d57600080fd5b505050604051805150929a9950505050505050505050565b600054600160a060020a031681565b6000600254118015610def5750600160a060020a03811660009081526005602052604090205460ff16155b15610e8857600154600354600254600160a060020a03928316926323b872dd92859291169060006040516020015260405160e060020a63ffffffff8616028152600160a060020a0393841660048201529190921660248201526044810191909152606401602060405180830381600087803b1515610e6c57600080fd5b6102c65a03f11515610e7d57600080fd5b505050604051805150505b600160a060020a03811660009081526005602052604090819020805460ff191660011790557f2178e9c576507a4c15d3deab489af3f699a3dedbff9a7ef27c43a017027710e590829051600160a060020a03909116815260200160405180910390a150565b6000828585846040519384526020840192909252604080840191909152600160a060020a039091166c010000000000000000000000000260608301526074909101905180910390209050949350505050565b600080610f4e86868686610eed565b600081815260076020526040902096875560028701959095555050600184019190915560039092018054600160a060020a031916600160a060020a03939093169290921790915590565b600160a060020a031660009081526005602052604090205460ff1690565b60025481565b600154600160a060020a031681565b60005433600160a060020a03908116911614610fe657600080fd5b600160a060020a0381161515610ffb57600080fd5b600054600160a060020a0380831691167f8be0079c531659141344cd1fd0a4f28419497f9722a3daafe3b4186f6b6457e060405160405180910390a360008054600160a060020a031916600160a060020a0392909216919091179055565b60045481565b60008082600160a060020a0316638da5cb5b6000604051602001526040518163ffffffff1660e060020a028152600401602060405180830381600087803b15156110a857600080fd5b6102c65a03f115156110b957600080fd5b5050506040518051915050600160a060020a0381166346e361b73060006040516020015260405160e060020a63ffffffff8416028152600160a060020a039091166004820152602401602060405180830381600087803b151561111b57600080fd5b6102c65a03f1151561112c57600080fd5b5050506040518051949350505050565b60e06040519081016040908152600080835260208301819052908201819052606082018190526080820181905260a0820181905260c082015290565b608060405190810160409081526000808352602083018190529082018190526060820152905600a165627a7a72305820767ec286bb2944bddc2d928defc5c48110385f95daad2d0ba9e648df375e00d50029",
  "source": "pragma solidity ^0.4.18;\n\nimport \"../VotingMachines/IntVoteInterface.sol\";\nimport \"./UniversalScheme.sol\";\n\n\n/**\n * @title A scheme for proposing and rewarding contributions to an organization\n * @dev An agent can ask an organization to recognize a contribution and reward\n * him with token, reputation, ether or any combination.\n */\n\ncontract ContributionReward is UniversalScheme {\n    event LogNewContributionProposal(\n        address indexed _avatar,\n        bytes32 indexed _proposalId,\n        address indexed _intVoteInterface,\n        bytes32 _contributionDesciption,\n        uint _nativeTokenReward,\n        uint _reputationReward,\n        uint _ethReward,\n        uint _externalTokenReward,\n        StandardToken _externalToken,\n        address _beneficiary\n    );\n    event LogProposalExecuted(address indexed _avatar, bytes32 indexed _proposalId);\n    event LogProposalDeleted(address indexed _avatar, bytes32 indexed _proposalId);\n\n    // A struct holding the data for a contribution proposal\n    struct ContributionProposal {\n        bytes32 contributionDescriptionHash; // Hash of contribution document.\n        uint nativeTokenReward; // Reward asked in the native token of the organization.\n        uint reputationReward; // Organization reputation reward requested.\n        uint ethReward;\n        StandardToken externalToken;\n        uint externalTokenReward;\n        address beneficiary;\n    }\n\n    // A mapping from the organization (Avatar) address to the saved data of the organization:\n    mapping(address=>mapping(bytes32=>ContributionProposal)) public organizationsProposals;\n\n    // A mapping from hashes to parameters (use to store a particular configuration on the controller)\n    // A contibution fee can be in the organization token or the scheme token or a combination\n    struct Parameters {\n        uint orgNativeTokenFee; // a fee (in the organization's token) that is to be paid for submitting a contribution\n        bytes32 voteApproveParams;\n        uint schemeNativeTokenFee; // a fee (in the present schemes token)  that is to be paid for submission\n        IntVoteInterface intVote;\n    }\n    // A mapping from hashes to parameters (use to store a particular configuration on the controller)\n    mapping(bytes32=>Parameters) public parameters;\n\n    /**\n    * @dev the constructor takes a token address, fee and beneficiary\n    */\n    function ContributionReward(StandardToken _nativeToken, uint _fee, address _beneficiary) public {\n        updateParameters(_nativeToken, _fee, _beneficiary, bytes32(0));\n    }\n\n    /**\n    * @dev hash the parameters, save them if necessary, and return the hash value\n    */\n    function setParameters(\n        uint _orgNativeTokenFee,\n        uint _schemeNativeTokenFee,\n        bytes32 _voteApproveParams,\n        IntVoteInterface _intVote\n    ) public returns(bytes32)\n    {\n        bytes32 paramsHash = getParametersHash(\n            _orgNativeTokenFee,\n            _schemeNativeTokenFee,\n            _voteApproveParams,\n            _intVote\n        );\n        parameters[paramsHash].orgNativeTokenFee = _orgNativeTokenFee;\n        parameters[paramsHash].schemeNativeTokenFee = _schemeNativeTokenFee;\n        parameters[paramsHash].voteApproveParams = _voteApproveParams;\n        parameters[paramsHash].intVote = _intVote;\n        return paramsHash;\n    }\n\n    /**\n    * @dev return a hash of the given parameters\n    * @param _orgNativeTokenFee the fee for submitting a contribution in organizations native token\n    * @param _schemeNativeTokenFee the fee for submitting a contribution if paied in schemes native token\n    * @param _voteApproveParams parameters for the voting machine used to approve a contribution\n    * @param _intVote the voting machine used to approve a contribution\n    * @return a hash of the parameters\n    */\n    // TODO: These fees are messy. Better to have a _fee and _feeToken pair, just as in some other contract (which one?) with some sane default\n    function getParametersHash(\n        uint _orgNativeTokenFee,\n        uint _schemeNativeTokenFee,\n        bytes32 _voteApproveParams,\n        IntVoteInterface _intVote\n    ) public pure returns(bytes32)\n    {\n        return (keccak256(_voteApproveParams, _orgNativeTokenFee, _schemeNativeTokenFee, _intVote));\n    }\n\n    /**\n    * @dev Submit a proposal for a reward for a contribution:\n    * @param _avatar Avatar of the organization that the contribution was made for\n    * @param _contributionDesciptionHash A hash of the contribution's description\n    * @param _rewards rewards array:\n    *         rewards[0] - Amount of tokens requested\n    *         rewards[1] - Amount of reputation requested\n    *         rewards[2] - Amount of ETH requested\n    *         rewards[3] - Amount of extenral tokens requested\n    * @param _externalToken Address of external token, if reward is requested there\n    * @param _beneficiary Who gets the rewards\n    */\n    function proposeContributionReward(\n        Avatar _avatar,\n        bytes32 _contributionDesciptionHash,\n        uint[4] _rewards,\n        StandardToken _externalToken,\n        address _beneficiary\n    ) public\n      onlyRegisteredOrganization(_avatar)\n      returns(bytes32)\n    {\n        Parameters memory controllerParams = parameters[getParametersFromController(_avatar)];\n        // Pay fees for submitting the contribution:\n        if (controllerParams.orgNativeTokenFee > 0) {\n            _avatar.nativeToken().transferFrom(msg.sender, _avatar, controllerParams.orgNativeTokenFee);\n        }\n        if (controllerParams.schemeNativeTokenFee > 0) {\n            nativeToken.transferFrom(msg.sender, _avatar, controllerParams.schemeNativeTokenFee);\n        }\n\n        bytes32 contributionId = controllerParams.intVote.propose(2, controllerParams.voteApproveParams, _avatar, ExecutableInterface(this));\n\n        // Check beneficiary is not null:\n        if (_beneficiary == address(0)) {\n            _beneficiary = msg.sender;\n        }\n\n        // Set the struct:\n        ContributionProposal memory proposal = ContributionProposal({\n            contributionDescriptionHash: _contributionDesciptionHash,\n            nativeTokenReward: _rewards[0],\n            reputationReward: _rewards[1],\n            ethReward: _rewards[2],\n            externalToken: _externalToken,\n            externalTokenReward: _rewards[3],\n            beneficiary: _beneficiary\n        });\n        organizationsProposals[_avatar][contributionId] = proposal;\n\n        LogNewContributionProposal(\n            _avatar,\n            contributionId,\n            controllerParams.intVote,\n            _contributionDesciptionHash,\n            _rewards[0],\n            _rewards[1],\n            _rewards[2],\n            _rewards[3],\n            _externalToken,\n            _beneficiary\n        );\n\n        // vote for this proposal\n        controllerParams.intVote.ownerVote(contributionId, 1, msg.sender); // Automatically votes `yes` in the name of the opener.\n        return contributionId;\n    }\n\n    /**\n    * @dev execution of proposals, can only be called by the voting machine in which the vote is held.\n    * @param _proposalId the ID of the voting in the voting machine\n    * @param _avatar address of the controller\n    * @param _param a parameter of the voting result, 0 is no and 1 is yes.\n    */\n    function execute(bytes32 _proposalId, address _avatar, int _param) public returns(bool) {\n        // Check the caller is indeed the voting machine:\n        require(parameters[getParametersFromController(Avatar(_avatar))].intVote == msg.sender);\n        // Check if vote was successful:\n        if (_param == 1) {\n        // Define controller and get the parmas:\n            ContributionProposal memory proposal = organizationsProposals[_avatar][_proposalId];\n\n        // pay the funds:\n            Controller controller = Controller(Avatar(_avatar).owner());\n            if (!controller.mintReputation(int(proposal.reputationReward), proposal.beneficiary)) {\n                revert();\n              }\n            if (!controller.mintTokens(proposal.nativeTokenReward, proposal.beneficiary)) {\n                revert();\n              }\n            if (!controller.sendEther(proposal.ethReward, proposal.beneficiary)) {\n                revert();\n              }\n            if (proposal.externalToken != address(0) && proposal.externalTokenReward > 0) {\n                if (!controller.externalTokenTransfer(proposal.externalToken, proposal.beneficiary, proposal.externalTokenReward)) {\n                    revert();\n                  }\n                }\n          }\n        delete organizationsProposals[_avatar][_proposalId];\n        LogProposalExecuted(_avatar, _proposalId);\n        return true;\n    }\n}\n",
  "sourcePath": "/Users/tibet/Dev/Emergence/daostack/contracts/universalSchemes/ContributionReward.sol",
  "compiler": {
    "name": "solc",
    "version": "0.4.18+commit.9cf6e910.Emscripten.clang"
  },
  "schemaVersion": "1.0.1",
  "updatedAt": "2018-01-04T23:51:58.289Z"
}