{
  "contractName": "Crowdsale",
  "abi": [
    {
      "constant": true,
      "inputs": [],
      "name": "endBlock",
      "outputs": [
        {
          "name": "",
          "type": "uint256"
        }
      ],
      "payable": false,
      "stateMutability": "view",
      "type": "function"
    },
    {
      "constant": true,
      "inputs": [],
      "name": "rate",
      "outputs": [
        {
          "name": "",
          "type": "uint256"
        }
      ],
      "payable": false,
      "stateMutability": "view",
      "type": "function"
    },
    {
      "constant": true,
      "inputs": [],
      "name": "weiRaised",
      "outputs": [
        {
          "name": "",
          "type": "uint256"
        }
      ],
      "payable": false,
      "stateMutability": "view",
      "type": "function"
    },
    {
      "constant": true,
      "inputs": [],
      "name": "startBlock",
      "outputs": [
        {
          "name": "",
          "type": "uint256"
        }
      ],
      "payable": false,
      "stateMutability": "view",
      "type": "function"
    },
    {
      "constant": true,
      "inputs": [],
      "name": "wallet",
      "outputs": [
        {
          "name": "",
          "type": "address"
        }
      ],
      "payable": false,
      "stateMutability": "view",
      "type": "function"
    },
    {
      "constant": false,
      "inputs": [
        {
          "name": "beneficiary",
          "type": "address"
        }
      ],
      "name": "buyTokens",
      "outputs": [],
      "payable": true,
      "stateMutability": "payable",
      "type": "function"
    },
    {
      "constant": true,
      "inputs": [],
      "name": "hasEnded",
      "outputs": [
        {
          "name": "",
          "type": "bool"
        }
      ],
      "payable": false,
      "stateMutability": "view",
      "type": "function"
    },
    {
      "constant": true,
      "inputs": [],
      "name": "token",
      "outputs": [
        {
          "name": "",
          "type": "address"
        }
      ],
      "payable": false,
      "stateMutability": "view",
      "type": "function"
    },
    {
      "inputs": [
        {
          "name": "_startBlock",
          "type": "uint256"
        },
        {
          "name": "_endBlock",
          "type": "uint256"
        },
        {
          "name": "_rate",
          "type": "uint256"
        },
        {
          "name": "_wallet",
          "type": "address"
        }
      ],
      "payable": false,
      "stateMutability": "nonpayable",
      "type": "constructor"
    },
    {
      "payable": true,
      "stateMutability": "payable",
      "type": "fallback"
    },
    {
      "anonymous": false,
      "inputs": [
        {
          "indexed": true,
          "name": "purchaser",
          "type": "address"
        },
        {
          "indexed": true,
          "name": "beneficiary",
          "type": "address"
        },
        {
          "indexed": false,
          "name": "value",
          "type": "uint256"
        },
        {
          "indexed": false,
          "name": "amount",
          "type": "uint256"
        }
      ],
      "name": "TokenPurchase",
      "type": "event"
    }
  ],
  "bytecode": "0x6060604052341561000f57600080fd5b6040516080806113dd833981016040528080519190602001805191906020018051919060200180519150504384101561004757600080fd5b8383101561005457600080fd5b6000821161006157600080fd5b600160a060020a038116151561007657600080fd5b61008b6401000000006103a36100cd82021704565b60008054600160a060020a0319908116600160a060020a0393841617909155600195909555600293909355600491909155600380549093169116179055610102565b60006100d76100f2565b604051809103906000f08015156100ed57600080fd5b905090565b60405161076480610c7983390190565b610b68806101116000396000f30060606040526004361061008d5763ffffffff7c0100000000000000000000000000000000000000000000000000000000600035041663083c632381146100985780632c4e722e146100bd5780634042b66f146100d057806348cd4cb1146100e3578063521eb273146100f6578063ec8ac4d814610125578063ecb70fb714610139578063fc0c546a14610160575b61009633610173565b005b34156100a357600080fd5b6100ab6102c0565b60405190815260200160405180910390f35b34156100c857600080fd5b6100ab6102c6565b34156100db57600080fd5b6100ab6102cc565b34156100ee57600080fd5b6100ab6102d2565b341561010157600080fd5b6101096102d8565b604051600160a060020a03909116815260200160405180910390f35b610096600160a060020a0360043516610173565b341561014457600080fd5b61014c6102e7565b604051901515815260200160405180910390f35b341561016b57600080fd5b6101096102ef565b600080600160a060020a038316151561018b57600080fd5b6101936102fe565b151561019e57600080fd5b6004543492506101b590839063ffffffff61033316565b6005549091506101cb908363ffffffff61035e16565b60055560008054600160a060020a0316906340c10f199085908490604051602001526040517c010000000000000000000000000000000000000000000000000000000063ffffffff8516028152600160a060020a0390921660048301526024820152604401602060405180830381600087803b151561024957600080fd5b6102c65a03f1151561025a57600080fd5b505050604051805190505082600160a060020a031633600160a060020a03167f623b3804fa71d67900d064613da8f94b9617215ee90799290593e1745087ad18848460405191825260208201526040908101905180910390a36102bb61036d565b505050565b60025481565b60045481565b60055481565b60015481565b600354600160a060020a031681565b600254431190565b600054600160a060020a031681565b600080600080439250600154831015801561031b57506002548311155b91505034151581801561032b5750805b935050505090565b600082820283158061034f575082848281151561034c57fe5b04145b151561035757fe5b9392505050565b60008282018381101561035757fe5b600354600160a060020a03163480156108fc0290604051600060405180830381858888f1935050505015156103a157600080fd5b565b60006103ad6103c8565b604051809103906000f08015156103c357600080fd5b905090565b604051610764806103d9833901905600606060405260038054600160a860020a03191633600160a060020a03161790556107368061002e6000396000f3006060604052600436106100ae5763ffffffff7c010000000000000000000000000000000000000000000000000000000060003504166305d2035b81146100b3578063095ea7b3146100da57806318160ddd146100fc57806323b872dd1461012157806340c10f191461014957806370a082311461016b5780637d64bcb41461018a5780638da5cb5b1461019d578063a9059cbb146101cc578063dd62ed3e146101ee578063f2fde38b14610213575b600080fd5b34156100be57600080fd5b6100c6610234565b604051901515815260200160405180910390f35b34156100e557600080fd5b6100c6600160a060020a0360043516602435610255565b341561010757600080fd5b61010f6102fb565b60405190815260200160405180910390f35b341561012c57600080fd5b6100c6600160a060020a0360043581169060243516604435610301565b341561015457600080fd5b6100c6600160a060020a0360043516602435610414565b341561017657600080fd5b61010f600160a060020a03600435166104f3565b341561019557600080fd5b6100c661050e565b34156101a857600080fd5b6101b0610593565b604051600160a060020a03909116815260200160405180910390f35b34156101d757600080fd5b6100c6600160a060020a03600435166024356105a2565b34156101f957600080fd5b61010f600160a060020a0360043581169060243516610661565b341561021e57600080fd5b610232600160a060020a036004351661068c565b005b60035474010000000000000000000000000000000000000000900460ff1681565b60008115806102875750600160a060020a03338116600090815260026020908152604080832093871683529290522054155b151561029257600080fd5b600160a060020a03338116600081815260026020908152604080832094881680845294909152908190208590557f8c5be1e5ebec7d5bd14f71427d1e84f3dd0314c0f7b2291e5b200ac8c7c3b9259085905190815260200160405180910390a350600192915050565b60005481565b600160a060020a038084166000908152600260209081526040808320338516845282528083205493861683526001909152812054909190610348908463ffffffff6106e216565b600160a060020a03808616600090815260016020526040808220939093559087168152205461037d908463ffffffff6106f816565b600160a060020a0386166000908152600160205260409020556103a6818463ffffffff6106f816565b600160a060020a03808716600081815260026020908152604080832033861684529091529081902093909355908616917fddf252ad1be2c89b69c2b068fc378daa952ba7f163c4a11628f55a4df523b3ef9086905190815260200160405180910390a3506001949350505050565b60035460009033600160a060020a0390811691161461043257600080fd5b60035474010000000000000000000000000000000000000000900460ff161561045a57600080fd5b60005461046d908363ffffffff6106e216565b6000908155600160a060020a038416815260016020526040902054610498908363ffffffff6106e216565b600160a060020a0384166000818152600160205260409081902092909255907f0f6798a560793a54c3bcfe86a93cde1e73087d944c0ea20544137d41213968859084905190815260200160405180910390a250600192915050565b600160a060020a031660009081526001602052604090205490565b60035460009033600160a060020a0390811691161461052c57600080fd5b6003805474ff00000000000000000000000000000000000000001916740100000000000000000000000000000000000000001790557fae5184fba832cb2b1f702aca6117b8d265eaf03ad33eb133f19dde0f5920fa0860405160405180910390a150600190565b600354600160a060020a031681565b600160a060020a0333166000908152600160205260408120546105cb908363ffffffff6106f816565b600160a060020a033381166000908152600160205260408082209390935590851681522054610600908363ffffffff6106e216565b600160a060020a0380851660008181526001602052604090819020939093559133909116907fddf252ad1be2c89b69c2b068fc378daa952ba7f163c4a11628f55a4df523b3ef9085905190815260200160405180910390a350600192915050565b600160a060020a03918216600090815260026020908152604080832093909416825291909152205490565b60035433600160a060020a039081169116146106a757600080fd5b600160a060020a038116156106df576003805473ffffffffffffffffffffffffffffffffffffffff1916600160a060020a0383161790555b50565b6000828201838110156106f157fe5b9392505050565b60008282111561070457fe5b509003905600a165627a7a72305820503fdab227a0e8400ed23323ab99f63422acc931ff26d2ad20028b25c7d9dd060029a165627a7a72305820875de7c0e74dbb22dd7c8b4ab0da1bf8e4b4c4d6bdb8d56edf7437ffe569a4550029606060405260038054600160a860020a03191633600160a060020a03161790556107368061002e6000396000f3006060604052600436106100ae5763ffffffff7c010000000000000000000000000000000000000000000000000000000060003504166305d2035b81146100b3578063095ea7b3146100da57806318160ddd146100fc57806323b872dd1461012157806340c10f191461014957806370a082311461016b5780637d64bcb41461018a5780638da5cb5b1461019d578063a9059cbb146101cc578063dd62ed3e146101ee578063f2fde38b14610213575b600080fd5b34156100be57600080fd5b6100c6610234565b604051901515815260200160405180910390f35b34156100e557600080fd5b6100c6600160a060020a0360043516602435610255565b341561010757600080fd5b61010f6102fb565b60405190815260200160405180910390f35b341561012c57600080fd5b6100c6600160a060020a0360043581169060243516604435610301565b341561015457600080fd5b6100c6600160a060020a0360043516602435610414565b341561017657600080fd5b61010f600160a060020a03600435166104f3565b341561019557600080fd5b6100c661050e565b34156101a857600080fd5b6101b0610593565b604051600160a060020a03909116815260200160405180910390f35b34156101d757600080fd5b6100c6600160a060020a03600435166024356105a2565b34156101f957600080fd5b61010f600160a060020a0360043581169060243516610661565b341561021e57600080fd5b610232600160a060020a036004351661068c565b005b60035474010000000000000000000000000000000000000000900460ff1681565b60008115806102875750600160a060020a03338116600090815260026020908152604080832093871683529290522054155b151561029257600080fd5b600160a060020a03338116600081815260026020908152604080832094881680845294909152908190208590557f8c5be1e5ebec7d5bd14f71427d1e84f3dd0314c0f7b2291e5b200ac8c7c3b9259085905190815260200160405180910390a350600192915050565b60005481565b600160a060020a038084166000908152600260209081526040808320338516845282528083205493861683526001909152812054909190610348908463ffffffff6106e216565b600160a060020a03808616600090815260016020526040808220939093559087168152205461037d908463ffffffff6106f816565b600160a060020a0386166000908152600160205260409020556103a6818463ffffffff6106f816565b600160a060020a03808716600081815260026020908152604080832033861684529091529081902093909355908616917fddf252ad1be2c89b69c2b068fc378daa952ba7f163c4a11628f55a4df523b3ef9086905190815260200160405180910390a3506001949350505050565b60035460009033600160a060020a0390811691161461043257600080fd5b60035474010000000000000000000000000000000000000000900460ff161561045a57600080fd5b60005461046d908363ffffffff6106e216565b6000908155600160a060020a038416815260016020526040902054610498908363ffffffff6106e216565b600160a060020a0384166000818152600160205260409081902092909255907f0f6798a560793a54c3bcfe86a93cde1e73087d944c0ea20544137d41213968859084905190815260200160405180910390a250600192915050565b600160a060020a031660009081526001602052604090205490565b60035460009033600160a060020a0390811691161461052c57600080fd5b6003805474ff00000000000000000000000000000000000000001916740100000000000000000000000000000000000000001790557fae5184fba832cb2b1f702aca6117b8d265eaf03ad33eb133f19dde0f5920fa0860405160405180910390a150600190565b600354600160a060020a031681565b600160a060020a0333166000908152600160205260408120546105cb908363ffffffff6106f816565b600160a060020a033381166000908152600160205260408082209390935590851681522054610600908363ffffffff6106e216565b600160a060020a0380851660008181526001602052604090819020939093559133909116907fddf252ad1be2c89b69c2b068fc378daa952ba7f163c4a11628f55a4df523b3ef9085905190815260200160405180910390a350600192915050565b600160a060020a03918216600090815260026020908152604080832093909416825291909152205490565b60035433600160a060020a039081169116146106a757600080fd5b600160a060020a038116156106df576003805473ffffffffffffffffffffffffffffffffffffffff1916600160a060020a0383161790555b50565b6000828201838110156106f157fe5b9392505050565b60008282111561070457fe5b509003905600a165627a7a72305820503fdab227a0e8400ed23323ab99f63422acc931ff26d2ad20028b25c7d9dd060029",
  "source": "pragma solidity ^0.4.11;\n\nimport '../token/MintableToken.sol';\nimport '../math/SafeMath.sol';\n\n/**\n * @title Crowdsale \n * @dev Crowdsale is a base contract for managing a token crowdsale.\n * Crowdsales have a start and end block, where investors can make\n * token purchases and the crowdsale will assign them tokens based\n * on a token per ETH rate. Funds collected are forwarded to a wallet \n * as they arrive.\n */\ncontract Crowdsale {\n  using SafeMath for uint256;\n\n  // The token being sold\n  MintableToken public token;\n\n  // start and end block where investments are allowed (both inclusive)\n  uint256 public startBlock;\n  uint256 public endBlock;\n\n  // address where funds are collected\n  address public wallet;\n\n  // how many token units a buyer gets per wei\n  uint256 public rate;\n\n  // amount of raised money in wei\n  uint256 public weiRaised;\n\n  /**\n   * event for token purchase logging\n   * @param purchaser who paid for the tokens\n   * @param beneficiary who got the tokens\n   * @param value weis paid for purchase\n   * @param amount amount of tokens purchased\n   */ \n  event TokenPurchase(address indexed purchaser, address indexed beneficiary, uint256 value, uint256 amount);\n\n\n  function Crowdsale(uint256 _startBlock, uint256 _endBlock, uint256 _rate, address _wallet) {\n    require(_startBlock >= block.number);\n    require(_endBlock >= _startBlock);\n    require(_rate > 0);\n    require(_wallet != 0x0);\n\n    token = createTokenContract();\n    startBlock = _startBlock;\n    endBlock = _endBlock;\n    rate = _rate;\n    wallet = _wallet;\n  }\n\n  // creates the token to be sold. \n  // override this method to have crowdsale of a specific mintable token.\n  function createTokenContract() internal returns (MintableToken) {\n    return new MintableToken();\n  }\n\n\n  // fallback function can be used to buy tokens\n  function () payable {\n    buyTokens(msg.sender);\n  }\n\n  // low level token purchase function\n  function buyTokens(address beneficiary) payable {\n    require(beneficiary != 0x0);\n    require(validPurchase());\n\n    uint256 weiAmount = msg.value;\n\n    // calculate token amount to be created\n    uint256 tokens = weiAmount.mul(rate);\n\n    // update state\n    weiRaised = weiRaised.add(weiAmount);\n\n    token.mint(beneficiary, tokens);\n    TokenPurchase(msg.sender, beneficiary, weiAmount, tokens);\n\n    forwardFunds();\n  }\n\n  // send ether to the fund collection wallet\n  // override to create custom fund forwarding mechanisms\n  function forwardFunds() internal {\n    wallet.transfer(msg.value);\n  }\n\n  // @return true if the transaction can buy tokens\n  function validPurchase() internal constant returns (bool) {\n    uint256 current = block.number;\n    bool withinPeriod = current >= startBlock && current <= endBlock;\n    bool nonZeroPurchase = msg.value != 0;\n    return withinPeriod && nonZeroPurchase;\n  }\n\n  // @return true if crowdsale event has ended\n  function hasEnded() public constant returns (bool) {\n    return block.number > endBlock;\n  }\n\n\n}\n",
  "sourcePath": "zeppelin-solidity/contracts/crowdsale/Crowdsale.sol",
  "compiler": {
    "name": "solc",
    "version": "0.4.18+commit.9cf6e910.Emscripten.clang"
  },
  "schemaVersion": "1.0.1",
  "updatedAt": "2017-11-22T00:50:28.614Z"
}