{
  "contractName": "DAOToken",
  "abi": [
    {
      "constant": true,
      "inputs": [],
      "name": "mintingFinished",
      "outputs": [
        {
          "name": "",
          "type": "bool"
        }
      ],
      "payable": false,
      "stateMutability": "view",
      "type": "function"
    },
    {
      "constant": true,
      "inputs": [],
      "name": "name",
      "outputs": [
        {
          "name": "",
          "type": "string"
        }
      ],
      "payable": false,
      "stateMutability": "view",
      "type": "function"
    },
    {
      "constant": false,
      "inputs": [
        {
          "name": "_spender",
          "type": "address"
        },
        {
          "name": "_value",
          "type": "uint256"
        }
      ],
      "name": "approve",
      "outputs": [
        {
          "name": "",
          "type": "bool"
        }
      ],
      "payable": false,
      "stateMutability": "nonpayable",
      "type": "function"
    },
    {
      "constant": false,
      "inputs": [
        {
          "name": "_value",
          "type": "uint256"
        },
        {
          "name": "_releaseBlock",
          "type": "uint256"
        }
      ],
      "name": "lock",
      "outputs": [],
      "payable": false,
      "stateMutability": "nonpayable",
      "type": "function"
    },
    {
      "constant": true,
      "inputs": [],
      "name": "totalSupply",
      "outputs": [
        {
          "name": "",
          "type": "uint256"
        }
      ],
      "payable": false,
      "stateMutability": "view",
      "type": "function"
    },
    {
      "constant": false,
      "inputs": [
        {
          "name": "_from",
          "type": "address"
        },
        {
          "name": "_to",
          "type": "address"
        },
        {
          "name": "_value",
          "type": "uint256"
        }
      ],
      "name": "transferFrom",
      "outputs": [
        {
          "name": "res",
          "type": "bool"
        }
      ],
      "payable": false,
      "stateMutability": "nonpayable",
      "type": "function"
    },
    {
      "constant": true,
      "inputs": [],
      "name": "decimals",
      "outputs": [
        {
          "name": "",
          "type": "uint256"
        }
      ],
      "payable": false,
      "stateMutability": "view",
      "type": "function"
    },
    {
      "constant": false,
      "inputs": [
        {
          "name": "_to",
          "type": "address"
        },
        {
          "name": "_amount",
          "type": "uint256"
        }
      ],
      "name": "mint",
      "outputs": [
        {
          "name": "",
          "type": "bool"
        }
      ],
      "payable": false,
      "stateMutability": "nonpayable",
      "type": "function"
    },
    {
      "constant": true,
      "inputs": [
        {
          "name": "_owner",
          "type": "address"
        }
      ],
      "name": "balanceOf",
      "outputs": [
        {
          "name": "balance",
          "type": "uint256"
        }
      ],
      "payable": false,
      "stateMutability": "view",
      "type": "function"
    },
    {
      "constant": false,
      "inputs": [],
      "name": "finishMinting",
      "outputs": [
        {
          "name": "",
          "type": "bool"
        }
      ],
      "payable": false,
      "stateMutability": "nonpayable",
      "type": "function"
    },
    {
      "constant": false,
      "inputs": [],
      "name": "destroy",
      "outputs": [],
      "payable": false,
      "stateMutability": "nonpayable",
      "type": "function"
    },
    {
      "constant": false,
      "inputs": [
        {
          "name": "_to",
          "type": "address"
        },
        {
          "name": "_amount",
          "type": "uint256"
        },
        {
          "name": "_releaseBlock",
          "type": "uint256"
        }
      ],
      "name": "mintLocked",
      "outputs": [
        {
          "name": "res",
          "type": "bool"
        }
      ],
      "payable": false,
      "stateMutability": "nonpayable",
      "type": "function"
    },
    {
      "constant": false,
      "inputs": [],
      "name": "burnContractTokens",
      "outputs": [],
      "payable": false,
      "stateMutability": "nonpayable",
      "type": "function"
    },
    {
      "constant": true,
      "inputs": [],
      "name": "owner",
      "outputs": [
        {
          "name": "",
          "type": "address"
        }
      ],
      "payable": false,
      "stateMutability": "view",
      "type": "function"
    },
    {
      "constant": true,
      "inputs": [],
      "name": "symbol",
      "outputs": [
        {
          "name": "",
          "type": "string"
        }
      ],
      "payable": false,
      "stateMutability": "view",
      "type": "function"
    },
    {
      "constant": false,
      "inputs": [
        {
          "name": "_to",
          "type": "address"
        },
        {
          "name": "_value",
          "type": "uint256"
        }
      ],
      "name": "transfer",
      "outputs": [
        {
          "name": "res",
          "type": "bool"
        }
      ],
      "payable": false,
      "stateMutability": "nonpayable",
      "type": "function"
    },
    {
      "constant": true,
      "inputs": [
        {
          "name": "_owner",
          "type": "address"
        },
        {
          "name": "_spender",
          "type": "address"
        }
      ],
      "name": "allowance",
      "outputs": [
        {
          "name": "remaining",
          "type": "uint256"
        }
      ],
      "payable": false,
      "stateMutability": "view",
      "type": "function"
    },
    {
      "constant": false,
      "inputs": [
        {
          "name": "newOwner",
          "type": "address"
        }
      ],
      "name": "transferOwnership",
      "outputs": [],
      "payable": false,
      "stateMutability": "nonpayable",
      "type": "function"
    },
    {
      "constant": false,
      "inputs": [
        {
          "name": "_recipient",
          "type": "address"
        }
      ],
      "name": "destroyAndSend",
      "outputs": [],
      "payable": false,
      "stateMutability": "nonpayable",
      "type": "function"
    },
    {
      "inputs": [
        {
          "name": "_name",
          "type": "string"
        },
        {
          "name": "_symbol",
          "type": "string"
        }
      ],
      "payable": false,
      "stateMutability": "nonpayable",
      "type": "constructor"
    },
    {
      "anonymous": false,
      "inputs": [
        {
          "indexed": true,
          "name": "user",
          "type": "address"
        },
        {
          "indexed": false,
          "name": "value",
          "type": "uint256"
        }
      ],
      "name": "TokenLock",
      "type": "event"
    },
    {
      "anonymous": false,
      "inputs": [
        {
          "indexed": false,
          "name": "value",
          "type": "uint256"
        }
      ],
      "name": "Burn",
      "type": "event"
    },
    {
      "anonymous": false,
      "inputs": [
        {
          "indexed": true,
          "name": "to",
          "type": "address"
        },
        {
          "indexed": false,
          "name": "amount",
          "type": "uint256"
        }
      ],
      "name": "Mint",
      "type": "event"
    },
    {
      "anonymous": false,
      "inputs": [],
      "name": "MintFinished",
      "type": "event"
    },
    {
      "anonymous": false,
      "inputs": [
        {
          "indexed": true,
          "name": "owner",
          "type": "address"
        },
        {
          "indexed": true,
          "name": "spender",
          "type": "address"
        },
        {
          "indexed": false,
          "name": "value",
          "type": "uint256"
        }
      ],
      "name": "Approval",
      "type": "event"
    },
    {
      "anonymous": false,
      "inputs": [
        {
          "indexed": true,
          "name": "from",
          "type": "address"
        },
        {
          "indexed": true,
          "name": "to",
          "type": "address"
        },
        {
          "indexed": false,
          "name": "value",
          "type": "uint256"
        }
      ],
      "name": "Transfer",
      "type": "event"
    }
  ],
  "bytecode": "0x60606040526003805460a060020a60ff02191690556012600655341561002457600080fd5b604051610e24380380610e248339810160405280805182019190602001805160038054600160a060020a03191633600160a060020a03161790559190910190506004828051610077929160200190610093565b50600581805161008b929160200190610093565b50505061012e565b828054600181600116156101000203166002900490600052602060002090601f016020900481019282601f106100d457805160ff1916838001178555610101565b82800160010185558215610101579182015b828111156101015782518255916020019190600101906100e6565b5061010d929150610111565b5090565b61012b91905b8082111561010d5760008155600101610117565b90565b610ce78061013d6000396000f3006060604052600436106101065763ffffffff7c010000000000000000000000000000000000000000000000000000000060003504166305d2035b811461010b57806306fdde0314610132578063095ea7b3146101bc5780631338736f146101de57806318160ddd146101f957806323b872dd1461021e578063313ce5671461024657806340c10f191461025957806370a082311461027b5780637d64bcb41461029a57806383197ef0146102ad5780638778f590146102c05780638b96dca3146102e55780638da5cb5b146102f857806395d89b4114610327578063a9059cbb1461033a578063dd62ed3e1461035c578063f2fde38b14610381578063f5074f41146103a0575b600080fd5b341561011657600080fd5b61011e6103bf565b604051901515815260200160405180910390f35b341561013d57600080fd5b6101456103e0565b60405160208082528190810183818151815260200191508051906020019080838360005b83811015610181578082015183820152602001610169565b50505050905090810190601f1680156101ae5780820380516001836020036101000a031916815260200191505b509250505060405180910390f35b34156101c757600080fd5b61011e600160a060020a036004351660243561047e565b34156101e957600080fd5b6101f7600435602435610525565b005b341561020457600080fd5b61020c610534565b60405190815260200160405180910390f35b341561022957600080fd5b61011e600160a060020a036004358116906024351660443561053a565b341561025157600080fd5b61020c6105d4565b341561026457600080fd5b61011e600160a060020a03600435166024356105da565b341561028657600080fd5b61020c600160a060020a03600435166106b9565b34156102a557600080fd5b61011e6106d4565b34156102b857600080fd5b6101f7610759565b34156102cb57600080fd5b61011e600160a060020a0360043516602435604435610782565b34156102f057600080fd5b6101f761079b565b341561030357600080fd5b61030b610817565b604051600160a060020a03909116815260200160405180910390f35b341561033257600080fd5b610145610826565b341561034557600080fd5b61011e600160a060020a0360043516602435610891565b341561036757600080fd5b61020c600160a060020a0360043581169060243516610923565b341561038c57600080fd5b6101f7600160a060020a036004351661094e565b34156103ab57600080fd5b6101f7600160a060020a03600435166109a4565b60035474010000000000000000000000000000000000000000900460ff1681565b60048054600181600116156101000203166002900480601f0160208091040260200160405190810160405280929190818152602001828054600181600116156101000203166002900480156104765780601f1061044b57610100808354040283529160200191610476565b820191906000526020600020905b81548152906001019060200180831161045957829003601f168201915b505050505081565b60008115806104b05750600160a060020a03338116600090815260026020908152604080832093871683529290522054155b15156104bb57600080fd5b600160a060020a03338116600081815260026020908152604080832094881680845294909152908190208590557f8c5be1e5ebec7d5bd14f71427d1e84f3dd0314c0f7b2291e5b200ac8c7c3b9259085905190815260200160405180910390a35060015b92915050565b6105303383836109cb565b5050565b60005481565b600160a060020a0383166000908152600760205260408120600101544390111561059e57600160a060020a038416600090815260076020908152604080832054600190925290912054610593908463ffffffff610ac816565b101561059e57600080fd5b6105a9848484610ada565b905030600160a060020a031683600160a060020a031614156105cd576105cd61079b565b9392505050565b60065481565b60035460009033600160a060020a039081169116146105f857600080fd5b60035474010000000000000000000000000000000000000000900460ff161561062057600080fd5b600054610633908363ffffffff610bed16565b6000908155600160a060020a03841681526001602052604090205461065e908363ffffffff610bed16565b600160a060020a0384166000818152600160205260409081902092909255907f0f6798a560793a54c3bcfe86a93cde1e73087d944c0ea20544137d41213968859084905190815260200160405180910390a250600192915050565b600160a060020a031660009081526001602052604090205490565b60035460009033600160a060020a039081169116146106f257600080fd5b6003805474ff00000000000000000000000000000000000000001916740100000000000000000000000000000000000000001790557fae5184fba832cb2b1f702aca6117b8d265eaf03ad33eb133f19dde0f5920fa0860405160405180910390a150600190565b60035433600160a060020a0390811691161461077457600080fd5b600354600160a060020a0316ff5b600061078e84846105da565b90506105cd8484846109cb565b600160a060020a03301660009081526001602052604081205490546107c59163ffffffff610ac816565b6000908155600160a060020a0330168152600160205260408082208290557fb90306ad06b2a6ff86ddc9327db583062895ef6540e62dc50add009db5b356eb91905190815260200160405180910390a1565b600354600160a060020a031681565b60058054600181600116156101000203166002900480601f0160208091040260200160405190810160405280929190818152602001828054600181600116156101000203166002900480156104765780601f1061044b57610100808354040283529160200191610476565b600160a060020a033316600090815260076020526040812060010154439011156108f557600160a060020a0333166000908152600760209081526040808320546001909252909120546108ea908463ffffffff610ac816565b10156108f557600080fd5b6108ff8383610bfc565b905030600160a060020a031683600160a060020a0316141561051f5761051f61079b565b600160a060020a03918216600090815260026020908152604080832093909416825291909152205490565b60035433600160a060020a0390811691161461096957600080fd5b600160a060020a038116156109a1576003805473ffffffffffffffffffffffffffffffffffffffff1916600160a060020a0383161790555b50565b60035433600160a060020a039081169116146109bf57600080fd5b80600160a060020a0316ff5b8115156109d757600080fd5b600160a060020a0383166000908152600160205260409020548211156109fc57600080fd5b600160a060020a03831660009081526007602052604090206001015443901115610a6d57600160a060020a038316600090815260076020526040902054821015610a4557600080fd5b600160a060020a038316600090815260076020526040902060010154811015610a6d57600080fd5b600160a060020a038316600081815260076020526040908190208481556001018390557fb28c000ac15ab34ecd2967bf80e42da8695d031d8ab47459e5b4f747607d63f69084905190815260200160405180910390a2505050565b600082821115610ad457fe5b50900390565b600160a060020a038084166000908152600260209081526040808320338516845282528083205493861683526001909152812054909190610b21908463ffffffff610bed16565b600160a060020a038086166000908152600160205260408082209390935590871681522054610b56908463ffffffff610ac816565b600160a060020a038616600090815260016020526040902055610b7f818463ffffffff610ac816565b600160a060020a03808716600081815260026020908152604080832033861684529091529081902093909355908616917fddf252ad1be2c89b69c2b068fc378daa952ba7f163c4a11628f55a4df523b3ef9086905190815260200160405180910390a3506001949350505050565b6000828201838110156105cd57fe5b600160a060020a033316600090815260016020526040812054610c25908363ffffffff610ac816565b600160a060020a033381166000908152600160205260408082209390935590851681522054610c5a908363ffffffff610bed16565b600160a060020a0380851660008181526001602052604090819020939093559133909116907fddf252ad1be2c89b69c2b068fc378daa952ba7f163c4a11628f55a4df523b3ef9085905190815260200160405180910390a3506001929150505600a165627a7a723058206b22dea269ece76ff921692d285c4d7c1ca4c8a423c97b130495ec2b1f519eb90029",
  "source": "pragma solidity ^0.4.18;\n\nimport \"zeppelin-solidity/contracts/token/MintableToken.sol\";\nimport \"zeppelin-solidity/contracts/lifecycle/Destructible.sol\";\nimport \"zeppelin-solidity/contracts/math/SafeMath.sol\";\n\n/**\n * @title DAOToken, base on zeppelin contract.\n * @dev ERC20 comptible token. It is a mintable, lockable, burnable token.\n */\n\ncontract DAOToken is MintableToken, Destructible {\n    using SafeMath for uint;\n\n    event TokenLock(address indexed user, uint value);\n    event Burn(uint value);\n\n    struct Lock {\n      uint lockedAmount;\n      uint releaseBlock;\n    }\n\n    string public name;\n    string public symbol;\n    uint public decimals = 18;\n\n    /**\n     * @dev the constructor takes a token name and a symbol\n     */\n    function DAOToken(string _name, string _symbol) public {\n        name = _name;\n        symbol = _symbol;\n    }\n\n    // Locking mapping:\n    mapping(address => Lock) lockBalances;\n\n    function lock(uint _value, uint _releaseBlock) public {\n      lockInternal(msg.sender, _value, _releaseBlock);\n    }\n\n    function mintLocked(address _to, uint _amount, uint _releaseBlock) public returns(bool res) {\n      res = (super.mint(_to, _amount));\n      lockInternal(_to, _amount, _releaseBlock);\n    }\n\n    function lockInternal(address agent, uint _value, uint _releaseBlock) internal {\n      // Sanity check:\n      require(_value != 0);\n      require(_value <= balances[agent]);\n\n      // Check if user has locked funds, and verify the change is legit:\n      if (lockBalances[agent].releaseBlock > block.number) {\n        require(_value >= lockBalances[agent].lockedAmount);\n        require(_releaseBlock >= lockBalances[agent].releaseBlock);\n      }\n\n      lockBalances[agent].lockedAmount = _value;\n      lockBalances[agent].releaseBlock = _releaseBlock;\n      TokenLock(agent, _value);\n    }\n\n    // Rewriting the function to check for locking and burn tokens of the contract itself:\n    function transfer(address _to, uint _value) public returns(bool res) {\n      // Check for locking:\n      if (lockBalances[msg.sender].releaseBlock > block.number)\n        require(balances[msg.sender].sub(_value) >= lockBalances[msg.sender].lockedAmount);\n\n      res = (super.transfer(_to, _value));\n\n      if (_to == address(this))\n        burnContractTokens();\n    }\n\n    // Rewriting the function to check for locking and burn tokens of the contract itself:\n    function transferFrom(address _from, address _to, uint _value) public returns(bool res) {\n      // Check for locking:\n      if (lockBalances[_from].releaseBlock > block.number)\n        require(balances[_from].sub(_value) >= lockBalances[_from].lockedAmount);\n\n      res = (super.transferFrom(_from, _to, _value));\n\n      if (_to == address(this)) {\n        burnContractTokens();\n      }\n    }\n\n    // The token contract should not hold its own tokens, allow anyont to burn its balance:\n    function burnContractTokens() public {\n      totalSupply = totalSupply.sub(balances[this]);\n      balances[this] = 0;\n      Burn(balances[this]);\n    }\n\n}\n",
  "sourcePath": "/Users/tibet/Dev/Emergence/daostack/contracts/controller/DAOToken.sol",
  "compiler": {
    "name": "solc",
    "version": "0.4.18+commit.9cf6e910.Emscripten.clang"
  },
  "schemaVersion": "1.0.1",
  "updatedAt": "2017-11-22T00:50:28.591Z"
}