{
  "contractName": "EmergentICO",
  "abi": [
    {
      "constant": false,
      "inputs": [],
      "name": "haltICO",
      "outputs": [],
      "payable": false,
      "stateMutability": "nonpayable",
      "type": "function"
    },
    {
      "constant": true,
      "inputs": [],
      "name": "minDonation",
      "outputs": [
        {
          "name": "",
          "type": "uint256"
        }
      ],
      "payable": false,
      "stateMutability": "view",
      "type": "function"
    },
    {
      "constant": true,
      "inputs": [],
      "name": "isActive",
      "outputs": [
        {
          "name": "",
          "type": "bool"
        }
      ],
      "payable": false,
      "stateMutability": "view",
      "type": "function"
    },
    {
      "constant": true,
      "inputs": [
        {
          "name": "_periodId",
          "type": "uint256"
        }
      ],
      "name": "getIsPeriodInitialized",
      "outputs": [
        {
          "name": "",
          "type": "bool"
        }
      ],
      "payable": false,
      "stateMutability": "view",
      "type": "function"
    },
    {
      "constant": true,
      "inputs": [],
      "name": "beneficiary",
      "outputs": [
        {
          "name": "",
          "type": "address"
        }
      ],
      "payable": false,
      "stateMutability": "view",
      "type": "function"
    },
    {
      "constant": true,
      "inputs": [],
      "name": "donationCounter",
      "outputs": [
        {
          "name": "",
          "type": "uint256"
        }
      ],
      "payable": false,
      "stateMutability": "view",
      "type": "function"
    },
    {
      "constant": true,
      "inputs": [
        {
          "name": "_batch",
          "type": "uint256"
        }
      ],
      "name": "rateInWei",
      "outputs": [
        {
          "name": "",
          "type": "uint256"
        }
      ],
      "payable": false,
      "stateMutability": "view",
      "type": "function"
    },
    {
      "constant": true,
      "inputs": [],
      "name": "startBlock",
      "outputs": [
        {
          "name": "",
          "type": "uint256"
        }
      ],
      "payable": false,
      "stateMutability": "view",
      "type": "function"
    },
    {
      "constant": false,
      "inputs": [
        {
          "name": "_periodId",
          "type": "uint256"
        },
        {
          "name": "_iterations",
          "type": "uint256"
        }
      ],
      "name": "computeAverage",
      "outputs": [],
      "payable": false,
      "stateMutability": "nonpayable",
      "type": "function"
    },
    {
      "constant": false,
      "inputs": [
        {
          "name": "_periodId",
          "type": "uint256"
        },
        {
          "name": "_hintTotalDonatedInThisPeriod",
          "type": "uint256"
        },
        {
          "name": "_iterations",
          "type": "uint256"
        }
      ],
      "name": "initAverageComputation",
      "outputs": [],
      "payable": false,
      "stateMutability": "nonpayable",
      "type": "function"
    },
    {
      "constant": true,
      "inputs": [],
      "name": "rateFractionDenominator",
      "outputs": [
        {
          "name": "",
          "type": "uint256"
        }
      ],
      "payable": false,
      "stateMutability": "view",
      "type": "function"
    },
    {
      "constant": false,
      "inputs": [
        {
          "name": "_donationIds",
          "type": "uint256[]"
        }
      ],
      "name": "collectMulti",
      "outputs": [],
      "payable": false,
      "stateMutability": "nonpayable",
      "type": "function"
    },
    {
      "constant": false,
      "inputs": [
        {
          "name": "_donationId",
          "type": "uint256"
        }
      ],
      "name": "collectMyTokens",
      "outputs": [],
      "payable": false,
      "stateMutability": "nonpayable",
      "type": "function"
    },
    {
      "constant": true,
      "inputs": [
        {
          "name": "",
          "type": "address"
        }
      ],
      "name": "averageComputators",
      "outputs": [
        {
          "name": "periodId",
          "type": "uint256"
        },
        {
          "name": "donationsCounted",
          "type": "uint256"
        },
        {
          "name": "hintRate",
          "type": "uint256"
        },
        {
          "name": "hintTotalDonatedInThisPeriod",
          "type": "uint256"
        },
        {
          "name": "donationsWithMinRateEqualToRate",
          "type": "uint256"
        },
        {
          "name": "donationsWithMinRateLowerThanRate",
          "type": "uint256"
        }
      ],
      "payable": false,
      "stateMutability": "view",
      "type": "function"
    },
    {
      "constant": true,
      "inputs": [],
      "name": "currentPeriodId",
      "outputs": [
        {
          "name": "",
          "type": "uint256"
        }
      ],
      "payable": false,
      "stateMutability": "view",
      "type": "function"
    },
    {
      "constant": false,
      "inputs": [],
      "name": "resumeICO",
      "outputs": [],
      "payable": false,
      "stateMutability": "nonpayable",
      "type": "function"
    },
    {
      "constant": true,
      "inputs": [],
      "name": "initialRate",
      "outputs": [
        {
          "name": "",
          "type": "uint256"
        }
      ],
      "payable": false,
      "stateMutability": "view",
      "type": "function"
    },
    {
      "constant": true,
      "inputs": [],
      "name": "totalReceived",
      "outputs": [
        {
          "name": "",
          "type": "uint256"
        }
      ],
      "payable": false,
      "stateMutability": "view",
      "type": "function"
    },
    {
      "constant": true,
      "inputs": [],
      "name": "periodDuration",
      "outputs": [
        {
          "name": "",
          "type": "uint256"
        }
      ],
      "payable": false,
      "stateMutability": "view",
      "type": "function"
    },
    {
      "constant": true,
      "inputs": [
        {
          "name": "_start",
          "type": "uint256"
        },
        {
          "name": "_end",
          "type": "uint256"
        }
      ],
      "name": "averageRateInWei",
      "outputs": [
        {
          "name": "",
          "type": "uint256"
        }
      ],
      "payable": false,
      "stateMutability": "view",
      "type": "function"
    },
    {
      "constant": true,
      "inputs": [],
      "name": "isHalted",
      "outputs": [
        {
          "name": "",
          "type": "bool"
        }
      ],
      "payable": false,
      "stateMutability": "view",
      "type": "function"
    },
    {
      "constant": true,
      "inputs": [],
      "name": "rateFractionNumerator",
      "outputs": [
        {
          "name": "",
          "type": "uint256"
        }
      ],
      "payable": false,
      "stateMutability": "view",
      "type": "function"
    },
    {
      "constant": false,
      "inputs": [
        {
          "name": "_beneficiary",
          "type": "address"
        },
        {
          "name": "_minRate",
          "type": "uint256"
        }
      ],
      "name": "donate",
      "outputs": [],
      "payable": true,
      "stateMutability": "payable",
      "type": "function"
    },
    {
      "constant": true,
      "inputs": [
        {
          "name": "",
          "type": "uint256"
        }
      ],
      "name": "periods",
      "outputs": [
        {
          "name": "donationsCounterInPeriod",
          "type": "uint256"
        },
        {
          "name": "raisedUpToPeriod",
          "type": "uint256"
        },
        {
          "name": "averageRate",
          "type": "uint256"
        },
        {
          "name": "donationsWithMinRateEqualToZero",
          "type": "uint256"
        },
        {
          "name": "donationsWithMinRateEqualToRate",
          "type": "uint256"
        },
        {
          "name": "donationsWithMinRateEqualToRateToInclude",
          "type": "uint256"
        },
        {
          "name": "isInitialized",
          "type": "bool"
        },
        {
          "name": "isAverageRateComputed",
          "type": "bool"
        }
      ],
      "payable": false,
      "stateMutability": "view",
      "type": "function"
    },
    {
      "constant": true,
      "inputs": [],
      "name": "batchSize",
      "outputs": [
        {
          "name": "",
          "type": "uint256"
        }
      ],
      "payable": false,
      "stateMutability": "view",
      "type": "function"
    },
    {
      "constant": true,
      "inputs": [],
      "name": "controller",
      "outputs": [
        {
          "name": "",
          "type": "address"
        }
      ],
      "payable": false,
      "stateMutability": "view",
      "type": "function"
    },
    {
      "constant": true,
      "inputs": [],
      "name": "admin",
      "outputs": [
        {
          "name": "",
          "type": "address"
        }
      ],
      "payable": false,
      "stateMutability": "view",
      "type": "function"
    },
    {
      "constant": true,
      "inputs": [
        {
          "name": "",
          "type": "uint256"
        }
      ],
      "name": "donations",
      "outputs": [
        {
          "name": "donor",
          "type": "address"
        },
        {
          "name": "beneficiary",
          "type": "address"
        },
        {
          "name": "periodId",
          "type": "uint256"
        },
        {
          "name": "value",
          "type": "uint256"
        },
        {
          "name": "minRate",
          "type": "uint256"
        },
        {
          "name": "isCollected",
          "type": "bool"
        }
      ],
      "payable": false,
      "stateMutability": "view",
      "type": "function"
    },
    {
      "inputs": [
        {
          "name": "_controller",
          "type": "address"
        },
        {
          "name": "_admin",
          "type": "address"
        },
        {
          "name": "_beneficiary",
          "type": "address"
        },
        {
          "name": "_startBlock",
          "type": "uint256"
        },
        {
          "name": "_periodDuration",
          "type": "uint256"
        },
        {
          "name": "_minDonation",
          "type": "uint256"
        },
        {
          "name": "_initialRate",
          "type": "uint256"
        },
        {
          "name": "_rateFractionNumerator",
          "type": "uint256"
        },
        {
          "name": "_rateFractionDenominator",
          "type": "uint256"
        },
        {
          "name": "_batchSize",
          "type": "uint256"
        }
      ],
      "payable": false,
      "stateMutability": "nonpayable",
      "type": "constructor"
    },
    {
      "payable": true,
      "stateMutability": "payable",
      "type": "fallback"
    },
    {
      "anonymous": false,
      "inputs": [
        {
          "indexed": true,
          "name": "_donationId",
          "type": "uint256"
        },
        {
          "indexed": true,
          "name": "_donor",
          "type": "address"
        },
        {
          "indexed": true,
          "name": "_beneficiary",
          "type": "address"
        },
        {
          "indexed": false,
          "name": "_periodId",
          "type": "uint256"
        },
        {
          "indexed": false,
          "name": "_value",
          "type": "uint256"
        },
        {
          "indexed": false,
          "name": "_minRate",
          "type": "uint256"
        }
      ],
      "name": "LogDonationReceived",
      "type": "event"
    },
    {
      "anonymous": false,
      "inputs": [
        {
          "indexed": false,
          "name": "_periodId",
          "type": "uint256"
        }
      ],
      "name": "LogPeriodAverageComputed",
      "type": "event"
    },
    {
      "anonymous": false,
      "inputs": [
        {
          "indexed": false,
          "name": "_donation",
          "type": "uint256"
        },
        {
          "indexed": false,
          "name": "_tokens",
          "type": "uint256"
        },
        {
          "indexed": false,
          "name": "_ether",
          "type": "uint256"
        }
      ],
      "name": "LogCollect",
      "type": "event"
    },
    {
      "anonymous": false,
      "inputs": [
        {
          "indexed": false,
          "name": "_msg",
          "type": "address"
        }
      ],
      "name": "LogAddress",
      "type": "event"
    },
    {
      "anonymous": false,
      "inputs": [
        {
          "indexed": false,
          "name": "_msg",
          "type": "int256"
        }
      ],
      "name": "LogInt",
      "type": "event"
    },
    {
      "anonymous": false,
      "inputs": [
        {
          "indexed": false,
          "name": "_msg",
          "type": "string"
        }
      ],
      "name": "LogString",
      "type": "event"
    },
    {
      "anonymous": false,
      "inputs": [
        {
          "indexed": false,
          "name": "_msg",
          "type": "uint256"
        }
      ],
      "name": "LogUint",
      "type": "event"
    },
    {
      "anonymous": false,
      "inputs": [
        {
          "indexed": false,
          "name": "_msg",
          "type": "bytes"
        }
      ],
      "name": "LogBytes",
      "type": "event"
    },
    {
      "anonymous": false,
      "inputs": [
        {
          "indexed": false,
          "name": "_msg",
          "type": "bytes32"
        }
      ],
      "name": "LogBytes32",
      "type": "event"
    },
    {
      "anonymous": false,
      "inputs": [
        {
          "indexed": false,
          "name": "_msg",
          "type": "bool"
        }
      ],
      "name": "LogBool",
      "type": "event"
    }
  ],
  "bytecode": "0x6060604052341561000f57600080fd5b604051610140806115998339810160405280805191906020018051919060200180519190602001805191906020018051919060200180519190602001805191906020018051919060200180519190602001805160038054600160a060020a039d8e16600160a060020a031991821617909155600480549c8e169c82169c909c17909b55600580549a909c1699909a1698909817909955600695909555600793909355600891909155600955600a55600b5550600c555060008052600160208190527fa6eef7e35abe7026729641147f7915573c7e97b47efa546f5f6e3230263bcb4f805460ff1916909117905561148e8061010b6000396000f3006060604052600436106101695763ffffffff7c0100000000000000000000000000000000000000000000000000000000600035041663129caa1881146101765780631c0e02251461018957806322f3e2d4146101ae578063295e0c01146101d557806338af3eed146101eb57806338d187dd1461021a57806344d57d1c1461022d57806348cd4cb11461024357806357e05158146102565780635e33493c1461026f5780635ef67f231461028b5780637cb08a401461029e5780637d1a7efb146102ed5780637ee6a43e14610303578063988e65951461035b5780639cbd7da51461036e5780639e51051f14610381578063a3c2c46214610394578063b470aade146103a7578063b540be69146103ba578063c7ff1584146103d3578063ddaf88b1146103e6578063e69d849d146103f9578063ea4a110414610410578063f4daaba11461046f578063f77c479114610482578063f851a44014610495578063f8626af8146104a8575b610174336000610500565b005b341561018157600080fd5b610174610782565b341561019457600080fd5b61019c6107ac565b60405190815260200160405180910390f35b34156101b957600080fd5b6101c16107b2565b604051901515815260200160405180910390f35b34156101e057600080fd5b6101c16004356107e1565b34156101f657600080fd5b6101fe6107f9565b604051600160a060020a03909116815260200160405180910390f35b341561022557600080fd5b61019c610808565b341561023857600080fd5b61019c60043561080e565b341561024e57600080fd5b61019c610848565b341561026157600080fd5b61017460043560243561084e565b341561027a57600080fd5b610174600435602435604435610bb6565b341561029657600080fd5b61019c610cb3565b34156102a957600080fd5b6101746004602481358181019083013580602081810201604051908101604052809392919081815260200183836020028082843750949650610cb995505050505050565b34156102f857600080fd5b610174600435610d0e565b341561030e57600080fd5b610322600160a060020a0360043516610d41565b60405180878152602001868152602001858152602001848152602001838152602001828152602001965050505050505060405180910390f35b341561036657600080fd5b61019c610d78565b341561037957600080fd5b610174610da1565b341561038c57600080fd5b61019c610dc8565b341561039f57600080fd5b61019c610dce565b34156103b257600080fd5b61019c610dd4565b34156103c557600080fd5b61019c600435602435610dda565b34156103de57600080fd5b6101c1610f7f565b34156103f157600080fd5b61019c610f88565b610174600160a060020a0360043516602435610500565b341561041b57600080fd5b610426600435610f8e565b60405197885260208801969096526040808801959095526060870193909352608086019190915260a0850152151560c084015290151560e0830152610100909101905180910390f35b341561047a57600080fd5b61019c610fd6565b341561048d57600080fd5b6101fe610fdc565b34156104a057600080fd5b6101fe610feb565b34156104b357600080fd5b6104be600435610ffa565b604051600160a060020a0396871681529490951660208501526040808501939093526060840191909152608083015291151560a082015260c001905180910390f35b60008061050b6107b2565b151561051657600080fd5b60085434101561052557600080fd5b61052d610d78565b6000818152600160208190526040909120805490910181559092509050821561057a5760078101805460018101610564838261141b565b5060009182526020909120600e54910155610595565b600381015461058f903463ffffffff61103f16565b60038201555b60c06040519081016040908152600160a060020a033381168352861660208084019190915281830185905234606084015260808301869052600060a08401819052600e54815290819052208151815473ffffffffffffffffffffffffffffffffffffffff1916600160a060020a0391909116178155602082015160018201805473ffffffffffffffffffffffffffffffffffffffff1916600160a060020a039290921691909117905560408201518160020155606082015181600301556080820151816004015560a0820151600591909101805460ff191691151591909117905550600e80546001019055600d5461068d903461103f565b600d558215156106cb57600554600160a060020a03163480156108fc0290604051600060405180830381858888f1935050505015156106cb57600080fd5b82158015906106de5750600681015460ff165b15610714576001810154600382015484916107099161070490829063ffffffff61103f16565b610dda565b101561071457600080fd5b83600160a060020a031633600160a060020a03166001600e54037f082b71b5780b36931baba6f3cf86f2ca4756adc3900c908b17a5dbcb3dce41ca610757610d78565b348860405180848152602001838152602001828152602001935050505060405180910390a450505050565b60045433600160a060020a0390811691161461079d57600080fd5b600f805460ff19166001179055565b60085481565b600f5460009060ff16156107c8575060006107de565b6006544310156107da575060006107de565b5060015b90565b60009081526001602052604090206006015460ff1690565b600554600160a060020a031681565b600e5481565b600081600b540a61083883600a540a600954670de0b6b3a76400000261105590919063ffffffff16565b81151561084157fe5b0492915050565b60065481565b6000806000808561085d610d78565b811061086857600080fd5b600087815260016020526040902060060154879060ff16151561088a57600080fd5b6000888152600160209081526040808320600160a060020a033316845260029092529091208054919750955088146108c157600080fd5b600093505b868410156109b45760078601546001860154106108e2576109b4565b8560070185600101548154811015156108f757fe5b9060005260206000209001549250846002015460008085815260200190815260200160002060040154101561095657600083815260208190526040902060030154600586015461094c9163ffffffff61103f16565b600586015561099f565b6002850154600084815260208190526040902060040154141561099f5760008381526020819052604090206003015460048601546109999163ffffffff61103f16565b60048601555b600180860180548201905593909301926108c6565b600786015460018601541415610bac57846003015485600501541115610ac6577fa95e6e2a182411e7a6f9ed114a85c3761d87f9b8f453d842c71235aa64fff99f60405160208082526054908201527f43616c63756c6174696f6e206661696c65643a20646f6e6174696f6e735769746040808301919091527f684d696e526174654c6f7765725468616e52617465203e2068696e74546f746160608301527f6c446f6e61746564496e54686973506572696f64000000000000000000000000608083015260a0909101905180910390a1600160a060020a0333166000908152600260208190526040822082815560018101839055908101829055600381018290556004810182905560050155610bac565b60068601805461ff00191661010017905560028086015490870155600480860154908701556005808601546003870180549190910391880191909155546001870154610b179163ffffffff61103f16565b6001898101600090815260208281526040808320808501959095556006909401805460ff191684179055600160a060020a0333168252600290819052838220828155928301829055820181905560038201819055600482018190556005909101557fd72555d1dfe224ea443aa19b32efcb6161a7a87c0578c48a34e56b505c1ac9859089905190815260200160405180910390a15b5050505050505050565b600083610bc1610d78565b8110610bcc57600080fd5b600085815260016020526040902060060154859060ff161515610bee57600080fd5b60008681526001602081905260409091200154610c1590610704818863ffffffff61103f16565b925060c06040519081016040908152878252600060208084018290528284018790526060840189905260808401829052898252600181528282206003015460a0850152600160a060020a03331682526002905220815181556020820151816001015560408201518160020155606082015181600301556080820151816004015560a082015160059091015550610cab868561084e565b505050505050565b600b5481565b60045460009033600160a060020a03908116911614610cd757600080fd5b5060005b8151811015610d0a57610d02828281518110610cf357fe5b90602001906020020151611079565b600101610cdb565b5050565b60008181526020819052604090205433600160a060020a03908116911614610d3557600080fd5b610d3e81611079565b50565b6002602081905260009182526040909120805460018201549282015460038301546004840154600590940154929493919290919086565b6000600754610d92600654436113f290919063ffffffff16565b811515610d9b57fe5b04905090565b60045433600160a060020a03908116911614610dbc57600080fd5b600f805460ff19169055565b60095481565b600d5481565b60075481565b600080808080808088881015610dec57fe5b600c5489811515610df957fe5b049550600c5488811515610e0957fe5b049450610e2d600c548a811515610e1c57fe5b600c5491900663ffffffff6113f216565b9350600c5488811515610e3c57fe5b069250610e4f858763ffffffff6113f216565b9150811515610e6857610e618661080e565b9650610f73565b8160011415610ec657888803610eb5610e90610e838861080e565b869063ffffffff61105516565b610ea9610e9c8a61080e565b889063ffffffff61105516565b9063ffffffff61103f16565b811515610ebe57fe5b049650610f73565b6001821115610f7357600a54600b54610ee49163ffffffff6113f216565b610f2c600b54610f20610f11610ef98a61080e565b610f058c60010161080e565b9063ffffffff6113f216565b600c549063ffffffff61105516565b9063ffffffff61105516565b811515610f3557fe5b049050888803610eb5610f4a610e838861080e565b610ea9610f66610f598b61080e565b899063ffffffff61105516565b859063ffffffff61103f16565b50505050505092915050565b600f5460ff1681565b600a5481565b60016020819052600091825260409091208054918101546002820154600383015460048401546005850154600690950154939492939192909160ff8082169161010090041688565b600c5481565b600354600160a060020a031681565b600454600160a060020a031681565b600060208190529081526040902080546001820154600283015460038401546004850154600590950154600160a060020a039485169593909416939192909160ff1686565b60008282018381101561104e57fe5b9392505050565b6000828202831580611071575082848281151561106e57fe5b04145b151561104e57fe5b6000818152602081815260408083206002810154845260019092528220909180806110a2610d78565b6002860154106110b157600080fd5b6006840154610100900460ff1615156110c957600080fd5b600585015460ff16156110db57610cab565b50505060058201805460ff19166001179055600482015460009081908190151561113457670de0b6b3a76400006111238660030154866002015461105590919063ffffffff16565b81151561112c57fe5b0492506111ec565b836002015485600401541015611169575060038401546002840154670de0b6b3a764000090611123908363ffffffff61105516565b8360020154856004015414156111e4576111a8846004015461119c8660050154886003015461105590919063ffffffff16565b9063ffffffff61140416565b9050670de0b6b3a76400006111ca82866002015461105590919063ffffffff16565b8115156111d357fe5b0492508085600301540391506111ec565b846003015491505b6000831115611294576003546001860154600160a060020a03918216916310c5b328918691166000604051602001526040517c010000000000000000000000000000000000000000000000000000000063ffffffff85160281526004810192909252600160a060020a03166024820152604401602060405180830381600087803b151561127857600080fd5b6102c65a03f1151561128957600080fd5b505050604051805150505b60008211156112cf578454600160a060020a031682156108fc0283604051600060405180830381858888f1935050505015156112cf57600080fd5b600081111561130b57600554600160a060020a031681156108fc0282604051600060405180830381858888f19350505050151561130b57600080fd5b7fa95e6e2a182411e7a6f9ed114a85c3761d87f9b8f453d842c71235aa64fff99f60405160208082526012908201527f657468546f5370656e644f6e546f6b656e7300000000000000000000000000006040808301919091526060909101905180910390a17f0ac68d08c5119b8cdb4058edbf0d4168f208ec3935d26a8f1f0d92eb9d4de8bf8160405190815260200160405180910390a17f0e77276e0d82dad55a243dd33c5897e15b080ddb78f0e5eaba00f3cb47f9b4c986848460405180848152602001838152602001828152602001935050505060405180910390a1505050505050565b6000828211156113fe57fe5b50900390565b600080828481151561141257fe5b04949350505050565b81548183558181151161143f5760008381526020902061143f918101908301611444565b505050565b6107de91905b8082111561145e576000815560010161144a565b50905600a165627a7a72305820e7d105c29ea78908d2fa9c6135e9f50f49b88634512dbd0c263eba6a143ae7af0029",
  "source": "pragma solidity ^0.4.18;\n\nimport \"../controller/Controller.sol\";\nimport \"zeppelin-solidity/contracts/math/SafeMath.sol\";\nimport '../test/Debug.sol';\n\n\n/**\n * @title EmergentICO\n * @dev An ICO model that is trying to be fair for all sides.\n * The ICO is divided into \"Periods\" in which a fixed number of tokens is available\n * - each period has the same duration (set by periodDuration)\n * - within a period, all donors get the same rate (rate=tokens per 1 ether).\n * - within a period, each donor gets an amount of tokens that are proportional to her donation\n * - the rate decreases exponentially, with each batch\n * - a batch is an amount (in Wei) of eth donated\n * - at the end of each period an average of the exponential rate is computed, and all donors get their tokens for that price\n * - donators can specify a minimum rate (i.e. a maximum price) of their donation\n * - if the average rate of the period is lower than the minimum pointed by donor, donor will be refunded.\n */\n\ncontract EmergentICO is Debug {\n  using SafeMath for uint;\n\n  event LogDonationReceived\n  (\n    uint indexed _donationId,\n    address indexed _donor,\n    address indexed _beneficiary,\n    uint _periodId,\n    uint _value,\n    uint _minRate\n  );\n  event LogPeriodAverageComputed(uint _periodId);\n  event LogCollect(uint _donation, uint _tokens, uint _ether);\n\n  // The data saved for each donation:\n  struct Donation {\n    address donor;\n    address beneficiary; // The tokens will be alocated to this address.\n    uint periodId; // Donation's period.\n    uint value; // Value of the donation in wei.\n    uint minRate; // If the rate is lower than this, the funds will be returned.\n    bool isCollected; // A flag to check if tokens/funds were already collected.\n  }\n\n  // Data for each period:\n  struct Period {\n    uint donationsCounterInPeriod;\n    uint raisedUpToPeriod; // How much was raised up to this period.\n    uint averageRate; // The calculated average rate of the period.\n    uint donationsWithMinRateEqualToZero;\n    uint donationsWithMinRateEqualToRate;\n    uint donationsWithMinRateEqualToRateToInclude;\n    bool isInitialized; // A flag to indicate that the previous period was calculated and so raisedUpToPeriod is set.\n    bool isAverageRateComputed; // A flag to indicate that the average for this period was computed.\n    uint[] donationsIdsWithLimit; // An array for the donations that use the limit feature.\n  }\n\n  // Data for every attempt for computing an average for a period.\n  struct AverageComputator {\n    uint periodId; // The period for which the computation is done.\n    uint donationsCounted; // A counter used in the validation of the computation.\n    uint hintRate; //\n    uint hintTotalDonatedInThisPeriod; // [cf doc for initAverageComputation]\n    uint donationsWithMinRateEqualToRate;\n    uint donationsWithMinRateLowerThanRate;\n  }\n\n  // Mapping from donation ID to the donation. IDs are sequential 0,1,2..\n  mapping (uint=>Donation) public donations;\n  // Mapping from period ID to the period. IDs are sequential 0,1,2..\n  mapping (uint=>Period) public periods;\n  // Mapping from address of an agent, to the data of the computation he suggested.\n  mapping (address=>AverageComputator) public averageComputators;\n\n  // Parameters:\n  Controller public controller; // The conroller is responsible to mint tokens.\n  address public admin; // Admin can halt and resume the ICO, and also clear batches for everyone.\n  address public beneficiary; // The funds will be transfered here.\n  uint public startBlock; // ICO starting block.\n  uint public periodDuration; // The length of each clearance period in blocks.\n  uint public minDonation; // The minimum allowed donation in wei.\n  // Rate function is initialRate*(rateFractionNumerator/rateFractionDenominator)^n.\n  uint public initialRate;\n  uint public rateFractionNumerator;\n  uint public rateFractionDenominator;\n\n  uint public batchSize; //\n\n  // Variables:\n  uint public totalReceived; // Total of funds received in the contract, including the returned change.\n  uint public donationCounter;\n  bool public isHalted; // Flag to indicate ICO is halted.\n\n  /**\n   * @dev Modifier, Allow only an admin to access:\n   */\n  modifier onlyAdmin() {\n    require(msg.sender == admin);\n    _;\n  }\n\n  /**\n   * @dev Modifier, Check if a given period is finished:\n   * @param _periodId the period checked.\n   */\n  modifier isPeriodOver(uint _periodId) {\n    require(_periodId < currentPeriodId());\n    _;\n  }\n\n  /**\n   * @dev Modifier, Check if a given period is initialized for average computations:\n   * @param _periodId the period checked.\n   */\n  modifier isPeriodInitialized(uint _periodId) {\n    require(periods[_periodId].isInitialized);\n    _;\n  }\n\n  /**\n   * @dev Constructor, setting all the parameters:\n   * @param _controller The address of an Organization\n   * @param _beneficiary The beneficiary of the ICO (who gets the funds)\n   * @param _admin The administrator of the ICO\n   * @param _startBlock The blocknumber at which the ico starts\n   * @param _periodDuration The length of each period\n   * @param _minDonation The minimal donation\n   * @param _initialRate The price of tokens in the first block (in tokens/ETH)\n   */\n  function EmergentICO(\n    Controller _controller,\n    address _admin,\n    address _beneficiary,\n    uint _startBlock,\n    uint _periodDuration,\n    uint _minDonation,\n    uint _initialRate,\n    uint _rateFractionNumerator,\n    uint _rateFractionDenominator,\n    uint _batchSize\n  ) public\n  {\n    // Set parameters:\n    controller = _controller;\n    admin = _admin;\n    beneficiary = _beneficiary;\n    startBlock = _startBlock; // [cf doc for initAverageComputation]\n    periodDuration = _periodDuration;\n    minDonation = _minDonation;\n    initialRate = _initialRate;\n    rateFractionNumerator = _rateFractionNumerator;\n    rateFractionDenominator = _rateFractionDenominator;\n    batchSize = _batchSize;\n\n    // Initialize:\n    periods[0].isInitialized = true;\n  }\n\n  /**\n   * @dev Pausing ICO, using onlyAdmin modifier:\n   */\n  function haltICO() public onlyAdmin {\n    isHalted = true;\n  }\n\n  /**\n   * @dev Resuming ICO, using onlyAdmin modifier:\n   */\n  function resumeICO() public onlyAdmin {\n    isHalted = false;\n  }\n\n  /**\n   * @dev Modifier, Check if a given period is initialized for average computations:\n   * @param _periodId the period checked.\n   */\n  function getIsPeriodInitialized(uint _periodId) public constant returns(bool) {\n    return(periods[_periodId].isInitialized);\n  }\n\n  /**\n   * @dev Constant boolean function, checking if the ICO is active:\n   */\n  function isActive() public constant returns(bool) {\n    if (isHalted) {\n      return false;\n    }\n    if (block.number < startBlock) {\n      return false;\n    }\n    return true;\n  }\n\n  /**\n   * @dev Constant function, returns the periodId of the current block:\n   */\n  function currentPeriodId() public constant returns(uint) {\n    return ((block.number.sub(startBlock))/periodDuration);\n  }\n\n  /**\n   * @dev Constant function, computes the rate for a given batch:\n   * @param _batch the (index of) the batch for which the computation is done.\n   */\n  function rateInWei(uint _batch) public constant returns(uint) {\n    return (((10**18)*initialRate).mul(rateFractionNumerator**_batch)/rateFractionDenominator**_batch);\n  }\n\n  /**\n   * @dev Constant function, computes the average rate between two points.\n   * @param _start the starting point for the computation - expressed in  Wei donated\n   * @param _end the end point for the computation, expressed in Wei donated.\n   */\n  function averageRateInWei(uint _start, uint _end) public constant returns(uint) {\n    assert(_end >= _start);\n    uint batchStart = _start/batchSize;\n    uint batchEnd = _end/batchSize;\n    uint partOfStartBatch = batchSize.sub(_start%batchSize);\n    uint partOfEndBatch = _end%batchSize;\n    uint delta = batchEnd.sub(batchStart);\n\n    if (delta == 0) {\n        return rateInWei(batchStart);\n    }\n    if (delta == 1) {\n        return ((partOfStartBatch.mul(rateInWei(batchStart))).add(partOfEndBatch.mul(rateInWei(batchEnd))))/(_end-_start);\n    }\n    if (delta > 1) {\n        uint geomSeries = (batchSize.mul(rateInWei(batchStart+1).sub(rateInWei(batchEnd)))).mul(rateFractionDenominator)/(rateFractionDenominator.sub(rateFractionNumerator));\n        return ((geomSeries.add(partOfStartBatch.mul(rateInWei(batchStart)))).add(partOfEndBatch.mul(rateInWei(batchEnd))))/(_end-_start);\n    }\n  }\n\n  /**\n   * @dev The actual donation function.\n   * @param _beneficiary The address that will receive the tokens.\n   * @param _minRate the minimum rate the donor is willing to participate in.\n   */\n  function donate(address _beneficiary, uint _minRate) public payable {\n    // Check ICO is open:\n    require(isActive());\n\n    // Check minimum donation:\n    require(msg.value >= minDonation);\n\n    // Update period data:\n    uint currentPeriod = currentPeriodId();\n    Period storage period = periods[currentPeriod];\n    period.donationsCounterInPeriod++;\n    if (_minRate != 0) {\n      period.donationsIdsWithLimit.push(donationCounter);\n    } else {\n      period.donationsWithMinRateEqualToZero = period.donationsWithMinRateEqualToZero.add(msg.value);\n    }\n\n    // Update donation data:\n    donations[donationCounter] = Donation({\n      donor: msg.sender,\n      beneficiary: _beneficiary,\n      periodId: currentPeriod,\n      value: msg.value,\n      minRate: _minRate,\n      isCollected: false\n    });\n    donationCounter++;\n    totalReceived = totalReceived.add(msg.value);\n\n    // If minimum rate is 0 move funds to beneficiary now:\n    if (_minRate == 0) {\n      beneficiary.transfer(msg.value);\n    }\n\n    // If we can determine that the donation will not go through, revert:\n    if (_minRate != 0 && period.isInitialized) {\n      if (averageRateInWei(period.raisedUpToPeriod, period.raisedUpToPeriod.add(period.donationsWithMinRateEqualToZero)) < _minRate) {\n        revert();\n      }\n    }\n\n    // Event:\n    LogDonationReceived(donationCounter-1, msg.sender, _beneficiary, currentPeriodId(), msg.value, _minRate);\n  }\n\n  /**\n   * @dev Fallback function.\n   * upon receivng funds, treat it as donation with default parameters, minRate=0.\n   */\n  function () public payable {\n    donate(msg.sender, 0);\n  }\n\n  /**\n   * @dev an agent can set what he thinks is the correct average for a period and start the test.\n   * @param _periodId the period for which average is computed.\n   * @param _iterations number of iterations to check from the array donationsIdsWithLimit.\n   */\n  function initAverageComputation(\n    uint _periodId,\n    uint _hintTotalDonatedInThisPeriod,\n    uint _iterations\n  )\n    public\n    isPeriodOver(_periodId)\n    isPeriodInitialized(_periodId)\n  {\n    uint hintRate = averageRateInWei(periods[_periodId].raisedUpToPeriod, periods[_periodId].raisedUpToPeriod.add(_hintTotalDonatedInThisPeriod));\n    averageComputators[msg.sender] = AverageComputator({\n      periodId: _periodId,\n      donationsCounted: 0,\n      hintRate: hintRate,\n      hintTotalDonatedInThisPeriod: _hintTotalDonatedInThisPeriod,\n      donationsWithMinRateEqualToRate: 0,\n      donationsWithMinRateLowerThanRate: periods[_periodId].donationsWithMinRateEqualToZero\n    });\n    computeAverage(_periodId, _iterations);\n  }\n\n  /**\n   * @dev compute the statistics (average payout, eth raised, eth to be refunded) for a given period\n   * because the computation can be very long, the function takes a parameter \"_iterations\" that limits\n   * the computation. \"_iterations\" is bounded by period.donationsIdsWithLimit.\n  *  some configuration, and intermediate results, are stored in AverageComputators[msg.sender]\n   * @param _periodId the period for which average is computed.\n   * @param _iterations number of iterations to check from the array donationsIdsWithLimit.\n   */\n  function computeAverage(uint _periodId, uint _iterations)\n    public\n    isPeriodOver(_periodId)\n    isPeriodInitialized(_periodId)\n  {\n    Period storage period = periods[_periodId];\n    AverageComputator storage avgComp = averageComputators[msg.sender];\n    // TODO: the next statement is superfluous - either just not provide the _periodId argument\n    // or (better) have different avgComp objects for each _periodd\n    require(avgComp.periodId == _periodId);\n\n    // Run over the array of donors with a minRate and keep track of those with lower, or equal, minRate\n    for (uint cnt=0; cnt < _iterations; cnt++) {\n      if (avgComp.donationsCounted >= period.donationsIdsWithLimit.length) {\n        // we have counted all donors in this period and can move on to the payout\n        break;\n      }\n      // get the next donation with a minRate that we need to process\n      uint donationId = period.donationsIdsWithLimit[avgComp.donationsCounted];\n\n      if (donations[donationId].minRate < avgComp.hintRate ) {\n        // a donation that has a minRate that is lower than the expected rate is included\n        avgComp.donationsWithMinRateLowerThanRate = avgComp.donationsWithMinRateLowerThanRate.add(donations[donationId].value);\n      } else if (donations[donationId].minRate == avgComp.hintRate) {\n        // a donation with a minRate equal to the expected rate:\n        // we keep track of these donations  and calculate the amount to return later on\n        avgComp.donationsWithMinRateEqualToRate = avgComp.donationsWithMinRateEqualToRate.add(donations[donationId].value);\n      } else {\n        // a donation with a  minRate that is higher than the hint will not be included\n      }\n      avgComp.donationsCounted++;\n    }\n\n    // if we have checked all donations, we are ready to check if the result is as hinted\n    if (avgComp.donationsCounted == period.donationsIdsWithLimit.length) {\n\n      // check correctness of the calculation\n      if (avgComp.donationsWithMinRateLowerThanRate > avgComp.hintTotalDonatedInThisPeriod){\n        LogString('Calculation failed: donationsWithMinRateLowerThanRate > hintTotalDonatedInThisPeriod');\n        delete averageComputators[msg.sender];\n        return;\n      }\n      /*if (avgComp.donationsWithMinRateLowerThanRate + avgComp.donationsWithMinRateEqualToRate < avgComp.hintTotalDonatedInThisPeriod){\n        LogString('Calculation failed: davgComp.donationsWithMinRateLowerThanRate + avgComp.donationsWithMinRateEqualToRate < avgComp.hintTotalDonatedInThisPeriod');\n        delete averageComputators[msg.sender];\n        return;\n      }*/\n\n      period.isAverageRateComputed = true;\n      period.averageRate = avgComp.hintRate;\n      period.donationsWithMinRateEqualToRate = avgComp.donationsWithMinRateEqualToRate;\n      period.donationsWithMinRateEqualToRateToInclude = avgComp.hintTotalDonatedInThisPeriod - avgComp.donationsWithMinRateLowerThanRate;\n\n      periods[_periodId+1].raisedUpToPeriod = period.raisedUpToPeriod.add(avgComp.hintTotalDonatedInThisPeriod);\n      periods[_periodId+1].isInitialized = true;\n      delete averageComputators[msg.sender];\n      LogPeriodAverageComputed(_periodId);\n    }\n  }\n\n  /**\n   * @dev Internal function, clearing donation, either minting tokens or refunding.\n   * @param _donationId The donation to be cleared.\n   */\n  function collectTokens(uint _donationId) internal {\n    Donation storage donation = donations[_donationId];\n    Period storage period = periods[donation.periodId];\n\n    // Check collection is possible:\n    require(donation.periodId  < currentPeriodId());\n    require(period.isAverageRateComputed);\n\n    if (donation.isCollected) {\n      return;\n    }\n\n    // Mark donation as collected:\n    donation.isCollected = true;\n\n    // Check the donation minimum rate is valid, if so mint tokens, else, return funds:\n    uint tokensToMint = 0;\n    uint ethToReturn = 0;\n    uint ethToSpendOnTokens = 0;\n\n    if (donation.minRate == 0) {\n      tokensToMint = period.averageRate.mul(donation.value)/(10**18);\n      // we do not set ethToSpendOnTokens, because the transfer has already taken place in donation()\n    } else if (donation.minRate < period.averageRate) {\n      ethToSpendOnTokens = donation.value;\n      tokensToMint = period.averageRate.mul(ethToSpendOnTokens)/(10**18);\n    } else if (donation.minRate == period.averageRate) {\n      ethToSpendOnTokens = donation.value.mul(period.donationsWithMinRateEqualToRateToInclude).div(period.donationsWithMinRateEqualToRate);\n      tokensToMint = period.averageRate.mul(ethToSpendOnTokens)/(10**18);\n      ethToReturn = donation.value - ethToSpendOnTokens;\n    } else {\n      ethToReturn = donation.value;\n    }\n    if (tokensToMint > 0) {\n      controller.mintTokens(tokensToMint, donation.beneficiary);\n    }\n    if (ethToReturn > 0) {\n      donation.donor.transfer(ethToReturn);\n    }\n\n    if (ethToSpendOnTokens > 0) {\n      beneficiary.transfer(ethToSpendOnTokens);\n    }\n    LogString('ethToSpendOnTokens');\n    LogUint(ethToSpendOnTokens);\n    LogCollect(_donationId, tokensToMint, ethToReturn);\n  }\n\n  /**\n   * @dev Collecting donor own tokens.\n   * Although not really necessary, only the donor (or the admin) can clear his own donation.\n   * @param _donationId The donation to be cleared.\n   */\n  function collectMyTokens(uint _donationId) public {\n    // Check sender is indeed the donor:\n    require(msg.sender == donations[_donationId].donor);\n    // Collect:\n    collectTokens(_donationId);\n  }\n\n  /**\n   * @dev OnlyAdmin function, can clear donations for everyone.\n   * Although not really necessary, only the doner (or the admin) can clear his own donation.\n   * @param _donationIds array of donations to be cleared.\n   */\n  function collectMulti(uint[] _donationIds) public onlyAdmin {\n    for (uint cnt=0; cnt<_donationIds.length; cnt++) {\n      collectTokens(_donationIds[cnt]);\n    }\n  }\n}\n",
  "sourcePath": "/Users/tibet/Dev/Emergence/daostack/contracts/schemes/EmergentICO.sol",
  "compiler": {
    "name": "solc",
    "version": "0.4.18+commit.9cf6e910.Emscripten.clang"
  },
  "schemaVersion": "1.0.1",
  "updatedAt": "2017-11-22T00:50:28.595Z"
}