{
  "contractName": "GenesisScheme",
  "abi": [
    {
      "constant": true,
      "inputs": [
        {
          "name": "",
          "type": "uint256"
        }
      ],
      "name": "bytes4Array",
      "outputs": [
        {
          "name": "",
          "type": "bytes4"
        }
      ],
      "payable": false,
      "stateMutability": "view",
      "type": "function"
    },
    {
      "constant": true,
      "inputs": [
        {
          "name": "",
          "type": "uint256"
        }
      ],
      "name": "addressArray",
      "outputs": [
        {
          "name": "",
          "type": "address"
        }
      ],
      "payable": false,
      "stateMutability": "view",
      "type": "function"
    },
    {
      "constant": false,
      "inputs": [
        {
          "name": "_orgName",
          "type": "bytes32"
        },
        {
          "name": "_tokenName",
          "type": "string"
        },
        {
          "name": "_tokenSymbol",
          "type": "string"
        },
        {
          "name": "_founders",
          "type": "address[]"
        },
        {
          "name": "_foundersTokenAmount",
          "type": "uint256[]"
        },
        {
          "name": "_foundersReputationAmount",
          "type": "int256[]"
        }
      ],
      "name": "forgeOrg",
      "outputs": [
        {
          "name": "",
          "type": "address"
        }
      ],
      "payable": false,
      "stateMutability": "nonpayable",
      "type": "function"
    },
    {
      "constant": false,
      "inputs": [
        {
          "name": "_avatar",
          "type": "address"
        },
        {
          "name": "_schemes",
          "type": "address[]"
        },
        {
          "name": "_params",
          "type": "bytes32[]"
        },
        {
          "name": "_token",
          "type": "address[]"
        },
        {
          "name": "_isUniversal",
          "type": "bool[]"
        },
        {
          "name": "_permissions",
          "type": "bytes4[]"
        }
      ],
      "name": "setSchemes",
      "outputs": [],
      "payable": false,
      "stateMutability": "nonpayable",
      "type": "function"
    },
    {
      "constant": true,
      "inputs": [
        {
          "name": "",
          "type": "uint256"
        }
      ],
      "name": "bytes32Array",
      "outputs": [
        {
          "name": "",
          "type": "bytes32"
        }
      ],
      "payable": false,
      "stateMutability": "view",
      "type": "function"
    },
    {
      "inputs": [],
      "payable": false,
      "stateMutability": "nonpayable",
      "type": "constructor"
    },
    {
      "anonymous": false,
      "inputs": [
        {
          "indexed": false,
          "name": "_avatar",
          "type": "address"
        }
      ],
      "name": "NewOrg",
      "type": "event"
    },
    {
      "anonymous": false,
      "inputs": [
        {
          "indexed": false,
          "name": "_avatar",
          "type": "address"
        }
      ],
      "name": "InitialSchemesSet",
      "type": "event"
    }
  ],
  "bytecode": "0x60606040526020604051908101604052600160a060020a03301681526200002a906001908162000099565b506020604051908101604052600081526200004a90600290600162000105565b5060206040519081016040527c0f0000000000000000000000000000000000000000000000000000000081526200008690600390600162000153565b5034156200009357600080fd5b6200028a565b828054828255906000526020600020908101928215620000f3579160200282015b82811115620000f35782518254600160a060020a031916600160a060020a039190911617825560209290920191600190910190620000ba565b50620001019291506200021f565b5090565b82805482825590600052602060002090810192821562000145579160200282015b8281111562000145578251825560209092019160019091019062000126565b506200010192915062000249565b82805482825590600052602060002090600701600890048101928215620002115791602002820160005b83821115620001dd57835183826101000a81548163ffffffff02191690837c01000000000000000000000000000000000000000000000000000000009004021790555092602001926004016020816003010492830192600103026200017d565b80156200020f5782816101000a81549063ffffffff0219169055600401602081600301049283019260010302620001dd565b505b506200010192915062000266565b6200024691905b8082111562000101578054600160a060020a031916815560010162000226565b90565b6200024691905b8082111562000101576000815560010162000250565b6200024691905b808211156200010157805463ffffffff191681556001016200026d565b615c64806200029a6000396000f300606060405260043610620000595763ffffffff60e060020a6000350416630bddbbc681146200005e5780630f96cf3414620000a95780638bcd1c3414620000de578063c17e7bca1462000239578063e3186c56146200039b575b600080fd5b34156200006a57600080fd5b62000077600435620003c6565b6040517bffffffffffffffffffffffffffffffffffffffffffffffffffffffff19909116815260200160405180910390f35b3415620000b557600080fd5b620000c2600435620003ff565b604051600160a060020a03909116815260200160405180910390f35b3415620000ea57600080fd5b620000c2600480359060446024803590810190830135806020601f8201819004810201604051908101604052818152929190602084018383808284378201915050505050509190803590602001908201803590602001908080601f0160208091040260200160405190810160405281815292919060208401838380828437820191505050505050919080359060200190820180359060200190808060200260200160405190810160405280939291908181526020018383602002808284378201915050505050509190803590602001908201803590602001908080602002602001604051908101604052809392919081815260200183836020028082843782019150505050505091908035906020019082018035906020019080806020026020016040519081016040528093929190818152602001838360200280828437509496506200042895505050505050565b34156200024557600080fd5b6200039960048035600160a060020a03169060446024803590810190830135806020808202016040519081016040528093929190818152602001838360200280828437820191505050505050919080359060200190820180359060200190808060200260200160405190810160405280939291908181526020018383602002808284378201915050505050509190803590602001908201803590602001908080602002602001604051908101604052809392919081815260200183836020028082843782019150505050505091908035906020019082018035906020019080806020026020016040519081016040528093929190818152602001838360200280828437820191505050505050919080359060200190820180359060200190808060200260200160405190810160405280939291908181526020018383602002808284375094965062000a3495505050505050565b005b3415620003a757600080fd5b620003b460043562000e49565b60405190815260200160405180910390f35b6003805482908110620003d557fe5b9060005260206000209060089182820401919006600402915054906101000a900460e060020a0281565b60018054829081106200040e57fe5b600091825260209091200154600160a060020a0316905081565b6000806000806000808a8a6200043d62000e69565b808060200180602001838103835285818151815260200191508051906020019080838360005b838110156200047d57808201518382015260200162000463565b50505050905090810190601f168015620004ab5780820380516001836020036101000a031916815260200191505b50838103825284818151815260200191508051906020019080838360005b83811015620004e3578082015183820152602001620004c9565b50505050905090810190601f168015620005115780820380516001836020036101000a031916815260200191505b50945050505050604051809103906000f08015156200052f57600080fd5b94506200053b62000e7a565b604051809103906000f08015156200055257600080fd5b93508b85856200056162000e8b565b928352600160a060020a0391821660208401521660408083019190915260609091019051809103906000f08015156200059957600080fd5b925082600160026003620005ac62000e9c565b600160a060020a03851681526080602082018181528554918301829052906040830190606084019060a0850190889080156200061257602002820191906000526020600020905b8154600160a060020a03168152600190910190602001808311620005f3575b505084810383528681815481526020019150805480156200065457602002820191906000526020600020905b815481526001909101906020018083116200063e575b50508481038252858181548152602001915080548015620006da57602002820191906000526020600020906000905b82829054906101000a900460e060020a027bffffffffffffffffffffffffffffffffffffffffffffffffffffffff191681526020019060040190602082600301049283019260010382029150808411620006835790505b5050975050505050505050604051809103906000f0801515620006fc57600080fd5b915082600160a060020a031663f2fde38b8360405160e060020a63ffffffff8416028152600160a060020a039091166004820152602401600060405180830381600087803b15156200074d57600080fd5b6102c65a03f115156200075f57600080fd5b50505084600160a060020a031663f2fde38b8360405160e060020a63ffffffff8416028152600160a060020a039091166004820152602401600060405180830381600087803b1515620007b157600080fd5b6102c65a03f11515620007c357600080fd5b50505083600160a060020a031663f2fde38b8360405160e060020a63ffffffff8416028152600160a060020a039091166004820152602401600060405180830381600087803b15156200081557600080fd5b6102c65a03f115156200082757600080fd5b505050600090505b8851811015620009a85781600160a060020a03166310c5b3288983815181106200085557fe5b906020019060200201518b84815181106200086c57fe5b9060200190602002015160006040516020015260405160e060020a63ffffffff85160281526004810192909252600160a060020a03166024820152604401602060405180830381600087803b1515620008c457600080fd5b6102c65a03f11515620008d657600080fd5b505050604051805190501515620008ec57600080fd5b81600160a060020a03166318e236e48883815181106200090857fe5b906020019060200201518b84815181106200091f57fe5b9060200190602002015160006040516020015260405160e060020a63ffffffff85160281526004810192909252600160a060020a03166024820152604401602060405180830381600087803b15156200097757600080fd5b6102c65a03f115156200098957600080fd5b5050506040518051905015156200099f57600080fd5b6001016200082f565b600160a060020a0383811660009081526020819052604090819020805473ffffffffffffffffffffffffffffffffffffffff191633909316929092179091557f244496352f5e67e59ce96b4a53ef9ea7cb88b7db33eb13dc5e771bd04385a60e90849051600160a060020a03909116815260200160405180910390a150909a9950505050505050505050565b600160a060020a03868116600090815260208190526040812054909182918291829133821691161462000a6657600080fd5b89600160a060020a0316638da5cb5b6000604051602001526040518163ffffffff1660e060020a028152600401602060405180830381600087803b151562000aad57600080fd5b6102c65a03f1151562000abf57600080fd5b5050506040518051945060009350505b885183101562000d575788838151811062000ae657fe5b90602001906020020151915085838151811062000aff57fe5b906020019060200201511562000c7d5781600160a060020a031663ddca3f436000604051602001526040518163ffffffff1660e060020a028152600401602060405180830381600087803b151562000b5657600080fd5b6102c65a03f1151562000b6857600080fd5b5050506040518051915050801562000c185783600160a060020a0316638cf1355c88858151811062000b9657fe5b90602001906020020151848460006040516020015260405160e060020a63ffffffff8616028152600160a060020a0393841660048201529190921660248201526044810191909152606401602060405180830381600087803b151562000bfb57600080fd5b6102c65a03f1151562000c0d57600080fd5b505050604051805150505b81600160a060020a03166390be003c8b60405160e060020a63ffffffff8416028152600160a060020a039091166004820152602401600060405180830381600087803b151562000c6757600080fd5b6102c65a03f1151562000c7957600080fd5b5050505b83600160a060020a031663a34abaa8838a868151811062000c9a57fe5b9060200190602002015188878151811062000cb157fe5b9060200190602002015160006040516020015260405160e060020a63ffffffff8616028152600160a060020a03909316600484015260248301919091527bffffffffffffffffffffffffffffffffffffffffffffffffffffffff19166044820152606401602060405180830381600087803b151562000d2f57600080fd5b6102c65a03f1151562000d4157600080fd5b5050506040518051505060019092019162000acf565b83600160a060020a031663653915e53060006040516020015260405160e060020a63ffffffff8416028152600160a060020a039091166004820152602401602060405180830381600087803b151562000daf57600080fd5b6102c65a03f1151562000dc157600080fd5b50505060405180515050600160a060020a038a1660009081526020819052604090819020805473ffffffffffffffffffffffffffffffffffffffff191690557f9007c9042f12be953f7dbe3909f56c3f088e9fe294dbebbef4a67afa63462b6a908b9051600160a060020a03909116815260200160405180910390a150505050505050505050565b600280548290811062000e5857fe5b600091825260209091200154905081565b604051610e928062000eae83390190565b6040516104ab8062001d4083390190565b6040516109d580620021eb83390190565b6040516130798062002bc083390190560060606040526003805460a060020a60ff0219169055341561001f57600080fd5b604051610e92380380610e928339810160405280805182019190602001805160038054600160a060020a03191633600160a060020a0316179055919091019050600482805161007292916020019061008e565b50600581805161008692916020019061008e565b505050610129565b828054600181600116156101000203166002900490600052602060002090601f016020900481019282601f106100cf57805160ff19168380011785556100fc565b828001600101855582156100fc579182015b828111156100fc5782518255916020019190600101906100e1565b5061010892915061010c565b5090565b61012691905b808211156101085760008155600101610112565b90565b610d5a806101386000396000f3006060604052600436106101065763ffffffff7c010000000000000000000000000000000000000000000000000000000060003504166305d2035b811461010b57806306fdde0314610132578063095ea7b3146101bc57806318160ddd146101de57806323b872dd1461020357806340c10f191461022b57806342966c681461024d57806366188463146102655780636ab55fd91461028757806370a082311461029a5780637d64bcb4146102b957806383197ef0146102cc5780638da5cb5b146102df57806395d89b411461030e578063a9059cbb14610321578063d73dd62314610343578063dd62ed3e14610365578063f2fde38b1461038a578063f5074f41146103a9575b600080fd5b341561011657600080fd5b61011e6103c8565b604051901515815260200160405180910390f35b341561013d57600080fd5b6101456103d8565b60405160208082528190810183818151815260200191508051906020019080838360005b83811015610181578082015183820152602001610169565b50505050905090810190601f1680156101ae5780820380516001836020036101000a031916815260200191505b509250505060405180910390f35b34156101c757600080fd5b61011e600160a060020a0360043516602435610476565b34156101e957600080fd5b6101f16104e2565b60405190815260200160405180910390f35b341561020e57600080fd5b61011e600160a060020a03600435811690602435166044356104e8565b341561023657600080fd5b61011e600160a060020a036004351660243561066a565b341561025857600080fd5b610263600435610777565b005b341561027057600080fd5b61011e600160a060020a0360043516602435610832565b341561029257600080fd5b6101f161092c565b34156102a557600080fd5b6101f1600160a060020a0360043516610931565b34156102c457600080fd5b61011e61094c565b34156102d757600080fd5b6102636109d7565b34156102ea57600080fd5b6102f2610a00565b604051600160a060020a03909116815260200160405180910390f35b341561031957600080fd5b610145610a0f565b341561032c57600080fd5b61011e600160a060020a0360043516602435610a7a565b341561034e57600080fd5b61011e600160a060020a0360043516602435610b75565b341561037057600080fd5b6101f1600160a060020a0360043581169060243516610c19565b341561039557600080fd5b610263600160a060020a0360043516610c44565b34156103b457600080fd5b610263600160a060020a0360043516610cdf565b60035460a060020a900460ff1681565b60048054600181600116156101000203166002900480601f01602080910402602001604051908101604052809291908181526020018280546001816001161561010002031660029004801561046e5780601f106104435761010080835404028352916020019161046e565b820191906000526020600020905b81548152906001019060200180831161045157829003601f168201915b505050505081565b600160a060020a03338116600081815260026020908152604080832094871680845294909152808220859055909291907f8c5be1e5ebec7d5bd14f71427d1e84f3dd0314c0f7b2291e5b200ac8c7c3b9259085905190815260200160405180910390a350600192915050565b60005481565b6000600160a060020a03831615156104ff57600080fd5b600160a060020a03841660009081526001602052604090205482111561052457600080fd5b600160a060020a038085166000908152600260209081526040808320339094168352929052205482111561055757600080fd5b600160a060020a038416600090815260016020526040902054610580908363ffffffff610d0616565b600160a060020a0380861660009081526001602052604080822093909355908516815220546105b5908363ffffffff610d1816565b600160a060020a038085166000908152600160209081526040808320949094558783168252600281528382203390931682529190915220546105fd908363ffffffff610d0616565b600160a060020a03808616600081815260026020908152604080832033861684529091529081902093909355908516917fddf252ad1be2c89b69c2b068fc378daa952ba7f163c4a11628f55a4df523b3ef9085905190815260200160405180910390a35060019392505050565b60035460009033600160a060020a0390811691161461068857600080fd5b60035460a060020a900460ff161561069f57600080fd5b6000546106b2908363ffffffff610d1816565b6000908155600160a060020a0384168152600160205260409020546106dd908363ffffffff610d1816565b600160a060020a0384166000818152600160205260409081902092909255907f0f6798a560793a54c3bcfe86a93cde1e73087d944c0ea20544137d41213968859084905190815260200160405180910390a2600160a060020a03831660007fddf252ad1be2c89b69c2b068fc378daa952ba7f163c4a11628f55a4df523b3ef8460405190815260200160405180910390a350600192915050565b600160a060020a03331660009081526001602052604081205482111561079c57600080fd5b5033600160a060020a0381166000908152600160205260409020546107c19083610d06565b600160a060020a038216600090815260016020526040812091909155546107ee908363ffffffff610d0616565b600055600160a060020a0381167fcc16f5dbb4873280815c1ee09dbd06736cffcc184412cf7a71a0fdb75d397ca58360405190815260200160405180910390a25050565b600160a060020a0333811660009081526002602090815260408083209386168352929052908120548083111561088f57600160a060020a0333811660009081526002602090815260408083209388168352929052908120556108c6565b61089f818463ffffffff610d0616565b600160a060020a033381166000908152600260209081526040808320938916835292905220555b600160a060020a0333811660008181526002602090815260408083209489168084529490915290819020547f8c5be1e5ebec7d5bd14f71427d1e84f3dd0314c0f7b2291e5b200ac8c7c3b925915190815260200160405180910390a35060019392505050565b601281565b600160a060020a031660009081526001602052604090205490565b60035460009033600160a060020a0390811691161461096a57600080fd5b60035460a060020a900460ff161561098157600080fd5b6003805474ff0000000000000000000000000000000000000000191660a060020a1790557fae5184fba832cb2b1f702aca6117b8d265eaf03ad33eb133f19dde0f5920fa0860405160405180910390a150600190565b60035433600160a060020a039081169116146109f257600080fd5b600354600160a060020a0316ff5b600354600160a060020a031681565b60058054600181600116156101000203166002900480601f01602080910402602001604051908101604052809291908181526020018280546001816001161561010002031660029004801561046e5780601f106104435761010080835404028352916020019161046e565b6000600160a060020a0383161515610a9157600080fd5b600160a060020a033316600090815260016020526040902054821115610ab657600080fd5b600160a060020a033316600090815260016020526040902054610adf908363ffffffff610d0616565b600160a060020a033381166000908152600160205260408082209390935590851681522054610b14908363ffffffff610d1816565b600160a060020a0380851660008181526001602052604090819020939093559133909116907fddf252ad1be2c89b69c2b068fc378daa952ba7f163c4a11628f55a4df523b3ef9085905190815260200160405180910390a350600192915050565b600160a060020a033381166000908152600260209081526040808320938616835292905290812054610bad908363ffffffff610d1816565b600160a060020a0333811660008181526002602090815260408083209489168084529490915290819020849055919290917f8c5be1e5ebec7d5bd14f71427d1e84f3dd0314c0f7b2291e5b200ac8c7c3b92591905190815260200160405180910390a350600192915050565b600160a060020a03918216600090815260026020908152604080832093909416825291909152205490565b60035433600160a060020a03908116911614610c5f57600080fd5b600160a060020a0381161515610c7457600080fd5b600354600160a060020a0380831691167f8be0079c531659141344cd1fd0a4f28419497f9722a3daafe3b4186f6b6457e060405160405180910390a36003805473ffffffffffffffffffffffffffffffffffffffff1916600160a060020a0392909216919091179055565b60035433600160a060020a03908116911614610cfa57600080fd5b80600160a060020a0316ff5b600082821115610d1257fe5b50900390565b600082820183811015610d2757fe5b93925050505600a165627a7a72305820e7fc57cc71563136532f18e7c600ed97138ba9084c2086d29dd77f65079cc165002960606040526012600355341561001457600080fd5b60008054600160a060020a033316600160a060020a0319909116811782558152600160205260408120819055600255610459806100526000396000f3006060604052600436106100825763ffffffff7c010000000000000000000000000000000000000000000000000000000060003504166318160ddd8114610087578063313ce567146100ac5780638da5cb5b146100bf578063b120c16a146100ee578063db89c04414610124578063f2fde38b14610143578063fd9bf3aa14610164575b600080fd5b341561009257600080fd5b61009a610186565b60405190815260200160405180910390f35b34156100b757600080fd5b61009a61018c565b34156100ca57600080fd5b6100d2610192565b604051600160a060020a03909116815260200160405180910390f35b34156100f957600080fd5b610110600160a060020a03600435166024356101a1565b604051901515815260200160405180910390f35b341561012f57600080fd5b61009a600160a060020a0360043516610222565b341561014e57600080fd5b610162600160a060020a036004351661023d565b005b341561016f57600080fd5b610110600160a060020a03600435166024356102d8565b60025481565b60035481565b600054600160a060020a031681565b6000805433600160a060020a039081169116146101bd57600080fd5b600160a060020a0383166000908152600160205260409020546002546101fa9184916101ee9163ffffffff61040516565b9063ffffffff61041716565b60025550600160a060020a038216600090815260016020819052604090912082905592915050565b600160a060020a031660009081526001602052604090205490565b60005433600160a060020a0390811691161461025857600080fd5b600160a060020a038116151561026d57600080fd5b600054600160a060020a0380831691167f8be0079c531659141344cd1fd0a4f28419497f9722a3daafe3b4186f6b6457e060405160405180910390a36000805473ffffffffffffffffffffffffffffffffffffffff1916600160a060020a0392909216919091179055565b60008054819033600160a060020a039081169116146102f657600080fd5b6000831261035e57506002548290610314908263ffffffff61041716565b600255600160a060020a038416600090815260016020526040902054610340908263ffffffff61041716565b600160a060020a0385166000908152600160205260409020556103be565b50600254600019830290610378908263ffffffff61040516565b600255600160a060020a0384166000908152600160205260409020546103a4908263ffffffff61040516565b600160a060020a0385166000908152600160205260409020555b83600160a060020a03167f6f734b566c5e1cb976d9c7fba184b96a698a18931dd345168b16db217f8df0dd8460405190815260200160405180910390a25060019392505050565b60008282111561041157fe5b50900390565b60008282018381101561042657fe5b93925050505600a165627a7a72305820b7ad2b4fd009bf8ad6bc7f95e9c878823cbccc9b8e902c9561ef3cf3b356fb0300296060604052341561000f57600080fd5b6040516060806109d583398101604052808051919060200180519190602001805160008054600160a060020a03338116600160a060020a031992831617909255600196909655600280549582169587169590951790945560038054949091169390941692909217909255505061094b8061008a6000396000f3006060604052600436106100955763ffffffff60e060020a6000350416631386dc2d81146100d45780636ce15a54146100f957806389ae1c901461016a5780638cf1355c146101995780638da5cb5b146101c1578063b756d5a2146101d4578063cb16d4a214610202578063d29ab9c414610224578063dab0efff1461024c578063e1758bd814610274578063f2fde38b14610287575b33600160a060020a03167ff32a9f77675fd5917534c7746608fd3e309eac68fbdcbf5925e24ca97a7043963460405190815260200160405180910390a2005b34156100df57600080fd5b6100e76102a8565b60405190815260200160405180910390f35b341561010457600080fd5b61015660048035600160a060020a03169060446024803590810190830135806020808202016040519081016040528093929190818152602001838360200280828437509496506102ae95505050505050565b604051901515815260200160405180910390f35b341561017557600080fd5b61017d610400565b604051600160a060020a03909116815260200160405180910390f35b34156101a457600080fd5b610156600160a060020a036004358116906024351660443561040f565b34156101cc57600080fd5b61017d6104fb565b34156101df57600080fd5b610156600160a060020a036004358116906024358116906044351660643561050a565b341561020d57600080fd5b610156600435600160a060020a0360243516610610565b341561022f57600080fd5b610156600160a060020a03600435811690602435166044356106a3565b341561025757600080fd5b610156600160a060020a036004358116906024351660443561078f565b341561027f57600080fd5b61017d610875565b341561029257600080fd5b6102a6600160a060020a0360043516610884565b005b60015481565b6000805433600160a060020a039081169116146102ca57600080fd5b82600160a060020a03167f8518530cc6bc186721ab2fc226031ca054c8484893d8b0c7faab65a58aac238d8360405160208082528190810183818151815260200191508051906020019060200280838360005b8381101561033557808201518382015260200161031d565b505050509050019250505060405180910390a282600160a060020a03166040517f616374696f6e28627974657333325b5d290000000000000000000000000000008152601101604051809103902060e060020a900460208451856040518463ffffffff1660e060020a02815260040180848152602001838152602001828051906020019060200280838360005b838110156103da5780820151838201526020016103c2565b5050505090500193505050506000604051808303818661646e5a03f49695505050505050565b600354600160a060020a031681565b6000805433600160a060020a0390811691161461042b57600080fd5b83600160a060020a031663d73dd623848460006040516020015260405160e060020a63ffffffff8516028152600160a060020a0390921660048301526024820152604401602060405180830381600087803b151561048857600080fd5b6102c65a03f1151561049957600080fd5b50505060405180515050600160a060020a0384167fbe7df27d98bd0614ae920a695c2c2be09c164d8456083da020a98538692c465f8484604051600160a060020a03909216825260208201526040908101905180910390a25060019392505050565b600054600160a060020a031681565b6000805433600160a060020a0390811691161461052657600080fd5b84600160a060020a03166323b872dd85858560006040516020015260405160e060020a63ffffffff8616028152600160a060020a0393841660048201529190921660248201526044810191909152606401602060405180830381600087803b151561059057600080fd5b6102c65a03f115156105a157600080fd5b50505060405180515050600160a060020a0385167f179c15de44aa7ab84896301974328eb40b5b40fe01cfe0fee2924ea712c3e843858585604051600160a060020a039384168152919092166020820152604080820192909252606001905180910390a2506001949350505050565b6000805433600160a060020a0390811691161461062c57600080fd5b600160a060020a03821683156108fc0284604051600060405180830381858888f19350505050151561065d57600080fd5b81600160a060020a03167f22fca66666089f39bc900dd6605b489df4aae6260cc8ea8257594cfb8c84926c8460405190815260200160405180910390a250600192915050565b6000805433600160a060020a039081169116146106bf57600080fd5b83600160a060020a03166366188463848460006040516020015260405160e060020a63ffffffff8516028152600160a060020a0390921660048301526024820152604401602060405180830381600087803b151561071c57600080fd5b6102c65a03f1151561072d57600080fd5b50505060405180515050600160a060020a0384167f495e426dd61227fe840d969dfba17620c573364af8c37748ea71f96f744ae3348484604051600160a060020a03909216825260208201526040908101905180910390a25060019392505050565b6000805433600160a060020a039081169116146107ab57600080fd5b83600160a060020a031663a9059cbb848460006040516020015260405160e060020a63ffffffff8516028152600160a060020a0390921660048301526024820152604401602060405180830381600087803b151561080857600080fd5b6102c65a03f1151561081957600080fd5b505050604051805190505082600160a060020a031684600160a060020a03167f49dc2a60d2599a7b6932d78fb694c30dfc596fe4e0282b5d0fd184b52472c04d8460405190815260200160405180910390a35060019392505050565b600254600160a060020a031681565b60005433600160a060020a0390811691161461089f57600080fd5b600160a060020a03811615156108b457600080fd5b600054600160a060020a0380831691167f8be0079c531659141344cd1fd0a4f28419497f9722a3daafe3b4186f6b6457e060405160405180910390a36000805473ffffffffffffffffffffffffffffffffffffffff1916600160a060020a03929092169190911790555600a165627a7a72305820820202d9fc0d149815d661d699bf63647def5f5ca8ff41fb52beedff5768f01e0029606060405234156200001057600080fd5b6040516200307938038062003079833981016040528080519190602001805182019190602001805182019190602001805160018054600160a060020a031916600160a060020a0388811691909117918290559390910192600092501663e1758bd882604051602001526040518163ffffffff167c0100000000000000000000000000000000000000000000000000000000028152600401602060405180830381600087803b1515620000c157600080fd5b6102c65a03f11515620000d357600080fd5b505050604051805160028054600160a060020a031916600160a060020a039283161790556001541690506389ae1c906000604051602001526040518163ffffffff167c0100000000000000000000000000000000000000000000000000000000028152600401602060405180830381600087803b15156200015357600080fd5b6102c65a03f115156200016557600080fd5b505050604051805160038054600160a060020a031916600160a060020a039290921691909117905550600090505b8351811015620002f0576040805190810160405280848381518110620001b557fe5b9060200190602002015181526020017c0100000000000000000000000000000000000000000000000000000000848481518110620001ef57fe5b90602001906020020151177fffffffff000000000000000000000000000000000000000000000000000000001690526000808684815181106200022e57fe5b90602001906020020151600160a060020a031681526020810191909152604001600020815181556020820151600191909101805463ffffffff19167c0100000000000000000000000000000000000000000000000000000000909204919091179055508381815181106200029e57fe5b90602001906020020151600160a060020a031633600160a060020a03167f546816e99403df442acb68ef69562682a50762c20a3fb6b472f7af9923736cfc60405160405180910390a360010162000193565b5050505050612d7480620003056000396000f30060606040526004361061013a5763ffffffff60e060020a600035041663043cc6ee811461014a57806310c5b3281461017d57806318e236e41461019f578063277d811e146101c15780633a02263c1461021057806346a4869c1461023f57806346e361b714610261578063488b3814146102925780635aef7de6146102b157806364f47ace146102c4578063653915e5146102fd57806365ab1ae81461031c5780636bafaa591461035457806381d064c41461036757806389ae1c90146103865780638cf1355c146103995780639fe02726146103c1578063a34abaa8146103fd578063b756d5a21461042c578063b9c2ee821461045a578063cb16d4a214610479578063d29ab9c41461049b578063d5210f60146104c3578063dab0efff146104d6578063db6149ce146104fe578063e1758bd81461053f575b341561014557600080fd5b600080fd5b341561015557600080fd5b610169600160a060020a0360043516610552565b604051901515815260200160405180910390f35b341561018857600080fd5b610169600435600160a060020a0360243516610570565b34156101aa57600080fd5b610169600435600160a060020a0360243516610852565b34156101cc57600080fd5b6101696004602481358181019083013580602081810201604051908101604052809392919081815260200183836020028082843750949650610b2c95505050505050565b341561021b57600080fd5b610223610e90565b604051600160a060020a03909116815260200160405180910390f35b341561024a57600080fd5b610169600160a060020a0360043516602435610e9f565b341561026c57600080fd5b610280600160a060020a0360043516611069565b60405190815260200160405180910390f35b341561029d57600080fd5b610169600160a060020a0360043516611084565b34156102bc57600080fd5b610223611298565b34156102cf57600080fd5b6102e3600160a060020a03600435166112a7565b604051911515825260208201526040908101905180910390f35b341561030857600080fd5b610169600160a060020a03600435166112c6565b341561032757600080fd5b6103326004356115fc565b604051600160a060020a03909216825260208201526040908101905180910390f35b341561035f57600080fd5b610169611632565b341561037257600080fd5b610169600160a060020a03600435166116ab565b341561039157600080fd5b6102236116d4565b34156103a457600080fd5b610169600160a060020a03600435811690602435166044356116e3565b34156103cc57600080fd5b6103e0600160a060020a03600435166119e4565b604051600160e060020a0319909116815260200160405180910390f35b341561040857600080fd5b610169600160a060020a0360043516602435600160e060020a031960443516611a08565b341561043757600080fd5b610169600160a060020a0360043581169060243581169060443516606435611da5565b341561046557600080fd5b610169600160a060020a03600435166120ba565b341561048457600080fd5b610169600435600160a060020a03602435166123cc565b34156104a657600080fd5b610169600160a060020a03600435811690602435166044356126a7565b34156104ce57600080fd5b61028061299f565b34156104e157600080fd5b610169600160a060020a03600435811690602435166044356129a5565b341561050957600080fd5b61051d600160a060020a0360043516612c96565b604051918252600160e060020a03191660208201526040908101905180910390f35b341561054a57600080fd5b610223612cb5565b600160a060020a031660009081526006602052604090205460ff1690565b600160a060020a03331660009081526020819052604081206001015460e060020a9081028116146105a057600080fd5b7f6d696e74546f6b656e730000000000000000000000000000000000000000000060005b6005548110156106a45760058054829081106105dc57fe5b600091825260209091206002909102015460058054600160a060020a039092169163c1786ab29133918590811061060f57fe5b9060005260206000209060020201600101548560006040516020015260405160e060020a63ffffffff8616028152600160a060020a03909316600484015260248301919091526044820152606401602060405180830381600087803b151561067657600080fd5b6102c65a03f1151561068757600080fd5b50505060405180519050151561069c57600080fd5b6001016105c4565b83600160a060020a031633600160a060020a03167f21f9c9a1a1f9a311a50f15fec5c1faa9e21fc9edf964f0fdecba5bd490484c5e8760405190815260200160405180910390a3600254600160a060020a03166340c10f19858760006040516020015260405160e060020a63ffffffff8516028152600160a060020a0390921660048301526024820152604401602060405180830381600087803b151561074a57600080fd5b6102c65a03f1151561075b57600080fd5b50505060405180519350505060005b60055481101561084a57600580548290811061078257fe5b600091825260209091206002909102015460058054600160a060020a0390921691638043154d913391859081106107b557fe5b9060005260206000209060020201600101548560006040516020015260405160e060020a63ffffffff8616028152600160a060020a03909316600484015260248301919091526044820152606401602060405180830381600087803b151561081c57600080fd5b6102c65a03f1151561082d57600080fd5b50505060405180519050151561084257600080fd5b60010161076a565b505092915050565b600160a060020a03331660009081526020819052604081206001015460e060020a90810281161461088257600080fd5b7f6d696e7452657075746174696f6e00000000000000000000000000000000000060005b6005548110156109865760058054829081106108be57fe5b600091825260209091206002909102015460058054600160a060020a039092169163c1786ab2913391859081106108f157fe5b9060005260206000209060020201600101548560006040516020015260405160e060020a63ffffffff8616028152600160a060020a03909316600484015260248301919091526044820152606401602060405180830381600087803b151561095857600080fd5b6102c65a03f1151561096957600080fd5b50505060405180519050151561097e57600080fd5b6001016108a6565b83600160a060020a031633600160a060020a03167fb6ced7e295ffd06d19f45bd872b3bd3fd172b1ba53b17ce0543c276d06f5a4228760405190815260200160405180910390a3600354600160a060020a031663fd9bf3aa858760006040516020015260405160e060020a63ffffffff8516028152600160a060020a0390921660048301526024820152604401602060405180830381600087803b1515610a2c57600080fd5b6102c65a03f11515610a3d57600080fd5b50505060405180519350505060005b60055481101561084a576005805482908110610a6457fe5b600091825260209091206002909102015460058054600160a060020a0390921691638043154d91339185908110610a9757fe5b9060005260206000209060020201600101548560006040516020015260405160e060020a63ffffffff8616028152600160a060020a03909316600484015260248301919091526044820152606401602060405180830381600087803b1515610afe57600080fd5b6102c65a03f11515610b0f57600080fd5b505050604051805190501515610b2457600080fd5b600101610a4c565b600160a060020a03331660009081526020819052604081206001015460e060020a908102811614610b5c57600080fd5b7f67656e65726963416374696f6e0000000000000000000000000000000000000060005b600554811015610c60576005805482908110610b9857fe5b600091825260209091206002909102015460058054600160a060020a039092169163c1786ab291339185908110610bcb57fe5b9060005260206000209060020201600101548560006040516020015260405160e060020a63ffffffff8616028152600160a060020a03909316600484015260248301919091526044820152606401602060405180830381600087803b1515610c3257600080fd5b6102c65a03f11515610c4357600080fd5b505050604051805190501515610c5857600080fd5b600101610b80565b33600160a060020a03167f8518530cc6bc186721ab2fc226031ca054c8484893d8b0c7faab65a58aac238d8560405160208082528190810183818151815260200191508051906020019060200280838360005b83811015610ccb578082015183820152602001610cb3565b505050509050019250505060405180910390a2600154600160a060020a0316636ce15a5433866000604051602001526040518363ffffffff1660e060020a0281526004018083600160a060020a0316600160a060020a0316815260200180602001828103825283818151815260200191508051906020019060200280838360005b83811015610d64578082015183820152602001610d4c565b505050509050019350505050602060405180830381600087803b1515610d8957600080fd5b6102c65a03f11515610d9a57600080fd5b50505060405180519350505060005b600554811015610e89576005805482908110610dc157fe5b600091825260209091206002909102015460058054600160a060020a0390921691638043154d91339185908110610df457fe5b9060005260206000209060020201600101548560006040516020015260405160e060020a63ffffffff8616028152600160a060020a03909316600484015260248301919091526044820152606401602060405180830381600087803b1515610e5b57600080fd5b6102c65a03f11515610e6c57600080fd5b505050604051805190501515610e8157600080fd5b600101610da9565b5050919050565b600454600160a060020a031681565b600160a060020a03331660009081526020819052604081206001015460e060020a027c040000000000000000000000000000000000000000000000000000000090811614610eec57600080fd5b600160a060020a03831660009081526006602052604090205460ff161515610fdc576005805460018101610f208382612cc4565b9160005260206000209060020201600060408051908101604052600160a060020a0387168152602081018690529190508151815473ffffffffffffffffffffffffffffffffffffffff1916600160a060020a039190911617815560208201516001909101555060409050805190810160409081526001825260055460001901602080840191909152600160a060020a03861660009081526006909152208151815460ff191690151517815560208201516001909101555061101c565b600160a060020a03831660009081526006602052604090206001015460058054849290811061100757fe5b60009182526020909120600160029092020101555b7f6f3ac186000a779fe66d0a5188f51993a6593d93c4ff052ec0453aa84f09dbcb8383604051600160a060020a03909216825260208201526040908101905180910390a150600192915050565b600160a060020a031660009081526020819052604090205490565b600061108e612cf5565b611096612cf5565b600160a060020a03331660009081526020819052604090206001015460e060020a027c0400000000000000000000000000000000000000000000000000000000908116146110e357600080fd5b600160a060020a03841660009081526006602052604090819020908051908101604052815460ff16151581526001909101546020820152915081511561128e5760055460001901602083015110156112005760058054600019810190811061114757fe5b9060005260206000209060020201604080519081016040528154600160a060020a0316815260019091015460208083019190915290915081906005908401518154811061119057fe5b90600052602060002090600202016000820151815473ffffffffffffffffffffffffffffffffffffffff1916600160a060020a03919091161781556020820151600190910155506020820151600660008351600160a060020a031681526020810191909152604001600020600101555b6005805490611213906000198301612cc4565b50600160a060020a03841660009081526006602090815260408220805460ff19168155600101919091557f6ceab662049113d466f7e28b69edbec7cf641bc175522623536b09785887982a908590840151604051600160a060020a03909216825260208201526040908101905180910390a160019250610e89565b5060009392505050565b600154600160a060020a031681565b6006602052600090815260409020805460019091015460ff9091169082565b600160a060020a03331660009081526020819052604081206001015460e060020a027c02000000000000000000000000000000000000000000000000000000009081161461131357600080fd5b7f756e7265676973746572536368656d650000000000000000000000000000000060005b60055481101561141757600580548290811061134f57fe5b600091825260209091206002909102015460058054600160a060020a039092169163c1786ab29133918590811061138257fe5b9060005260206000209060020201600101548560006040516020015260405160e060020a63ffffffff8616028152600160a060020a03909316600484015260248301919091526044820152606401602060405180830381600087803b15156113e957600080fd5b6102c65a03f115156113fa57600080fd5b50505060405180519050151561140f57600080fd5b600101611337565b600160a060020a03841660009081526020819052604090206001015460e060020a90810216151561144b5760009250611518565b33600160a060020a0390811660009081526020819052604080822060019081015493881683529120015460e060020a918202199102167c0f0000000000000000000000000000000000000000000000000000000016156114aa57600080fd5b83600160a060020a031633600160a060020a03167f10bb2cf04cb8b902a8e736d494f1a51003be6d4b16ef6fb95ce62c38445023bf60405160405180910390a3600160a060020a03841660009081526020819052604081209081556001908101805463ffffffff1916905592505b5060005b600554811015610e8957600580548290811061153457fe5b600091825260209091206002909102015460058054600160a060020a0390921691638043154d9133918590811061156757fe5b9060005260206000209060020201600101548560006040516020015260405160e060020a63ffffffff8616028152600160a060020a03909316600484015260248301919091526044820152606401602060405180830381600087803b15156115ce57600080fd5b6102c65a03f115156115df57600080fd5b5050506040518051905015156115f457600080fd5b60010161151c565b600580548290811061160a57fe5b600091825260209091206002909102018054600190910154600160a060020a03909116915082565b600061163d336116ab565b151561164b575060006116a8565b600160a060020a0333166000818152602081905260408082209182556001909101805463ffffffff1916905581907f10bb2cf04cb8b902a8e736d494f1a51003be6d4b16ef6fb95ce62c38445023bf905160405180910390a35060015b90565b600160a060020a031660009081526020819052604090206001015460e060020a90810216151590565b600354600160a060020a031681565b600160a060020a03331660009081526020819052604081206001015460e060020a90810281161461171357600080fd5b7f65787465726e616c546f6b656e496e637265617365417070726f76616c00000060005b60055481101561181757600580548290811061174f57fe5b600091825260209091206002909102015460058054600160a060020a039092169163c1786ab29133918590811061178257fe5b9060005260206000209060020201600101548560006040516020015260405160e060020a63ffffffff8616028152600160a060020a03909316600484015260248301919091526044820152606401602060405180830381600087803b15156117e957600080fd5b6102c65a03f115156117fa57600080fd5b50505060405180519050151561180f57600080fd5b600101611737565b85600160a060020a031633600160a060020a03167f2cee0640e7c161518a78fa901d8c0e4b2f51d42612532184a4f017a45b01ba288787604051600160a060020a03909216825260208201526040908101905180910390a3600154600160a060020a0316638cf1355c87878760006040516020015260405160e060020a63ffffffff8616028152600160a060020a0393841660048201529190921660248201526044810191909152606401602060405180830381600087803b15156118db57600080fd5b6102c65a03f115156118ec57600080fd5b50505060405180519350505060005b6005548110156119db57600580548290811061191357fe5b600091825260209091206002909102015460058054600160a060020a0390921691638043154d9133918590811061194657fe5b9060005260206000209060020201600101548560006040516020015260405160e060020a63ffffffff8616028152600160a060020a03909316600484015260248301919091526044820152606401602060405180830381600087803b15156119ad57600080fd5b6102c65a03f115156119be57600080fd5b5050506040518051905015156119d357600080fd5b6001016118fb565b50509392505050565b600160a060020a031660009081526020819052604090206001015460e060020a0290565b6000611a12612cf5565b600160a060020a03331660009081526020819052604090206001015460e060020a027c020000000000000000000000000000000000000000000000000000000090811614611a5f57600080fd5b7f7265676973746572536368656d6500000000000000000000000000000000000060005b600554811015611b63576005805482908110611a9b57fe5b600091825260209091206002909102015460058054600160a060020a039092169163c1786ab291339185908110611ace57fe5b9060005260206000209060020201600101548560006040516020015260405160e060020a63ffffffff8616028152600160a060020a03909316600484015260248301919091526044820152606401602060405180830381600087803b1515611b3557600080fd5b6102c65a03f11515611b4657600080fd5b505050604051805190501515611b5b57600080fd5b600101611a83565b600160a060020a03871660009081526020819052604090819020908051908101604090815282548252600192830154600160e060020a031960e060020a918202166020808501918252600160a060020a03331660009081529081905292832090940154929650909291021990518718167c0f000000000000000000000000000000000000000000000000000000001614611bfc57600080fd5b600160a060020a03331660009081526020818152604082206001015460e060020a021990850151167c0f000000000000000000000000000000000000000000000000000000001614611c4d57600080fd5b600160a060020a0387811660008181526020819052604090819020898155600101805463ffffffff191660e060020a8a81170417905590913316907f546816e99403df442acb68ef69562682a50762c20a3fb6b472f7af9923736cfc905160405180910390a3600193505060005b600554811015611d9b576005805482908110611cd357fe5b600091825260209091206002909102015460058054600160a060020a0390921691638043154d91339185908110611d0657fe5b9060005260206000209060020201600101548560006040516020015260405160e060020a63ffffffff8616028152600160a060020a03909316600484015260248301919091526044820152606401602060405180830381600087803b1515611d6d57600080fd5b6102c65a03f11515611d7e57600080fd5b505050604051805190501515611d9357600080fd5b600101611cbb565b5050509392505050565b600160a060020a03331660009081526020819052604081206001015460e060020a908102811614611dd557600080fd5b7f65787465726e616c546f6b656e5472616e7366657246726f6d0000000000000060005b600554811015611ed9576005805482908110611e1157fe5b600091825260209091206002909102015460058054600160a060020a039092169163c1786ab291339185908110611e4457fe5b9060005260206000209060020201600101548560006040516020015260405160e060020a63ffffffff8616028152600160a060020a03909316600484015260248301919091526044820152606401602060405180830381600087803b1515611eab57600080fd5b6102c65a03f11515611ebc57600080fd5b505050604051805190501515611ed157600080fd5b600101611df9565b86600160a060020a031633600160a060020a03167f283faba4b8dcfe263728666be500623fdf5ae89ac78e40952fe2493f918ed62c888888604051600160a060020a039384168152919092166020820152604080820192909252606001905180910390a3600154600160a060020a031663b756d5a28888888860006040516020015260405160e060020a63ffffffff8716028152600160a060020a0394851660048201529284166024840152921660448201526064810191909152608401602060405180830381600087803b1515611fb057600080fd5b6102c65a03f11515611fc157600080fd5b50505060405180519350505060005b6005548110156120b0576005805482908110611fe857fe5b600091825260209091206002909102015460058054600160a060020a0390921691638043154d9133918590811061201b57fe5b9060005260206000209060020201600101548560006040516020015260405160e060020a63ffffffff8616028152600160a060020a03909316600484015260248301919091526044820152606401602060405180830381600087803b151561208257600080fd5b6102c65a03f1151561209357600080fd5b5050506040518051905015156120a857600080fd5b600101611fd0565b5050949350505050565b600160a060020a03331660009081526020819052604081206001015460e060020a027c08000000000000000000000000000000000000000000000000000000009081161461210757600080fd5b600454600160a060020a03161561211d57600080fd5b600160a060020a038216151561213257600080fd5b6004805473ffffffffffffffffffffffffffffffffffffffff1916600160a060020a03848116919091179091556001541663f2fde38b8360405160e060020a63ffffffff8416028152600160a060020a039091166004820152602401600060405180830381600087803b15156121a757600080fd5b6102c65a03f115156121b857600080fd5b5050600254600160a060020a03308116925016638da5cb5b6000604051602001526040518163ffffffff1660e060020a028152600401602060405180830381600087803b151561220757600080fd5b6102c65a03f1151561221857600080fd5b50505060405180519050600160a060020a0316141561229657600254600160a060020a031663f2fde38b8360405160e060020a63ffffffff8416028152600160a060020a039091166004820152602401600060405180830381600087803b151561228157600080fd5b6102c65a03f1151561229257600080fd5b5050505b600354600160a060020a033081169116638da5cb5b6000604051602001526040518163ffffffff1660e060020a028152600401602060405180830381600087803b15156122e257600080fd5b6102c65a03f115156122f357600080fd5b50505060405180519050600160a060020a0316141561237157600354600160a060020a031663f2fde38b8360405160e060020a63ffffffff8416028152600160a060020a039091166004820152602401600060405180830381600087803b151561235c57600080fd5b6102c65a03f1151561236d57600080fd5b5050505b6004547fdb7cbacf8df312d794506c0cc9af07f64d29ca075796ea2e950a3832cc9a63dd903090600160a060020a0316604051600160a060020a039283168152911660208201526040908101905180910390a1506001919050565b600160a060020a03331660009081526020819052604081206001015460e060020a9081028116146123fc57600080fd5b7f73656e644574686572000000000000000000000000000000000000000000000060005b60055481101561250057600580548290811061243857fe5b600091825260209091206002909102015460058054600160a060020a039092169163c1786ab29133918590811061246b57fe5b9060005260206000209060020201600101548560006040516020015260405160e060020a63ffffffff8616028152600160a060020a03909316600484015260248301919091526044820152606401602060405180830381600087803b15156124d257600080fd5b6102c65a03f115156124e357600080fd5b5050506040518051905015156124f857600080fd5b600101612420565b83600160a060020a031633600160a060020a03167fda35e091786fbaaace32084910404a0e3a14f22a7645a4c3d0fec2c6731e3c348760405190815260200160405180910390a3600154600160a060020a031663cb16d4a2868660006040516020015260405160e060020a63ffffffff85160281526004810192909252600160a060020a03166024820152604401602060405180830381600087803b15156125a757600080fd5b6102c65a03f115156125b857600080fd5b50505060405180519350505060005b60055481101561084a5760058054829081106125df57fe5b600091825260209091206002909102015460058054600160a060020a0390921691638043154d9133918590811061261257fe5b9060005260206000209060020201600101548560006040516020015260405160e060020a63ffffffff8616028152600160a060020a03909316600484015260248301919091526044820152606401602060405180830381600087803b151561267957600080fd5b6102c65a03f1151561268a57600080fd5b50505060405180519050151561269f57600080fd5b6001016125c7565b600160a060020a03331660009081526020819052604081206001015460e060020a9081028116146126d757600080fd5b7f65787465726e616c546f6b656e4465637265617365417070726f76616c00000060005b6005548110156127db57600580548290811061271357fe5b600091825260209091206002909102015460058054600160a060020a039092169163c1786ab29133918590811061274657fe5b9060005260206000209060020201600101548560006040516020015260405160e060020a63ffffffff8616028152600160a060020a03909316600484015260248301919091526044820152606401602060405180830381600087803b15156127ad57600080fd5b6102c65a03f115156127be57600080fd5b5050506040518051905015156127d357600080fd5b6001016126fb565b85600160a060020a031633600160a060020a03167f56fc1f50d44108d3b715d77eb371d388bf2998c65b4eb5cf0ccd6c055be46d498787604051600160a060020a03909216825260208201526040908101905180910390a3600154600160a060020a031663d29ab9c487878760006040516020015260405160e060020a63ffffffff8616028152600160a060020a0393841660048201529190921660248201526044810191909152606401602060405180830381600087803b151561289f57600080fd5b6102c65a03f115156128b057600080fd5b50505060405180519350505060005b6005548110156119db5760058054829081106128d757fe5b600091825260209091206002909102015460058054600160a060020a0390921691638043154d9133918590811061290a57fe5b9060005260206000209060020201600101548560006040516020015260405160e060020a63ffffffff8616028152600160a060020a03909316600484015260248301919091526044820152606401602060405180830381600087803b151561297157600080fd5b6102c65a03f1151561298257600080fd5b50505060405180519050151561299757600080fd5b6001016128bf565b60055490565b600160a060020a03331660009081526020819052604081206001015460e060020a9081028116146129d557600080fd5b7f65787465726e616c546f6b656e5472616e73666572000000000000000000000060005b600554811015612ad9576005805482908110612a1157fe5b600091825260209091206002909102015460058054600160a060020a039092169163c1786ab291339185908110612a4457fe5b9060005260206000209060020201600101548560006040516020015260405160e060020a63ffffffff8616028152600160a060020a03909316600484015260248301919091526044820152606401602060405180830381600087803b1515612aab57600080fd5b6102c65a03f11515612abc57600080fd5b505050604051805190501515612ad157600080fd5b6001016129f9565b84600160a060020a031686600160a060020a031633600160a060020a03167fd4c08afec48fd2cbe49032dc89d3b388b7a4e4f0563a1fdccd73339beb025aa18760405190815260200160405180910390a4600154600160a060020a031663dab0efff87878760006040516020015260405160e060020a63ffffffff8616028152600160a060020a0393841660048201529190921660248201526044810191909152606401602060405180830381600087803b1515612b9657600080fd5b6102c65a03f11515612ba757600080fd5b50505060405180519350505060005b6005548110156119db576005805482908110612bce57fe5b600091825260209091206002909102015460058054600160a060020a0390921691638043154d91339185908110612c0157fe5b9060005260206000209060020201600101548560006040516020015260405160e060020a63ffffffff8616028152600160a060020a03909316600484015260248301919091526044820152606401602060405180830381600087803b1515612c6857600080fd5b6102c65a03f11515612c7957600080fd5b505050604051805190501515612c8e57600080fd5b600101612bb6565b6000602081905290815260409020805460019091015460e060020a0282565b600254600160a060020a031681565b815481835581811511612cf057600202816002028360005260206000209182019101612cf09190612d0c565b505050565b604080519081016040526000808252602082015290565b6116a891905b80821115612d4457805473ffffffffffffffffffffffffffffffffffffffff1916815560006001820155600201612d12565b50905600a165627a7a72305820ac885281408e638077ab7476ce8b483140730fa264a39a5a109210e91231f5f50029a165627a7a72305820f27ae07dc477a8a97eed7459221a42c05ff7cea1dc07a1be57296b4757fc9e5a0029",
  "source": "pragma solidity ^0.4.18;\n\nimport \"../controller/Avatar.sol\";\nimport \"../controller/Controller.sol\";\nimport \"../controller/DAOToken.sol\";\nimport \"../controller/Reputation.sol\";\nimport \"./UniversalScheme.sol\";\n\n\n/**\n * @title Genesis Scheme that creates organizations\n */\n\ncontract GenesisScheme {\n\n    mapping(address=>address) locks;\n\n    event NewOrg (address _avatar);\n    event InitialSchemesSet (address _avatar);\n\n    address[] public addressArray = [address(this)];\n    bytes32[] public bytes32Array = [bytes32(0)];\n    //full permissions\n    bytes4[]  public bytes4Array  = [bytes4(0xF)];\n\n    function GenesisScheme() public {}\n\n    /**\n     * @dev Create a new organization\n     * @param _orgName The name of the new organization\n     * @param _tokenName The name of the token associated with the organization\n     * @param _tokenSymbol The symbol of the token\n     * @param _founders An array with the addresses of the founders of the organization\n     * @param _foundersTokenAmount An array of amount of tokens that the founders\n     *  receive in the new organization\n     * @param _foundersReputationAmount An array of amount of reputation that the\n     *   founders receive in the new organization\n     *\n     * @return The address of the avatar of the controller\n     */\n    function forgeOrg (\n        bytes32 _orgName,\n        string _tokenName,\n        string _tokenSymbol,\n        address[] _founders,\n        uint[] _foundersTokenAmount,\n        int[] _foundersReputationAmount\n    ) public returns(address)\n    {\n        // Create Token, Reputation and Avatar:\n        DAOToken  nativeToken = new DAOToken(_tokenName, _tokenSymbol);\n        Reputation  nativeReputation = new Reputation();\n        Avatar  avatar = new Avatar(_orgName, nativeToken, nativeReputation);\n\n        // Create Controller:\n        Controller controller = new Controller(avatar,addressArray, bytes32Array, bytes4Array);\n        // Transfer ownership:\n        avatar.transferOwnership(controller);\n        nativeToken.transferOwnership(controller);\n        nativeReputation.transferOwnership(controller);\n\n        // Mint token and reputation for founders:\n        for (uint i = 0 ; i < _founders.length ; i++ ) {\n            if (!controller.mintTokens(_foundersTokenAmount[i], _founders[i])) {\n                revert();\n            }\n            if (!controller.mintReputation(_foundersReputationAmount[i], _founders[i])) {\n                revert();\n            }\n        }\n\n        locks[avatar] = msg.sender;\n\n        NewOrg (address(avatar));\n        return (address(avatar));\n    }\n\n     /**\n      * @dev Set initial schemes for the organization.\n      * @param _avatar organization avatar (returns from forgeOrg)\n      * @param _schemes the schemes to register for the organization\n      * @param _params the schemes's params\n      * @param _token the tokens these schemes are using and will be allowed to\n      *         spend on behalf of the organization's avatar\n      * @param _isUniversal is this scheme is universal scheme (true or false)\n      * @param _permissions the schemes permissins.\n      */\n    function setSchemes (\n        Avatar _avatar,\n        address[] _schemes,\n        bytes32[] _params,\n        StandardToken[] _token,\n        bool[] _isUniversal,\n        bytes4[] _permissions\n    )\n        public\n    {\n        // this action can only be executed by the account that holds the lock\n        // for this controller\n        require(locks[address(_avatar)] == msg.sender);\n\n        // register initial schemes:\n        Controller controller = Controller(_avatar.owner());\n        for ( uint i = 0 ; i < _schemes.length ; i++ ) {\n            // TODO: the approval here is for paying the fee for that scheme later (with registerOrganization())\n            // TODO: (continued)  why not have that separate? And why not ask the scheme for its fee, then, instead of passing it here?\n            address scheme = _schemes[i];\n            if (_isUniversal[i]) {\n                uint fee = UniversalScheme(scheme).fee();\n                if (fee != 0) {\n                    controller.externalTokenIncreaseApproval(_token[i], scheme, fee);\n                  }\n                UniversalScheme(scheme).registerOrganization(_avatar);\n                }\n            controller.registerScheme(scheme, _params[i], _permissions[i]);\n        }\n\n        // Unregister self:\n        controller.unregisterScheme(this);\n\n        // Remove lock:\n        delete locks[_avatar];\n\n        InitialSchemesSet(address(_avatar));\n    }\n}\n",
  "sourcePath": "/Users/tibet/Dev/Emergence/daostack/contracts/universalSchemes/GenesisScheme.sol",
  "compiler": {
    "name": "solc",
    "version": "0.4.18+commit.9cf6e910.Emscripten.clang"
  },
  "schemaVersion": "1.0.1",
  "updatedAt": "2018-01-04T23:51:58.129Z"
}