{
  "contractName": "GenesisScheme",
  "abi": [
    {
      "constant": false,
      "inputs": [
        {
          "name": "_orgName",
          "type": "bytes32"
        },
        {
          "name": "_tokenName",
          "type": "string"
        },
        {
          "name": "_tokenSymbol",
          "type": "string"
        },
        {
          "name": "_founders",
          "type": "address[]"
        },
        {
          "name": "_foundersTokenAmount",
          "type": "uint256[]"
        },
        {
          "name": "_foundersReputationAmount",
          "type": "int256[]"
        }
      ],
      "name": "forgeOrg",
      "outputs": [
        {
          "name": "",
          "type": "address"
        }
      ],
      "payable": false,
      "stateMutability": "nonpayable",
      "type": "function"
    },
    {
      "constant": false,
      "inputs": [
        {
          "name": "_avatar",
          "type": "address"
        },
        {
          "name": "_schemes",
          "type": "address[]"
        },
        {
          "name": "_params",
          "type": "bytes32[]"
        },
        {
          "name": "_token",
          "type": "address[]"
        },
        {
          "name": "_fee",
          "type": "uint256[]"
        },
        {
          "name": "_permissions",
          "type": "bytes4[]"
        }
      ],
      "name": "setInitialSchemes",
      "outputs": [],
      "payable": false,
      "stateMutability": "nonpayable",
      "type": "function"
    },
    {
      "inputs": [],
      "payable": false,
      "stateMutability": "nonpayable",
      "type": "constructor"
    },
    {
      "anonymous": false,
      "inputs": [
        {
          "indexed": false,
          "name": "_avatar",
          "type": "address"
        }
      ],
      "name": "NewOrg",
      "type": "event"
    }
  ],
  "bytecode": "0x6060604052341561000f57600080fd5b600480546001810161002183826100ee565b5060009182526020909120018054600160a060020a03191630600160a060020a0316179055600580546001810161005883826100ee565b50600091825260208220015560068054600181016100768382610117565b9160005260206000209060089182820401919006600402600f7c010000000000000000000000000000000000000000000000000000000002909190916101000a81548163ffffffff02191690837c01000000000000000000000000000000000000000000000000000000009004021790555050610168565b81548183558181151161011257600083815260209020610112918101908301610147565b505050565b81548183558181151161011257600701600890048160070160089004836000526020600020918201910161011291905b61016591905b80821115610161576000815560010161014d565b5090565b90565b61413d80620001786000396000f3006060604052600436106100325763ffffffff60e060020a6000350416638bcd1c348114610037578063ebd424ec146101ab575b600080fd5b341561004257600080fd5b61018f600480359060446024803590810190830135806020601f8201819004810201604051908101604052818152929190602084018383808284378201915050505050509190803590602001908201803590602001908080601f01602080910402602001604051908101604052818152929190602084018383808284378201915050505050509190803590602001908201803590602001908080602002602001604051908101604052809392919081815260200183836020028082843782019150505050505091908035906020019082018035906020019080806020026020016040519081016040528093929190818152602001838360200280828437820191505050505050919080359060200190820180359060200190808060200260200160405190810160405280939291908181526020018383602002808284375094965061030a95505050505050565b604051600160a060020a03909116815260200160405180910390f35b34156101b657600080fd5b61030860048035600160a060020a0316906044602480359081019083013580602080820201604051908101604052809392919081815260200183836020028082843782019150505050505091908035906020019082018035906020019080806020026020016040519081016040528093929190818152602001838360200280828437820191505050505050919080359060200190820180359060200190808060200260200160405190810160405280939291908181526020018383602002808284378201915050505050509190803590602001908201803590602001908080602002602001604051908101604052809392919081815260200183836020028082843782019150505050505091908035906020019082018035906020019080806020026020016040519081016040528093929190818152602001838360200280828437509496506109a095505050505050565b005b60008060008787610319610c9a565b808060200180602001838103835285818151815260200191508051906020019080838360005b8381101561035757808201518382015260200161033f565b50505050905090810190601f1680156103845780820380516001836020036101000a031916815260200191505b50838103825284818151815260200191508051906020019080838360005b838110156103ba5780820151838201526020016103a2565b50505050905090810190601f1680156103e75780820380516001836020036101000a031916815260200191505b50945050505050604051809103906000f080151561040457600080fd5b6000805473ffffffffffffffffffffffffffffffffffffffff1916600160a060020a0392909216919091179055610439610caa565b604051809103906000f080151561044f57600080fd5b6001805473ffffffffffffffffffffffffffffffffffffffff1916600160a060020a0392831617908190556000548b92908116911661048c610cba565b928352600160a060020a0391821660208401521660408083019190915260609091019051809103906000f08015156104c357600080fd5b6002805473ffffffffffffffffffffffffffffffffffffffff1916600160a060020a03928316179081905560005460015491831692908116911660046005600661050b610cca565b600160a060020a03808816825286811660208301528516604082015260c060608201818152855491830182905290608083019060a084019060e08501908890801561057f57602002820191906000526020600020905b8154600160a060020a03168152600190910190602001808311610561575b505084810383528681815481526020019150805480156105bf57602002820191906000526020600020905b815481526001909101906020018083116105aa575b5050848103825285818154815260200191508054801561064357602002820191906000526020600020906000905b82829054906101000a900460e060020a027bffffffffffffffffffffffffffffffffffffffffffffffffffffffff1916815260200190600401906020826003010492830192600103820291508084116105ed5790505b50509950505050505050505050604051809103906000f080151561066657600080fd5b600254909250600160a060020a031663f2fde38b8360405160e060020a63ffffffff8416028152600160a060020a039091166004820152602401600060405180830381600087803b15156106b957600080fd5b6102c65a03f115156106ca57600080fd5b5050600054600160a060020a0316905063f2fde38b8360405160e060020a63ffffffff8416028152600160a060020a039091166004820152602401600060405180830381600087803b151561071e57600080fd5b6102c65a03f1151561072f57600080fd5b5050600154600160a060020a0316905063f2fde38b8360405160e060020a63ffffffff8416028152600160a060020a039091166004820152602401600060405180830381600087803b151561078357600080fd5b6102c65a03f1151561079457600080fd5b505050600090505b85518110156109095781600160a060020a03166310c5b3288683815181106107c057fe5b906020019060200201518884815181106107d657fe5b9060200190602002015160006040516020015260405160e060020a63ffffffff85160281526004810192909252600160a060020a03166024820152604401602060405180830381600087803b151561082d57600080fd5b6102c65a03f1151561083e57600080fd5b50505060405180519050151561085357600080fd5b81600160a060020a03166318e236e485838151811061086e57fe5b9060200190602002015188848151811061088457fe5b9060200190602002015160006040516020015260405160e060020a63ffffffff85160281526004810192909252600160a060020a03166024820152604401602060405180830381600087803b15156108db57600080fd5b6102c65a03f115156108ec57600080fd5b50505060405180519050151561090157600080fd5b60010161079c565b60028054600160a060020a0390811660009081526003602052604090819020805473ffffffffffffffffffffffffffffffffffffffff191633841617905591547f244496352f5e67e59ce96b4a53ef9ea7cb88b7db33eb13dc5e771bd04385a60e9291169051600160a060020a03909116815260200160405180910390a15050600254600160a060020a0316979650505050505050565b600160a060020a03868116600090815260036020526040812054909182913382169116146109cd57600080fd5b87600160a060020a0316638da5cb5b6000604051602001526040518163ffffffff1660e060020a028152600401602060405180830381600087803b1515610a1357600080fd5b6102c65a03f11515610a2457600080fd5b5050506040518051925060009150505b8651811015610beb5781600160a060020a03166379c6ad9e868381518110610a5857fe5b90602001906020020151898481518110610a6e57fe5b90602001906020020151878581518110610a8457fe5b9060200190602002015160006040516020015260405160e060020a63ffffffff8616028152600160a060020a0393841660048201529190921660248201526044810191909152606401602060405180830381600087803b1515610ae657600080fd5b6102c65a03f11515610af757600080fd5b50505060405180515050600160a060020a03821663a34abaa8888381518110610b1c57fe5b90602001906020020151888481518110610b3257fe5b90602001906020020151868581518110610b4857fe5b9060200190602002015160006040516020015260405160e060020a63ffffffff8616028152600160a060020a03909316600484015260248301919091527fffffffff00000000000000000000000000000000000000000000000000000000166044820152606401602060405180830381600087803b1515610bc857600080fd5b6102c65a03f11515610bd957600080fd5b50505060405180515050600101610a34565b81600160a060020a031663653915e53060006040516020015260405160e060020a63ffffffff8416028152600160a060020a039091166004820152602401602060405180830381600087803b1515610c4257600080fd5b6102c65a03f11515610c5357600080fd5b5050506040518051505050600160a060020a039096166000908152600360205260409020805473ffffffffffffffffffffffffffffffffffffffff19169055505050505050565b604051610e2480610cdb83390190565b60405161046680611aff83390190565b60405161093080611f6583390190565b60405161187d8061289583390190560060606040526003805460a060020a60ff02191690556012600655341561002457600080fd5b604051610e24380380610e248339810160405280805182019190602001805160038054600160a060020a03191633600160a060020a03161790559190910190506004828051610077929160200190610093565b50600581805161008b929160200190610093565b50505061012e565b828054600181600116156101000203166002900490600052602060002090601f016020900481019282601f106100d457805160ff1916838001178555610101565b82800160010185558215610101579182015b828111156101015782518255916020019190600101906100e6565b5061010d929150610111565b5090565b61012b91905b8082111561010d5760008155600101610117565b90565b610ce78061013d6000396000f3006060604052600436106101065763ffffffff7c010000000000000000000000000000000000000000000000000000000060003504166305d2035b811461010b57806306fdde0314610132578063095ea7b3146101bc5780631338736f146101de57806318160ddd146101f957806323b872dd1461021e578063313ce5671461024657806340c10f191461025957806370a082311461027b5780637d64bcb41461029a57806383197ef0146102ad5780638778f590146102c05780638b96dca3146102e55780638da5cb5b146102f857806395d89b4114610327578063a9059cbb1461033a578063dd62ed3e1461035c578063f2fde38b14610381578063f5074f41146103a0575b600080fd5b341561011657600080fd5b61011e6103bf565b604051901515815260200160405180910390f35b341561013d57600080fd5b6101456103e0565b60405160208082528190810183818151815260200191508051906020019080838360005b83811015610181578082015183820152602001610169565b50505050905090810190601f1680156101ae5780820380516001836020036101000a031916815260200191505b509250505060405180910390f35b34156101c757600080fd5b61011e600160a060020a036004351660243561047e565b34156101e957600080fd5b6101f7600435602435610525565b005b341561020457600080fd5b61020c610534565b60405190815260200160405180910390f35b341561022957600080fd5b61011e600160a060020a036004358116906024351660443561053a565b341561025157600080fd5b61020c6105d4565b341561026457600080fd5b61011e600160a060020a03600435166024356105da565b341561028657600080fd5b61020c600160a060020a03600435166106b9565b34156102a557600080fd5b61011e6106d4565b34156102b857600080fd5b6101f7610759565b34156102cb57600080fd5b61011e600160a060020a0360043516602435604435610782565b34156102f057600080fd5b6101f761079b565b341561030357600080fd5b61030b610817565b604051600160a060020a03909116815260200160405180910390f35b341561033257600080fd5b610145610826565b341561034557600080fd5b61011e600160a060020a0360043516602435610891565b341561036757600080fd5b61020c600160a060020a0360043581169060243516610923565b341561038c57600080fd5b6101f7600160a060020a036004351661094e565b34156103ab57600080fd5b6101f7600160a060020a03600435166109a4565b60035474010000000000000000000000000000000000000000900460ff1681565b60048054600181600116156101000203166002900480601f0160208091040260200160405190810160405280929190818152602001828054600181600116156101000203166002900480156104765780601f1061044b57610100808354040283529160200191610476565b820191906000526020600020905b81548152906001019060200180831161045957829003601f168201915b505050505081565b60008115806104b05750600160a060020a03338116600090815260026020908152604080832093871683529290522054155b15156104bb57600080fd5b600160a060020a03338116600081815260026020908152604080832094881680845294909152908190208590557f8c5be1e5ebec7d5bd14f71427d1e84f3dd0314c0f7b2291e5b200ac8c7c3b9259085905190815260200160405180910390a35060015b92915050565b6105303383836109cb565b5050565b60005481565b600160a060020a0383166000908152600760205260408120600101544390111561059e57600160a060020a038416600090815260076020908152604080832054600190925290912054610593908463ffffffff610ac816565b101561059e57600080fd5b6105a9848484610ada565b905030600160a060020a031683600160a060020a031614156105cd576105cd61079b565b9392505050565b60065481565b60035460009033600160a060020a039081169116146105f857600080fd5b60035474010000000000000000000000000000000000000000900460ff161561062057600080fd5b600054610633908363ffffffff610bed16565b6000908155600160a060020a03841681526001602052604090205461065e908363ffffffff610bed16565b600160a060020a0384166000818152600160205260409081902092909255907f0f6798a560793a54c3bcfe86a93cde1e73087d944c0ea20544137d41213968859084905190815260200160405180910390a250600192915050565b600160a060020a031660009081526001602052604090205490565b60035460009033600160a060020a039081169116146106f257600080fd5b6003805474ff00000000000000000000000000000000000000001916740100000000000000000000000000000000000000001790557fae5184fba832cb2b1f702aca6117b8d265eaf03ad33eb133f19dde0f5920fa0860405160405180910390a150600190565b60035433600160a060020a0390811691161461077457600080fd5b600354600160a060020a0316ff5b600061078e84846105da565b90506105cd8484846109cb565b600160a060020a03301660009081526001602052604081205490546107c59163ffffffff610ac816565b6000908155600160a060020a0330168152600160205260408082208290557fb90306ad06b2a6ff86ddc9327db583062895ef6540e62dc50add009db5b356eb91905190815260200160405180910390a1565b600354600160a060020a031681565b60058054600181600116156101000203166002900480601f0160208091040260200160405190810160405280929190818152602001828054600181600116156101000203166002900480156104765780601f1061044b57610100808354040283529160200191610476565b600160a060020a033316600090815260076020526040812060010154439011156108f557600160a060020a0333166000908152600760209081526040808320546001909252909120546108ea908463ffffffff610ac816565b10156108f557600080fd5b6108ff8383610bfc565b905030600160a060020a031683600160a060020a0316141561051f5761051f61079b565b600160a060020a03918216600090815260026020908152604080832093909416825291909152205490565b60035433600160a060020a0390811691161461096957600080fd5b600160a060020a038116156109a1576003805473ffffffffffffffffffffffffffffffffffffffff1916600160a060020a0383161790555b50565b60035433600160a060020a039081169116146109bf57600080fd5b80600160a060020a0316ff5b8115156109d757600080fd5b600160a060020a0383166000908152600160205260409020548211156109fc57600080fd5b600160a060020a03831660009081526007602052604090206001015443901115610a6d57600160a060020a038316600090815260076020526040902054821015610a4557600080fd5b600160a060020a038316600090815260076020526040902060010154811015610a6d57600080fd5b600160a060020a038316600081815260076020526040908190208481556001018390557fb28c000ac15ab34ecd2967bf80e42da8695d031d8ab47459e5b4f747607d63f69084905190815260200160405180910390a2505050565b600082821115610ad457fe5b50900390565b600160a060020a038084166000908152600260209081526040808320338516845282528083205493861683526001909152812054909190610b21908463ffffffff610bed16565b600160a060020a038086166000908152600160205260408082209390935590871681522054610b56908463ffffffff610ac816565b600160a060020a038616600090815260016020526040902055610b7f818463ffffffff610ac816565b600160a060020a03808716600081815260026020908152604080832033861684529091529081902093909355908616917fddf252ad1be2c89b69c2b068fc378daa952ba7f163c4a11628f55a4df523b3ef9086905190815260200160405180910390a3506001949350505050565b6000828201838110156105cd57fe5b600160a060020a033316600090815260016020526040812054610c25908363ffffffff610ac816565b600160a060020a033381166000908152600160205260408082209390935590851681522054610c5a908363ffffffff610bed16565b600160a060020a0380851660008181526001602052604090819020939093559133909116907fddf252ad1be2c89b69c2b068fc378daa952ba7f163c4a11628f55a4df523b3ef9085905190815260200160405180910390a3506001929150505600a165627a7a723058206b22dea269ece76ff921692d285c4d7c1ca4c8a423c97b130495ec2b1f519eb9002960606040526012600355341561001457600080fd5b60008054600160a060020a033316600160a060020a0319909116811782558152600160205260408120819055600255610414806100526000396000f3006060604052600436106100825763ffffffff7c010000000000000000000000000000000000000000000000000000000060003504166318160ddd8114610087578063313ce567146100ac5780638da5cb5b146100bf578063b120c16a146100ee578063db89c04414610124578063f2fde38b14610143578063fd9bf3aa14610164575b600080fd5b341561009257600080fd5b61009a610186565b60405190815260200160405180910390f35b34156100b757600080fd5b61009a61018c565b34156100ca57600080fd5b6100d2610192565b604051600160a060020a03909116815260200160405180910390f35b34156100f957600080fd5b610110600160a060020a03600435166024356101a1565b604051901515815260200160405180910390f35b341561012f57600080fd5b61009a600160a060020a0360043516610222565b341561014e57600080fd5b610162600160a060020a036004351661023d565b005b341561016f57600080fd5b610110600160a060020a0360043516602435610293565b60025481565b60035481565b600054600160a060020a031681565b6000805433600160a060020a039081169116146101bd57600080fd5b600160a060020a0383166000908152600160205260409020546002546101fa9184916101ee9163ffffffff6103c016565b9063ffffffff6103d216565b60025550600160a060020a038216600090815260016020819052604090912082905592915050565b600160a060020a031660009081526001602052604090205490565b60005433600160a060020a0390811691161461025857600080fd5b600160a060020a03811615610290576000805473ffffffffffffffffffffffffffffffffffffffff1916600160a060020a0383161790555b50565b60008054819033600160a060020a039081169116146102b157600080fd5b60008312610319575060025482906102cf908263ffffffff6103d216565b600255600160a060020a0384166000908152600160205260409020546102fb908263ffffffff6103d216565b600160a060020a038516600090815260016020526040902055610379565b50600254600019830290610333908263ffffffff6103c016565b600255600160a060020a03841660009081526001602052604090205461035f908263ffffffff6103c016565b600160a060020a0385166000908152600160205260409020555b83600160a060020a03167f6f734b566c5e1cb976d9c7fba184b96a698a18931dd345168b16db217f8df0dd8460405190815260200160405180910390a25060019392505050565b6000828211156103cc57fe5b50900390565b6000828201838110156103e157fe5b93925050505600a165627a7a72305820424043a87f92c290b7a896088026396d229659632470961108c0d66ccbe5438900296060604052341561000f57600080fd5b60405160608061093083398101604052808051919060200180519190602001805160008054600160a060020a03338116600160a060020a03199283161790925560019690965560028054958216958716959095179094556003805494909116939094169290921790925550506108a68061008a6000396000f3006060604052600436106100955763ffffffff60e060020a6000350416631386dc2d81146100d45780633df4062e146100f95780636ce15a541461012f57806379c6ad9e1461018c57806389ae1c90146101b45780638da5cb5b146101e3578063b756d5a2146101f6578063cb16d4a214610224578063dab0efff14610246578063e1758bd81461026e578063f2fde38b14610281575b33600160a060020a03167ff32a9f77675fd5917534c7746608fd3e309eac68fbdcbf5925e24ca97a7043963460405190815260200160405180910390a2005b34156100df57600080fd5b6100e76102a2565b60405190815260200160405180910390f35b341561010457600080fd5b61011b600160a060020a03600435166024356102a8565b604051901515815260200160405180910390f35b341561013a57600080fd5b61011b60048035600160a060020a031690604460248035908101908301358060208082020160405190810160405280939291908181526020018383602002808284375094965061039895505050505050565b341561019757600080fd5b61011b600160a060020a036004358116906024351660443561048c565b34156101bf57600080fd5b6101c7610578565b604051600160a060020a03909116815260200160405180910390f35b34156101ee57600080fd5b6101c7610587565b341561020157600080fd5b61011b600160a060020a0360043581169060243581169060443516606435610596565b341561022f57600080fd5b61011b600435600160a060020a036024351661069c565b341561025157600080fd5b61011b600160a060020a036004358116906024351660443561072f565b341561027957600080fd5b6101c7610815565b341561028c57600080fd5b6102a0600160a060020a0360043516610824565b005b60015481565b6000805433600160a060020a039081169116146102c457600080fd5b82600160a060020a03166323b872dd33338560006040516020015260405160e060020a63ffffffff8616028152600160a060020a0393841660048201529190921660248201526044810191909152606401602060405180830381600087803b151561032e57600080fd5b6102c65a03f1151561033f57600080fd5b50505060405180519050507fd23e88ecf1a38ccd3a7b62b200c5f7975695cab040e26939826be9dc15f573198383604051600160a060020a03909216825260208201526040908101905180910390a15060015b92915050565b6000805433600160a060020a039081169116146103b457600080fd5b82600160a060020a03166040517f616374696f6e2875696e743235365b5d290000000000000000000000000000008152601101604051809103902060e060020a9004836040518263ffffffff1660e060020a02815260040180828051906020019060200280838360005b8381101561043657808201518382015260200161041e565b505050509050019150506000604051808303818661646e5a03f4925050509050610392565b8381101561047357808201518382015260200161045b565b505050509050019250505060405180910390a292915050565b6000805433600160a060020a039081169116146104a857600080fd5b83600160a060020a031663095ea7b3848460006040516020015260405160e060020a63ffffffff8516028152600160a060020a0390921660048301526024820152604401602060405180830381600087803b151561050557600080fd5b6102c65a03f1151561051657600080fd5b50505060405180515050600160a060020a0384167f15027ced8d0b6b382affbb51de0e1f48bb24ac55be01ca51537a5f9c4aeb35aa8484604051600160a060020a03909216825260208201526040908101905180910390a25060019392505050565b600354600160a060020a031681565b600054600160a060020a031681565b6000805433600160a060020a039081169116146105b257600080fd5b84600160a060020a03166323b872dd85858560006040516020015260405160e060020a63ffffffff8616028152600160a060020a0393841660048201529190921660248201526044810191909152606401602060405180830381600087803b151561061c57600080fd5b6102c65a03f1151561062d57600080fd5b50505060405180515050600160a060020a0385167f179c15de44aa7ab84896301974328eb40b5b40fe01cfe0fee2924ea712c3e843858585604051600160a060020a039384168152919092166020820152604080820192909252606001905180910390a2506001949350505050565b6000805433600160a060020a039081169116146106b857600080fd5b600160a060020a03821683156108fc0284604051600060405180830381858888f1935050505015156106e957600080fd5b81600160a060020a03167f22fca66666089f39bc900dd6605b489df4aae6260cc8ea8257594cfb8c84926c8460405190815260200160405180910390a250600192915050565b6000805433600160a060020a0390811691161461074b57600080fd5b83600160a060020a031663a9059cbb848460006040516020015260405160e060020a63ffffffff8516028152600160a060020a0390921660048301526024820152604401602060405180830381600087803b15156107a857600080fd5b6102c65a03f115156107b957600080fd5b505050604051805190505082600160a060020a031684600160a060020a03167f49dc2a60d2599a7b6932d78fb694c30dfc596fe4e0282b5d0fd184b52472c04d8460405190815260200160405180910390a35060019392505050565b600254600160a060020a031681565b60005433600160a060020a0390811691161461083f57600080fd5b600160a060020a03811615610877576000805473ffffffffffffffffffffffffffffffffffffffff1916600160a060020a0383161790555b505600a165627a7a7230582068f1dffeef3ea7d285dcc7012c89c86bab23fdfc2cd1fa843aa7f129b72676ca00296060604052341561000f57600080fd5b60405161187d38038061187d8339810160405280805191906020018051919060200180519190602001805182019190602001805182019190602001805160018054600160a060020a03808b16600160a060020a031992831617909255600280548a84169083161790556003805492891692909116919091179055909101905060005b83518110156101bb578281815181106100a657fe5b906020019060200201516000808684815181106100bf57fe5b90602001906020020151600160a060020a031681526020810191909152604001600020558181815181106100ef57fe5b9060200190602002015160008086848151811061010857fe5b90602001906020020151600160a060020a031681526020810191909152604001600020600101805463ffffffff19167c010000000000000000000000000000000000000000000000000000000090920491909117905583818151811061016a57fe5b90602001906020020151600160a060020a031633600160a060020a03167f546816e99403df442acb68ef69562682a50762c20a3fb6b472f7af9923736cfc60405160405180910390a3600101610091565b505050505050506116ac806101d16000396000f3006060604052600436106101245763ffffffff60e060020a60003504166310c5b328811461013457806318e236e41461016a5780633a02263c1461018c57806346a4869c146101bb57806346e361b7146101dd578063488b38141461020e57806354fd4d501461022d5780635aef7de6146102b7578063653915e5146102ca57806365ab1ae8146102e95780636bafaa59146103215780636ce15a541461033457806379c6ad9e1461039157806381d064c4146103b957806389ae1c90146103d85780639fe02726146103eb578063a34abaa814610427578063b756d5a214610456578063b9c2ee8214610484578063cb16d4a2146104a3578063d5210f60146104c5578063dab0efff146104d8578063db6149ce14610500578063e1758bd814610541575b341561012f57600080fd5b600080fd5b341561013f57600080fd5b610156600435600160a060020a0360243516610554565b604051901515815260200160405180910390f35b341561017557600080fd5b610156600435600160a060020a0360243516610674565b341561019757600080fd5b61019f610772565b604051600160a060020a03909116815260200160405180910390f35b34156101c657600080fd5b610156600160a060020a0360043516602435610781565b34156101e857600080fd5b6101fc600160a060020a0360043516610893565b60405190815260200160405180910390f35b341561021957600080fd5b610156600160a060020a03600435166108ae565b341561023857600080fd5b6102406109a7565b60405160208082528190810183818151815260200191508051906020019080838360005b8381101561027c578082015183820152602001610264565b50505050905090810190601f1680156102a95780820380516001836020036101000a031916815260200191505b509250505060405180910390f35b34156102c257600080fd5b61019f6109de565b34156102d557600080fd5b610156600160a060020a03600435166109ed565b34156102f457600080fd5b6102ff600435610b2a565b604051600160a060020a03909216825260208201526040908101905180910390f35b341561032c57600080fd5b610156610b60565b341561033f57600080fd5b61015660048035600160a060020a0316906044602480359081019083013580602080820201604051908101604052809392919081815260200183836020028082843750949650610b8f95505050505050565b341561039c57600080fd5b610156600160a060020a0360043581169060243516604435610d1a565b34156103c457600080fd5b610156600160a060020a0360043516610e59565b34156103e357600080fd5b61019f610e89565b34156103f657600080fd5b61040a600160a060020a0360043516610e98565b604051600160e060020a0319909116815260200160405180910390f35b341561043257600080fd5b610156600160a060020a0360043516602435600160e060020a031960443516610ebc565b341561046157600080fd5b610156600160a060020a036004358116906024358116906044351660643561108e565b341561048f57600080fd5b610156600160a060020a03600435166111e1565b34156104ae57600080fd5b610156600435600160a060020a03602435166113b4565b34156104d057600080fd5b6101fc6114b3565b34156104e357600080fd5b610156600160a060020a03600435811690602435166044356114b9565b341561050b57600080fd5b61051f600160a060020a03600435166115ce565b604051918252600160e060020a03191660208201526040908101905180910390f35b341561054c57600080fd5b61019f6115ed565b600160a060020a03331660009081526020819052604081206001015460e060020a02600160e060020a031916151561058b57600080fd5b7f6d696e74546f6b656e730000000000000000000000000000000000000000000082600160a060020a031633600160a060020a03167f21f9c9a1a1f9a311a50f15fec5c1faa9e21fc9edf964f0fdecba5bd490484c5e8660405190815260200160405180910390a3600254600160a060020a03166340c10f19848660006040516020015260405160e060020a63ffffffff8516028152600160a060020a0390921660048301526024820152604401602060405180830381600087803b151561065257600080fd5b6102c65a03f1151561066357600080fd5b505050604051805195945050505050565b600160a060020a03331660009081526020819052604081206001015460e060020a02600160e060020a03191615156106ab57600080fd5b7f6d696e7452657075746174696f6e00000000000000000000000000000000000082600160a060020a031633600160a060020a03167fb6ced7e295ffd06d19f45bd872b3bd3fd172b1ba53b17ce0543c276d06f5a4228660405190815260200160405180910390a3600354600160a060020a031663fd9bf3aa848660006040516020015260405160e060020a63ffffffff8516028152600160a060020a0390921660048301526024820152604401602060405180830381600087803b151561065257600080fd5b600454600160a060020a031681565b600061078b6115fc565b600160a060020a03331660009081526020819052604090206001015460e060020a027c0400000000000000000000000000000000000000000000000000000000908116146107d857600080fd5b600160a060020a03841681526020810183905260058054600181016107fd8382611613565b600092835260209092208391600202018151815473ffffffffffffffffffffffffffffffffffffffff1916600160a060020a03919091161781556020820151600190910155507f8fdb69e6f496c598f5c3e04a02081a6f5ab0096b70a94a75b6b6c61b1fe4c9f890508484604051600160a060020a03909216825260208201526040908101905180910390a15060019392505050565b600160a060020a031660009081526020819052604090205490565b600160a060020a033316600090815260208190526040812060010154819060e060020a027c0400000000000000000000000000000000000000000000000000000000908116146108fd57600080fd5b5060005b6005548110156109a15782600160a060020a031660058281548110151561092457fe5b6000918252602090912060029091020154600160a060020a0316141561099957600060058281548110151561095557fe5b60009182526020909120600290910201805473ffffffffffffffffffffffffffffffffffffffff1916600160a060020a0392909216919091179055600191506109a1565b600101610901565b50919050565b60408051908101604052600581527f302e302e31000000000000000000000000000000000000000000000000000000602082015281565b600154600160a060020a031681565b600160a060020a03331660009081526020819052604081206001015460e060020a027c020000000000000000000000000000000000000000000000000000000090811614610a3a57600080fd5b33600160a060020a039081166000908152602081905260408082206001908101549386168352912001547f756e7265676973746572536368656d65000000000000000000000000000000009160e060020a908102199102167c0f000000000000000000000000000000000000000000000000000000001615610abb57600080fd5b82600160a060020a031633600160a060020a03167f10bb2cf04cb8b902a8e736d494f1a51003be6d4b16ef6fb95ce62c38445023bf60405160405180910390a35050600160a060020a031660009081526020819052604081209081556001908101805463ffffffff1916905590565b6005805482908110610b3857fe5b600091825260209091206002909102018054600190910154600160a060020a03909116915082565b600160a060020a03331660009081526020819052604081209081556001908101805463ffffffff191690555b90565b600160a060020a03331660009081526020819052604081206001015460e060020a02600160e060020a0319161515610bc657600080fd5b7f67656e65726963416374696f6e0000000000000000000000000000000000000083600160a060020a031633600160a060020a03167fa780f470f73c5b728f451407660985d55be1b49386ec1a65a0b20d09f12d32468560405160208082528190810183818151815260200191508051906020019060200280838360005b83811015610c5c578082015183820152602001610c44565b505050509050019250505060405180910390a3600154600160a060020a0316636ce15a5485856000604051602001526040518363ffffffff1660e060020a0281526004018083600160a060020a0316600160a060020a0316815260200180602001828103825283818151815260200191508051906020019060200280838360005b83811015610cf5578082015183820152602001610cdd565b505050509050019350505050602060405180830381600087803b151561065257600080fd5b600160a060020a03331660009081526020819052604081206001015460e060020a02600160e060020a0319161515610d5157600080fd5b7f65787465726e616c546f6b656e417070726f766500000000000000000000000084600160a060020a031633600160a060020a03167f5cda63dee3dca234a7ff99530838d4375718e5a398a4879f89119d92921fc6938686604051600160a060020a03909216825260208201526040908101905180910390a3600154600160a060020a03166379c6ad9e86868660006040516020015260405160e060020a63ffffffff8616028152600160a060020a0393841660048201529190921660248201526044810191909152606401602060405180830381600087803b1515610e3657600080fd5b6102c65a03f11515610e4757600080fd5b50505060405180519695505050505050565b600160a060020a031660009081526020819052604090206001015460e060020a02600160e060020a031916151590565b600354600160a060020a031681565b600160a060020a031660009081526020819052604090206001015460e060020a0290565b6000610ec66115fc565b600160a060020a03331660009081526020819052604090206001015460e060020a027c020000000000000000000000000000000000000000000000000000000090811614610f1357600080fd5b600160a060020a038516600090815260208190526040908190207f7265676973746572536368656d65000000000000000000000000000000000000918051908101604090815282548252600192830154600160e060020a031960e060020a918202166020808501918252600160a060020a03331660009081529081905292832090940154929550909291021990518618167c0f000000000000000000000000000000000000000000000000000000001614610fcd57600080fd5b600160a060020a03331660009081526020818152604082206001015460e060020a021990840151167c0f00000000000000000000000000000000000000000000000000000000161461101e57600080fd5b600160a060020a0386811660008181526020819052604090819020888155600101805463ffffffff191660e060020a890417905590913316907f546816e99403df442acb68ef69562682a50762c20a3fb6b472f7af9923736cfc905160405180910390a350600195945050505050565b600160a060020a03331660009081526020819052604081206001015460e060020a02600160e060020a03191615156110c557600080fd5b7f65787465726e616c546f6b656e5472616e7366657246726f6d0000000000000085600160a060020a031633600160a060020a03167f283faba4b8dcfe263728666be500623fdf5ae89ac78e40952fe2493f918ed62c878787604051600160a060020a039384168152919092166020820152604080820192909252606001905180910390a3600154600160a060020a031663b756d5a28787878760006040516020015260405160e060020a63ffffffff8716028152600160a060020a0394851660048201529284166024840152921660448201526064810191909152608401602060405180830381600087803b15156111bd57600080fd5b6102c65a03f115156111ce57600080fd5b5050506040518051979650505050505050565b600160a060020a03331660009081526020819052604081206001015460e060020a027c08000000000000000000000000000000000000000000000000000000009081161461122e57600080fd5b600454600160a060020a03161561124457600080fd5b600160a060020a038216151561125957600080fd5b6004805473ffffffffffffffffffffffffffffffffffffffff1916600160a060020a03848116919091179091556001541663f2fde38b8360405160e060020a63ffffffff8416028152600160a060020a039091166004820152602401600060405180830381600087803b15156112ce57600080fd5b6102c65a03f115156112df57600080fd5b5050600254600160a060020a0316905063f2fde38b8360405160e060020a63ffffffff8416028152600160a060020a039091166004820152602401600060405180830381600087803b151561133357600080fd5b6102c65a03f1151561134457600080fd5b5050600354600160a060020a0316905063f2fde38b8360405160e060020a63ffffffff8416028152600160a060020a039091166004820152602401600060405180830381600087803b151561139857600080fd5b6102c65a03f115156113a957600080fd5b506001949350505050565b600160a060020a03331660009081526020819052604081206001015460e060020a02600160e060020a03191615156113eb57600080fd5b7f73656e644574686572000000000000000000000000000000000000000000000082600160a060020a031633600160a060020a03167fda35e091786fbaaace32084910404a0e3a14f22a7645a4c3d0fec2c6731e3c348660405190815260200160405180910390a3600154600160a060020a031663cb16d4a2858560006040516020015260405160e060020a63ffffffff85160281526004810192909252600160a060020a03166024820152604401602060405180830381600087803b151561065257600080fd5b60055490565b600160a060020a03331660009081526020819052604081206001015460e060020a02600160e060020a03191615156114f057600080fd5b7f65787465726e616c546f6b656e5472616e73666572000000000000000000000083600160a060020a031685600160a060020a031633600160a060020a03167fd4c08afec48fd2cbe49032dc89d3b388b7a4e4f0563a1fdccd73339beb025aa18660405190815260200160405180910390a4600154600160a060020a031663dab0efff86868660006040516020015260405160e060020a63ffffffff8616028152600160a060020a0393841660048201529190921660248201526044810191909152606401602060405180830381600087803b1515610e3657600080fd5b6000602081905290815260409020805460019091015460e060020a0282565b600254600160a060020a031681565b604080519081016040526000808252602082015290565b81548183558181151161163f5760020281600202836000526020600020918201910161163f9190611644565b505050565b610b8c91905b8082111561167c57805473ffffffffffffffffffffffffffffffffffffffff191681556000600182015560020161164a565b50905600a165627a7a72305820b6754157558f711bc445f0a918e9111e4a682a74f4e96677b2914b720b638bec0029a165627a7a72305820d5eff82ad332a72b852791ddbf58214d222037c522234b6716d4307fbb1b924b0029",
  "source": "pragma solidity ^0.4.18;\n\nimport \"../controller/Avatar.sol\";\nimport \"../controller/Controller.sol\";\nimport \"../controller/DAOToken.sol\";\nimport \"../controller/Reputation.sol\";\n\n/**\n * @title Genesis Scheme that creates organizations\n */\n\ncontract GenesisScheme {\n    DAOToken nativeToken;\n    Reputation nativeReputation;\n    Avatar avatar;\n\n    mapping(address=>address) locks;\n\n    event NewOrg (address _avatar);\n\n    address[] addressArray;\n    bytes32[] bytes32Array;\n    bytes4[] bytes4Array;\n\n    function GenesisScheme() public {\n      addressArray.push(address(this));\n      bytes32Array.push(bytes32(0));\n      bytes4Array.push(bytes4(0xF));\n    }\n\n    /**\n     * @dev Create a new organization\n     * @param _orgName The name of the new organization\n     * @param _tokenName The name of the token associated with the organization\n     * @param _tokenSymbol The symbol of the token\n     * @param _founders An array with the addresses of the founders of the organization\n     * @param _foundersTokenAmount An array of amount of tokens that the founders\n     *  receive in the new organization\n     * @param _foundersReputationAmount An array of amount of reputation that the\n     *   founders receive in the new organization\n     *\n     * @return The address of the avatar of the controller\n     */\n    function forgeOrg (\n      bytes32 _orgName,\n      string _tokenName,\n      string _tokenSymbol,\n      address[] _founders,\n      uint[] _foundersTokenAmount,\n      int[] _foundersReputationAmount\n    ) public returns(address)\n    {\n      // Create Token, Reputation and Avatar:\n      nativeToken = new DAOToken(_tokenName, _tokenSymbol);\n      nativeReputation = new Reputation();\n      avatar =  new Avatar(_orgName, nativeToken, nativeReputation);\n\n      // Create Controller:\n      Controller controller = new Controller(avatar, nativeToken, nativeReputation, addressArray, bytes32Array, bytes4Array);\n      // Transfer ownership:\n      avatar.transferOwnership(controller);\n      nativeToken.transferOwnership(controller);\n      nativeReputation.transferOwnership(controller);\n\n      // Mint token and reputation for founders:\n      for( uint i = 0 ; i < _founders.length ; i++ ) {\n        if(!controller.mintTokens(_foundersTokenAmount[i], _founders[i])) {\n          revert();\n        }\n        if(!controller.mintReputation(_foundersReputationAmount[i], _founders[i])) {\n          revert();\n        }\n      }\n\n      locks[avatar] = msg.sender;\n\n      NewOrg (address(avatar));\n      return (address(avatar));\n    }\n\n    /**\n     * @dev  register some initial schemes\n     */\n    function setInitialSchemes (\n      Avatar _avatar,\n      address[] _schemes,\n      bytes32[] _params,\n      StandardToken[] _token,\n      uint[] _fee,\n      bytes4[] _permissions\n    )\n      public\n    {\n      // this action can only be executed by the account that holds the lock\n      // for this controller\n      require(locks[address(_avatar)] == msg.sender);\n\n      // register initial schemes:\n      Controller controller = Controller(_avatar.owner());\n      for( uint i = 0 ; i < _schemes.length ; i++ ) {\n        // TODO: the approval here is for paying the fee for that scheme later (with registerOrganization())\n        // TODO: (continued)  why not have that separate? And why not ask the scheme for its fee, then, instead of passing it here?\n        controller.externalTokenApprove(_token[i], _schemes[i], _fee[i]);\n        controller.registerScheme(_schemes[i], _params[i], _permissions[i]);\n      }\n\n      // Unregister self:\n      controller.unregisterScheme(this);\n\n      // Remove lock:\n      delete locks[_avatar];\n    }\n}\n",
  "sourcePath": "/Users/tibet/Dev/Emergence/daostack/contracts/universalSchemes/GenesisScheme.sol",
  "compiler": {
    "name": "solc",
    "version": "0.4.18+commit.9cf6e910.Emscripten.clang"
  },
  "schemaVersion": "1.0.1",
  "updatedAt": "2017-11-22T00:50:28.598Z"
}