{
  "contractName": "GlobalConstraintRegistrar",
  "abi": [
    {
      "constant": true,
      "inputs": [
        {
          "name": "",
          "type": "bytes32"
        }
      ],
      "name": "parameters",
      "outputs": [
        {
          "name": "voteRegisterParams",
          "type": "bytes32"
        },
        {
          "name": "intVote",
          "type": "address"
        }
      ],
      "payable": false,
      "stateMutability": "view",
      "type": "function"
    },
    {
      "constant": false,
      "inputs": [
        {
          "name": "_avatar",
          "type": "address"
        },
        {
          "name": "_gc",
          "type": "address"
        },
        {
          "name": "_params",
          "type": "bytes32"
        },
        {
          "name": "_voteToRemoveParams",
          "type": "bytes32"
        }
      ],
      "name": "proposeGlobalConstraint",
      "outputs": [
        {
          "name": "",
          "type": "bytes32"
        }
      ],
      "payable": false,
      "stateMutability": "nonpayable",
      "type": "function"
    },
    {
      "constant": true,
      "inputs": [
        {
          "name": "",
          "type": "address"
        }
      ],
      "name": "organizationsData",
      "outputs": [
        {
          "name": "voteRegisterParams",
          "type": "bytes32"
        },
        {
          "name": "intVote",
          "type": "address"
        }
      ],
      "payable": false,
      "stateMutability": "view",
      "type": "function"
    },
    {
      "constant": true,
      "inputs": [
        {
          "name": "_voteRegisterParams",
          "type": "bytes32"
        },
        {
          "name": "_intVote",
          "type": "address"
        }
      ],
      "name": "getParametersHash",
      "outputs": [
        {
          "name": "",
          "type": "bytes32"
        }
      ],
      "payable": false,
      "stateMutability": "pure",
      "type": "function"
    },
    {
      "constant": false,
      "inputs": [
        {
          "name": "_proposalId",
          "type": "bytes32"
        },
        {
          "name": "_avatar",
          "type": "address"
        },
        {
          "name": "_param",
          "type": "int256"
        }
      ],
      "name": "execute",
      "outputs": [
        {
          "name": "",
          "type": "bool"
        }
      ],
      "payable": false,
      "stateMutability": "nonpayable",
      "type": "function"
    },
    {
      "constant": true,
      "inputs": [],
      "name": "beneficiary",
      "outputs": [
        {
          "name": "",
          "type": "address"
        }
      ],
      "payable": false,
      "stateMutability": "view",
      "type": "function"
    },
    {
      "constant": false,
      "inputs": [
        {
          "name": "_nativeToken",
          "type": "address"
        },
        {
          "name": "_fee",
          "type": "uint256"
        },
        {
          "name": "_beneficiary",
          "type": "address"
        },
        {
          "name": "_hashedParameters",
          "type": "bytes32"
        }
      ],
      "name": "updateParameters",
      "outputs": [],
      "payable": false,
      "stateMutability": "nonpayable",
      "type": "function"
    },
    {
      "constant": true,
      "inputs": [
        {
          "name": "",
          "type": "address"
        }
      ],
      "name": "organizations",
      "outputs": [
        {
          "name": "",
          "type": "bool"
        }
      ],
      "payable": false,
      "stateMutability": "view",
      "type": "function"
    },
    {
      "constant": false,
      "inputs": [
        {
          "name": "_voteRegisterParams",
          "type": "bytes32"
        },
        {
          "name": "_intVote",
          "type": "address"
        }
      ],
      "name": "setParameters",
      "outputs": [
        {
          "name": "",
          "type": "bytes32"
        }
      ],
      "payable": false,
      "stateMutability": "nonpayable",
      "type": "function"
    },
    {
      "constant": true,
      "inputs": [],
      "name": "owner",
      "outputs": [
        {
          "name": "",
          "type": "address"
        }
      ],
      "payable": false,
      "stateMutability": "view",
      "type": "function"
    },
    {
      "constant": false,
      "inputs": [
        {
          "name": "_avatar",
          "type": "address"
        }
      ],
      "name": "registerOrganization",
      "outputs": [],
      "payable": false,
      "stateMutability": "nonpayable",
      "type": "function"
    },
    {
      "constant": true,
      "inputs": [
        {
          "name": "_avatar",
          "type": "address"
        }
      ],
      "name": "isRegistered",
      "outputs": [
        {
          "name": "",
          "type": "bool"
        }
      ],
      "payable": false,
      "stateMutability": "view",
      "type": "function"
    },
    {
      "constant": true,
      "inputs": [],
      "name": "fee",
      "outputs": [
        {
          "name": "",
          "type": "uint256"
        }
      ],
      "payable": false,
      "stateMutability": "view",
      "type": "function"
    },
    {
      "constant": true,
      "inputs": [],
      "name": "nativeToken",
      "outputs": [
        {
          "name": "",
          "type": "address"
        }
      ],
      "payable": false,
      "stateMutability": "view",
      "type": "function"
    },
    {
      "constant": false,
      "inputs": [
        {
          "name": "newOwner",
          "type": "address"
        }
      ],
      "name": "transferOwnership",
      "outputs": [],
      "payable": false,
      "stateMutability": "nonpayable",
      "type": "function"
    },
    {
      "constant": false,
      "inputs": [
        {
          "name": "_avatar",
          "type": "address"
        },
        {
          "name": "_gc",
          "type": "address"
        }
      ],
      "name": "proposeToRemoveGC",
      "outputs": [
        {
          "name": "",
          "type": "bytes32"
        }
      ],
      "payable": false,
      "stateMutability": "nonpayable",
      "type": "function"
    },
    {
      "constant": true,
      "inputs": [],
      "name": "hashedParameters",
      "outputs": [
        {
          "name": "",
          "type": "bytes32"
        }
      ],
      "payable": false,
      "stateMutability": "view",
      "type": "function"
    },
    {
      "inputs": [
        {
          "name": "_nativeToken",
          "type": "address"
        },
        {
          "name": "_fee",
          "type": "uint256"
        },
        {
          "name": "_beneficiary",
          "type": "address"
        }
      ],
      "payable": false,
      "stateMutability": "nonpayable",
      "type": "constructor"
    },
    {
      "anonymous": false,
      "inputs": [
        {
          "indexed": true,
          "name": "_avatar",
          "type": "address"
        },
        {
          "indexed": true,
          "name": "_proposalId",
          "type": "bytes32"
        },
        {
          "indexed": true,
          "name": "_intVoteInterface",
          "type": "address"
        },
        {
          "indexed": false,
          "name": "_gc",
          "type": "address"
        },
        {
          "indexed": false,
          "name": "_params",
          "type": "bytes32"
        },
        {
          "indexed": false,
          "name": "_voteToRemoveParams",
          "type": "bytes32"
        }
      ],
      "name": "NewGlobalConstraintsProposal",
      "type": "event"
    },
    {
      "anonymous": false,
      "inputs": [
        {
          "indexed": true,
          "name": "_avatar",
          "type": "address"
        },
        {
          "indexed": true,
          "name": "_proposalId",
          "type": "bytes32"
        },
        {
          "indexed": true,
          "name": "_intVoteInterface",
          "type": "address"
        },
        {
          "indexed": false,
          "name": "_gc",
          "type": "address"
        }
      ],
      "name": "RemoveGlobalConstraintsProposal",
      "type": "event"
    },
    {
      "anonymous": false,
      "inputs": [
        {
          "indexed": true,
          "name": "_avatar",
          "type": "address"
        },
        {
          "indexed": true,
          "name": "_proposalId",
          "type": "bytes32"
        }
      ],
      "name": "ProposalExecuted",
      "type": "event"
    },
    {
      "anonymous": false,
      "inputs": [
        {
          "indexed": true,
          "name": "_avatar",
          "type": "address"
        },
        {
          "indexed": true,
          "name": "_proposalId",
          "type": "bytes32"
        }
      ],
      "name": "LogProposalDeleted",
      "type": "event"
    },
    {
      "anonymous": false,
      "inputs": [
        {
          "indexed": false,
          "name": "_avatar",
          "type": "address"
        }
      ],
      "name": "OrganizationRegistered",
      "type": "event"
    },
    {
      "anonymous": false,
      "inputs": [
        {
          "indexed": false,
          "name": "proposalId",
          "type": "bytes32"
        }
      ],
      "name": "LogNewProposal",
      "type": "event"
    },
    {
      "anonymous": false,
      "inputs": [
        {
          "indexed": true,
          "name": "previousOwner",
          "type": "address"
        },
        {
          "indexed": true,
          "name": "newOwner",
          "type": "address"
        }
      ],
      "name": "OwnershipTransferred",
      "type": "event"
    }
  ],
  "bytecode": "0x6060604052341561000f57600080fd5b60405160608061117883398101604052808051919060200180519190602001805160008054600160a060020a03191633600160a060020a031617815590925061006b915084908490849064010000000061007381026109411704565b5050506100c6565b60005433600160a060020a0390811691161461008e57600080fd5b60018054600160a060020a0319908116600160a060020a03968716179091556002939093556003805490931691909316179055600455565b6110a3806100d56000396000f3006060604052600436106100d75763ffffffff60e060020a6000350416630250680481146100dc5780630fd6e498146101135780631db77c38146101505780632453732a1461016f578063310ce4e21461019157806338af3eed146101ca5780634345a610146101f95780635a1f74061461022757806368e14dac146102465780638da5cb5b1461026857806390be003c1461027b578063c3c5a5471461029a578063ddca3f43146102b9578063e1758bd8146102cc578063f2fde38b146102df578063f731e470146102fe578063f98e87ba14610323575b600080fd5b34156100e757600080fd5b6100f2600435610336565b604051918252600160a060020a031660208201526040908101905180910390f35b341561011e57600080fd5b61013e600160a060020a0360043581169060243516604435606435610358565b60405190815260200160405180910390f35b341561015b57600080fd5b6100f2600160a060020a03600435166105e9565b341561017a57600080fd5b61013e600435600160a060020a036024351661060b565b341561019c57600080fd5b6101b6600435600160a060020a0360243516604435610645565b604051901515815260200160405180910390f35b34156101d557600080fd5b6101dd610932565b604051600160a060020a03909116815260200160405180910390f35b341561020457600080fd5b610225600160a060020a036004358116906024359060443516606435610941565b005b341561023257600080fd5b6101b6600160a060020a0360043516610994565b341561025157600080fd5b61013e600435600160a060020a03602435166109a9565b341561027357600080fd5b6101dd6109f1565b341561028657600080fd5b610225600160a060020a0360043516610a00565b34156102a557600080fd5b6101b6600160a060020a0360043516610b29565b34156102c457600080fd5b61013e610b47565b34156102d757600080fd5b6101dd610b4d565b34156102ea57600080fd5b610225600160a060020a0360043516610b5c565b341561030957600080fd5b61013e600160a060020a0360043581169060243516610bea565b341561032e57600080fd5b61013e610f56565b60076020526000908152604090208054600190910154600160a060020a031682565b6000610362611039565b60008061036d611050565b600160a060020a038916600090815260056020526040902054899060ff16151561039657600080fd5b600760006103a38c610f5c565b81526020810191909152604090810160002090805190810160405281548152600190910154600160a060020a031660208201908152909550519350600160a060020a0384166388737b5e600287518d3060006040516020015260405160e060020a63ffffffff871602815260048101949094526024840192909252600160a060020a039081166044840152166064820152608401602060405180830381600087803b151561045057600080fd5b6102c65a03f1151561046157600080fd5b50505060405180519050925060806040519081016040908152600160a060020a03808c16835260208084018c9052600183850152606084018b9052908d1660009081526006825282812087825260020190915220909250829081518154600160a060020a031916600160a060020a03919091161781556020820151600182015560408201518160020155606082015160039091015550600160a060020a038085169084908c167f4e87f569c5a3f504eea38add71bbdd022e5d63d0ee92d4130c407b8d64941bc08c8c8c604051600160a060020a03909316835260208301919091526040808301919091526060909101905180910390a483600160a060020a031663339e23d18460013360006040516020015260405160e060020a63ffffffff861602815260048101939093526024830191909152600160a060020a03166044820152606401602060405180830381600087803b15156105c057600080fd5b6102c65a03f115156105d157600080fd5b505050604051805150929a9950505050505050505050565b60066020526000908152604090208054600190910154600160a060020a031682565b60008282604051918252600160a060020a03166c010000000000000000000000000260208201526034016040518091039020905092915050565b6000806000610652611050565b33600160a060020a03166007600061066989610f5c565b8152602081019190915260400160002060010154600160a060020a03161461069057600080fd5b6001925084600114156108ac5785600160a060020a0316638da5cb5b6000604051602001526040518163ffffffff1660e060020a028152600401602060405180830381600087803b15156106e357600080fd5b6102c65a03f115156106f457600080fd5b5050506040518051600160a060020a03881660009081526006602090815260408083208c8452600201909152908190209194509091506080905190810160409081528254600160a060020a0316825260018301546020830152600283015490820190815260039092015460608201529150516001141561082a57600160a060020a0382166346a4869c8251836020015160006040516020015260405160e060020a63ffffffff8516028152600160a060020a0390921660048301526024820152604401602060405180830381600087803b15156107d057600080fd5b6102c65a03f115156107e157600080fd5b50505060405180519350506060810151600160a060020a0387166000908152600660205260408120600301908351600160a060020a031681526020810191909152604001600020555b8060400151600214156108ac57600160a060020a03821663488b3814825160006040516020015260405160e060020a63ffffffff8416028152600160a060020a039091166004820152602401602060405180830381600087803b151561088f57600080fd5b6102c65a03f115156108a057600080fd5b50505060405180519350505b600160a060020a03861660008181526006602090815260408083208b845260029081019092528083208054600160a060020a0319168155600181018490559182018390556003909101919091558891907f253ad9614c337848bbe7dc3b18b439d139ef5787282b5a517ba7296513d1f533905160405180910390a3509095945050505050565b600354600160a060020a031681565b60005433600160a060020a0390811691161461095c57600080fd5b60018054600160a060020a0319908116600160a060020a03968716179091556002939093556003805490931691909316179055600455565b60056020526000908152604090205460ff1681565b6000806109b6848461060b565b60008181526007602052604090208581556001018054600160a060020a038616600160a060020a031990911617905591508190505092915050565b600054600160a060020a031681565b6000600254118015610a2b5750600160a060020a03811660009081526005602052604090205460ff16155b15610ac457600154600354600254600160a060020a03928316926323b872dd92859291169060006040516020015260405160e060020a63ffffffff8616028152600160a060020a0393841660048201529190921660248201526044810191909152606401602060405180830381600087803b1515610aa857600080fd5b6102c65a03f11515610ab957600080fd5b505050604051805150505b600160a060020a03811660009081526005602052604090819020805460ff191660011790557f2178e9c576507a4c15d3deab489af3f699a3dedbff9a7ef27c43a017027710e590829051600160a060020a03909116815260200160405180910390a150565b600160a060020a031660009081526005602052604090205460ff1690565b60025481565b600154600160a060020a031681565b60005433600160a060020a03908116911614610b7757600080fd5b600160a060020a0381161515610b8c57600080fd5b600054600160a060020a0380831691167f8be0079c531659141344cd1fd0a4f28419497f9722a3daafe3b4186f6b6457e060405160405180910390a360008054600160a060020a031916600160a060020a0392909216919091179055565b6000806000610bf7611039565b600080610c02611050565b600160a060020a038916600090815260056020526040902054899060ff161515610c2b57600080fd5b600160a060020a038a166000818152600660205260408082209950638da5cb5b919051602001526040518163ffffffff1660e060020a028152600401602060405180830381600087803b1515610c8057600080fd5b6102c65a03f11515610c9157600080fd5b5050506040518051965050600160a060020a03861663043cc6ee8a60006040516020015260405160e060020a63ffffffff8416028152600160a060020a039091166004820152602401602060405180830381600087803b1515610cf357600080fd5b6102c65a03f11515610d0457600080fd5b505050604051805190501515610d1957600080fd5b60076000610d268c610f5c565b81526020810191909152604090810160002090805190810160405281548152600190910154600160a060020a03166020820190815290955051935083600160a060020a03166388737b5e60028960030160008d600160a060020a0316600160a060020a03168152602001908152602001600020548d3060006040516020015260405160e060020a63ffffffff871602815260048101949094526024840192909252600160a060020a039081166044840152166064820152608401602060405180830381600087803b1515610df957600080fd5b6102c65a03f11515610e0a57600080fd5b50505060405180519050925060806040519081016040908152600160a060020a03808c16835260006020808501829052600284860181905260608601839052928f1682526006815283822088835290920190915220909250829081518154600160a060020a031916600160a060020a03919091161781556020820151600182015560408201518160020155606082015160039091015550600160a060020a038085169084908c167f661684a19fb0680f3f8beceaa9ee56c665ffec0875442e2cddc9a7a887d35c3e8c604051600160a060020a03909116815260200160405180910390a483600160a060020a031663339e23d18460013360006040516020015260405160e060020a63ffffffff861602815260048101939093526024830191909152600160a060020a03166044820152606401602060405180830381600087803b15156105c057600080fd5b60045481565b60008082600160a060020a0316638da5cb5b6000604051602001526040518163ffffffff1660e060020a028152600401602060405180830381600087803b1515610fa557600080fd5b6102c65a03f11515610fb657600080fd5b5050506040518051915050600160a060020a0381166346e361b73060006040516020015260405160e060020a63ffffffff8416028152600160a060020a039091166004820152602401602060405180830381600087803b151561101857600080fd5b6102c65a03f1151561102957600080fd5b5050506040518051949350505050565b604080519081016040526000808252602082015290565b608060405190810160409081526000808352602083018190529082018190526060820152905600a165627a7a72305820727aa47c83a69be20e224ea128a1a7e57163bec9f4af3d772d1c12a162a4ab9a0029",
  "source": "pragma solidity ^0.4.18;\n\nimport \"../VotingMachines/IntVoteInterface.sol\";\nimport \"./UniversalScheme.sol\";\n\n\n/**\n * @title A scheme to manage global constaintg for organizations\n * @dev The scheme is used to register or remove new global constraints\n */\ncontract GlobalConstraintRegistrar is UniversalScheme {\n    event NewGlobalConstraintsProposal(\n        address indexed _avatar,\n        bytes32 indexed _proposalId,\n        address indexed _intVoteInterface,\n        address _gc,\n        bytes32 _params,\n        bytes32 _voteToRemoveParams\n    );\n    event RemoveGlobalConstraintsProposal(\n        address indexed _avatar,\n        bytes32 indexed _proposalId,\n        address indexed _intVoteInterface,\n        address _gc\n    );\n    event ProposalExecuted(address indexed _avatar, bytes32 indexed _proposalId);\n    event LogProposalDeleted(address indexed _avatar, bytes32 indexed _proposalId);\n\n    // The struct that holds the information of a global constraint proposed to be added or removed.\n    struct GCProposal {\n        address gc; // The address of the global contraint contract.\n        bytes32 params; // Parameters for global constraint.\n        uint proposalType; // 1: add a GC, 2: remove a GC.\n        bytes32 voteToRemoveParams; // Voting parameters for removing this GC.\n    }\n\n    // Struct holding the data for each organization\n    struct Organization {\n        bytes32 voteRegisterParams; // The voting parameters for adding a GC.\n        IntVoteInterface intVote; // The voting machine in which the voting takes place.\n        mapping(bytes32=>GCProposal) proposals; // A mapping from the proposal ID to the proposal itself.\n        mapping(address=>bytes32) voteToRemoveParams; // A mapping that saves the parameters for removing each GC.\n    }\n\n    // A mapping from thr organization (Avatar) address to the saved data of the organization:\n    mapping(address=>Organization) public organizationsData;\n\n    // A mapping from hashes to parameters (use to store a particular configuration on the controller)\n    struct Parameters {\n        bytes32 voteRegisterParams;\n        IntVoteInterface intVote;\n    }\n\n    mapping(bytes32=>Parameters) public parameters;\n\n    /**\n     * @dev Constructor, Updating the initial prarmeters\n     * @param _nativeToken The native token of the ICO\n     * @param _fee The fee for intiating the ICO\n     * @param _beneficiary The address that will receive the ethers\n     */\n    function GlobalConstraintRegistrar(StandardToken _nativeToken, uint _fee, address _beneficiary) public {\n        updateParameters(_nativeToken, _fee, _beneficiary, bytes32(0));\n    }\n\n    /**\n    * @dev Hash the parameters, save them if necessary, and return the hash value\n    * @param _voteRegisterParams -  voting parameters for register global constraint\n    * @param _intVote  - voting machine contract.\n    * @return bytes32 -the parameters hash\n    */\n    function setParameters(\n        bytes32 _voteRegisterParams,\n        IntVoteInterface _intVote\n    ) public returns(bytes32)\n    {\n        bytes32 paramsHash = getParametersHash(_voteRegisterParams, _intVote);\n        parameters[paramsHash].voteRegisterParams = _voteRegisterParams;\n        parameters[paramsHash].intVote = _intVote;\n        return paramsHash;\n    }\n\n    /**\n    * @dev Hash the parameters,and return the hash value\n    * @param _voteRegisterParams -  voting parameters\n    * @param _intVote  - voting machine contract.\n    * @return bytes32 -the parameters hash\n    */\n    function getParametersHash(\n        bytes32 _voteRegisterParams,\n        IntVoteInterface _intVote\n    ) public pure returns(bytes32)\n    {\n        return (keccak256(_voteRegisterParams, _intVote));\n    }\n\n    /**\n    * @dev propose to add a new global constraint:\n    * @param _avatar the avatar of the organization that the constraint is proposed for\n    * @param _gc the address of the global constraint that is being proposed\n    * @param _params the parameters for the global contraint\n    * @param _voteToRemoveParams the conditions (on the voting machine) for removing this global constraint\n    * @return bytes32 -the proposal id\n    */\n    // TODO: do some checks on _voteToRemoveParams - it is very easy to make a mistake and not be able to remove the GC\n    function proposeGlobalConstraint(Avatar _avatar, address _gc, bytes32 _params, bytes32 _voteToRemoveParams)\n    public\n    onlyRegisteredOrganization(_avatar)\n    returns(bytes32)\n    {\n        Parameters memory votingParams = parameters[getParametersFromController(_avatar)];\n\n        IntVoteInterface intVote = votingParams.intVote;\n        bytes32 proposalId = intVote.propose(2, votingParams.voteRegisterParams, _avatar, ExecutableInterface(this));\n\n        GCProposal memory proposal = GCProposal({\n            gc: _gc,\n            params: _params,\n            proposalType: 1,\n            voteToRemoveParams: _voteToRemoveParams\n        });\n\n        organizationsData[_avatar].proposals[proposalId] = proposal;\n        NewGlobalConstraintsProposal(\n            _avatar,\n            proposalId,\n            intVote,\n            _gc,\n            _params,\n            _voteToRemoveParams\n        );\n        intVote.ownerVote(proposalId, 1, msg.sender); // Automatically votes `yes` in the name of the opener.\n        return proposalId;\n    }\n\n    /**\n    * @dev propose to remove a global constraint:\n    * @param _avatar the avatar of the organization that the constraint is proposed for\n    * @param _gc the address of the global constraint that is being proposed\n    * @return bytes32 -the proposal id\n    */\n    function proposeToRemoveGC(Avatar _avatar, address _gc) public onlyRegisteredOrganization(_avatar) returns(bytes32) {\n        Organization storage org = organizationsData[_avatar];\n        Controller controller = Controller(Avatar(_avatar).owner());\n        require(controller.isGlobalConstraintRegister(_gc));\n        Parameters memory params = parameters[getParametersFromController(_avatar)];\n        IntVoteInterface intVote = params.intVote;\n        bytes32 proposalId = intVote.propose(2, org.voteToRemoveParams[_gc], _avatar, ExecutableInterface(this));\n\n        GCProposal memory proposal = GCProposal({\n            gc: _gc,\n            params: 0,\n            proposalType: 2,\n            voteToRemoveParams: 0\n        });\n\n        organizationsData[_avatar].proposals[proposalId] = proposal;\n        RemoveGlobalConstraintsProposal(_avatar, proposalId, intVote, _gc);\n        intVote.ownerVote(proposalId, 1, msg.sender); // Automatically votes `yes` in the name of the opener.\n        return proposalId;\n    }\n\n    /**\n    * @dev execution of proposals, can only be called by the voting machine in which the vote is held.\n    * @param _proposalId the ID of the voting in the voting machine\n    * @param _avatar address of the controller\n    * @param _param a parameter of the voting result, 0 is no and 1 is yes.\n    * @return bool which represents a successful of the function.\n    */\n    function execute(bytes32 _proposalId, address _avatar, int _param) external returns(bool) {\n        // Check the caller is indeed the voting machine:\n\n        require(parameters[getParametersFromController(Avatar(_avatar))].intVote == msg.sender);\n        bool retVal = true;\n        // Check if vote was successful:\n        if (_param == 1 ) {\n\n        // Define controller and get the parmas:\n            Controller controller = Controller(Avatar(_avatar).owner());\n            GCProposal memory proposal = organizationsData[_avatar].proposals[_proposalId];\n        // Adding a GC\n            if (proposal.proposalType == 1) {\n                retVal = controller.addGlobalConstraint(proposal.gc, proposal.params);\n                organizationsData[_avatar].voteToRemoveParams[proposal.gc] = proposal.voteToRemoveParams;\n              }\n        // Removing a GC\n            if (proposal.proposalType == 2) {\n                retVal = controller.removeGlobalConstraint(proposal.gc);\n              }\n        }\n        delete organizationsData[_avatar].proposals[_proposalId];\n        ProposalExecuted(_avatar, _proposalId);\n        return retVal;\n    }\n}\n",
  "sourcePath": "/Users/tibet/Dev/Emergence/daostack/contracts/universalSchemes/GlobalConstraintRegistrar.sol",
  "compiler": {
    "name": "solc",
    "version": "0.4.18+commit.9cf6e910.Emscripten.clang"
  },
  "schemaVersion": "1.0.1",
  "updatedAt": "2018-01-04T23:51:58.172Z"
}