{
  "contractName": "MirrorContractICO",
  "abi": [
    {
      "constant": true,
      "inputs": [],
      "name": "simpleICO",
      "outputs": [
        {
          "name": "",
          "type": "address"
        }
      ],
      "payable": false,
      "stateMutability": "view",
      "type": "function"
    },
    {
      "constant": true,
      "inputs": [],
      "name": "organization",
      "outputs": [
        {
          "name": "",
          "type": "address"
        }
      ],
      "payable": false,
      "stateMutability": "view",
      "type": "function"
    },
    {
      "constant": false,
      "inputs": [],
      "name": "destroy",
      "outputs": [],
      "payable": false,
      "stateMutability": "nonpayable",
      "type": "function"
    },
    {
      "constant": true,
      "inputs": [],
      "name": "owner",
      "outputs": [
        {
          "name": "",
          "type": "address"
        }
      ],
      "payable": false,
      "stateMutability": "view",
      "type": "function"
    },
    {
      "constant": false,
      "inputs": [
        {
          "name": "newOwner",
          "type": "address"
        }
      ],
      "name": "transferOwnership",
      "outputs": [],
      "payable": false,
      "stateMutability": "nonpayable",
      "type": "function"
    },
    {
      "constant": false,
      "inputs": [
        {
          "name": "_recipient",
          "type": "address"
        }
      ],
      "name": "destroyAndSend",
      "outputs": [],
      "payable": false,
      "stateMutability": "nonpayable",
      "type": "function"
    },
    {
      "inputs": [
        {
          "name": "_organization",
          "type": "address"
        },
        {
          "name": "_simpleICO",
          "type": "address"
        }
      ],
      "payable": false,
      "stateMutability": "nonpayable",
      "type": "constructor"
    },
    {
      "payable": true,
      "stateMutability": "payable",
      "type": "fallback"
    }
  ],
  "bytecode": "0x6060604052341561000f57600080fd5b60405160408061034e833981016040528080519190602001805160008054600160a060020a03338116600160a060020a0319928316179092556001805496831696821696909617909555600280549190921694169390931790925550506102d38061007b6000396000f3006060604052600436106100775763ffffffff7c01000000000000000000000000000000000000000000000000000000006000350416631ebbede2811461012e57806323bd4d7a1461015d57806383197ef0146101705780638da5cb5b14610183578063f2fde38b14610196578063f5074f41146101b5575b34151561008357600080fd5b600254600154600160a060020a03918216916321bea7cc91349116336000604051602001526040517c010000000000000000000000000000000000000000000000000000000063ffffffff8616028152600160a060020a039283166004820152911660248201526044016020604051808303818588803b151561010557600080fd5b6125ee5a03f1151561011657600080fd5b5050505060405180511515905061012c57600080fd5b005b341561013957600080fd5b6101416101d4565b604051600160a060020a03909116815260200160405180910390f35b341561016857600080fd5b6101416101e3565b341561017b57600080fd5b61012c6101f2565b341561018e57600080fd5b61014161021b565b34156101a157600080fd5b61012c600160a060020a036004351661022a565b34156101c057600080fd5b61012c600160a060020a0360043516610280565b600254600160a060020a031681565b600154600160a060020a031681565b60005433600160a060020a0390811691161461020d57600080fd5b600054600160a060020a0316ff5b600054600160a060020a031681565b60005433600160a060020a0390811691161461024557600080fd5b600160a060020a0381161561027d576000805473ffffffffffffffffffffffffffffffffffffffff1916600160a060020a0383161790555b50565b60005433600160a060020a0390811691161461029b57600080fd5b80600160a060020a0316ff00a165627a7a72305820f6ffb7190b0dad2ffb89d7286ef116c3afd9b96ec30953a751a4f38aa34035bd0029",
  "source": "pragma solidity ^0.4.18;\n\nimport \"./UniversalScheme.sol\";\nimport \"zeppelin-solidity/contracts/ownership/Ownable.sol\";\nimport \"zeppelin-solidity/contracts/math/SafeMath.sol\";\nimport \"zeppelin-solidity/contracts/lifecycle/Destructible.sol\";\n\n\n/**\n * @title An avatar contract for ICO.\n * @dev Allow people to donate by simply sending ether to an address.\n */\ncontract MirrorContractICO is Destructible {\n  Avatar public organization; // The organization address (the avatar)\n  SimpleICO public simpleICO;  // The ICO contract address\n\n  /**\n   * @dev Constructor, setting the organization and ICO scheme.\n   * @param _organization The organization's avatar.\n   * @param _simpleICO The ICO Scheme.\n   */\n  function MirrorContractICO(Avatar _organization, SimpleICO _simpleICO) public {\n    organization = _organization;\n    simpleICO = _simpleICO;\n  }\n\n  /**\n   * @dev Fallback function, when ether is sent it will donate to the ICO.\n   * The ether will be returned if the donation is failed.\n   */\n  function () public payable {\n    // Not to waste gas, if no value.\n    require(msg.value != 0);\n\n    // Return ether if couln't donate.\n    if (simpleICO.donate.value(msg.value)(organization, msg.sender) == 0) {\n      revert();\n    }\n  }\n}\n\n\n/**\n * @title SimpleICO scheme.\n * @dev A universal scheme to allow organizations to open a simple ICO and get donations.\n */\ncontract SimpleICO is UniversalScheme {\n    using SafeMath for uint;\n\n    // Struct holding the data for each organization\n    struct Organization {\n      bytes32 paramsHash; // Save the parameters approved by the org to open the ICO, so reules of ICO will not change.\n      address avatarContractICO; // Avatar is a contract for users that want to send eth without calling a funciton.\n      uint totalEthRaised;\n      bool isHalted; // The admin of the ICO can halt the ICO at any time, and also resume it.\n      bool isRegistered;\n    }\n\n    // A mapping from hashes to parameters (use to store a particular configuration on the controller)\n    struct Parameters {\n      uint cap; // Cap in Eth\n      uint price; // Price represents Tokens per 1 Eth\n      uint startBlock;\n      uint endBlock;\n      address beneficiary; // all funds received will be transffered to this address.\n      address admin; // The admin can halt or resume ICO.\n    }\n\n    // A mapping from the organization (Avatar) address to the saved data of the organization:\n    mapping(address=>Organization) public organizations;\n\n    mapping(bytes32=>Parameters) parameters;\n\n    event DonationReceived(address indexed organization, address indexed _beneficiary, uint _incomingEther, uint indexed _tokensAmount);\n\n    /**\n     * @dev Constructor, Updating the initial prarmeters\n     * @param _nativeToken The native token of the ICO\n     * @param _fee The fee for intiating the ICO\n     * @param _beneficiary The address that will receive the ethers\n     */\n    function SimpleICO(StandardToken _nativeToken, uint _fee, address _beneficiary) public {\n      updateParameters(_nativeToken, _fee, _beneficiary, bytes32(0));\n    }\n\n    /**\n     * @dev Hash the parameters, save them if necessary, and return the hash value\n     */\n    function setParameters(\n      uint _cap,\n      uint _price,\n      uint _startBlock,\n      uint _endBlock,\n      address _beneficiary,\n      address _admin\n    )\n      public\n      returns(bytes32)\n    {\n      bytes32 paramsHash = getParametersHash(_cap, _price, _startBlock, _endBlock, _beneficiary, _admin);\n      if (parameters[paramsHash].cap != 0) {\n        parameters[paramsHash].cap = _cap;\n        parameters[paramsHash].price = _price;\n        parameters[paramsHash].startBlock = _startBlock;\n        parameters[paramsHash].endBlock = _endBlock;\n        parameters[paramsHash].beneficiary = _beneficiary;\n        parameters[paramsHash].admin = _admin;\n      }\n      return paramsHash;\n    }\n\n\n    /**\n     * @dev Calculate a hash of the given parameters.\n     * @return bytes32 Hash of the given parameters.\n     */\n    function getParametersHash(\n      uint _cap,\n      uint _price,\n      uint _startBlock,\n      uint _endBlock,\n      address _beneficiary,\n      address _admin\n    )\n      public\n      pure\n      returns(bytes32)\n   {\n      return (keccak256(_cap, _price, _startBlock, _endBlock, _beneficiary, _admin));\n    }\n\n    /**\n     * @dev Adding an organization to the universal scheme, and opens an ICO for it\n     * @param _avatar The Avatar's of the organization\n     */\n    function registerOrganization(Avatar _avatar) public {\n      // Pay fees for using scheme:\n      if ((fee > 0) && (! organizations[_avatar].isRegistered)) {\n        nativeToken.transferFrom(_avatar, beneficiary, fee);\n      }\n\n      // Check there is no ongoing ICO:\n      require(!isActiveICO(_avatar));\n\n      // Set the organization data:\n      Organization memory org;\n      org.isRegistered = true;\n      org.paramsHash = getParametersFromController(_avatar);\n      require(parameters[org.paramsHash].cap != 0);\n      org.avatarContractICO = new MirrorContractICO(_avatar, this);\n      organizations[_avatar] = org;\n      LogOrgRegistered(_avatar);\n    }\n\n    // If someone accidentally sends ether to this contract, revert;\n    function () public {\n      revert();\n    }\n\n    /**\n     * @dev Allowing admin to halt an ICO.\n     * @param _avatar The Avatar's of the organization\n     */\n    function haltICO(address _avatar) public {\n      require(msg.sender == parameters[organizations[_avatar].paramsHash].admin);\n      organizations[_avatar].isHalted = true;\n    }\n\n    /**\n     * @dev Allowing admin to reopen an ICO.\n     * @param _avatar The Avatar's of the organization\n     */\n    function resumeICO(address _avatar) public {\n      require(msg.sender == parameters[organizations[_avatar].paramsHash].admin);\n      organizations[_avatar].isHalted = false;\n    }\n\n    /**\n     * @dev Check is an ICO is active (halted is still considered active). Active ICO:\n     * 1. The organization is registered.\n     * 2. The ICO didn't reach it's cap yet.\n     * 3. The current block isn't bigger than the \"endBlock\" & Smaller then the \"startBlock\"\n     * @param _avatar The Avatar's of the organization\n     * @return bool which represents a successful of the function\n     */\n    function isActiveICO(address _avatar) public constant returns(bool) {\n      Organization memory org = organizations[_avatar];\n      Parameters memory params = parameters[org.paramsHash];\n      if (! org.isRegistered) {\n        return false;\n      }\n      if (org.totalEthRaised >= params.cap) {\n        return false;\n      }\n      if (block.number >= params.endBlock) {\n        return false;\n      }\n      if (block.number <= params.startBlock) {\n        return false;\n      }\n      return true;\n    }\n\n    /**\n     * @dev Donating ethers to get tokens.\n     * If the donation is higher than the remaining ethers in the \"cap\",\n     * The donator will get the change in ethers.\n     * @param _avatar The Avatar's of the organization.\n     * @param _beneficiary The donator's address - which will receive the ICO's tokens.\n     * @return bool which represents a successful of the function\n     */\n    function donate(Avatar _avatar, address _beneficiary) public payable returns(uint) {\n      Organization memory org = organizations[_avatar];\n      Parameters memory params = parameters[org.paramsHash];\n\n      // Check ICO is active:\n      require(isActiveICO(_avatar));\n\n      // Check ICO is not halted:\n      require(!org.isHalted);\n\n      uint incomingEther;\n      uint change;\n\n      // Compute how much tokens to buy:\n      if ( msg.value > (params.cap).sub(org.totalEthRaised) ) {\n        incomingEther = (params.cap).sub(org.totalEthRaised);\n        change = (msg.value).sub(incomingEther);\n      } else {\n        incomingEther = msg.value;\n      }\n      uint tokens = incomingEther.mul(params.price);\n\n      // Send ether to the defined address, mint, and send change to beneficiary:\n      params.beneficiary.transfer(incomingEther);\n      Controller controller = Controller(_avatar.owner());\n      if (!controller.mintTokens(tokens, _beneficiary)) {\n        revert();\n      }\n      if (change != 0) {\n        _beneficiary.transfer(change);\n      }\n\n      // Update total raised, call event and return amount of tokens bought:\n      org.totalEthRaised += incomingEther;\n      DonationReceived(_avatar, _beneficiary, incomingEther, tokens);\n      return tokens;\n    }\n}\n",
  "sourcePath": "/Users/tibet/Dev/Emergence/daostack/contracts/universalSchemes/SimpleICO.sol",
  "compiler": {
    "name": "solc",
    "version": "0.4.18+commit.9cf6e910.Emscripten.clang"
  },
  "schemaVersion": "1.0.1",
  "updatedAt": "2017-11-22T00:50:28.605Z"
}