{
  "contractName": "OrganizationRegister",
  "abi": [
    {
      "constant": true,
      "inputs": [
        {
          "name": "",
          "type": "bytes32"
        }
      ],
      "name": "parameters",
      "outputs": [
        {
          "name": "fee",
          "type": "uint256"
        },
        {
          "name": "token",
          "type": "address"
        },
        {
          "name": "beneficiary",
          "type": "address"
        }
      ],
      "payable": false,
      "stateMutability": "view",
      "type": "function"
    },
    {
      "constant": false,
      "inputs": [
        {
          "name": "_avatar",
          "type": "address"
        },
        {
          "name": "_record",
          "type": "address"
        },
        {
          "name": "_amount",
          "type": "uint256"
        }
      ],
      "name": "addOrPromoteAddress",
      "outputs": [],
      "payable": false,
      "stateMutability": "nonpayable",
      "type": "function"
    },
    {
      "constant": true,
      "inputs": [
        {
          "name": "",
          "type": "address"
        },
        {
          "name": "",
          "type": "address"
        }
      ],
      "name": "organizationsRegistery",
      "outputs": [
        {
          "name": "",
          "type": "uint256"
        }
      ],
      "payable": false,
      "stateMutability": "view",
      "type": "function"
    },
    {
      "constant": true,
      "inputs": [],
      "name": "beneficiary",
      "outputs": [
        {
          "name": "",
          "type": "address"
        }
      ],
      "payable": false,
      "stateMutability": "view",
      "type": "function"
    },
    {
      "constant": false,
      "inputs": [
        {
          "name": "_nativeToken",
          "type": "address"
        },
        {
          "name": "_fee",
          "type": "uint256"
        },
        {
          "name": "_beneficiary",
          "type": "address"
        },
        {
          "name": "_hashedParameters",
          "type": "bytes32"
        }
      ],
      "name": "updateParameters",
      "outputs": [],
      "payable": false,
      "stateMutability": "nonpayable",
      "type": "function"
    },
    {
      "constant": true,
      "inputs": [
        {
          "name": "",
          "type": "address"
        }
      ],
      "name": "organizations",
      "outputs": [
        {
          "name": "",
          "type": "bool"
        }
      ],
      "payable": false,
      "stateMutability": "view",
      "type": "function"
    },
    {
      "constant": true,
      "inputs": [],
      "name": "owner",
      "outputs": [
        {
          "name": "",
          "type": "address"
        }
      ],
      "payable": false,
      "stateMutability": "view",
      "type": "function"
    },
    {
      "constant": false,
      "inputs": [
        {
          "name": "_token",
          "type": "address"
        },
        {
          "name": "_fee",
          "type": "uint256"
        },
        {
          "name": "_beneficiary",
          "type": "address"
        }
      ],
      "name": "setParameters",
      "outputs": [
        {
          "name": "",
          "type": "bytes32"
        }
      ],
      "payable": false,
      "stateMutability": "nonpayable",
      "type": "function"
    },
    {
      "constant": false,
      "inputs": [
        {
          "name": "_avatar",
          "type": "address"
        }
      ],
      "name": "registerOrganization",
      "outputs": [],
      "payable": false,
      "stateMutability": "nonpayable",
      "type": "function"
    },
    {
      "constant": true,
      "inputs": [
        {
          "name": "_token",
          "type": "address"
        },
        {
          "name": "_fee",
          "type": "uint256"
        },
        {
          "name": "_beneficiary",
          "type": "address"
        }
      ],
      "name": "getParametersHash",
      "outputs": [
        {
          "name": "",
          "type": "bytes32"
        }
      ],
      "payable": false,
      "stateMutability": "pure",
      "type": "function"
    },
    {
      "constant": true,
      "inputs": [
        {
          "name": "_avatar",
          "type": "address"
        }
      ],
      "name": "isRegistered",
      "outputs": [
        {
          "name": "",
          "type": "bool"
        }
      ],
      "payable": false,
      "stateMutability": "view",
      "type": "function"
    },
    {
      "constant": true,
      "inputs": [],
      "name": "fee",
      "outputs": [
        {
          "name": "",
          "type": "uint256"
        }
      ],
      "payable": false,
      "stateMutability": "view",
      "type": "function"
    },
    {
      "constant": true,
      "inputs": [],
      "name": "nativeToken",
      "outputs": [
        {
          "name": "",
          "type": "address"
        }
      ],
      "payable": false,
      "stateMutability": "view",
      "type": "function"
    },
    {
      "constant": false,
      "inputs": [
        {
          "name": "newOwner",
          "type": "address"
        }
      ],
      "name": "transferOwnership",
      "outputs": [],
      "payable": false,
      "stateMutability": "nonpayable",
      "type": "function"
    },
    {
      "constant": true,
      "inputs": [],
      "name": "hashedParameters",
      "outputs": [
        {
          "name": "",
          "type": "bytes32"
        }
      ],
      "payable": false,
      "stateMutability": "view",
      "type": "function"
    },
    {
      "inputs": [
        {
          "name": "_nativeToken",
          "type": "address"
        },
        {
          "name": "_fee",
          "type": "uint256"
        },
        {
          "name": "_beneficiary",
          "type": "address"
        }
      ],
      "payable": false,
      "stateMutability": "nonpayable",
      "type": "constructor"
    },
    {
      "anonymous": false,
      "inputs": [
        {
          "indexed": true,
          "name": "_registry",
          "type": "address"
        },
        {
          "indexed": true,
          "name": "_org",
          "type": "address"
        }
      ],
      "name": "OrgAdded",
      "type": "event"
    },
    {
      "anonymous": false,
      "inputs": [
        {
          "indexed": true,
          "name": "_registry",
          "type": "address"
        },
        {
          "indexed": true,
          "name": "_org",
          "type": "address"
        },
        {
          "indexed": false,
          "name": "_amount",
          "type": "uint256"
        }
      ],
      "name": "Promotion",
      "type": "event"
    },
    {
      "anonymous": false,
      "inputs": [
        {
          "indexed": false,
          "name": "_avatar",
          "type": "address"
        }
      ],
      "name": "OrganizationRegistered",
      "type": "event"
    },
    {
      "anonymous": false,
      "inputs": [
        {
          "indexed": false,
          "name": "proposalId",
          "type": "bytes32"
        }
      ],
      "name": "LogNewProposal",
      "type": "event"
    },
    {
      "anonymous": false,
      "inputs": [
        {
          "indexed": true,
          "name": "previousOwner",
          "type": "address"
        },
        {
          "indexed": true,
          "name": "newOwner",
          "type": "address"
        }
      ],
      "name": "OwnershipTransferred",
      "type": "event"
    }
  ],
  "bytecode": "0x6060604052341561000f57600080fd5b604051606080610abd83398101604052808051919060200180519190602001805160008054600160a060020a03191633600160a060020a031617815590925061006b9150849084908490640100000000610073810261056a1704565b5050506100c6565b60005433600160a060020a0390811691161461008e57600080fd5b60018054600160a060020a0319908116600160a060020a03968716179091556002939093556003805490931691909316179055600455565b6109e8806100d56000396000f3006060604052600436106100c15763ffffffff60e060020a6000350416630250680481146100c6578063197275f1146101095780632caf98ca1461013357806338af3eed1461016a5780634345a610146101995780635a1f7406146101c55780638da5cb5b146101f85780638fd631af1461020b57806390be003c1461023457806399cc9e7314610253578063c3c5a5471461027c578063ddca3f431461029b578063e1758bd8146102ae578063f2fde38b146102c1578063f98e87ba146102e0575b600080fd5b34156100d157600080fd5b6100dc6004356102f3565b604051928352600160a060020a039182166020840152166040808301919091526060909101905180910390f35b341561011457600080fd5b610131600160a060020a0360043581169060243516604435610320565b005b341561013e57600080fd5b610158600160a060020a036004358116906024351661053e565b60405190815260200160405180910390f35b341561017557600080fd5b61017d61055b565b604051600160a060020a03909116815260200160405180910390f35b34156101a457600080fd5b610131600160a060020a03600435811690602435906044351660643561056a565b34156101d057600080fd5b6101e4600160a060020a03600435166105ca565b604051901515815260200160405180910390f35b341561020357600080fd5b61017d6105df565b341561021657600080fd5b610158600160a060020a0360043581169060243590604435166105ee565b341561023f57600080fd5b610131600160a060020a0360043516610679565b341561025e57600080fd5b610158600160a060020a0360043581169060243590604435166107a2565b341561028757600080fd5b6101e4600160a060020a03600435166107eb565b34156102a657600080fd5b610158610809565b34156102b957600080fd5b61017d61080f565b34156102cc57600080fd5b610131600160a060020a036004351661081e565b34156102eb57600080fd5b6101586108b9565b6007602052600090815260409020805460018201546002909201549091600160a060020a03908116911683565b61032861099c565b600160a060020a038416600090815260056020526040902054849060ff16151561035157600080fd5b6007600061035e876108bf565b81526020810191909152604090810160002090606090519081016040908152825482526001830154600160a060020a0390811660208085019190915260029094015481168284015288811660009081526006855282812091891681529352909120549092501580156103d05750815183105b156103da57600080fd5b8160200151600160a060020a03166323b872dd3384604001518660006040516020015260405160e060020a63ffffffff8616028152600160a060020a0393841660048201529190921660248201526044810191909152606401602060405180830381600087803b151561044c57600080fd5b6102c65a03f1151561045d57600080fd5b50505060405180515050600160a060020a0380861660009081526006602090815260408083209388168352929052205415156104d45783600160a060020a031685600160a060020a03167fbb755c25de622371a070056e89daca3dffb2591e14bfeaf5a22a5ff538f6430460405160405180910390a35b600160a060020a03808616600081815260066020908152604080832094891680845294909152908190208054870190557fbd26cf001a8e3be5dc9ac9f95c5e8fef2258c1ded9c61814e107db3ce9bbf2ca9086905190815260200160405180910390a35050505050565b600660209081526000928352604080842090915290825290205481565b600354600160a060020a031681565b60005433600160a060020a0390811691161461058557600080fd5b6001805473ffffffffffffffffffffffffffffffffffffffff19908116600160a060020a03968716179091556002939093556003805490931691909316179055600455565b60056020526000908152604090205460ff1681565b600054600160a060020a031681565b6000806105fc8585856107a2565b600081815260076020526040902060010154909150600160a060020a03161515610671576000818152600760205260409020600181018054600160a060020a0380891673ffffffffffffffffffffffffffffffffffffffff199283161790925586835560029092018054918616919092161790555b949350505050565b60006002541180156106a45750600160a060020a03811660009081526005602052604090205460ff16155b1561073d57600154600354600254600160a060020a03928316926323b872dd92859291169060006040516020015260405160e060020a63ffffffff8616028152600160a060020a0393841660048201529190921660248201526044810191909152606401602060405180830381600087803b151561072157600080fd5b6102c65a03f1151561073257600080fd5b505050604051805150505b600160a060020a03811660009081526005602052604090819020805460ff191660011790557f2178e9c576507a4c15d3deab489af3f699a3dedbff9a7ef27c43a017027710e590829051600160a060020a03909116815260200160405180910390a150565b60008383836040516c01000000000000000000000000600160a060020a039485168102825260148201939093529216026034820152604801604051809103902090509392505050565b600160a060020a031660009081526005602052604090205460ff1690565b60025481565b600154600160a060020a031681565b60005433600160a060020a0390811691161461083957600080fd5b600160a060020a038116151561084e57600080fd5b600054600160a060020a0380831691167f8be0079c531659141344cd1fd0a4f28419497f9722a3daafe3b4186f6b6457e060405160405180910390a36000805473ffffffffffffffffffffffffffffffffffffffff1916600160a060020a0392909216919091179055565b60045481565b60008082600160a060020a0316638da5cb5b6000604051602001526040518163ffffffff1660e060020a028152600401602060405180830381600087803b151561090857600080fd5b6102c65a03f1151561091957600080fd5b5050506040518051915050600160a060020a0381166346e361b73060006040516020015260405160e060020a63ffffffff8416028152600160a060020a039091166004820152602401602060405180830381600087803b151561097b57600080fd5b6102c65a03f1151561098c57600080fd5b5050506040518051949350505050565b6060604051908101604090815260008083526020830181905290820152905600a165627a7a7230582046e97408cdb3bde0840b9cd4e9aab1edd7cbab4f00ae279214098723147142290029",
  "source": "pragma solidity ^0.4.18;\n\nimport \"./UniversalScheme.sol\";\n\n/**\n * @title A universal organization registry.\n * @dev Organizations can use this scheme to open a registry.\n * Other organizations can then add and promote themselves on this registry.\n */\n\n\ncontract OrganizationRegister is UniversalScheme {\n\n    struct Parameters {\n        uint fee;\n        StandardToken token;\n        address beneficiary;\n    }\n\n    // A mapping from thr organization (Avatar) address to the saved data of the organization:\n    mapping(address=>mapping(address=>uint)) public organizationsRegistery;\n\n    mapping(bytes32=>Parameters) public parameters;\n\n    event OrgAdded( address indexed _registry, address indexed _org);\n    event Promotion( address indexed _registry, address indexed _org, uint _amount);\n\n    /**\n     * @dev Constructor, Updating the initial prarmeters\n     * @param _nativeToken The native token of the ICO\n     * @param _fee The fee for intiating the ICO\n     * @param _beneficiary The address that will receive the ethers\n     */\n    function OrganizationRegister(StandardToken _nativeToken, uint _fee, address _beneficiary) public {\n        updateParameters(_nativeToken, _fee, _beneficiary, bytes32(0));\n    }\n\n    /**\n    * @dev Hash the parameters,save if needed and return the hash value\n    * @param _token -  the token to pay for register or promotion an address.\n    * @param _fee  - fee needed for register an address.\n    * @param _beneficiary  - the beneficiary payment address\n    * @return bytes32 -the parameters hash\n    */\n    function setParameters(StandardToken _token, uint _fee, address _beneficiary) public returns(bytes32) {\n        bytes32 paramsHash = getParametersHash(_token, _fee, _beneficiary);\n        if (parameters[paramsHash].token == address(0)) {\n            parameters[paramsHash].token = _token;\n            parameters[paramsHash].fee = _fee;\n            parameters[paramsHash].beneficiary = _beneficiary;\n        }\n        return paramsHash;\n    }\n\n    /**\n    * @dev Hash the parameters,and return the hash value\n    * @param _token -  the token to pay for register or promotion an address.\n    * @param _fee  - fee needed for register an address.\n    * @param _beneficiary  - the beneficiary payment address\n    * @return bytes32 -the parameters hash\n    */\n    function getParametersHash(StandardToken _token, uint _fee, address _beneficiary)\n    public pure returns(bytes32)\n    {\n        return (keccak256(_token, _fee, _beneficiary));\n    }\n\n    /**\n     * @dev Adding or promoting an address on the registry.\n     *      An address(record) to add or promote can be organization address or any contract address.\n     *      Adding a record is done by paying at least the minimum required by the registery params.\n     *      Promoting a record is done by paying(adding)amount of token to the registery beneficiary.\n     * @param _avatar The _avatar of the organization which own the registery.\n     * @param _record The address to add or promote.\n     * @param _amount amount to pay for adding or promoting\n     */\n    function addOrPromoteAddress(Avatar _avatar, address _record, uint _amount)\n    onlyRegisteredOrganization(_avatar)\n    public\n    {\n        Parameters memory params = parameters[getParametersFromController(_avatar)];\n        // Pay promotion, if the org was not listed the minimum is the fee:\n        if ((organizationsRegistery[_avatar][_record] == 0) && (_amount < params.fee) ) {\n            revert();\n        }\n\n        params.token.transferFrom(msg.sender, params.beneficiary, _amount);\n        if (organizationsRegistery[_avatar][_record] == 0)\n          OrgAdded(_avatar, _record);\n        organizationsRegistery[_avatar][_record] += _amount;\n        Promotion(_avatar, _record, _amount);\n    }\n}\n",
  "sourcePath": "/Users/tibet/Dev/Emergence/daostack/contracts/universalSchemes/OrganizationRegister.sol",
  "compiler": {
    "name": "solc",
    "version": "0.4.18+commit.9cf6e910.Emscripten.clang"
  },
  "schemaVersion": "1.0.1",
  "updatedAt": "2018-01-04T23:51:58.294Z"
}