{
  "contractName": "QuorumVote",
  "abi": [
    {
      "constant": true,
      "inputs": [
        {
          "name": "",
          "type": "bytes32"
        }
      ],
      "name": "parameters",
      "outputs": [
        {
          "name": "reputationSystem",
          "type": "address"
        },
        {
          "name": "precReq",
          "type": "uint256"
        },
        {
          "name": "allowOwner",
          "type": "bool"
        }
      ],
      "payable": false,
      "stateMutability": "view",
      "type": "function"
    },
    {
      "constant": true,
      "inputs": [
        {
          "name": "_reputationSystem",
          "type": "address"
        },
        {
          "name": "_precReq",
          "type": "uint256"
        },
        {
          "name": "_allowOwner",
          "type": "bool"
        }
      ],
      "name": "getParametersHash",
      "outputs": [
        {
          "name": "",
          "type": "bytes32"
        }
      ],
      "payable": false,
      "stateMutability": "pure",
      "type": "function"
    },
    {
      "constant": true,
      "inputs": [
        {
          "name": "_proposalId",
          "type": "bytes32"
        },
        {
          "name": "_voter",
          "type": "address"
        }
      ],
      "name": "voteInfo",
      "outputs": [
        {
          "name": "",
          "type": "uint256"
        },
        {
          "name": "",
          "type": "uint256"
        }
      ],
      "payable": false,
      "stateMutability": "view",
      "type": "function"
    },
    {
      "constant": true,
      "inputs": [
        {
          "name": "",
          "type": "bytes32"
        }
      ],
      "name": "proposals",
      "outputs": [
        {
          "name": "owner",
          "type": "address"
        },
        {
          "name": "avatar",
          "type": "address"
        },
        {
          "name": "numOfChoices",
          "type": "uint256"
        },
        {
          "name": "executable",
          "type": "address"
        },
        {
          "name": "paramsHash",
          "type": "bytes32"
        },
        {
          "name": "totalVotes",
          "type": "uint256"
        },
        {
          "name": "open",
          "type": "bool"
        }
      ],
      "payable": false,
      "stateMutability": "view",
      "type": "function"
    },
    {
      "constant": false,
      "inputs": [
        {
          "name": "_proposalId",
          "type": "bytes32"
        },
        {
          "name": "_vote",
          "type": "uint256"
        },
        {
          "name": "_voter",
          "type": "address"
        }
      ],
      "name": "ownerVote",
      "outputs": [
        {
          "name": "",
          "type": "bool"
        }
      ],
      "payable": false,
      "stateMutability": "nonpayable",
      "type": "function"
    },
    {
      "constant": false,
      "inputs": [
        {
          "name": "_proposalId",
          "type": "bytes32"
        }
      ],
      "name": "cancelProposal",
      "outputs": [
        {
          "name": "",
          "type": "bool"
        }
      ],
      "payable": false,
      "stateMutability": "nonpayable",
      "type": "function"
    },
    {
      "constant": false,
      "inputs": [
        {
          "name": "_numOfChoices",
          "type": "uint256"
        },
        {
          "name": "_paramsHash",
          "type": "bytes32"
        },
        {
          "name": "_avatar",
          "type": "address"
        },
        {
          "name": "_executable",
          "type": "address"
        }
      ],
      "name": "propose",
      "outputs": [
        {
          "name": "",
          "type": "bytes32"
        }
      ],
      "payable": false,
      "stateMutability": "nonpayable",
      "type": "function"
    },
    {
      "constant": true,
      "inputs": [
        {
          "name": "_proposalId",
          "type": "bytes32"
        }
      ],
      "name": "votesStatus",
      "outputs": [
        {
          "name": "votes",
          "type": "uint256[11]"
        }
      ],
      "payable": false,
      "stateMutability": "view",
      "type": "function"
    },
    {
      "constant": false,
      "inputs": [
        {
          "name": "_proposalId",
          "type": "bytes32"
        }
      ],
      "name": "cancelVote",
      "outputs": [],
      "payable": false,
      "stateMutability": "nonpayable",
      "type": "function"
    },
    {
      "constant": false,
      "inputs": [
        {
          "name": "_proposalId",
          "type": "bytes32"
        },
        {
          "name": "_vote",
          "type": "uint256"
        }
      ],
      "name": "vote",
      "outputs": [
        {
          "name": "",
          "type": "bool"
        }
      ],
      "payable": false,
      "stateMutability": "nonpayable",
      "type": "function"
    },
    {
      "constant": true,
      "inputs": [
        {
          "name": "_proposalId",
          "type": "bytes32"
        }
      ],
      "name": "getNumberOfChoices",
      "outputs": [
        {
          "name": "",
          "type": "uint256"
        }
      ],
      "payable": false,
      "stateMutability": "view",
      "type": "function"
    },
    {
      "constant": false,
      "inputs": [
        {
          "name": "_proposalId",
          "type": "bytes32"
        },
        {
          "name": "_vote",
          "type": "uint256"
        },
        {
          "name": "_rep",
          "type": "uint256"
        },
        {
          "name": "",
          "type": "uint256"
        }
      ],
      "name": "voteWithSpecifiedAmounts",
      "outputs": [
        {
          "name": "",
          "type": "bool"
        }
      ],
      "payable": false,
      "stateMutability": "nonpayable",
      "type": "function"
    },
    {
      "constant": true,
      "inputs": [
        {
          "name": "_proposalId",
          "type": "bytes32"
        }
      ],
      "name": "isVotable",
      "outputs": [
        {
          "name": "",
          "type": "bool"
        }
      ],
      "payable": false,
      "stateMutability": "view",
      "type": "function"
    },
    {
      "constant": false,
      "inputs": [
        {
          "name": "_proposalId",
          "type": "bytes32"
        }
      ],
      "name": "execute",
      "outputs": [
        {
          "name": "",
          "type": "bool"
        }
      ],
      "payable": false,
      "stateMutability": "nonpayable",
      "type": "function"
    },
    {
      "constant": false,
      "inputs": [
        {
          "name": "_reputationSystem",
          "type": "address"
        },
        {
          "name": "_precReq",
          "type": "uint256"
        },
        {
          "name": "_allowOwner",
          "type": "bool"
        }
      ],
      "name": "setParameters",
      "outputs": [
        {
          "name": "",
          "type": "bytes32"
        }
      ],
      "payable": false,
      "stateMutability": "nonpayable",
      "type": "function"
    },
    {
      "anonymous": false,
      "inputs": [
        {
          "indexed": true,
          "name": "_proposalId",
          "type": "bytes32"
        },
        {
          "indexed": false,
          "name": "_numOfChoices",
          "type": "uint256"
        },
        {
          "indexed": false,
          "name": "_proposer",
          "type": "address"
        },
        {
          "indexed": false,
          "name": "_paramsHash",
          "type": "bytes32"
        }
      ],
      "name": "LogNewProposal",
      "type": "event"
    },
    {
      "anonymous": false,
      "inputs": [
        {
          "indexed": true,
          "name": "_proposalId",
          "type": "bytes32"
        }
      ],
      "name": "LogCancelProposal",
      "type": "event"
    },
    {
      "anonymous": false,
      "inputs": [
        {
          "indexed": true,
          "name": "_proposalId",
          "type": "bytes32"
        },
        {
          "indexed": false,
          "name": "_decision",
          "type": "uint256"
        }
      ],
      "name": "LogExecuteProposal",
      "type": "event"
    },
    {
      "anonymous": false,
      "inputs": [
        {
          "indexed": true,
          "name": "_proposalId",
          "type": "bytes32"
        },
        {
          "indexed": true,
          "name": "_voter",
          "type": "address"
        },
        {
          "indexed": false,
          "name": "_vote",
          "type": "uint256"
        },
        {
          "indexed": false,
          "name": "_reputation",
          "type": "uint256"
        },
        {
          "indexed": false,
          "name": "_isOwnerVote",
          "type": "bool"
        }
      ],
      "name": "LogVoteProposal",
      "type": "event"
    },
    {
      "anonymous": false,
      "inputs": [
        {
          "indexed": true,
          "name": "_proposalId",
          "type": "bytes32"
        },
        {
          "indexed": true,
          "name": "_voter",
          "type": "address"
        }
      ],
      "name": "LogCancelVoting",
      "type": "event"
    }
  ],
  "bytecode": "0x6060604052341561000f57600080fd5b6112078061001e6000396000f3006060604052600436106100c15763ffffffff60e060020a6000350416630250680481146100c657806302a1cdaf1461010c578063119ce91b1461014557806332ed5b121461017f578063339e23d1146101df57806337376ca81461021857806388737b5e1461022e5780638fe23d1a146102595780639525c0cc146102a85780639ef1204c146102c0578063a003651d146102d9578063ac5d8745146102ef578063c08351061461030e578063e751f27114610324578063fed0d7df1461033a575b600080fd5b34156100d157600080fd5b6100dc600435610361565b604051600160a060020a039093168352602083019190915215156040808301919091526060909101905180910390f35b341561011757600080fd5b610133600160a060020a0360043516602435604435151561038f565b60405190815260200160405180910390f35b341561015057600080fd5b610167600435600160a060020a03602435166103f9565b60405191825260208201526040908101905180910390f35b341561018a57600080fd5b610195600435610458565b604051600160a060020a0397881681529587166020870152604080870195909552929095166060850152608084015260a083019390935291151560c082015260e001905180910390f35b34156101ea57600080fd5b610204600435602435600160a060020a03604435166104a7565b604051901515815260200160405180910390f35b341561022357600080fd5b61020460043561053e565b341561023957600080fd5b610133600435602435600160a060020a03604435811690606435166105fe565b341561026457600080fd5b61026f6004356107f5565b604051808261016080838360005b8381101561029557808201518382015260200161027d565b5050505090500191505060405180910390f35b34156102b357600080fd5b6102be600435610842565b005b34156102cb57600080fd5b610204600435602435610872565b34156102e457600080fd5b6101336004356108a9565b34156102fa57600080fd5b6102046004356024356044356064356108be565b341561031957600080fd5b6102046004356108f6565b341561032f57600080fd5b61020460043561090e565b341561034557600080fd5b610133600160a060020a03600435166024356044351515610c92565b600060208190529081526040902080546001820154600290920154600160a060020a03909116919060ff1683565b6000838383604051600160a060020a03939093166c01000000000000000000000000028352601483019190915215157f0100000000000000000000000000000000000000000000000000000000000000026034820152603501604051809103902090509392505050565b600080610404611140565b6000858152600160209081526040808320600160a060020a03881684526007019091529081902090805190810160405281548152600190910154602082015290508051816020015192509250509250929050565b60016020819052600091825260409091208054918101546002820154600383015460048401546005850154600890950154600160a060020a039687169694851695939490921692909160ff1687565b600083815260016020526040812054849033600160a060020a039081169116146104d057600080fd5b600085815260016020526040902060080154859060ff1615156104f257600080fd5b60008681526001602090815260408083206004015483529082905290206002015460ff1615156105255760009250610535565b6105328685876000610d47565b92505b50509392505050565b600081815260016020526040812054829033600160a060020a0390811691161461056757600080fd5b600083815260016020526040902060080154839060ff16151561058957600080fd5b60008481526001602090815260408083206004015483529082905290206002015460ff1615156105bc57600092506105f7565b6105c584610f71565b837fd06f0966987a6526e0c1291838668e5dbcaf062ae68baadf345ff3edd792e8b560405160405180910390a2600192505b5050919050565b600080610609611157565b600086815260208190526040902054600160a060020a0316151561062c57600080fd5b60008711801561063d5750600a8711155b151561064857600080fd5b30600254604051600160a060020a03929092166c01000000000000000000000000028252601482015260340160405190819003902060028054600190810190915560408084018a905260808401899052600160a060020a03808916602080870191909152888216606087015233909116855260c085018390526000848152929052902090925081908151815473ffffffffffffffffffffffffffffffffffffffff1916600160a060020a0391909116178155602082015160018201805473ffffffffffffffffffffffffffffffffffffffff1916600160a060020a039290921691909117905560408201518160020155606082015160038201805473ffffffffffffffffffffffffffffffffffffffff1916600160a060020a03929092169190911790556080820151600482015560a0820151816005015560c0820151600891909101805460ff191691151591909117905550817f82cc1e47a0fddd1b4b3576bd36d20b845eac0f69b7057cb0357a3cb4ce29cb65883389604051928352600160a060020a0390911660208301526040808301919091526060909101905180910390a25095945050505050565b6107fd611193565b6000828152600160205260408120905b600282015481116105f75760008181526006830160205260409020548382600b811061083557fe5b602002015260010161080d565b600081815260016020526040902060080154819060ff16151561086457600080fd5b61086e823361100c565b5050565b600082815260016020526040812060080154839060ff16151561089457600080fd5b6108a18433856000610d47565b949350505050565b60009081526001602052604090206002015490565b600084815260016020526040812060080154859060ff1615156108e057600080fd5b6108ec86338787610d47565b9695505050505050565b60009081526001602052604090206008015460ff1690565b6000806000806000806000610921611157565b600089815260016020526040902060080154899060ff16151561094357600080fd5b60008a8152600160209081526040808320600481015484529183905280832054919a50600160a060020a03909116916318160ddd9151602001526040518163ffffffff1660e060020a028152600401602060405180830381600087803b15156109ab57600080fd5b6102c65a03f115156109bc57600080fd5b505050604051805160048a01546000908152602081905260409020600101549098509650606490508688020488600501541115610c8057600192505b60028801548311610a4057600083815260068901602052604090205485901115610a35576000838152600689016020526040902054945091925082915b6001909201916109f8565b8760e060405190810160405290816000820160009054906101000a9004600160a060020a0316600160a060020a0316600160a060020a031681526020016001820160009054906101000a9004600160a060020a0316600160a060020a0316600160a060020a03168152602001600282015481526020016003820160009054906101000a9004600160a060020a0316600160a060020a0316600160a060020a03168152602001600482015460001916600019168152602001600582015481526020016008820160009054906101000a900460ff1615151515815250509150600160008b60001916600019168152602001908152602001600020600080820160006101000a815490600160a060020a0302191690556001820160006101000a815490600160a060020a03021916905560028201600090556003820160006101000a815490600160a060020a030219169055600482016000905560058201600090556008820160006101000a81549060ff0219169055505089600019167f81be7b59f2640007c1101f52199758a7ea91009239bc8a7a2449472c02d221cc8560405190815260200160405180910390a28160600151600160a060020a031663310ce4e28b84602001518760006040516020015260405160e060020a63ffffffff86160281526004810193909352600160a060020a0390911660248301526044820152606401602060405180830381600087803b1515610c5b57600080fd5b6102c65a03f11515610c6c57600080fd5b505050604051805190505060019850610c85565b600098505b5050505050505050919050565b60008060648411158015610ca65750600084115b1515610cb157600080fd5b610cbc85858561038f565b905060606040519081016040908152600160a060020a0387168252602080830187905285151582840152600084815290819052208151815473ffffffffffffffffffffffffffffffffffffffff1916600160a060020a0391909116178155602082015181600101556040820151600291909101805460ff191691151591909117905550949350505050565b600080610d526111bb565b600087815260016020908152604080832060048101548452918390528083209194506060905190810160409081528254600160a060020a031682526001830154602083015260029283015460ff1615159082015290840154909250861115610db957600080fd5b8151600160a060020a031663db89c0448860006040516020015260405160e060020a63ffffffff8416028152600160a060020a039091166004820152602401602060405180830381600087803b1515610e1157600080fd5b6102c65a03f11515610e2257600080fd5b505050604051805191505084811015610e3a57600080fd5b841515610e45578094505b600160a060020a038716600090815260078401602052604090206001015415610e7257610e72888861100c565b6000868152600684016020526040902054610e9490869063ffffffff61111816565b60008781526006850160205260409020556005830154610ebb90869063ffffffff61111816565b60058401556040805190810160409081528782526020808301889052600160a060020a038a166000908152600787019091522081518155602082015160019091015550600160a060020a038088169089907f98919cf2e7177b2b2794b7596166eb688e15f8422b46387aab412d792035c01290899085903316851415604051928352602083019190915215156040808301919091526060909101905180910390a3610f658861090e565b98975050505050505050565b6000818152600160205260408120905b60028201548111610fa5576000818152600683016020526040812055600101610f81565b505060009081526001602081905260408220805473ffffffffffffffffffffffffffffffffffffffff19908116825591810180548316905560028101839055600381018054909216909155600481018290556005810191909155600801805460ff19169055565b6000611016611140565b6000848152600160209081526040808320600160a060020a0387168452600781019092529182902090935090805190810160405281548152600190910154602082019081529091506110889051600684016000845181526020019081526020016000205461112e90919063ffffffff16565b60068301600083518152602001908152602001600020819055506110bb816020015160058401549063ffffffff61112e16565b6005830155600160a060020a03831660008181526007840160205260408082208281556001019190915585907f694e00fc5266ab4e93df364ff0161f5d7e3a035126b13d918755bfed6d8ab299905160405180910390a350505050565b60008282018381101561112757fe5b9392505050565b60008282111561113a57fe5b50900390565b604080519081016040526000808252602082015290565b60e06040519081016040908152600080835260208301819052908201819052606082018190526080820181905260a0820181905260c082015290565b610160604051908101604052600b815b60008152602001906001900390816111a35790505090565b6060604051908101604090815260008083526020830181905290820152905600a165627a7a72305820853001852a7987c16dc843de15bd1ed669860e59a1d92f2ca5edbdc2a6175b7b0029",
  "source": "pragma solidity ^0.4.18;\n\nimport \"../controller/Reputation.sol\";\nimport \"./IntVoteInterface.sol\";\nimport \"./AbsoluteVote.sol\";\n\n\ncontract QuorumVote is IntVoteInterface, AbsoluteVote {\n    /**\n    * @dev check if the proposal has been decided, and if so, execute the proposal\n    * @param _proposalId the id of the proposal\n    */\n    // TODO: do we want to delete the vote from the proposals mapping?\n    function execute(bytes32 _proposalId) public votable(_proposalId) returns(bool) {\n        Proposal storage proposal = proposals[_proposalId];\n\n        uint totalReputation = parameters[proposal.paramsHash].reputationSystem.totalSupply();\n        uint precReq = parameters[proposal.paramsHash].precReq;\n\n        // this is the actual voting rule:\n        if (proposal.totalVotes > totalReputation*precReq/100) {\n            uint max;\n            uint maxInd;\n            for (uint cnt = 1; cnt<=proposal.numOfChoices; cnt++) {\n                if (proposal.votes[cnt] > max) {\n                    max = proposal.votes[cnt];\n                    maxInd = cnt;\n                }\n            }\n            Proposal memory tmpProposal = proposal;\n            delete proposals[_proposalId];\n            LogExecuteProposal(_proposalId, maxInd);\n            (tmpProposal.executable).execute(_proposalId, tmpProposal.avatar, int(maxInd));\n            return true;\n        }\n        return false;\n    }\n}\n",
  "sourcePath": "/Users/tibet/Dev/Emergence/daostack/contracts/VotingMachines/QuorumVote.sol",
  "compiler": {
    "name": "solc",
    "version": "0.4.18+commit.9cf6e910.Emscripten.clang"
  },
  "schemaVersion": "1.0.1",
  "updatedAt": "2018-01-04T22:14:02.757Z"
}