{
  "contractName": "QuorumVote",
  "abi": [
    {
      "constant": true,
      "inputs": [
        {
          "name": "",
          "type": "bytes32"
        }
      ],
      "name": "parameters",
      "outputs": [
        {
          "name": "reputationSystem",
          "type": "address"
        },
        {
          "name": "precReq",
          "type": "uint256"
        },
        {
          "name": "allowOwner",
          "type": "bool"
        }
      ],
      "payable": false,
      "stateMutability": "view",
      "type": "function"
    },
    {
      "constant": true,
      "inputs": [
        {
          "name": "_reputationSystem",
          "type": "address"
        },
        {
          "name": "_precReq",
          "type": "uint256"
        },
        {
          "name": "_allowOwner",
          "type": "bool"
        }
      ],
      "name": "getParametersHash",
      "outputs": [
        {
          "name": "",
          "type": "bytes32"
        }
      ],
      "payable": false,
      "stateMutability": "view",
      "type": "function"
    },
    {
      "constant": true,
      "inputs": [
        {
          "name": "_proposalId",
          "type": "bytes32"
        },
        {
          "name": "_voter",
          "type": "address"
        }
      ],
      "name": "voteInfo",
      "outputs": [
        {
          "name": "",
          "type": "uint256[13]"
        }
      ],
      "payable": false,
      "stateMutability": "view",
      "type": "function"
    },
    {
      "constant": true,
      "inputs": [
        {
          "name": "",
          "type": "bytes32"
        }
      ],
      "name": "proposals",
      "outputs": [
        {
          "name": "owner",
          "type": "address"
        },
        {
          "name": "avatar",
          "type": "address"
        },
        {
          "name": "numOfChoices",
          "type": "uint256"
        },
        {
          "name": "executable",
          "type": "address"
        },
        {
          "name": "paramsHash",
          "type": "bytes32"
        },
        {
          "name": "totalVotes",
          "type": "uint256"
        },
        {
          "name": "opened",
          "type": "bool"
        }
      ],
      "payable": false,
      "stateMutability": "view",
      "type": "function"
    },
    {
      "constant": false,
      "inputs": [
        {
          "name": "_proposalId",
          "type": "bytes32"
        },
        {
          "name": "_vote",
          "type": "uint256"
        },
        {
          "name": "_voter",
          "type": "address"
        }
      ],
      "name": "ownerVote",
      "outputs": [
        {
          "name": "",
          "type": "bool"
        }
      ],
      "payable": false,
      "stateMutability": "nonpayable",
      "type": "function"
    },
    {
      "constant": false,
      "inputs": [
        {
          "name": "_proposalId",
          "type": "bytes32"
        }
      ],
      "name": "cancelProposal",
      "outputs": [
        {
          "name": "",
          "type": "bool"
        }
      ],
      "payable": false,
      "stateMutability": "nonpayable",
      "type": "function"
    },
    {
      "constant": true,
      "inputs": [
        {
          "name": "_proposalId",
          "type": "bytes32"
        }
      ],
      "name": "proposalStatus",
      "outputs": [
        {
          "name": "",
          "type": "uint256[13]"
        }
      ],
      "payable": false,
      "stateMutability": "view",
      "type": "function"
    },
    {
      "constant": false,
      "inputs": [
        {
          "name": "_numOfChoices",
          "type": "uint256"
        },
        {
          "name": "_paramsHash",
          "type": "bytes32"
        },
        {
          "name": "_avatar",
          "type": "address"
        },
        {
          "name": "_executable",
          "type": "address"
        }
      ],
      "name": "propose",
      "outputs": [
        {
          "name": "",
          "type": "bytes32"
        }
      ],
      "payable": false,
      "stateMutability": "nonpayable",
      "type": "function"
    },
    {
      "constant": false,
      "inputs": [
        {
          "name": "_proposalId",
          "type": "bytes32"
        }
      ],
      "name": "cancelVote",
      "outputs": [],
      "payable": false,
      "stateMutability": "nonpayable",
      "type": "function"
    },
    {
      "constant": false,
      "inputs": [
        {
          "name": "_proposalId",
          "type": "bytes32"
        }
      ],
      "name": "executeProposal",
      "outputs": [
        {
          "name": "",
          "type": "bool"
        }
      ],
      "payable": false,
      "stateMutability": "nonpayable",
      "type": "function"
    },
    {
      "constant": false,
      "inputs": [
        {
          "name": "_proposalId",
          "type": "bytes32"
        },
        {
          "name": "_vote",
          "type": "uint256"
        }
      ],
      "name": "vote",
      "outputs": [],
      "payable": false,
      "stateMutability": "nonpayable",
      "type": "function"
    },
    {
      "constant": true,
      "inputs": [
        {
          "name": "_proposalId",
          "type": "bytes32"
        }
      ],
      "name": "getNumberOfChoices",
      "outputs": [
        {
          "name": "",
          "type": "uint256"
        }
      ],
      "payable": false,
      "stateMutability": "view",
      "type": "function"
    },
    {
      "constant": false,
      "inputs": [
        {
          "name": "_proposalId",
          "type": "bytes32"
        },
        {
          "name": "_vote",
          "type": "uint256"
        },
        {
          "name": "_rep",
          "type": "uint256"
        },
        {
          "name": "",
          "type": "uint256"
        }
      ],
      "name": "voteWithSpecifiedAmounts",
      "outputs": [],
      "payable": false,
      "stateMutability": "nonpayable",
      "type": "function"
    },
    {
      "constant": false,
      "inputs": [
        {
          "name": "_reputationSystem",
          "type": "address"
        },
        {
          "name": "_precReq",
          "type": "uint256"
        },
        {
          "name": "_allowOwner",
          "type": "bool"
        }
      ],
      "name": "setParameters",
      "outputs": [
        {
          "name": "",
          "type": "bytes32"
        }
      ],
      "payable": false,
      "stateMutability": "nonpayable",
      "type": "function"
    },
    {
      "anonymous": false,
      "inputs": [
        {
          "indexed": true,
          "name": "_proposalId",
          "type": "bytes32"
        },
        {
          "indexed": false,
          "name": "_numOfChoices",
          "type": "uint256"
        },
        {
          "indexed": false,
          "name": "_proposer",
          "type": "address"
        },
        {
          "indexed": false,
          "name": "_paramsHash",
          "type": "bytes32"
        }
      ],
      "name": "LogNewProposal",
      "type": "event"
    },
    {
      "anonymous": false,
      "inputs": [
        {
          "indexed": true,
          "name": "_proposalId",
          "type": "bytes32"
        }
      ],
      "name": "LogCancelProposal",
      "type": "event"
    },
    {
      "anonymous": false,
      "inputs": [
        {
          "indexed": true,
          "name": "_proposalId",
          "type": "bytes32"
        },
        {
          "indexed": false,
          "name": "_decision",
          "type": "uint256"
        }
      ],
      "name": "LogExecuteProposal",
      "type": "event"
    },
    {
      "anonymous": false,
      "inputs": [
        {
          "indexed": true,
          "name": "_proposalId",
          "type": "bytes32"
        },
        {
          "indexed": true,
          "name": "_voter",
          "type": "address"
        },
        {
          "indexed": false,
          "name": "_vote",
          "type": "uint256"
        },
        {
          "indexed": false,
          "name": "_reputation",
          "type": "uint256"
        },
        {
          "indexed": false,
          "name": "_isOwnerVote",
          "type": "bool"
        }
      ],
      "name": "LogVoteProposal",
      "type": "event"
    },
    {
      "anonymous": false,
      "inputs": [
        {
          "indexed": true,
          "name": "_proposalId",
          "type": "bytes32"
        },
        {
          "indexed": true,
          "name": "_voter",
          "type": "address"
        }
      ],
      "name": "LogCancelVoting",
      "type": "event"
    }
  ],
  "bytecode": "0x6060604052341561000f57600080fd5b6112068061001e6000396000f3006060604052600436106100b65763ffffffff60e060020a6000350416630250680481146100bb57806302a1cdaf14610101578063119ce91b1461013a57806332ed5b1214610195578063339e23d1146101f557806337376ca81461022e57806379a1c1f61461024457806388737b5e1461025a5780639525c0cc14610285578063980ff6c61461029d5780639ef1204c146102b3578063a003651d146102cc578063ac5d8745146102e2578063fed0d7df14610301575b600080fd5b34156100c657600080fd5b6100d1600435610328565b604051600160a060020a039093168352602083019190915215156040808301919091526060909101905180910390f35b341561010c57600080fd5b610128600160a060020a03600435166024356044351515610356565b60405190815260200160405180910390f35b341561014557600080fd5b61015c600435600160a060020a03602435166103c0565b60405180826101a080838360005b8381101561018257808201518382015260200161016a565b5050505090500191505060405180910390f35b34156101a057600080fd5b6101ab600435610484565b604051600160a060020a0397881681529587166020870152604080870195909552929095166060850152608084015260a083019390935291151560c082015260e001905180910390f35b341561020057600080fd5b61021a600435602435600160a060020a03604435166104d3565b604051901515815260200160405180910390f35b341561023957600080fd5b61021a600435610549565b341561024f57600080fd5b61015c600435610664565b341561026557600080fd5b610128600435602435600160a060020a03604435811690606435166106ee565b341561029057600080fd5b61029b6004356108e5565b005b34156102a857600080fd5b61021a600435610915565b34156102be57600080fd5b61029b600435602435610c99565b34156102d757600080fd5b610128600435610ca6565b34156102ed57600080fd5b61029b600435602435604435606435610cbb565b341561030c57600080fd5b610128600160a060020a03600435166024356044351515610cf0565b600060208190529081526040902080546001820154600290920154600160a060020a03909116919060ff1683565b6000838383604051600160a060020a03939093166c01000000000000000000000000028352601483019190915215157f0100000000000000000000000000000000000000000000000000000000000000026034820152603501604051809103902090509392505050565b6103c861113f565b6103d0611167565b6000848152600160209081526040808320600160a060020a038716845260070190915290819020908051908101604090815282548252600190920154602082015291506101a0905190810160405280825181526020018260200151815260200160008152602001600081526020016000815260200160008152602001600081526020016000815260200160008152602001600081526020016000815260200160008152602001600081525091505092915050565b60016020819052600091825260409091208054918101546002820154600383015460048401546005850154600890950154600160a060020a039687169694851695939490921692909160ff1687565b600083815260016020526040812054849033600160a060020a039081169116146104fc57600080fd5b60008581526001602090815260408083206004015483529082905290206002015460ff16151561052f5760009150610541565b61053c8584866000610da5565b600191505b509392505050565b600081815260016020526040812054829033600160a060020a0390811691161461057257600080fd5b600083815260016020526040902060080154839060ff16151561059457600080fd5b60008481526001602090815260408083206004015483529082905290206002015460ff1615156105c7576000925061065d565b6000848152600160208190526040808320805473ffffffffffffffffffffffffffffffffffffffff19908116825592810180548416905560028101849055600381018054909316909255600482018390556005820192909255600801805460ff1916905584907fd06f0966987a6526e0c1291838668e5dbcaf062ae68baadf345ff3edd792e8b5905160405180910390a2600192505b5050919050565b61066c61113f565b60008061067761113f565b6000858152600160205260408120600881015490945060ff1661069b57600061069e565b60015b60ff1692508282600c60200201525060005b600284015481116106e55760008181526006850160205260409020548282600d81106106d857fe5b60200201526001016106b0565b50949350505050565b6000806106f961117e565b600086815260208190526040902054600160a060020a0316151561071c57600080fd5b60008711801561072d5750600a8711155b151561073857600080fd5b30600254604051600160a060020a03929092166c01000000000000000000000000028252601482015260340160405190819003902060028054600190810190915560408084018a905260808401899052600160a060020a03808916602080870191909152888216606087015233909116855260c085018390526000848152929052902090925081908151815473ffffffffffffffffffffffffffffffffffffffff1916600160a060020a0391909116178155602082015160018201805473ffffffffffffffffffffffffffffffffffffffff1916600160a060020a039290921691909117905560408201518160020155606082015160038201805473ffffffffffffffffffffffffffffffffffffffff1916600160a060020a03929092169190911790556080820151600482015560a0820151816005015560c0820151600891909101805460ff191691151591909117905550817f82cc1e47a0fddd1b4b3576bd36d20b845eac0f69b7057cb0357a3cb4ce29cb65883389604051928352600160a060020a0390911660208301526040808301919091526060909101905180910390a25095945050505050565b600081815260016020526040902060080154819060ff16151561090757600080fd5b610911823361100b565b5050565b600080600080600080600061092861117e565b600089815260016020526040902060080154899060ff16151561094a57600080fd5b60008a8152600160209081526040808320600481015484529183905280832054919a50600160a060020a03909116916318160ddd9151602001526040518163ffffffff1660e060020a028152600401602060405180830381600087803b15156109b257600080fd5b6102c65a03f115156109c357600080fd5b505050604051805160048a01546000908152602081905260409020600101549098509650606490508688020488600501541115610c8757600192505b60028801548311610a4757600083815260068901602052604090205485901115610a3c576000838152600689016020526040902054945091925082915b6001909201916109ff565b8760e060405190810160405290816000820160009054906101000a9004600160a060020a0316600160a060020a0316600160a060020a031681526020016001820160009054906101000a9004600160a060020a0316600160a060020a0316600160a060020a03168152602001600282015481526020016003820160009054906101000a9004600160a060020a0316600160a060020a0316600160a060020a03168152602001600482015460001916600019168152602001600582015481526020016008820160009054906101000a900460ff1615151515815250509150600160008b60001916600019168152602001908152602001600020600080820160006101000a815490600160a060020a0302191690556001820160006101000a815490600160a060020a03021916905560028201600090556003820160006101000a815490600160a060020a030219169055600482016000905560058201600090556008820160006101000a81549060ff0219169055505089600019167f81be7b59f2640007c1101f52199758a7ea91009239bc8a7a2449472c02d221cc8560405190815260200160405180910390a28160600151600160a060020a031663310ce4e28b84602001518760006040516020015260405160e060020a63ffffffff86160281526004810193909352600160a060020a0390911660248301526044820152606401602060405180830381600087803b1515610c6257600080fd5b6102c65a03f11515610c7357600080fd5b505050604051805190505060019850610c8c565b600098505b5050505050505050919050565b6109118233836000610da5565b60009081526001602052604090206002015490565b600084815260016020526040902060080154849060ff161515610cdd57600080fd5b610ce985338686610da5565b5050505050565b60008060648411158015610d045750600084115b1515610d0f57600080fd5b610d1a858585610356565b905060606040519081016040908152600160a060020a0387168252602080830187905285151582840152600084815290819052208151815473ffffffffffffffffffffffffffffffffffffffff1916600160a060020a0391909116178155602082015181600101556040820151600291909101805460ff191691151591909117905550949350505050565b6000610daf6111ba565b6000868152600160205260408120600801548190889060ff161515610dd357600080fd5b6000898152600160209081526040808320600481015484529183905291829020909650906060905190810160409081528254600160a060020a031682526001830154602083015260029283015460ff1615159082015290860154909450871115610e3c57600080fd5b8351600160a060020a031663db89c0448960006040516020015260405160e060020a63ffffffff8416028152600160a060020a039091166004820152602401602060405180830381600087803b1515610e9457600080fd5b6102c65a03f11515610ea557600080fd5b505050604051805193505085831015610ebd57600080fd5b851515610ec8578295505b600160a060020a038816600090815260078601602052604090206001015415610ef557610ef5898961100b565b6000878152600686016020526040902054610f1790879063ffffffff61111716565b60008881526006870160205260409020556005850154610f3e90879063ffffffff61111716565b60058601556040805190810160409081528882526020808301899052600160a060020a038b1660009081526007890190915220815181556020820151816001015590505033600160a060020a031688600160a060020a0316141515610fa257600191505b600160a060020a038816897f98919cf2e7177b2b2794b7596166eb688e15f8422b46387aab412d792035c012898686604051928352602083019190915215156040808301919091526060909101905180910390a3610fff89610915565b50505050505050505050565b6000611015611167565b6000848152600160209081526040808320600160a060020a0387168452600781019092529182902090935090805190810160405281548152600190910154602082019081529091506110879051600684016000845181526020019081526020016000205461112d90919063ffffffff16565b60068301600083518152602001908152602001600020819055506110ba816020015160058401549063ffffffff61112d16565b6005830155600160a060020a03831660008181526007840160205260408082208281556001019190915585907f694e00fc5266ab4e93df364ff0161f5d7e3a035126b13d918755bfed6d8ab299905160405180910390a350505050565b60008282018381101561112657fe5b9392505050565b60008282111561113957fe5b50900390565b6101a0604051908101604052600d815b600081526020019060019003908161114f5790505090565b604080519081016040526000808252602082015290565b60e06040519081016040908152600080835260208301819052908201819052606082018190526080820181905260a0820181905260c082015290565b6060604051908101604090815260008083526020830181905290820152905600a165627a7a723058205df121d961113d1bfd9431d14757a95d2c943c0a3e4549622b2f635fe8d3727c0029",
  "source": "pragma solidity ^0.4.18;\n\nimport \"../controller/Reputation.sol\";\nimport \"./IntVoteInterface.sol\";\nimport \"./AbsoluteVote.sol\";\n\ncontract QuorumVote is IntVoteInterface, AbsoluteVote {\n  /**\n   * @dev check if the proposal has been decided, and if so, execute the proposal\n   * @param _proposalId the id of the proposal\n   */\n  // TODO: do we want to delete the vote from the proposals mapping?\n  function executeProposal(bytes32 _proposalId) public votableProposal(_proposalId) returns(bool) {\n    Proposal storage proposal = proposals[_proposalId];\n\n    uint totalReputation = parameters[proposal.paramsHash].reputationSystem.totalSupply();\n    uint precReq = parameters[proposal.paramsHash].precReq;\n\n    // this is the actual voting rule:\n    if (proposal.totalVotes > totalReputation*precReq/100) {\n      uint max;\n      uint maxInd;\n      for (uint cnt=1; cnt<=proposal.numOfChoices; cnt++) {\n        if (proposal.votes[cnt] > max) {\n          max = proposal.votes[cnt];\n          maxInd = cnt;\n        }\n      }\n      Proposal memory tmpProposal = proposal;\n      delete proposals[_proposalId];\n      LogExecuteProposal(_proposalId, maxInd);\n      (tmpProposal.executable).execute(_proposalId, tmpProposal.avatar, int(maxInd));\n      return true;\n    }\n    return false;\n  }\n\n}\n",
  "sourcePath": "/Users/tibet/Dev/Emergence/daostack/contracts/VotingMachines/QuorumVote.sol",
  "compiler": {
    "name": "solc",
    "version": "0.4.18+commit.9cf6e910.Emscripten.clang"
  },
  "schemaVersion": "1.0.1",
  "updatedAt": "2017-11-22T00:50:28.587Z"
}