{
  "contractName": "SaftTokenSale",
  "abi": [
    {
      "constant": true,
      "inputs": [],
      "name": "endBlock",
      "outputs": [
        {
          "name": "",
          "type": "uint256"
        }
      ],
      "payable": false,
      "stateMutability": "view",
      "type": "function"
    },
    {
      "constant": true,
      "inputs": [],
      "name": "rate",
      "outputs": [
        {
          "name": "",
          "type": "uint256"
        }
      ],
      "payable": false,
      "stateMutability": "view",
      "type": "function"
    },
    {
      "constant": true,
      "inputs": [],
      "name": "cap",
      "outputs": [
        {
          "name": "",
          "type": "uint256"
        }
      ],
      "payable": false,
      "stateMutability": "view",
      "type": "function"
    },
    {
      "constant": true,
      "inputs": [],
      "name": "weiRaised",
      "outputs": [
        {
          "name": "",
          "type": "uint256"
        }
      ],
      "payable": false,
      "stateMutability": "view",
      "type": "function"
    },
    {
      "constant": true,
      "inputs": [],
      "name": "startBlock",
      "outputs": [
        {
          "name": "",
          "type": "uint256"
        }
      ],
      "payable": false,
      "stateMutability": "view",
      "type": "function"
    },
    {
      "constant": true,
      "inputs": [],
      "name": "wallet",
      "outputs": [
        {
          "name": "",
          "type": "address"
        }
      ],
      "payable": false,
      "stateMutability": "view",
      "type": "function"
    },
    {
      "constant": false,
      "inputs": [
        {
          "name": "beneficiary",
          "type": "address"
        }
      ],
      "name": "buyTokens",
      "outputs": [],
      "payable": true,
      "stateMutability": "payable",
      "type": "function"
    },
    {
      "constant": true,
      "inputs": [],
      "name": "hasEnded",
      "outputs": [
        {
          "name": "",
          "type": "bool"
        }
      ],
      "payable": false,
      "stateMutability": "view",
      "type": "function"
    },
    {
      "constant": true,
      "inputs": [],
      "name": "token",
      "outputs": [
        {
          "name": "",
          "type": "address"
        }
      ],
      "payable": false,
      "stateMutability": "view",
      "type": "function"
    },
    {
      "inputs": [
        {
          "name": "_startTime",
          "type": "uint256"
        },
        {
          "name": "_endTime",
          "type": "uint256"
        },
        {
          "name": "_rate",
          "type": "uint256"
        },
        {
          "name": "_cap",
          "type": "uint256"
        },
        {
          "name": "_wallet",
          "type": "address"
        }
      ],
      "payable": false,
      "stateMutability": "nonpayable",
      "type": "constructor"
    },
    {
      "payable": true,
      "stateMutability": "payable",
      "type": "fallback"
    },
    {
      "anonymous": false,
      "inputs": [
        {
          "indexed": true,
          "name": "purchaser",
          "type": "address"
        },
        {
          "indexed": true,
          "name": "beneficiary",
          "type": "address"
        },
        {
          "indexed": false,
          "name": "value",
          "type": "uint256"
        },
        {
          "indexed": false,
          "name": "amount",
          "type": "uint256"
        }
      ],
      "name": "TokenPurchase",
      "type": "event"
    }
  ],
  "bytecode": "0x6060604052341561000f57600080fd5b60405160a08061172b83398101604052808051919060200180519190602001805191906020018051919060200180519150829050858585844384101561005457600080fd5b8383101561006157600080fd5b6000821161006e57600080fd5b600160a060020a038116151561008357600080fd5b61009864010000000061041c6100ee82021704565b60008054600160a060020a0319908116600160a060020a039384161782556001969096556002949094556004929092556003805490941691161790915581116100e057600080fd5b600655506101239350505050565b60006100f8610113565b604051809103906000f080151561010e57600080fd5b905090565b6040516108be80610e6d83390190565b610d3b806101326000396000f3006060604052600436106100985763ffffffff7c0100000000000000000000000000000000000000000000000000000000600035041663083c632381146100a35780632c4e722e146100c8578063355274ea146100db5780634042b66f146100ee57806348cd4cb114610101578063521eb27314610114578063ec8ac4d814610143578063ecb70fb714610157578063fc0c546a1461017e575b6100a133610191565b005b34156100ae57600080fd5b6100b66102de565b60405190815260200160405180910390f35b34156100d357600080fd5b6100b66102e4565b34156100e657600080fd5b6100b66102ea565b34156100f957600080fd5b6100b66102f0565b341561010c57600080fd5b6100b66102f6565b341561011f57600080fd5b6101276102fc565b604051600160a060020a03909116815260200160405180910390f35b6100a1600160a060020a0360043516610191565b341561016257600080fd5b61016a61030b565b604051901515815260200160405180910390f35b341561018957600080fd5b61012761032d565b600080600160a060020a03831615156101a957600080fd5b6101b161033c565b15156101bc57600080fd5b6004543492506101d390839063ffffffff61036f16565b6005549091506101e9908363ffffffff61039a16565b60055560008054600160a060020a0316906340c10f199085908490604051602001526040517c010000000000000000000000000000000000000000000000000000000063ffffffff8516028152600160a060020a0390921660048301526024820152604401602060405180830381600087803b151561026757600080fd5b6102c65a03f1151561027857600080fd5b505050604051805190505082600160a060020a031633600160a060020a03167f623b3804fa71d67900d064613da8f94b9617215ee90799290593e1745087ad18848460405191825260208201526040908101905180910390a36102d96103a9565b505050565b60025481565b60045481565b60065481565b60055481565b60015481565b600354600160a060020a031681565b60065460055460009190101561031f6103df565b806103275750805b91505090565b600054600160a060020a031681565b6000806006546103573460055461039a90919063ffffffff16565b111590506103636103e7565b80156103275750919050565b600082820283158061038b575082848281151561038857fe5b04145b151561039357fe5b9392505050565b60008282018381101561039357fe5b600354600160a060020a03163480156108fc0290604051600060405180830381858888f1935050505015156103dd57600080fd5b565b600254431190565b600080600080439250600154831015801561040457506002548311155b9150503415158180156104145750805b935050505090565b6000610426610441565b604051809103906000f080151561043c57600080fd5b905090565b6040516108be80610452833901905600606060405260038054600160a860020a03191633600160a060020a03161790556108908061002e6000396000f3006060604052600436106100cf5763ffffffff7c010000000000000000000000000000000000000000000000000000000060003504166305d2035b81146100d457806306fdde03146100fb578063095ea7b31461018557806318160ddd146101a757806323b872dd146101cc578063313ce567146101f457806340c10f191461021d57806370a082311461023f5780637d64bcb41461025e5780638da5cb5b1461027157806395d89b41146102a0578063a9059cbb146102b3578063dd62ed3e146102d5578063f2fde38b146102fa575b600080fd5b34156100df57600080fd5b6100e761031b565b604051901515815260200160405180910390f35b341561010657600080fd5b61010e61033c565b60405160208082528190810183818151815260200191508051906020019080838360005b8381101561014a578082015183820152602001610132565b50505050905090810190601f1680156101775780820380516001836020036101000a031916815260200191505b509250505060405180910390f35b341561019057600080fd5b6100e7600160a060020a0360043516602435610373565b34156101b257600080fd5b6101ba610419565b60405190815260200160405180910390f35b34156101d757600080fd5b6100e7600160a060020a036004358116906024351660443561041f565b34156101ff57600080fd5b610207610532565b60405160ff909116815260200160405180910390f35b341561022857600080fd5b6100e7600160a060020a0360043516602435610537565b341561024a57600080fd5b6101ba600160a060020a0360043516610616565b341561026957600080fd5b6100e7610631565b341561027c57600080fd5b6102846106b6565b604051600160a060020a03909116815260200160405180910390f35b34156102ab57600080fd5b61010e6106c5565b34156102be57600080fd5b6100e7600160a060020a03600435166024356106fc565b34156102e057600080fd5b6101ba600160a060020a03600435811690602435166107bb565b341561030557600080fd5b610319600160a060020a03600435166107e6565b005b60035474010000000000000000000000000000000000000000900460ff1681565b60408051908101604052601381527f44414f537461636b205361667420546f6b656e00000000000000000000000000602082015281565b60008115806103a55750600160a060020a03338116600090815260026020908152604080832093871683529290522054155b15156103b057600080fd5b600160a060020a03338116600081815260026020908152604080832094881680845294909152908190208590557f8c5be1e5ebec7d5bd14f71427d1e84f3dd0314c0f7b2291e5b200ac8c7c3b9259085905190815260200160405180910390a350600192915050565b60005481565b600160a060020a038084166000908152600260209081526040808320338516845282528083205493861683526001909152812054909190610466908463ffffffff61083c16565b600160a060020a03808616600090815260016020526040808220939093559087168152205461049b908463ffffffff61085216565b600160a060020a0386166000908152600160205260409020556104c4818463ffffffff61085216565b600160a060020a03808716600081815260026020908152604080832033861684529091529081902093909355908616917fddf252ad1be2c89b69c2b068fc378daa952ba7f163c4a11628f55a4df523b3ef9086905190815260200160405180910390a3506001949350505050565b601281565b60035460009033600160a060020a0390811691161461055557600080fd5b60035474010000000000000000000000000000000000000000900460ff161561057d57600080fd5b600054610590908363ffffffff61083c16565b6000908155600160a060020a0384168152600160205260409020546105bb908363ffffffff61083c16565b600160a060020a0384166000818152600160205260409081902092909255907f0f6798a560793a54c3bcfe86a93cde1e73087d944c0ea20544137d41213968859084905190815260200160405180910390a250600192915050565b600160a060020a031660009081526001602052604090205490565b60035460009033600160a060020a0390811691161461064f57600080fd5b6003805474ff00000000000000000000000000000000000000001916740100000000000000000000000000000000000000001790557fae5184fba832cb2b1f702aca6117b8d265eaf03ad33eb133f19dde0f5920fa0860405160405180910390a150600190565b600354600160a060020a031681565b60408051908101604052600381527f4453540000000000000000000000000000000000000000000000000000000000602082015281565b600160a060020a033316600090815260016020526040812054610725908363ffffffff61085216565b600160a060020a03338116600090815260016020526040808220939093559085168152205461075a908363ffffffff61083c16565b600160a060020a0380851660008181526001602052604090819020939093559133909116907fddf252ad1be2c89b69c2b068fc378daa952ba7f163c4a11628f55a4df523b3ef9085905190815260200160405180910390a350600192915050565b600160a060020a03918216600090815260026020908152604080832093909416825291909152205490565b60035433600160a060020a0390811691161461080157600080fd5b600160a060020a03811615610839576003805473ffffffffffffffffffffffffffffffffffffffff1916600160a060020a0383161790555b50565b60008282018381101561084b57fe5b9392505050565b60008282111561085e57fe5b509003905600a165627a7a72305820765f115b7ade64d9e9acc4472c788307dfbcdf382c9f6955c34215c8f561ddf80029a165627a7a723058208857bdf3217775e4a5ec6afc00058f522c7672d1ae02a198bb2013d1ac7110c10029606060405260038054600160a860020a03191633600160a060020a03161790556108908061002e6000396000f3006060604052600436106100cf5763ffffffff7c010000000000000000000000000000000000000000000000000000000060003504166305d2035b81146100d457806306fdde03146100fb578063095ea7b31461018557806318160ddd146101a757806323b872dd146101cc578063313ce567146101f457806340c10f191461021d57806370a082311461023f5780637d64bcb41461025e5780638da5cb5b1461027157806395d89b41146102a0578063a9059cbb146102b3578063dd62ed3e146102d5578063f2fde38b146102fa575b600080fd5b34156100df57600080fd5b6100e761031b565b604051901515815260200160405180910390f35b341561010657600080fd5b61010e61033c565b60405160208082528190810183818151815260200191508051906020019080838360005b8381101561014a578082015183820152602001610132565b50505050905090810190601f1680156101775780820380516001836020036101000a031916815260200191505b509250505060405180910390f35b341561019057600080fd5b6100e7600160a060020a0360043516602435610373565b34156101b257600080fd5b6101ba610419565b60405190815260200160405180910390f35b34156101d757600080fd5b6100e7600160a060020a036004358116906024351660443561041f565b34156101ff57600080fd5b610207610532565b60405160ff909116815260200160405180910390f35b341561022857600080fd5b6100e7600160a060020a0360043516602435610537565b341561024a57600080fd5b6101ba600160a060020a0360043516610616565b341561026957600080fd5b6100e7610631565b341561027c57600080fd5b6102846106b6565b604051600160a060020a03909116815260200160405180910390f35b34156102ab57600080fd5b61010e6106c5565b34156102be57600080fd5b6100e7600160a060020a03600435166024356106fc565b34156102e057600080fd5b6101ba600160a060020a03600435811690602435166107bb565b341561030557600080fd5b610319600160a060020a03600435166107e6565b005b60035474010000000000000000000000000000000000000000900460ff1681565b60408051908101604052601381527f44414f537461636b205361667420546f6b656e00000000000000000000000000602082015281565b60008115806103a55750600160a060020a03338116600090815260026020908152604080832093871683529290522054155b15156103b057600080fd5b600160a060020a03338116600081815260026020908152604080832094881680845294909152908190208590557f8c5be1e5ebec7d5bd14f71427d1e84f3dd0314c0f7b2291e5b200ac8c7c3b9259085905190815260200160405180910390a350600192915050565b60005481565b600160a060020a038084166000908152600260209081526040808320338516845282528083205493861683526001909152812054909190610466908463ffffffff61083c16565b600160a060020a03808616600090815260016020526040808220939093559087168152205461049b908463ffffffff61085216565b600160a060020a0386166000908152600160205260409020556104c4818463ffffffff61085216565b600160a060020a03808716600081815260026020908152604080832033861684529091529081902093909355908616917fddf252ad1be2c89b69c2b068fc378daa952ba7f163c4a11628f55a4df523b3ef9086905190815260200160405180910390a3506001949350505050565b601281565b60035460009033600160a060020a0390811691161461055557600080fd5b60035474010000000000000000000000000000000000000000900460ff161561057d57600080fd5b600054610590908363ffffffff61083c16565b6000908155600160a060020a0384168152600160205260409020546105bb908363ffffffff61083c16565b600160a060020a0384166000818152600160205260409081902092909255907f0f6798a560793a54c3bcfe86a93cde1e73087d944c0ea20544137d41213968859084905190815260200160405180910390a250600192915050565b600160a060020a031660009081526001602052604090205490565b60035460009033600160a060020a0390811691161461064f57600080fd5b6003805474ff00000000000000000000000000000000000000001916740100000000000000000000000000000000000000001790557fae5184fba832cb2b1f702aca6117b8d265eaf03ad33eb133f19dde0f5920fa0860405160405180910390a150600190565b600354600160a060020a031681565b60408051908101604052600381527f4453540000000000000000000000000000000000000000000000000000000000602082015281565b600160a060020a033316600090815260016020526040812054610725908363ffffffff61085216565b600160a060020a03338116600090815260016020526040808220939093559085168152205461075a908363ffffffff61083c16565b600160a060020a0380851660008181526001602052604090819020939093559133909116907fddf252ad1be2c89b69c2b068fc378daa952ba7f163c4a11628f55a4df523b3ef9085905190815260200160405180910390a350600192915050565b600160a060020a03918216600090815260026020908152604080832093909416825291909152205490565b60035433600160a060020a0390811691161461080157600080fd5b600160a060020a03811615610839576003805473ffffffffffffffffffffffffffffffffffffffff1916600160a060020a0383161790555b50565b60008282018381101561084b57fe5b9392505050565b60008282111561085e57fe5b509003905600a165627a7a72305820765f115b7ade64d9e9acc4472c788307dfbcdf382c9f6955c34215c8f561ddf80029",
  "source": "pragma solidity ^0.4.18;\n\nimport \"zeppelin-solidity/contracts/crowdsale/CappedCrowdsale.sol\";\nimport \"zeppelin-solidity/contracts/token/MintableToken.sol\";\n\n/**\n * @title SaftToken\n * @dev Very simple ERC20 Token that can be minted.\n * It is meant to be used in a crowdsale contract.\n */\ncontract SaftToken is MintableToken {\n  string public constant name = \"DAOStack Saft Token\";\n  string public constant symbol = \"DST\";\n  uint8 public constant decimals = 18;\n}\n\n/**\n * @title SaftTokenSale\n * @dev The DAOStack SAFT token sale.\n */\ncontract SaftTokenSale is CappedCrowdsale {\n\n  function SaftTokenSale(uint256 _startTime, uint256 _endTime, uint256 _rate, uint256 _cap, address _wallet)\n    public\n    CappedCrowdsale(_cap)\n    Crowdsale(_startTime, _endTime, _rate, _wallet)\n  {\n\n  }\n\n  function createTokenContract() internal returns (MintableToken) {\n    return new SaftToken();\n  }\n\n}\n",
  "sourcePath": "/Users/tibet/Dev/Emergence/daostack/contracts/other/SaftTokenSale.sol",
  "compiler": {
    "name": "solc",
    "version": "0.4.18+commit.9cf6e910.Emscripten.clang"
  },
  "schemaVersion": "1.0.1",
  "updatedAt": "2017-11-22T00:50:28.594Z"
}