{
  "contractName": "SaftToken",
  "abi": [
    {
      "constant": true,
      "inputs": [],
      "name": "mintingFinished",
      "outputs": [
        {
          "name": "",
          "type": "bool"
        }
      ],
      "payable": false,
      "stateMutability": "view",
      "type": "function"
    },
    {
      "constant": true,
      "inputs": [],
      "name": "name",
      "outputs": [
        {
          "name": "",
          "type": "string"
        }
      ],
      "payable": false,
      "stateMutability": "view",
      "type": "function"
    },
    {
      "constant": false,
      "inputs": [
        {
          "name": "_spender",
          "type": "address"
        },
        {
          "name": "_value",
          "type": "uint256"
        }
      ],
      "name": "approve",
      "outputs": [
        {
          "name": "",
          "type": "bool"
        }
      ],
      "payable": false,
      "stateMutability": "nonpayable",
      "type": "function"
    },
    {
      "constant": true,
      "inputs": [],
      "name": "totalSupply",
      "outputs": [
        {
          "name": "",
          "type": "uint256"
        }
      ],
      "payable": false,
      "stateMutability": "view",
      "type": "function"
    },
    {
      "constant": false,
      "inputs": [
        {
          "name": "_from",
          "type": "address"
        },
        {
          "name": "_to",
          "type": "address"
        },
        {
          "name": "_value",
          "type": "uint256"
        }
      ],
      "name": "transferFrom",
      "outputs": [
        {
          "name": "",
          "type": "bool"
        }
      ],
      "payable": false,
      "stateMutability": "nonpayable",
      "type": "function"
    },
    {
      "constant": true,
      "inputs": [],
      "name": "decimals",
      "outputs": [
        {
          "name": "",
          "type": "uint8"
        }
      ],
      "payable": false,
      "stateMutability": "view",
      "type": "function"
    },
    {
      "constant": false,
      "inputs": [
        {
          "name": "_to",
          "type": "address"
        },
        {
          "name": "_amount",
          "type": "uint256"
        }
      ],
      "name": "mint",
      "outputs": [
        {
          "name": "",
          "type": "bool"
        }
      ],
      "payable": false,
      "stateMutability": "nonpayable",
      "type": "function"
    },
    {
      "constant": true,
      "inputs": [
        {
          "name": "_owner",
          "type": "address"
        }
      ],
      "name": "balanceOf",
      "outputs": [
        {
          "name": "balance",
          "type": "uint256"
        }
      ],
      "payable": false,
      "stateMutability": "view",
      "type": "function"
    },
    {
      "constant": false,
      "inputs": [],
      "name": "finishMinting",
      "outputs": [
        {
          "name": "",
          "type": "bool"
        }
      ],
      "payable": false,
      "stateMutability": "nonpayable",
      "type": "function"
    },
    {
      "constant": true,
      "inputs": [],
      "name": "owner",
      "outputs": [
        {
          "name": "",
          "type": "address"
        }
      ],
      "payable": false,
      "stateMutability": "view",
      "type": "function"
    },
    {
      "constant": true,
      "inputs": [],
      "name": "symbol",
      "outputs": [
        {
          "name": "",
          "type": "string"
        }
      ],
      "payable": false,
      "stateMutability": "view",
      "type": "function"
    },
    {
      "constant": false,
      "inputs": [
        {
          "name": "_to",
          "type": "address"
        },
        {
          "name": "_value",
          "type": "uint256"
        }
      ],
      "name": "transfer",
      "outputs": [
        {
          "name": "",
          "type": "bool"
        }
      ],
      "payable": false,
      "stateMutability": "nonpayable",
      "type": "function"
    },
    {
      "constant": true,
      "inputs": [
        {
          "name": "_owner",
          "type": "address"
        },
        {
          "name": "_spender",
          "type": "address"
        }
      ],
      "name": "allowance",
      "outputs": [
        {
          "name": "remaining",
          "type": "uint256"
        }
      ],
      "payable": false,
      "stateMutability": "view",
      "type": "function"
    },
    {
      "constant": false,
      "inputs": [
        {
          "name": "newOwner",
          "type": "address"
        }
      ],
      "name": "transferOwnership",
      "outputs": [],
      "payable": false,
      "stateMutability": "nonpayable",
      "type": "function"
    },
    {
      "anonymous": false,
      "inputs": [
        {
          "indexed": true,
          "name": "to",
          "type": "address"
        },
        {
          "indexed": false,
          "name": "amount",
          "type": "uint256"
        }
      ],
      "name": "Mint",
      "type": "event"
    },
    {
      "anonymous": false,
      "inputs": [],
      "name": "MintFinished",
      "type": "event"
    },
    {
      "anonymous": false,
      "inputs": [
        {
          "indexed": true,
          "name": "owner",
          "type": "address"
        },
        {
          "indexed": true,
          "name": "spender",
          "type": "address"
        },
        {
          "indexed": false,
          "name": "value",
          "type": "uint256"
        }
      ],
      "name": "Approval",
      "type": "event"
    },
    {
      "anonymous": false,
      "inputs": [
        {
          "indexed": true,
          "name": "from",
          "type": "address"
        },
        {
          "indexed": true,
          "name": "to",
          "type": "address"
        },
        {
          "indexed": false,
          "name": "value",
          "type": "uint256"
        }
      ],
      "name": "Transfer",
      "type": "event"
    }
  ],
  "bytecode": "0x606060405260038054600160a860020a03191633600160a060020a03161790556108908061002e6000396000f3006060604052600436106100cf5763ffffffff7c010000000000000000000000000000000000000000000000000000000060003504166305d2035b81146100d457806306fdde03146100fb578063095ea7b31461018557806318160ddd146101a757806323b872dd146101cc578063313ce567146101f457806340c10f191461021d57806370a082311461023f5780637d64bcb41461025e5780638da5cb5b1461027157806395d89b41146102a0578063a9059cbb146102b3578063dd62ed3e146102d5578063f2fde38b146102fa575b600080fd5b34156100df57600080fd5b6100e761031b565b604051901515815260200160405180910390f35b341561010657600080fd5b61010e61033c565b60405160208082528190810183818151815260200191508051906020019080838360005b8381101561014a578082015183820152602001610132565b50505050905090810190601f1680156101775780820380516001836020036101000a031916815260200191505b509250505060405180910390f35b341561019057600080fd5b6100e7600160a060020a0360043516602435610373565b34156101b257600080fd5b6101ba610419565b60405190815260200160405180910390f35b34156101d757600080fd5b6100e7600160a060020a036004358116906024351660443561041f565b34156101ff57600080fd5b610207610532565b60405160ff909116815260200160405180910390f35b341561022857600080fd5b6100e7600160a060020a0360043516602435610537565b341561024a57600080fd5b6101ba600160a060020a0360043516610616565b341561026957600080fd5b6100e7610631565b341561027c57600080fd5b6102846106b6565b604051600160a060020a03909116815260200160405180910390f35b34156102ab57600080fd5b61010e6106c5565b34156102be57600080fd5b6100e7600160a060020a03600435166024356106fc565b34156102e057600080fd5b6101ba600160a060020a03600435811690602435166107bb565b341561030557600080fd5b610319600160a060020a03600435166107e6565b005b60035474010000000000000000000000000000000000000000900460ff1681565b60408051908101604052601381527f44414f537461636b205361667420546f6b656e00000000000000000000000000602082015281565b60008115806103a55750600160a060020a03338116600090815260026020908152604080832093871683529290522054155b15156103b057600080fd5b600160a060020a03338116600081815260026020908152604080832094881680845294909152908190208590557f8c5be1e5ebec7d5bd14f71427d1e84f3dd0314c0f7b2291e5b200ac8c7c3b9259085905190815260200160405180910390a350600192915050565b60005481565b600160a060020a038084166000908152600260209081526040808320338516845282528083205493861683526001909152812054909190610466908463ffffffff61083c16565b600160a060020a03808616600090815260016020526040808220939093559087168152205461049b908463ffffffff61085216565b600160a060020a0386166000908152600160205260409020556104c4818463ffffffff61085216565b600160a060020a03808716600081815260026020908152604080832033861684529091529081902093909355908616917fddf252ad1be2c89b69c2b068fc378daa952ba7f163c4a11628f55a4df523b3ef9086905190815260200160405180910390a3506001949350505050565b601281565b60035460009033600160a060020a0390811691161461055557600080fd5b60035474010000000000000000000000000000000000000000900460ff161561057d57600080fd5b600054610590908363ffffffff61083c16565b6000908155600160a060020a0384168152600160205260409020546105bb908363ffffffff61083c16565b600160a060020a0384166000818152600160205260409081902092909255907f0f6798a560793a54c3bcfe86a93cde1e73087d944c0ea20544137d41213968859084905190815260200160405180910390a250600192915050565b600160a060020a031660009081526001602052604090205490565b60035460009033600160a060020a0390811691161461064f57600080fd5b6003805474ff00000000000000000000000000000000000000001916740100000000000000000000000000000000000000001790557fae5184fba832cb2b1f702aca6117b8d265eaf03ad33eb133f19dde0f5920fa0860405160405180910390a150600190565b600354600160a060020a031681565b60408051908101604052600381527f4453540000000000000000000000000000000000000000000000000000000000602082015281565b600160a060020a033316600090815260016020526040812054610725908363ffffffff61085216565b600160a060020a03338116600090815260016020526040808220939093559085168152205461075a908363ffffffff61083c16565b600160a060020a0380851660008181526001602052604090819020939093559133909116907fddf252ad1be2c89b69c2b068fc378daa952ba7f163c4a11628f55a4df523b3ef9085905190815260200160405180910390a350600192915050565b600160a060020a03918216600090815260026020908152604080832093909416825291909152205490565b60035433600160a060020a0390811691161461080157600080fd5b600160a060020a03811615610839576003805473ffffffffffffffffffffffffffffffffffffffff1916600160a060020a0383161790555b50565b60008282018381101561084b57fe5b9392505050565b60008282111561085e57fe5b509003905600a165627a7a72305820765f115b7ade64d9e9acc4472c788307dfbcdf382c9f6955c34215c8f561ddf80029",
  "source": "pragma solidity ^0.4.18;\n\nimport \"zeppelin-solidity/contracts/crowdsale/CappedCrowdsale.sol\";\nimport \"zeppelin-solidity/contracts/token/MintableToken.sol\";\n\n/**\n * @title SaftToken\n * @dev Very simple ERC20 Token that can be minted.\n * It is meant to be used in a crowdsale contract.\n */\ncontract SaftToken is MintableToken {\n  string public constant name = \"DAOStack Saft Token\";\n  string public constant symbol = \"DST\";\n  uint8 public constant decimals = 18;\n}\n\n/**\n * @title SaftTokenSale\n * @dev The DAOStack SAFT token sale.\n */\ncontract SaftTokenSale is CappedCrowdsale {\n\n  function SaftTokenSale(uint256 _startTime, uint256 _endTime, uint256 _rate, uint256 _cap, address _wallet)\n    public\n    CappedCrowdsale(_cap)\n    Crowdsale(_startTime, _endTime, _rate, _wallet)\n  {\n\n  }\n\n  function createTokenContract() internal returns (MintableToken) {\n    return new SaftToken();\n  }\n\n}\n",
  "sourcePath": "/Users/tibet/Dev/Emergence/daostack/contracts/other/SaftTokenSale.sol",
  "compiler": {
    "name": "solc",
    "version": "0.4.18+commit.9cf6e910.Emscripten.clang"
  },
  "schemaVersion": "1.0.1",
  "updatedAt": "2017-11-22T00:50:28.594Z"
}