{
  "contractName": "SimpleContributionScheme",
  "abi": [
    {
      "constant": true,
      "inputs": [
        {
          "name": "",
          "type": "bytes32"
        }
      ],
      "name": "parameters",
      "outputs": [
        {
          "name": "orgNativeTokenFee",
          "type": "uint256"
        },
        {
          "name": "voteApproveParams",
          "type": "bytes32"
        },
        {
          "name": "schemeNativeTokenFee",
          "type": "uint256"
        },
        {
          "name": "intVote",
          "type": "address"
        }
      ],
      "payable": false,
      "stateMutability": "view",
      "type": "function"
    },
    {
      "constant": false,
      "inputs": [
        {
          "name": "_proposalId",
          "type": "bytes32"
        },
        {
          "name": "_avatar",
          "type": "address"
        },
        {
          "name": "_param",
          "type": "int256"
        }
      ],
      "name": "execute",
      "outputs": [
        {
          "name": "",
          "type": "bool"
        }
      ],
      "payable": false,
      "stateMutability": "nonpayable",
      "type": "function"
    },
    {
      "constant": true,
      "inputs": [],
      "name": "beneficiary",
      "outputs": [
        {
          "name": "",
          "type": "address"
        }
      ],
      "payable": false,
      "stateMutability": "view",
      "type": "function"
    },
    {
      "constant": false,
      "inputs": [
        {
          "name": "_nativeToken",
          "type": "address"
        },
        {
          "name": "_fee",
          "type": "uint256"
        },
        {
          "name": "_beneficiary",
          "type": "address"
        },
        {
          "name": "_hashedParameters",
          "type": "bytes32"
        }
      ],
      "name": "updateParameters",
      "outputs": [],
      "payable": false,
      "stateMutability": "nonpayable",
      "type": "function"
    },
    {
      "constant": true,
      "inputs": [
        {
          "name": "",
          "type": "address"
        }
      ],
      "name": "organizations",
      "outputs": [
        {
          "name": "isRegistered",
          "type": "bool"
        }
      ],
      "payable": false,
      "stateMutability": "view",
      "type": "function"
    },
    {
      "constant": false,
      "inputs": [
        {
          "name": "_avatar",
          "type": "address"
        },
        {
          "name": "_contributionDesciption",
          "type": "string"
        },
        {
          "name": "_nativeTokenReward",
          "type": "uint256"
        },
        {
          "name": "_reputationReward",
          "type": "uint256"
        },
        {
          "name": "_ethReward",
          "type": "uint256"
        },
        {
          "name": "_externalToken",
          "type": "address"
        },
        {
          "name": "_externalTokenReward",
          "type": "uint256"
        },
        {
          "name": "_beneficiary",
          "type": "address"
        }
      ],
      "name": "submitContribution",
      "outputs": [
        {
          "name": "",
          "type": "bytes32"
        }
      ],
      "payable": false,
      "stateMutability": "nonpayable",
      "type": "function"
    },
    {
      "constant": true,
      "inputs": [],
      "name": "owner",
      "outputs": [
        {
          "name": "",
          "type": "address"
        }
      ],
      "payable": false,
      "stateMutability": "view",
      "type": "function"
    },
    {
      "constant": false,
      "inputs": [
        {
          "name": "_avatar",
          "type": "address"
        }
      ],
      "name": "registerOrganization",
      "outputs": [],
      "payable": false,
      "stateMutability": "nonpayable",
      "type": "function"
    },
    {
      "constant": true,
      "inputs": [
        {
          "name": "_orgNativeTokenFee",
          "type": "uint256"
        },
        {
          "name": "_schemeNativeTokenFee",
          "type": "uint256"
        },
        {
          "name": "_voteApproveParams",
          "type": "bytes32"
        },
        {
          "name": "_intVote",
          "type": "address"
        }
      ],
      "name": "getParametersHash",
      "outputs": [
        {
          "name": "",
          "type": "bytes32"
        }
      ],
      "payable": false,
      "stateMutability": "pure",
      "type": "function"
    },
    {
      "constant": false,
      "inputs": [
        {
          "name": "_orgNativeTokenFee",
          "type": "uint256"
        },
        {
          "name": "_schemeNativeTokenFee",
          "type": "uint256"
        },
        {
          "name": "_voteApproveParams",
          "type": "bytes32"
        },
        {
          "name": "_intVote",
          "type": "address"
        }
      ],
      "name": "setParameters",
      "outputs": [
        {
          "name": "",
          "type": "bytes32"
        }
      ],
      "payable": false,
      "stateMutability": "nonpayable",
      "type": "function"
    },
    {
      "constant": true,
      "inputs": [
        {
          "name": "_avatar",
          "type": "address"
        }
      ],
      "name": "isRegistered",
      "outputs": [
        {
          "name": "",
          "type": "bool"
        }
      ],
      "payable": false,
      "stateMutability": "view",
      "type": "function"
    },
    {
      "constant": true,
      "inputs": [],
      "name": "fee",
      "outputs": [
        {
          "name": "",
          "type": "uint256"
        }
      ],
      "payable": false,
      "stateMutability": "view",
      "type": "function"
    },
    {
      "constant": true,
      "inputs": [],
      "name": "nativeToken",
      "outputs": [
        {
          "name": "",
          "type": "address"
        }
      ],
      "payable": false,
      "stateMutability": "view",
      "type": "function"
    },
    {
      "constant": false,
      "inputs": [
        {
          "name": "newOwner",
          "type": "address"
        }
      ],
      "name": "transferOwnership",
      "outputs": [],
      "payable": false,
      "stateMutability": "nonpayable",
      "type": "function"
    },
    {
      "constant": true,
      "inputs": [],
      "name": "hashedParameters",
      "outputs": [
        {
          "name": "",
          "type": "bytes32"
        }
      ],
      "payable": false,
      "stateMutability": "view",
      "type": "function"
    },
    {
      "inputs": [
        {
          "name": "_nativeToken",
          "type": "address"
        },
        {
          "name": "_fee",
          "type": "uint256"
        },
        {
          "name": "_beneficiary",
          "type": "address"
        }
      ],
      "payable": false,
      "stateMutability": "nonpayable",
      "type": "constructor"
    },
    {
      "anonymous": false,
      "inputs": [
        {
          "indexed": true,
          "name": "_avatar",
          "type": "address"
        },
        {
          "indexed": true,
          "name": "_proposalId",
          "type": "bytes32"
        },
        {
          "indexed": true,
          "name": "_intVoteInterface",
          "type": "address"
        },
        {
          "indexed": false,
          "name": "_contributionDesciption",
          "type": "string"
        },
        {
          "indexed": false,
          "name": "_nativeTokenReward",
          "type": "uint256"
        },
        {
          "indexed": false,
          "name": "_reputationReward",
          "type": "uint256"
        },
        {
          "indexed": false,
          "name": "_ethReward",
          "type": "uint256"
        },
        {
          "indexed": false,
          "name": "_externalToken",
          "type": "address"
        },
        {
          "indexed": false,
          "name": "_externalTokenReward",
          "type": "uint256"
        },
        {
          "indexed": false,
          "name": "_beneficiary",
          "type": "address"
        }
      ],
      "name": "LogNewContributionProposal",
      "type": "event"
    },
    {
      "anonymous": false,
      "inputs": [
        {
          "indexed": true,
          "name": "_avatar",
          "type": "address"
        },
        {
          "indexed": true,
          "name": "_proposalId",
          "type": "bytes32"
        }
      ],
      "name": "LogProposalExecuted",
      "type": "event"
    },
    {
      "anonymous": false,
      "inputs": [
        {
          "indexed": true,
          "name": "_avatar",
          "type": "address"
        },
        {
          "indexed": true,
          "name": "_proposalId",
          "type": "bytes32"
        }
      ],
      "name": "LogProposalDeleted",
      "type": "event"
    },
    {
      "anonymous": false,
      "inputs": [
        {
          "indexed": false,
          "name": "_avatar",
          "type": "address"
        }
      ],
      "name": "LogOrgRegistered",
      "type": "event"
    },
    {
      "anonymous": false,
      "inputs": [
        {
          "indexed": false,
          "name": "proposalId",
          "type": "bytes32"
        }
      ],
      "name": "LogNewProposal",
      "type": "event"
    }
  ],
  "bytecode": "0x6060604052341561000f57600080fd5b60405160608061133583398101604052808051919060200180519190602001805160008054600160a060020a03191633600160a060020a031617815590925061006b915084908490849064010000000061007381026108711704565b5050506100c6565b60005433600160a060020a0390811691161461008e57600080fd5b60018054600160a060020a0319908116600160a060020a03968716179091556002939093556003805490931691909316179055600455565b611260806100d56000396000f3006060604052600436106100c15763ffffffff60e060020a6000350416630250680481146100c6578063310ce4e21461011057806338af3eed146101495780634345a610146101785780635a1f7406146101a65780637d58e68d146101c55780638da5cb5b1461026057806390be003c1461027357806399c0bef514610292578063b8961d32146102ba578063c3c5a547146102e2578063ddca3f4314610301578063e1758bd814610314578063f2fde38b14610327578063f98e87ba14610346575b600080fd5b34156100d157600080fd5b6100dc600435610359565b6040519384526020840192909252604080840191909152600160a060020a0390911660608301526080909101905180910390f35b341561011b57600080fd5b610135600435600160a060020a0360243516604435610389565b604051901515815260200160405180910390f35b341561015457600080fd5b61015c610862565b604051600160a060020a03909116815260200160405180910390f35b341561018357600080fd5b6101a4600160a060020a036004358116906024359060443516606435610871565b005b34156101b157600080fd5b610135600160a060020a03600435166108c4565b34156101d057600080fd5b61024e60048035600160a060020a03169060446024803590810190830135806020601f82018190048102016040519081016040528181529291906020840183838082843750949650508435946020810135945060408101359350600160a060020a036060820135811693506080820135925060a090910135166108d9565b60405190815260200160405180910390f35b341561026b57600080fd5b61015c610e6c565b341561027e57600080fd5b6101a4600160a060020a0360043516610e7b565b341561029d57600080fd5b61024e600435602435604435600160a060020a0360643516610fb5565b34156102c557600080fd5b61024e600435602435604435600160a060020a0360643516611007565b34156102ed57600080fd5b610135600160a060020a0360043516611060565b341561030c57600080fd5b61024e61107e565b341561031f57600080fd5b61015c611084565b341561033257600080fd5b6101a4600160a060020a0360043516611093565b341561035157600080fd5b61024e6110dc565b600660205260009081526040902080546001820154600283015460039093015491929091600160a060020a031684565b60006103936111bf565b600033600160a060020a0316600660006103ac886110e2565b8152602081019190915260400160002060030154600160a060020a0316146103d357600080fd5b6001841461047857600160a060020a03851660008181526005602081815260408084208b855260019081019092528084208481559182018490556002820184905560038201849055600482018054600160a060020a031990811690915592820193909355600601805490911690558791907fb5a530776d05e9cd7b304c6670fc54c08de4635c6c958237204d61215ca1ce34905160405180910390a360019250610859565b600160a060020a0385166000908152600560209081526040808320898452600101909152908190209060e0905190810160409081528254825260018301546020830152600283015481830152600383015460608301526004830154600160a060020a039081166080840152600584015460a0840152600690930154831660c083015290935090861690638da5cb5b9060009051602001526040518163ffffffff1660e060020a028152600401602060405180830381600087803b151561053d57600080fd5b6102c65a03f1151561054e57600080fd5b5050506040518051915050600160a060020a0381166318e236e460408401518460c0015160006040516020015260405160e060020a63ffffffff85160281526004810192909252600160a060020a03166024820152604401602060405180830381600087803b15156105bf57600080fd5b6102c65a03f115156105d057600080fd5b5050506040518051905015156105e557600080fd5b80600160a060020a03166310c5b32883602001518460c0015160006040516020015260405160e060020a63ffffffff85160281526004810192909252600160a060020a03166024820152604401602060405180830381600087803b151561064b57600080fd5b6102c65a03f1151561065c57600080fd5b50505060405180519050151561067157600080fd5b80600160a060020a031663cb16d4a283606001518460c0015160006040516020015260405160e060020a63ffffffff85160281526004810192909252600160a060020a03166024820152604401602060405180830381600087803b15156106d757600080fd5b6102c65a03f115156106e857600080fd5b5050506040518051905015156106fd57600080fd5b60006080830151600160a060020a03161415801561071f575060008260a00151115b156107c05780600160a060020a031663dab0efff83608001518460c001518560a0015160006040516020015260405160e060020a63ffffffff8616028152600160a060020a0393841660048201529190921660248201526044810191909152606401602060405180830381600087803b151561079a57600080fd5b6102c65a03f115156107ab57600080fd5b5050506040518051905015156107c057600080fd5b600160a060020a03851660008181526005602081815260408084208b855260019081019092528084208481559182018490556002820184905560038201849055600482018054600160a060020a031990811690915592820193909355600601805490911690558791907f1f9b6fe94f8389fd9936094c2246b3cb2b4392e59e72e915e70e6a08a47a1fb9905160405180910390a3600192505b50509392505050565b600354600160a060020a031681565b60005433600160a060020a0390811691161461088c57600080fd5b60018054600160a060020a0319908116600160a060020a03968716179091556002939093556003805490931691909316179055600455565b60056020526000908152604090205460ff1681565b60006108e36111fb565b60006108ed6111bf565b600160a060020a038c1660009081526005602052604090205460ff16151561091457600080fd5b600660006109218e6110e2565b8152602081019190915260409081016000209060809051908101604090815282548252600183015460208301526002830154908201908152600390920154600160a060020a031660608201529350600090511115610a60578b600160a060020a031663e1758bd86000604051602001526040518163ffffffff1660e060020a028152600401602060405180830381600087803b15156109bf57600080fd5b6102c65a03f115156109d057600080fd5b5050506040518051600160a060020a031690506323b872dd338e865160006040516020015260405160e060020a63ffffffff8616028152600160a060020a0393841660048201529190921660248201526044810191909152606401602060405180830381600087803b1515610a4457600080fd5b6102c65a03f11515610a5557600080fd5b505050604051805150505b600083604001511115610af957600154600160a060020a03166323b872dd338e604087015160006040516020015260405160e060020a63ffffffff8616028152600160a060020a0393841660048201529190921660248201526044810191909152606401602060405180830381600087803b1515610add57600080fd5b6102c65a03f11515610aee57600080fd5b505050604051805150505b8260600151600160a060020a03166388737b5e600285602001518f3060006040516020015260405160e060020a63ffffffff871602815260048101949094526024840192909252600160a060020a039081166044840152166064820152608401602060405180830381600087803b1515610b7257600080fd5b6102c65a03f11515610b8357600080fd5b5050506040518051925050600160a060020a0385161515610ba2573394505b60e0604051908101604052808c6040518082805190602001908083835b60208310610bde5780518252601f199092019160209182019101610bbf565b6001836020036101000a0380198251168184511617909252505050919091019250604091505051908190039020815260208082018d905260408083018d9052606083018c9052600160a060020a03808c16608085015260a084018b905289811660c090940193909352918f16600090815260058252828120868252600101909152209091508190815181556020820151816001015560408201518160020155606082015181600301556080820151600482018054600160a060020a031916600160a060020a039290921691909117905560a0820151816005015560c08201516006919091018054600160a060020a031916600160a060020a03909216919091179055506060830151600160a060020a031682600019168d600160a060020a03167f3a471a4c5c8709a445562696800221c9b5d43b4c82b00c850134c15cecef7b468e8e8e8e8e8e8e604051602081018790526040810186905260608101859052600160a060020a03808516608083015260a08201849052821660c082015260e08082528190810189818151815260200191508051906020019080838360005b83811015610d95578082015183820152602001610d7d565b50505050905090810190601f168015610dc25780820380516001836020036101000a031916815260200191505b509850505050505050505060405180910390a48260600151600160a060020a031663339e23d18360013360006040516020015260405160e060020a63ffffffff861602815260048101939093526024830191909152600160a060020a03166044820152606401602060405180830381600087803b1515610e4157600080fd5b6102c65a03f11515610e5257600080fd5b505050604051805150919c9b505050505050505050505050565b600054600160a060020a031681565b610e83611222565b6000600254118015610eae5750600160a060020a03821660009081526005602052604090205460ff16155b15610f4757600154600354600254600160a060020a03928316926323b872dd92869291169060006040516020015260405160e060020a63ffffffff8616028152600160a060020a0393841660048201529190921660248201526044810191909152606401602060405180830381600087803b1515610f2b57600080fd5b6102c65a03f11515610f3c57600080fd5b505050604051805150505b60018152600160a060020a038216600090815260056020526040902081908151815460ff1916901515179055507fe9db4686ffcf478f0c9aa617f5d4f8ad2672b75414d7bea26368c6f65fb418df82604051600160a060020a03909116815260200160405180910390a15050565b6000828585846040519384526020840192909252604080840191909152600160a060020a039091166c010000000000000000000000000260608301526074909101905180910390209050949350505050565b60008061101686868686610fb5565b600081815260066020526040902096875560028701959095555050600184019190915560039092018054600160a060020a031916600160a060020a03939093169290921790915590565b600160a060020a031660009081526005602052604090205460ff1690565b60025481565b600154600160a060020a031681565b60005433600160a060020a039081169116146110ae57600080fd5b600160a060020a038116156110d95760008054600160a060020a031916600160a060020a0383161790555b50565b60045481565b60008082600160a060020a0316638da5cb5b6000604051602001526040518163ffffffff1660e060020a028152600401602060405180830381600087803b151561112b57600080fd5b6102c65a03f1151561113c57600080fd5b5050506040518051915050600160a060020a0381166346e361b73060006040516020015260405160e060020a63ffffffff8416028152600160a060020a039091166004820152602401602060405180830381600087803b151561119e57600080fd5b6102c65a03f115156111af57600080fd5b5050506040518051949350505050565b60e06040519081016040908152600080835260208301819052908201819052606082018190526080820181905260a0820181905260c082015290565b60806040519081016040908152600080835260208301819052908201819052606082015290565b602060405190810160405260008152905600a165627a7a723058206b6f803a398faeb9af8732982184c285d428f79204f4eef938ecf697def018930029",
  "source": "pragma solidity ^0.4.18;\n\nimport \"../VotingMachines/IntVoteInterface.sol\";\nimport \"./UniversalScheme.sol\";\n\n/**\n * @title A scheme for proposing and rewarding contributions to an organization\n * @dev An agent can ask an organization to recognize a contribution and reward\n * him with token, reputation, ether or any combination.\n */\n\ncontract SimpleContributionScheme is UniversalScheme {\n  event LogNewContributionProposal(\n    address indexed _avatar,\n    bytes32 indexed _proposalId,\n    address indexed _intVoteInterface,\n    string _contributionDesciption,\n    uint _nativeTokenReward,\n    uint _reputationReward,\n    uint _ethReward,\n    StandardToken _externalToken,\n    uint _externalTokenReward,\n    address _beneficiary\n  );\n  event LogProposalExecuted(address indexed _avatar, bytes32 indexed _proposalId);\n  event LogProposalDeleted(address indexed _avatar, bytes32 indexed _proposalId);\n\n  // A struct holding the data for a contribution proposal\n  struct ContributionProposal {\n    bytes32 contributionDescriptionHash; // Hash of contributtion document.\n    uint nativeTokenReward; // Reward asked in the native token of the organization.\n    uint reputationReward; // Organization reputation reward requested.\n    uint ethReward;\n    StandardToken externalToken;\n    uint externalTokenReward;\n    address beneficiary;\n  }\n\n  // Struct holding the data for each organization\n  struct Organization {\n    bool isRegistered;\n    mapping(bytes32=>ContributionProposal) proposals;\n  }\n\n  // A mapping from thr organization (Avatar) address to the saved data of the organization:\n  mapping(address=>Organization) public organizations;\n\n  // A mapping from hashes to parameters (use to store a particular configuration on the controller)\n  struct Parameters {\n    uint orgNativeTokenFee; // a fee (in the organization's token) that is to be paid for submitting a contribution\n    bytes32 voteApproveParams;\n    uint schemeNativeTokenFee; // a fee (in the present schemes token)  that is to be paid for submission\n    IntVoteInterface intVote;\n  }\n      // A contibution fee can be in the organization token or the scheme token or a combination\n  mapping(bytes32=>Parameters) public parameters;\n\n  /**\n   * @dev the constructor takes a token address, fee and beneficiary\n   */\n  function SimpleContributionScheme(StandardToken _nativeToken, uint _fee, address _beneficiary) public {\n    updateParameters(_nativeToken, _fee, _beneficiary, bytes32(0));\n  }\n\n  /**\n   * @dev hash the parameters, save them if necessary, and return the hash value\n   */\n  function setParameters(\n    uint _orgNativeTokenFee,\n    uint _schemeNativeTokenFee,\n    bytes32 _voteApproveParams,\n    IntVoteInterface _intVote\n  ) public returns(bytes32)\n  {\n    bytes32 paramsHash = getParametersHash(\n      _orgNativeTokenFee,\n      _schemeNativeTokenFee,\n      _voteApproveParams,\n      _intVote\n    );\n    parameters[paramsHash].orgNativeTokenFee = _orgNativeTokenFee;\n    parameters[paramsHash].schemeNativeTokenFee = _schemeNativeTokenFee;\n    parameters[paramsHash].voteApproveParams = _voteApproveParams;\n    parameters[paramsHash].intVote = _intVote;\n    return paramsHash;\n  }\n\n  /**\n   * @dev return a hash of the given parameters\n   * @param _orgNativeTokenFee the fee for submitting a contribution in organizations native token\n   * @param _schemeNativeTokenFee the fee for submitting a contribution if paied in schemes native token\n   * @param _voteApproveParams parameters for the voting machine used to approve a contribution\n   * @param _intVote the voting machine used to approve a contribution\n   * @return a hash of the parameters\n   */\n  // TODO: These fees are messy. Better to have a _fee and _feeToken pair, just as in some other contract (which one?) with some sane default\n  function getParametersHash(\n    uint _orgNativeTokenFee,\n    uint _schemeNativeTokenFee,\n    bytes32 _voteApproveParams,\n    IntVoteInterface _intVote\n  ) public pure returns(bytes32)\n  {\n    return (keccak256(_voteApproveParams, _orgNativeTokenFee, _schemeNativeTokenFee, _intVote));\n  }\n\n  function registerOrganization(Avatar _avatar) public {\n    // Pay fees for using scheme\n    if ((fee > 0) && (!organizations[_avatar].isRegistered)) {\n      nativeToken.transferFrom(_avatar, beneficiary, fee);\n    }\n\n    // TODO: should we check if the current registrar is registered already on the controller?\n    /*require(checkParameterHashMatch(_avatar, _voteRegisterParams, _voteRemoveParams, _intVote));*/\n\n    // update the organization in the organizations mapping\n    Organization memory org;\n    org.isRegistered = true;\n    organizations[_avatar] = org;\n    LogOrgRegistered(_avatar);\n  }\n\n  /**\n   * @dev Submit a proposal for a reward for a contribution:\n   * @param _avatar Avatar of the organization that the contribution was made for\n   * @param _contributionDesciption A description of the contribution\n   * @param _nativeTokenReward The amount of tokens requested\n   * @param _reputationReward The amount of rewards requested\n   * @param _ethReward Amount of ETH requested\n   * @param _externalToken Address of external token, if reward is requested there\n   * @param _externalTokenReward Amount of extenral tokens requested\n   * @param _beneficiary Who gets the rewards\n   */\n  function submitContribution(\n    Avatar _avatar,\n    string _contributionDesciption,\n    uint _nativeTokenReward,\n    uint _reputationReward,\n    uint _ethReward,\n    StandardToken _externalToken,\n    uint _externalTokenReward,\n    address _beneficiary\n  ) public returns(bytes32)\n  {\n    require(organizations[_avatar].isRegistered);\n\n    Parameters memory controllerParams = parameters[getParametersFromController(_avatar)];\n\n    // Pay fees for submitting the contribution:\n    if (controllerParams.schemeNativeTokenFee > 0) {\n      _avatar.nativeToken().transferFrom(msg.sender, _avatar, controllerParams.orgNativeTokenFee);\n    }\n    if (controllerParams.schemeNativeTokenFee > 0) {\n      nativeToken.transferFrom(msg.sender, _avatar, controllerParams.schemeNativeTokenFee);\n    }\n\n    bytes32 contributionId = controllerParams.intVote.propose(2, controllerParams.voteApproveParams, _avatar, ExecutableInterface(this));\n\n    // Check beneficiary is not null:\n    if (_beneficiary == address(0)) {\n      _beneficiary = msg.sender;\n    }\n\n    // Set the struct:\n    ContributionProposal memory proposal = ContributionProposal({\n      contributionDescriptionHash: keccak256(_contributionDesciption),\n      nativeTokenReward: _nativeTokenReward,\n      reputationReward: _reputationReward,\n      ethReward: _ethReward,\n      externalToken: _externalToken,\n      externalTokenReward: _externalTokenReward,\n      beneficiary: _beneficiary\n    });\n    organizations[_avatar].proposals[contributionId] = proposal;\n\n    LogNewContributionProposal(_avatar,\n      contributionId,\n      controllerParams.intVote,\n      _contributionDesciption,\n      _nativeTokenReward,\n      _reputationReward,\n      _ethReward,\n      _externalToken,\n      _externalTokenReward,\n      _beneficiary\n    );\n\n    // vote for this proposal\n    controllerParams.intVote.ownerVote(contributionId, 1, msg.sender); // Automatically votes `yes` in the name of the opener.\n    return contributionId;\n  }\n\n  /**\n   * @dev execution of proposals, can only be called by the voting machine in which the vote is held.\n   * @param _proposalId the ID of the voting in the voting machine\n   * @param _avatar address of the controller\n   * @param _param a parameter of the voting result, 0 is no and 1 is yes.\n   */\n  function execute(bytes32 _proposalId, address _avatar, int _param) public returns(bool) {\n    // Check the caller is indeed the voting machine:\n    require(parameters[getParametersFromController(Avatar(_avatar))].intVote == msg.sender);\n    // Check if vote was successful:\n    if (_param != 1) {\n      delete organizations[_avatar].proposals[_proposalId];\n      LogProposalDeleted(_avatar, _proposalId);\n      return true;\n    }\n\n    // Define controller and get the parmas:\n    ContributionProposal memory proposal = organizations[_avatar].proposals[_proposalId];\n\n    // pay the funds:\n    Controller controller = Controller(Avatar(_avatar).owner());\n    if (!controller.mintReputation(int(proposal.reputationReward), proposal.beneficiary)) {\n      revert();\n    }\n    if (!controller.mintTokens(proposal.nativeTokenReward, proposal.beneficiary)) {\n      revert();\n    }\n    if (!controller.sendEther(proposal.ethReward, proposal.beneficiary)) {\n      revert();\n    }\n\n    if (proposal.externalToken != address(0) && proposal.externalTokenReward > 0) {\n      if (!controller.externalTokenTransfer(proposal.externalToken, proposal.beneficiary, proposal.externalTokenReward)) {\n        revert();\n      }\n    }\n    delete organizations[_avatar].proposals[_proposalId];\n    LogProposalExecuted(_avatar, _proposalId);\n    return true;\n  }\n\n  function isRegistered(address _avatar) public constant returns(bool) {\n    return organizations[_avatar].isRegistered;\n  }\n\n}\n",
  "sourcePath": "/Users/tibet/Dev/Emergence/daostack/contracts/universalSchemes/SimpleContributionScheme.sol",
  "compiler": {
    "name": "solc",
    "version": "0.4.18+commit.9cf6e910.Emscripten.clang"
  },
  "schemaVersion": "1.0.1",
  "updatedAt": "2017-11-22T00:50:28.603Z"
}