{
  "contractName": "UniversalScheme",
  "abi": [
    {
      "constant": true,
      "inputs": [],
      "name": "beneficiary",
      "outputs": [
        {
          "name": "",
          "type": "address"
        }
      ],
      "payable": false,
      "stateMutability": "view",
      "type": "function"
    },
    {
      "constant": false,
      "inputs": [
        {
          "name": "_nativeToken",
          "type": "address"
        },
        {
          "name": "_fee",
          "type": "uint256"
        },
        {
          "name": "_beneficiary",
          "type": "address"
        },
        {
          "name": "_hashedParameters",
          "type": "bytes32"
        }
      ],
      "name": "updateParameters",
      "outputs": [],
      "payable": false,
      "stateMutability": "nonpayable",
      "type": "function"
    },
    {
      "constant": true,
      "inputs": [
        {
          "name": "",
          "type": "address"
        }
      ],
      "name": "organizations",
      "outputs": [
        {
          "name": "",
          "type": "bool"
        }
      ],
      "payable": false,
      "stateMutability": "view",
      "type": "function"
    },
    {
      "constant": true,
      "inputs": [],
      "name": "owner",
      "outputs": [
        {
          "name": "",
          "type": "address"
        }
      ],
      "payable": false,
      "stateMutability": "view",
      "type": "function"
    },
    {
      "constant": false,
      "inputs": [
        {
          "name": "_avatar",
          "type": "address"
        }
      ],
      "name": "registerOrganization",
      "outputs": [],
      "payable": false,
      "stateMutability": "nonpayable",
      "type": "function"
    },
    {
      "constant": true,
      "inputs": [
        {
          "name": "_avatar",
          "type": "address"
        }
      ],
      "name": "isRegistered",
      "outputs": [
        {
          "name": "",
          "type": "bool"
        }
      ],
      "payable": false,
      "stateMutability": "view",
      "type": "function"
    },
    {
      "constant": true,
      "inputs": [],
      "name": "fee",
      "outputs": [
        {
          "name": "",
          "type": "uint256"
        }
      ],
      "payable": false,
      "stateMutability": "view",
      "type": "function"
    },
    {
      "constant": true,
      "inputs": [],
      "name": "nativeToken",
      "outputs": [
        {
          "name": "",
          "type": "address"
        }
      ],
      "payable": false,
      "stateMutability": "view",
      "type": "function"
    },
    {
      "constant": false,
      "inputs": [
        {
          "name": "newOwner",
          "type": "address"
        }
      ],
      "name": "transferOwnership",
      "outputs": [],
      "payable": false,
      "stateMutability": "nonpayable",
      "type": "function"
    },
    {
      "constant": true,
      "inputs": [],
      "name": "hashedParameters",
      "outputs": [
        {
          "name": "",
          "type": "bytes32"
        }
      ],
      "payable": false,
      "stateMutability": "view",
      "type": "function"
    },
    {
      "anonymous": false,
      "inputs": [
        {
          "indexed": false,
          "name": "_avatar",
          "type": "address"
        }
      ],
      "name": "OrganizationRegistered",
      "type": "event"
    },
    {
      "anonymous": false,
      "inputs": [
        {
          "indexed": false,
          "name": "proposalId",
          "type": "bytes32"
        }
      ],
      "name": "LogNewProposal",
      "type": "event"
    },
    {
      "anonymous": false,
      "inputs": [
        {
          "indexed": true,
          "name": "previousOwner",
          "type": "address"
        },
        {
          "indexed": true,
          "name": "newOwner",
          "type": "address"
        }
      ],
      "name": "OwnershipTransferred",
      "type": "event"
    }
  ],
  "bytecode": "0x606060405260008054600160a060020a033316600160a060020a03199091161790556104c8806100306000396000f3006060604052600436106100a35763ffffffff7c010000000000000000000000000000000000000000000000000000000060003504166338af3eed81146100a85780634345a610146100d75780635a1f7406146101055780638da5cb5b1461013857806390be003c1461014b578063c3c5a5471461016a578063ddca3f4314610189578063e1758bd8146101ae578063f2fde38b146101c1578063f98e87ba146101e0575b600080fd5b34156100b357600080fd5b6100bb6101f3565b604051600160a060020a03909116815260200160405180910390f35b34156100e257600080fd5b610103600160a060020a036004358116906024359060443516606435610202565b005b341561011057600080fd5b610124600160a060020a0360043516610262565b604051901515815260200160405180910390f35b341561014357600080fd5b6100bb610277565b341561015657600080fd5b610103600160a060020a0360043516610286565b341561017557600080fd5b610124600160a060020a03600435166103c8565b341561019457600080fd5b61019c6103e6565b60405190815260200160405180910390f35b34156101b957600080fd5b6100bb6103ec565b34156101cc57600080fd5b610103600160a060020a03600435166103fb565b34156101eb57600080fd5b61019c610496565b600354600160a060020a031681565b60005433600160a060020a0390811691161461021d57600080fd5b6001805473ffffffffffffffffffffffffffffffffffffffff19908116600160a060020a03968716179091556002939093556003805490931691909316179055600455565b60056020526000908152604090205460ff1681565b600054600160a060020a031681565b60006002541180156102b15750600160a060020a03811660009081526005602052604090205460ff16155b1561036357600154600354600254600160a060020a03928316926323b872dd9285929116906000604051602001526040517c010000000000000000000000000000000000000000000000000000000063ffffffff8616028152600160a060020a0393841660048201529190921660248201526044810191909152606401602060405180830381600087803b151561034757600080fd5b6102c65a03f1151561035857600080fd5b505050604051805150505b600160a060020a03811660009081526005602052604090819020805460ff191660011790557f2178e9c576507a4c15d3deab489af3f699a3dedbff9a7ef27c43a017027710e590829051600160a060020a03909116815260200160405180910390a150565b600160a060020a031660009081526005602052604090205460ff1690565b60025481565b600154600160a060020a031681565b60005433600160a060020a0390811691161461041657600080fd5b600160a060020a038116151561042b57600080fd5b600054600160a060020a0380831691167f8be0079c531659141344cd1fd0a4f28419497f9722a3daafe3b4186f6b6457e060405160405180910390a36000805473ffffffffffffffffffffffffffffffffffffffff1916600160a060020a0392909216919091179055565b600454815600a165627a7a7230582071c900cc47dad11daea13b285b0a63f9ab58e903048331f364bce6d3c996743e0029",
  "source": "pragma solidity ^0.4.15;\n\nimport \"./UniversalSchemeInterface.sol\";\nimport \"../controller/Controller.sol\";\nimport \"../controller/Avatar.sol\";\nimport \"zeppelin-solidity/contracts/ownership/Ownable.sol\";\nimport \"zeppelin-solidity/contracts/token/StandardToken.sol\";\n\n\ncontract UniversalScheme is Ownable, UniversalSchemeInterface { //\n    StandardToken public nativeToken;\n    uint public fee;\n    address public beneficiary;\n    bytes32 public hashedParameters; // For other parameters.\n\n    // A mapping from the organization (Avatar) address to the rergistration boolean\n    mapping(address=>bool) public organizations;\n\n    event OrganizationRegistered (address _avatar);\n    event LogNewProposal(bytes32 proposalId);\n\n    modifier onlyRegisteredOrganization(address avatar) {\n        require(organizations[avatar]);\n        _;\n    }\n\n    function registerOrganization(Avatar _avatar) public {\n        // Pay fees for using scheme:\n        if ((fee > 0) && (! organizations[_avatar])) {\n            nativeToken.transferFrom(_avatar, beneficiary, fee);\n        }\n        organizations[_avatar] = true;\n        OrganizationRegistered(_avatar);\n    }\n\n    function isRegistered(address _avatar) public constant returns(bool) {\n        return organizations[_avatar];\n    }\n\n    function updateParameters(\n        StandardToken _nativeToken,\n        uint _fee,\n        address _beneficiary,\n        bytes32 _hashedParameters\n    )\n        public\n        onlyOwner\n    {\n        nativeToken = _nativeToken;\n        fee = _fee;\n        beneficiary = _beneficiary;\n        hashedParameters = _hashedParameters;\n    }\n\n    /**\n    *  @dev get the parameters for the current scheme from the controller\n    */\n    function getParametersFromController(Avatar _avatar) internal constant returns(bytes32) {\n        Controller controller = Controller(_avatar.owner());\n        return controller.getSchemeParameters(this);\n    }\n\n}\n",
  "sourcePath": "/Users/tibet/Dev/Emergence/daostack/contracts/universalSchemes/UniversalScheme.sol",
  "compiler": {
    "name": "solc",
    "version": "0.4.18+commit.9cf6e910.Emscripten.clang"
  },
  "schemaVersion": "1.0.1",
  "updatedAt": "2018-01-04T22:14:02.773Z"
}